:100000000C947A000C94A2000C94A2000C94960319
:100010000C9496030C9496030C94A2000C94A200EA
:100020000C94A2000C94A2000C94A2000C94A200C8
:100030000C94A2000C94A2000C94A2000C94A200B8
:100040000C944C030C94A2000C941A030C94F4022C
:100050000C94A2000C94A2000C94A2000C94A20098
:100060000C94A2000C94A200084AD73B3BCE016E30
:1000700084BCBFFDC12F3D6C74319ABD56833DDAFF
:100080003D00C77F11BED9E4BB4C3E916BAAAABE0E
:10009000000000803F000000000800020100000393
:1000A0000407000000000000000000000000230022
:1000B0002600290000000000240027002A0000007C
:1000C0000000250028002B00040404040404040498
:1000D00002020202020203030303030301020408F3
:1000E00010204080010204081020010204081020A2
:1000F0005A04830E11241FBECFEFD8E0DEBFCDBF60
:1001000012E0A0E0B1E0E0E8F5E202C005900D9257
:10011000AC33B107D9F725E0ACE3B2E001C01D92E2
:10012000A739B207E1F710E0C9E7D0E004C0219792
:10013000FE010E948A12C837D107C9F70E944605FE
:100140000C94B3120C940000DF92EF92FF920F9385
:100150001F93CF93DF93C82FD62FD72EF42E8091E5
:10016000D4049091D504DC01ED91FC910190F081D3
:10017000E02D64E209958091D4049091D504DC01CE
:10018000ED91FC910190F081E02D6DE40995809155
:10019000D4049091D504DC01ED91FC910190F081A3
:1001A000E02D6CE309958091D4049091D504DC0195
:1001B000ED91FC910190F081E02D6F2D09958091DA
:1001C000D4049091D504DC01ED91FC910190F08173
:1001D000E02D6C2F0995CF25ED2E0D2F1D2DF8014B
:1001E00061918F01C6278091D4049091D504DC01E0
:1001F000ED91FC910190F081E02D0995802F8E19F1
:100200008F1568F38091D4049091D504DC01ED91B1
:10021000FC910190F081E02D6C2FDF91CF911F9127
:100220000F91FF90EF90DF900994AF92BF92CF9221
:10023000DF92EF92FF920F931F93CF93DF936C01A6
:100240007B018B01040F151FEB015E01AE18BF0887
:10025000C017D10759F06991D601ED91FC91019039
:10026000F081E02DC6010995892B79F7C501DF9151
:10027000CF911F910F91FF90EF90DF90CF90BF90A3
:10028000AF900895FC01538D448D252F30E0842FCD
:1002900090E0821B930B541710F0CF9608950197AE
:1002A0000895FC01918D828D981761F0A28DAE0F9B
:1002B000BF2FB11D5D968C91928D9F5F9F73928F22
:1002C00090E008958FEF9FEF0895FC01918D828D4E
:1002D000981731F0828DE80FF11D858D90E008951B
:1002E0008FEF9FEF0895FC01918D228D892F90E073
:1002F000805C9F4F821B91098F73992708958AED27
:1003000094E00E94730121E0892B09F420E0822F00
:10031000089580E090E0892B29F00E947F018111EF
:100320000C9400000895FC01A48DA80FB92FB11DF5
:10033000A35ABF4F2C91848D90E001968F7399271B
:10034000848FA689B7892C93A089B1898C918370F9
:1003500080648C93938D848D981306C00288F389F2
:10036000E02D80818F7D80830895EF92FF920F931F
:100370001F93CF93DF93EC0181E0888F9B8D8C8D51
:1003800098131AC0E889F989808185FF15C09FB745
:10039000F894EE89FF896083E889F9898081837008
:1003A000806480839FBF81E090E0DF91CF911F91B7
:1003B0000F91FF90EF900895F62E0B8D10E00F5FD8
:1003C0001F4F0F731127E02E8C8D8E110CC00FB6AE
:1003D00007FCFACFE889F989808185FFF5CFCE0146
:1003E0000E949301F1CFEB8DEC0FFD2FF11DE35A2D
:1003F000FF4FF0829FB7F8940B8FEA89FB898081C9
:100400008062CFCFCF93DF93EC01888D8823B9F042
:10041000AA89BB89E889F9898C9185FD03C080810F
:1004200086FD0DC00FB607FCF7CF8C9185FFF2CF8C
:10043000808185FFEDCFCE010E949301E9CFDF914E
:10044000CF910895209183023091840228173907B3
:1004500071F49091810280918202981741F0E091AD
:100460008102F0E0E45CFD4F808190E008958FEF21
:100470009FEF08950895EF92FF920F931F93CF93EC
:10048000DF93DC015C96ED90FC905D97E114F10444
:1004900079F481E090E013969C938E93129790E00C
:1004A00080E0DF91CF911F910F91FF90EF90089521
:1004B0005196ED91FC91529750968C915097982FB0
:1004C00090950FB75E962C915E97122F127021FDBA
:1004D0006095F8942081112319F1282B2083E701DE
:1004E0002197F1F728E0462F50E0308160FF1AC0D5
:1004F000382B3083E7012197F1F7BA01759567959D
:10050000215089F7112381F08081892380830FBFD7
:100510005C968D919C910197F1F781E090E0C1CFBD
:100520002923DCCF3923E5CF9081892BEFCF209190
:100530008302309184022817390771F48091820276
:100540002091810290E0805C9F4F821B910960E4C2
:1005500070E00E947612089590E080E00895209166
:1005600083023091840228173907B9F490918102EF
:1005700080918202981789F0E0918102F0E0E45CBA
:10058000FD4F80812091810230E02F5F3F4F2F731C
:1005900033272093810290E008958FEF9FEF089515
:1005A00090E080E00895FB019081892790E1899F88
:1005B00090011124822790E0382F2227AC0163E0BC
:1005C000440F551F6A95E1F724273527418150E0F4
:1005D0002427352774E0959587957A95E1F782274A
:1005E00093279183808308951F920F920FB60F92E5
:1005F00011242F933F934F935F936F937F938F9328
:100600009F93AF93BF93EF93FF938AED94E00E9483
:100610009301FF91EF91BF91AF919F918F917F9146
:100620006F915F914F913F912F910F900FBE0F905F
:100630001F9018951F920F920FB60F9211242F93AF
:100640008F939F93EF93FF93E091EA04F091EB0473
:100650008081E091F004F091F10482FD1BC0908153
:100660008091F3048F5F8F732091F404821741F01F
:10067000E091F304F0E0E652FB4F958F8093F30492
:10068000FF91EF919F918F912F910F900FBE0F903F
:100690001F9018958081F4CF1F920F920FB60F9282
:1006A00011242F933F938F939F93AF93BF93809188
:1006B000B5049091B604A091B704B091B8043091FC
:1006C000800223E0230F2D3758F50196A11DB11D9F
:1006D000209380028093B5049093B604A093B7044E
:1006E000B093B80480917C0290917D02A0917E022B
:1006F000B0917F020196A11DB11D80937C02909361
:100700007D02A0937E02B0937F02BF91AF919F9133
:100710008F913F912F910F900FBE0F901F901895C2
:1007200026E8230F0296A11DB11DD2CF1F920F9272
:100730000FB60F9211242F933F934F935F936F93B4
:100740007F938F939F93AF93BF93EF93FF93E0912A
:100750008302F0918402309749F0A685B78585859C
:10076000968D91FF14C09C918923A1F4FF91EF9184
:10077000BF91AF919F918F917F916F915F914F91B9
:100780003F912F910F900FBE0F901F9018959C9145
:10079000892361F7A389B4899C91858980958923F0
:1007A0008C93868997890197F1F7608D718DA68565
:1007B000B785558538E020E0CB010197F1F7822F0E
:1007C00090E095958795282F4C91452309F0206856
:1007D000315091F7868D81FD20958091820290E0C5
:1007E00001968F73992730918102381799F0A09163
:1007F0008202B0E0A45CBD4F2C9380938202828D74
:10080000938D0197F1F7A389B4898C919589892BF0
:100810008C93ACCF868D8160868FF1CF90E0FC0108
:10082000EA56FF4F2491FC01E452FF4F3491FC0142
:10083000E853FF4FE491EE23C9F0222339F023302F
:1008400001F1A8F4213019F1223029F1F0E0EE0F86
:10085000FF1FE254FF4FA591B4918FB7F894EC912C
:10086000611126C030953E233C938FBF08952730F9
:10087000A9F02830C9F0243049F7809180008F7D9D
:1008800003C0809180008F7780938000DFCF84B594
:100890008F7784BDDBCF84B58F7DFBCF8091B00097
:1008A0008F778093B000D2CF8091B0008F7DF9CF49
:1008B0003E2BDACF0F931F93CF93DF931092DD047B
:1008C0001092DC0488EE93E0A0E0B0E08093DE04B8
:1008D0009093DF04A093E004B093E1042CE132E0B4
:1008E0003093DB042093DA0425EC30E03093E70406
:1008F0002093E60424EC30E03093E9042093E804EC
:1009000020EC30E03093EB042093EA0421EC30E05B
:100910003093ED042093EC0422EC30E03093EF04AC
:100920002093EE0426EC30E03093F1042093F004A1
:100930001092F3041092F4041092F5041092F6044D
:1009400010927B0510927A0580937C0590937D052B
:10095000A0937E05B0937F058EE292E09093790597
:100960008093780510928F0510928E051092910554
:100970001092900510929305109292051092950591
:1009800010929405609196056E7F6D7F6093960539
:100990006695617081E0682789E00E940E0445EE4B
:1009A00050E0FA01649181ED90E0FC012491222352
:1009B00099F030E0220F331FF901EC54FF4FA5915D
:1009C000B491F901E254FF4F259134912FB7F89477
:1009D0003C91632B6C932FBFFA014491409388059F
:1009E000FC018491E82FF0E0EE0FFF1FE254FF4F6F
:1009F0008591949190938A058093890504EE10E087
:100A0000F8012491C0EDD0E0FE0184918823C9F063
:100A100090E0880F991FFC01EC54FF4FA591B49111
:100A2000FC01E254FF4F459154913FB7F8949C91DB
:100A3000822F809598239C93FA019081892380834B
:100A40003FBF8091960581FD04C061E088E00E946F
:100A50000E0488E080938405F801049100938505D5
:100A6000FE01C491EC2FF0E0EE0FFF1FE655FF4FA3
:100A70008591949190938705809386058CE380936C
:100A80007705DF91CF911F910F910895CF93DF9359
:100A9000CDB7DEB7C354D2400FB6F894DEBF0FBE59
:100AA000CDBF789484B5826084BD84B5816084BDF7
:100AB00085B5826085BD85B5816085BD80916E00FC
:100AC000816080936E00109281008091810082602D
:100AD000809381008091810081608093810080916A
:100AE00080008160809380008091B1008460809359
:100AF000B1008091B00081608093B00080917A0055
:100B0000846080937A0080917A00826080937A007A
:100B100080917A00816080937A0080917A00806869
:100B200080937A001092C100E091EA04F091EB0406
:100B300082E08083E091E604F091E7041082E09186
:100B4000E804F091E90480E180831092F204E091DE
:100B5000EE04F091EF0486E08083E091EC04F091E4
:100B6000ED04808180618083E091EC04F091ED04DC
:100B7000808188608083E091EC04F091ED048081B5
:100B800080688083E091EC04F091ED0480818F7D9A
:100B900080838AED94E09093D5048093D40484EF0D
:100BA00091E0A0E0B0E08093D6049093D704A093A6
:100BB000D804B093D9041092930510929205109224
:100BC00091051092900510928F0510928E0582E487
:100BD00090E09093950580939405909184059631CB
:100BE00008F047C02FE030E030938F0520938E054A
:100BF00020E430E0309391052093900527E230E027
:100C000030939305209392052091680084E09830FA
:100C100048F031E09E3008F430E081E001C0880FF8
:100C20003A95EAF7822B809368002DE630E0983001
:100C300050F02BE630E09E3030F02CE630E096317C
:100C400010F030E020E030938C0520938B05292FA5
:100C500030E0983008F0BFC081E001C0880F9A955D
:100C6000EAF780938D058091940590919505019701
:100C7000F1F78091920590919305892B49F1E091CC
:100C80008302F091840225E0E837F20709F13097FA
:100C900039F0A389B4899C918589809589238C93A7
:100CA000809196058E7F8093960510928202109215
:100CB000810288E795E09093840280938302E0911B
:100CC0008B05F0918C05808190918D05892B808317
:100CD00046EA50E04C0F5D1F4E5F5F4FCE5BDD4F2D
:100CE00059834883C254D2408091D3049091CE045A
:100CF00020910501309104014091CF045091D0041E
:100D00006091D1047091D204C255DF4F488359835A
:100D10006A837B83CE5AD040CE54DF4F3883C25B88
:100D2000D040CD54DF4F2883C35BD040CC54DF4F3D
:100D30009883C45BD040CB54DF4F8883C55BD040E1
:100D400083E0CA54DF4F8883C65BD040C355DF4F72
:100D50001882CD5AD0408EEFC855DF4F8883C85ACD
:100D6000D04089E0C755DF4F8883C95AD04087EC0F
:100D7000C555DF4F8883CB5AD04082E3C455DF4F3F
:100D80008883CC5AD04080918C02C655DF4F88832F
:100D9000CA5AD0408F5F80938C028FEF9FEF9A8367
:100DA000898306EA10E00C0F1D1F0D5F1F4FE6EA56
:100DB000EE2EF12CEC0EFD1E51E1E50EF11CBE01F4
:100DC0006F5F7F4FE016F10699F0D8018D918D018C
:100DD0000E94D302F4CF9E3040F42850310981E0C4
:100DE00001C0880F2A95EAF73CCF2E503109F7CF82
:100DF00082E30E94D30299818A81C755DF4FE8813F
:100E0000C95AD0402EEA30E02C0F3D1F2E0F311D65
:100E1000F9019083C755DF4FE881C95AD0404FEAA6
:100E200050E04C0F5D1F4E0F511DFA018083C755D6
:100E3000DF4F0881C95AD04010E0085F1F4FA8015A
:100E4000CE5BDD4F68817981C254D240CE018E578E
:100E50009E4F0E9490122FB7F8948091B504909104
:100E6000B604A091B704B091B8042FBF2091CC0470
:100E70003091CD04FC01E21BF30B9F01283E33406F
:100E800008F4ADC09093CD048093CC04A801BE01BA
:100E90006E577E4F88E795E00E9415018091770597
:100EA0008F5F809377058C3308F499C086E0E6E085
:100EB000F1E0DE01A250BE4F01900D928A95E1F75C
:100EC0008CE0ECE0F1E0DE01A251BE4F01900D920A
:100ED0008A95E1F78E0102511E4F9E0122503E4F2E
:100EE000190128013CE0430E511C9924939442E4DB
:100EF000842E5EEF752E66E0662EAA24AA94BA2C84
:100F00006E014FE0C40ED11CD8012D913D918D0191
:100F1000F10181911F013A8729879B861C868D8765
:100F20009E8688867B826C82F2E0FE8388EC8F83CB
:100F300080918C028D838F5F80938C02C65FDD4F22
:100F4000B982A882CA50D2407E0124E0E20EF11C90
:100F5000BE01665F7D4FCE14DF0431F0D7018D9165
:100F60007D010E94D302F4CF84E90E94D302C65FC0
:100F7000DD4F9881CA50D240C55FDD4F8881CB508C
:100F8000D240EC8129E030E02C0F3D1F2E0F311DA7
:100F9000F9019083EC814AE050E04C0F5D1F4E0F49
:100FA000511DFA018083EC80F12C58E0E50EF11C14
:100FB000A701BE016D5F7F4FCE018A5E9E4F0E94EA
:100FC0009012A701BE016A5E7E4F88E795E00E94FD
:100FD00015014016510609F097CF1092770501E0F0
:100FE00010E092E0E92EF12CCC24CA94DC2C38E0FD
:100FF000632E712C88E795E00E9497021816190657
:101000000CF0C5C188E795E00E94AF02B82E10929F
:101010008502E0918802F0918902EA30F10508F03A
:101020003AC0EB5EF74F0C948A121F081F082F0876
:101030008A087D089708A408BA08CE08F7088EEF3A
:10104000B81229C0F0928902E09288021092B80288
:10105000B092B702D092B602C092B5021CC094E61C
:101060009B1550F4809186028F5F809386021093C7
:101070008902009388020FC0B092B80210928A02CF
:1010800065EB72E08B2D0E94D302A4E0B0E0B09338
:101090008902A093880220918502213099F48091E1
:1010A000B90280938B0280918D0290918E020097FD
:1010B00021F41092900210928F02019690938E026A
:1010C00080938D0210928702222309F493CFC15C92
:1010D000DD4F3881CF53D240313209F4F9C008F0E6
:1010E000BDC0313009F4D8C008F438C1383109F036
:1010F00081CF8EA180937F047DCF8093B90265EB71
:1011000072E00E94D302E3E0F0E0F0938902E09302
:101110008802C1CF8093BA0265EB72E00E94D302CD
:1011200025E030E03093890220938802B4CF809389
:10113000BB0265EB72E00E94D30246E050E05093A0
:10114000890240938802A7CF8093BC0265EB72E0CE
:101150000E94D3028091B802811105C07092890269
:101160006092880298CF87E090E090938902809304
:10117000880291CFE0918A02AA24A394AE0EA09295
:101180008A02F0E0E354FD4F808365EB72E00E9439
:10119000D3028091B802A8127ECFE0CFE091BC02CA
:1011A000F0E0E85EFE4F65EB72E080810E94D302C2
:1011B0008091B5029091B6029927B816190651F0A0
:1011C0009EEFB91254CFF0928902E09288021092F9
:1011D000B80240CFA9E0B0E0B0938902A0938802A2
:1011E000E0918A02F0E0E354FD4FB08254CFB09119
:1011F000B602C05CDD4FB883C054D240CF5BDD4F38
:101200001882C154D240C05CDD4FE881F981C054DE
:10121000D2408E171F0621F0FEEF8F1328CFD3CFB9
:1012200081E0809385021093890200938802E09107
:101230008A02F0E0E254FD4FB08280E7E5EBF2E095
:10124000DE01119601900D928A95E1F72091BC0282
:10125000C15CDD4F2883CF53D2401DCFC15CDD4F31
:101260004881CF53D240413309F45FC04A3419F169
:10127000433209F0BFCE2E8D30E0AFEFB3E00E94D5
:1012800039102FEF30E040E050E00E94F80F30932B
:10129000890420938804AECE298D3A8D8F89988D4C
:1012A00064E670E00E94621260938A043093C9047D
:1012B0002093C8049FCE8D859E85AF85B889809385
:1012C0008B0490938C04A0938D04B0938E0492CEE3
:1012D0002D843E844F84588889889A88AB88BC883E
:1012E000698D7A8D8B8D9C8D2BA13CA130937A04D6
:1012F0002093790428EE33E040E050E00E94F80F9C
:101300003093900420938F042092840430928504BB
:1013100040928604509287048092800490928104C7
:10132000A0928204B092830465CE8D859E85AF85A0
:10133000B88949855A856B857C854093BA0450935A
:10134000BB046093BC047093BD04809375049093B8
:101350007604A0937704B09378044CCE49855A85DF
:101360006B857C852D859E8588893F853093CE044D
:1013700020930401909305014093CF045093D0042F
:101380006093D1047093D2048093D30433CE2FB7EB
:10139000F8948091B5049091B604A091B704B091EF
:1013A000B8042FBF2091CA043091CB04FC01E21B8A
:1013B000F30BE83CF10508F494C39093CB048093BD
:1013C000CA048091BA049091BB04A091BC04B0916E
:1013D000BD040097A105B10509F4CDC38090750443
:1013E00090907604A0907704B090780481149104D2
:1013F000A104B10409F4BFC30091840410918504D1
:101400002091860430918704BC01CD01601B710BD3
:10141000820B930B0E94DB0E6B017C018091800498
:1014200090918104A0918204B0918304A50194015C
:10143000281B390B4A0B5B0BCA01B9010E94DB0E5A
:10144000209100013091010140910201509103016E
:101450000E943A0F2B013C01A7019601C701B6017A
:101460000E943A0F4B015C01A3019201C301B2013A
:101470000E943A0F9B01AC01C501B4010E944910C2
:101480000E9409122CE23DE74EE85FE30E943A0F0A
:101490000E94A0114B015C01C701B6019058A30145
:1014A00092010E94C81020EA3CE043EB55E40E9400
:1014B0003A0F20E030EA4CE056E40E9449100E94C6
:1014C00099116B017C01F7FE06C030EAC30E3CE8BF
:1014D000D31EE11CF11C84E6482E512C612C712C8A
:1014E000C501B401A30192010E94171030937E043C
:1014F00020937D04C701B601A30192010E94F80F59
:1015000030937C0420937B048091CE0487FF3CC3FE
:1015100081E090E0A0E0B0E0C55EDD4F8883998374
:10152000AA83BB83CB51D240CC50DE4F88839983B2
:10153000AA83BB83C45FD14004E0C45CDD4F088351
:10154000CC53D24081E0C35CDD4F8883CD53D24081
:10155000C25CDD4F8883CE53D24043E0BE01645C61
:101560007D4F83E00E94A4001AE0EBEAF4E0DF0183
:10157000212F1D922A95E9F7E1EAF4E0DF01212FFE
:101580001D922A95E9F7E5E9F4E08CE0DF011D9270
:101590008A95E9F7109294041092930481E4809361
:1015A000950480E28093910483E5809392044AE05D
:1015B0006BEA74E080918F04909190040E949F0EDA
:1015C00026E636E646E650E460918B0470918C0482
:1015D00080918D0490918E040E943A0F0E94A01178
:1015E000CB014AE061EA74E00E949F0E6BEA74E06E
:1015F00085E994E00E94991261E974E085E994E03C
:101600000E94991261EA74E085E994E00E949912BF
:101610004CE050E065E974E0CE0182509E4F0E949C
:10162000A4124CE0BE0162507E4F8AE00E94A400EA
:101630004BE0BE016B5E7D4F85E60E94A400809169
:101640008A04C65DDD4F8883CA52D24080918804E7
:1016500090918904C35DDD4F99838883CD52D24038
:101660008091C8049091C904C15DDD4F998388833E
:10167000CF52D2408091BE049091BF04C55DDD4F32
:1016800099838883CB52D24047E0BE01665D7D4F8F
:101690008EE60E94A4008091C8049091C904C05FA6
:1016A000DD4F99838883C051D24080918A0490E0B5
:1016B000CD5EDD4F99838883C351D2408091BE04B3
:1016C0009091BF04C25FDD4F99838883CE50D24092
:1016D000C65FDD4F0883CA50D24080E594E1C55F04
:1016E000DD4F99838883CB50D24088EAC35FDD4FBA
:1016F0008883CD50D240CE5EDD4F1882C251D24099
:101700004BE0BE01665F7D4F82E80E94A40040E18D
:10171000BE0162517E4F86E90E94A400809184043C
:1017200090918504A0918604B0918704C85EDE4F35
:1017300088839983AA83BB83C851D1408091800458
:1017400090918104A0918204B0918304C45EDE4F25
:1017500088839983AA83BB83CC51D14080917F0435
:10176000C95EDE4F8883C751D14042E1BE016A5E47
:101770007E4F8AE60E94A40080917D0490917E04B1
:10178000C95CDD4F99838883C753D24080917B0425
:1017900090917C04C75CDD4F99838883C953D24004
:1017A00045E0BE01695C7D4F8BE60E94A4008091FC
:1017B0007D0490917E04893EB3E09B070CF4F5C153
:1017C00064E670E00E947612CD5CDD4F7983688319
:1017D000C353D2408091790490917A0464E670E01A
:1017E0000E94621280917B0490917C04861B970B6F
:1017F0004AE0489F9001499F300D1124CF5CDD4F96
:1018000039832883C153D24046E0BE016F5C7D4FCF
:101810008CE60E94A400C05EDD4F188219821A82F5
:101820001B82C052D2404AE0BE01605E7D4F8DE611
:101830000E94A40088E3888788E1EE968FAFEE9738
:1018400082E090E0CA56DF4F99838883C659D04022
:1018500080E1C256DF4F8883CE59D04081E0CD551C
:10186000DF4F8883C35AD040CC55DF4F8883C45A9A
:10187000D040CB55DF4F1882C55AD04084E098E065
:101880009C878B8787E198E09E878D878AEE90E022
:10189000988B8F879A8B898B9C8B8B8B9E8B8D8B58
:1018A000988F8F8B9A8F898F21EC39E03C8F2B8F0B
:1018B0009E8F8D8F98A38F8F27E338E03AA329A3BB
:1018C00028E538E03CA32BA39EA38DA321EA39E0B1
:1018D00038A72FA39AA789A79CA78BA79EA78DA7F8
:1018E00098AB8FA79AAB89AB9CAB8BAB9EAB8DAB08
:1018F00098AF8FAB21E438E03AAF29AF21E238E06E
:101900003CAF2BAF9EAF8DAF28EB39E021963FAFB8
:101910002EAF219728E939E023963FAF2EAF2397CA
:1019200025969FAF8EAF259727969FAF8EAF2797AF
:1019300029969FAF8EAF29972B969FAF8EAF2B978F
:101940002D969FAF8EAF2D972F969FAF8EAF2F976F
:1019500061969FAF8EAF619763969FAF8EAF63978F
:1019600065969FAF8EAF659767969FAF8EAF67976F
:1019700069969FAF8EAF69976B969FAF8EAF6B974F
:101980006D969FAF8EAF6D976F969FAF8EAF6F972F
:10199000A1969FAF8EAFA197A3969FAF8EAFA3974F
:1019A000A5969FAF8EAFA597A7969FAF8EAFA7972F
:1019B000A9969FAF8EAFA997AB969FAF8EAFAB970F
:1019C000AD969FAF8EAFAD97AF969FAF8EAFAF97EF
:1019D000E1969FAF8EAFE197E3969FAF8EAFE3970F
:1019E000E5969FAF8EAFE597E7969FAF8EAFE797EF
:1019F000E9969FAF8EAFE997EB969FAF8EAFEB97CF
:101A0000ED969FAF8EAFED9745EABE016F5F7F4FBA
:101A100084E50E94A4006091C8047091C904072E57
:101A2000000C880B990B0E94DB0E20E030E040E2B6
:101A300051E40E943A0F6B017C012FB7F89460913A
:101A4000B5047091B6048091B7049091B8042FBF8B
:101A50000E94D90E2091C4043091C5044091C6045F
:101A60005091C7040E944810A70196010E943A0FA6
:101A700020E03AEB4BE55AE40E9427112DE73FE3C3
:101A800045E95FE30E943A0F2091C0043091C10400
:101A90004091C2045091C3040E9449106093C00455
:101AA0007093C1048093C2049093C3040E94A01158
:101AB0007093BF046093BE042FB7F8946091B5048F
:101AC0007091B6048091B7049091B8042FBF0E9422
:101AD000D90E6093C4047093C5048093C604909398
:101AE000C7046091BA047091BB048091BC049091CA
:101AF000BD04611571058105910509F4D8C02091D7
:101B0000B9042111D4C00E94DB0E9F7720E836E98A
:101B100048E15BE40E94271125E33AEF4EE85CE3DD
:101B20000E943A0F2BED3FE049EC5FE30E94491021
:101B30006B017C010E949911605E7F4F8F4F9F4F18
:101B4000613471058105910508F0D9C02BED3FE0A6
:101B500049E450E4C701B6010E94F61118168CF54D
:101B60002BED3FE049EC50E4C701B6010E9448105C
:101B70006B017C01EBCF10927E0410927D041092D9
:101B80007C0410927B04C0CCC55EDD4F18821982A4
:101B90001A821B82CB51D240CC50DE4F1882198260
:101BA0001A821B82C45FD140C7CC189F9001199F35
:101BB000300D1124CD5CDD4F39832883C353D240CF
:101BC00009CE2BED3FE049E450ECC701B6010E947D
:101BD000D40E87FF0BC02BED3FE049EC50E4C7016A
:101BE000B6010E9449106B017C01EBCF2BED3FE069
:101BF00049EC5FE3C701B6010E94F61118160CF01C
:101C000065C02BED3FE049EC5FE3C701B6010E94E0
:101C100048109B01AC016BED7FE089EC9FE30E94D3
:101C200048106B017C01A7019601C701B6010E9413
:101C30003A0F4B015C0120E030E0A9010E943A0F0D
:101C400022E937EE41E459E30E944810A5019401CE
:101C50000E943A0F27E930E348E05CE30E94491014
:101C6000A50194010E943A0F25E138EA4AE25EE3B9
:101C70000E9448102B013C01A5019401C701B60147
:101C80000E943A0F9B01AC01C301B2010E943A0FBE
:101C9000A70196010E944910609300017093010111
:101CA000809302019093030181E08093B90480E066
:101CB00090E0892B09F418C80E947F01882311F451
:101CC0000C9474060E9400000C9474062BED3FE007
:101CD00049EC5FEBC701B6010E94D40E87FFA3CF8A
:101CE0002BED3FE049EC5FE3C701B6010E944910CC
:101CF0009B01AC016BED7FE089EC9FEB90CF60E046
:101D000070E0CB01C9CF8EE292E090937905809389
:101D1000780580918302909184028857954071F4F0
:101D2000E0918B05F0918C05908180918D058095D7
:101D30008923808310928402109283020895BB2726
:101D40004A3031F4992322F4BDE2909581959F4F5A
:101D50000C94AB0EBB27FB015527AA27880F991FB0
:101D6000AA1FA41710F0A41B83955051B9F7A05DCA
:101D7000AA3308F0A95DA193009779F7B111B19347
:101D80001192CB010C94C40EDC01FC01672F719100
:101D90007723E1F7329704C07C916D937083629151
:101DA000AE17BF07C8F308950E94160F08F481E02C
:101DB0000895E89409C097FB3EF49095809570953E
:101DC00061957F4F8F4F9F4F9923A9F0F92F96E987
:101DD000BB279395F695879577956795B795F111FC
:101DE000F8CFFAF4BB0F11F460FF1BC06F5F7F4F99
:101DF0008F4F9F4F16C0882311F096E911C07723AB
:101E000021F09EE8872F762F05C0662371F096E8B3
:101E1000862F70E060E02AF09A95660F771F881F82
:101E2000DAF7880F9695879597F90895990F000826
:101E3000550FAA0BE0E8FEEF16161706E807F9079C
:101E4000C0F012161306E407F50798F0621B730B37
:101E5000840B950B39F40A2661F0232B242B252BB8
:101E600021F408950A2609F4A140A6958FEF811D5B
:101E7000811D08950E944D0F0C94BE0F0E94B00F5B
:101E800038F00E94B70F20F0952311F00C94A70FA3
:101E90000C94AD0F11240C94F20F0E94CF0F70F32D
:101EA000959FC1F3950F50E0551F629FF001729FFF
:101EB000BB27F00DB11D639FAA27F00DB11DAA1F0E
:101EC000649F6627B00DA11D661F829F2227B00D5B
:101ED000A11D621F739FB00DA11D621F839FA00DE6
:101EE000611D221F749F3327A00D611D231F849F36
:101EF000600D211D822F762F6A2F11249F5750408D
:101F00009AF0F1F088234AF0EE0FFF1FBB1F661F07
:101F1000771F881F91505040A9F79E3F510580F0D0
:101F20000C94A70F0C94F20F5F3FE4F3983ED4F3A8
:101F3000869577956795B795F795E7959F5FC1F774
:101F4000FE2B880F911D9695879597F9089597F91F
:101F50009F6780E870E060E008959FEF80EC08954F
:101F600000240A9416161706180609060895002478
:101F70000A9412161306140605060895092E0394F2
:101F8000000C11F4882352F0BB0F40F4BF2B11F466
:101F900060FF04C06F5F7F4F8F4F9F4F089557FDC5
:101FA0009058440F551F59F05F3F71F04795880FC7
:101FB00097FB991F61F09F3F79F08795089512165E
:101FC00013061406551FF2CF4695F1DF08C016160A
:101FD00017061806991FF1CF8695710561050894BB
:101FE0000895E894BB2766277727CB0197F90895D2
:101FF000052E97FB1EF400940E940F1057FD07D08A
:102000000E94171007FC03D04EF40C940F1050954B
:102010004095309521953F4F4F4F5F4F08959095D4
:102020008095709561957F4F8F4F9F4F0895A1E2E6
:102030001A2EAA1BBB1BFD010DC0AA1FBB1FEE1F42
:10204000FF1FA217B307E407F50720F0A21BB30B8D
:10205000E40BF50B661F771F881F991F1A9469F709
:1020600060957095809590959B01AC01BD01CF0165
:102070000895A29FB001B39FC001A39F700D811D61
:102080001124911DB29F700D811D1124911D089581
:102090005058BB27AA270E9460100C94BE0F0E94C4
:1020A000B00F38F00E94B70F20F039F49F3F19F4B9
:1020B00026F40C94AD0F0EF4E095E7FB0C94A70FFB
:1020C000E92F0E94CF0F58F3BA17620773078407EE
:1020D000950720F079F4A6F50C94F10F0EF4E09535
:1020E0000B2EBA2FA02D0B01B90190010C01CA01D2
:1020F000A0011124FF27591B99F0593F50F4503E7D
:1021000068F11A16F040A22F232F342F4427585F6E
:10211000F3CF469537952795A795F0405395C9F786
:102120007EF41F16BA0B620B730B840BBAF091503E
:10213000A1F0FF0FBB1F661F771F881FC2F70EC0DD
:10214000BA0F621F731F841F48F4879577956795B0
:10215000B795F7959E3F08F0B0CF9395880F08F09C
:102160009927EE0F9795879508950E94B00F60F01C
:1021700080E891E009F49EEF0E94B70F28F040E854
:1021800051E071F45EEF0CC00C94AD0F0C94F10FA4
:10219000E92FE0780E94CF0F40F3092E052AB1F312
:1021A000261737074807590738F00E2E07F8E0259D
:1021B00069F0E025E0640AC0EF6307F8009407FACD
:1021C000DB01B9019D01DC01CA01AD01EF930E9461
:1021D0003E110E94BE0F0E94F8105F91552339F006
:1021E0002BED3FE049E450FD49EC0C944910089573
:1021F000DF93DD27B92FBF7740E85FE31616170698
:1022000048075B0718F4D92F0E94FB119F938F9307
:102210007F936F930E944912E8E6F0E00E94CF118D
:102220000E94BE0F2F913F914F915F910E944D0FE1
:10223000DD2351F09058A2EA2AED3FE049EC5FE33C
:10224000D0785D270E946010DF910C94BE0F0E9431
:102250003B110C94BE0F0E94B70F58F00E94B00FB4
:1022600040F029F45F3F29F00C94A70F51110C9412
:10227000F20F0C94AD0F0E94CF0F68F39923B1F3C6
:10228000552391F3951B550BBB27AA27621773079C
:10229000840738F09F5F5F4F220F331F441FAA1F30
:1022A000A9F335D00E2E3AF0E0E832D091505040EC
:1022B000E695001CCAF72BD0FE2F29D0660F771F9A
:1022C000881FBB1F261737074807AB07B0E809F080
:1022D000BB0B802DBF01FF2793585F4F3AF09E3F05
:1022E000510578F00C94A70F0C94F20F5F3FE4F3C4
:1022F000983ED4F3869577956795B795F7959F5F48
:10230000C9F7880F911D9695879597F90895E1E093
:10231000660F771F881FBB1F621773078407BA07F2
:1023200020F0621B730B840BBA0BEE1F88F7E0954D
:1023300008950E94A0116894B1110C94F20F0895B1
:102340000E94D70F88F09F5798F0B92F9927B7515F
:10235000B0F0E1F0660F771F881F991F1AF0BA9549
:10236000C9F714C0B13091F00E94F10FB1E00895A7
:102370000C94F10F672F782F8827B85F39F0B93F99
:10238000CCF3869577956795B395D9F73EF49095FC
:102390008095709561957F4F8F4F9F4F0895DF9384
:1023A000CF931F930F93FF92EF92DF927B018C01EB
:1023B000689406C0DA2EEF010E944D0FFE01E894EA
:1023C000A5912591359145915591A6F3EF010E9474
:1023D0006010FE019701A801DA9469F7DF90EF9091
:1023E000FF900F911F91CF91DF9108950E94160FDA
:1023F00008F48FEF08959B01AC0160E070E080E885
:102400009FE30C94271119F416F40C94AD0F0C945F
:102410004D120E94D70FB8F39923C9F3B6F39F5713
:10242000550B87FF0E945B120024A0E640EA900152
:1024300080585695979528F4805C660F771F881F03
:1024400020F026173707480730F4621B730B840B04
:10245000202931294A2BA695179407942025312548
:102460004A2758F7660F771F881F20F0261737076F
:10247000480730F4620B730B840B200D311D411D96
:10248000A09581F7B901842F9158880F969587956B
:1024900008959B01AC010C943A0F9F3F31F091508D
:1024A00020F4879577956795B795880F911D969538
:1024B000879597F9089591505040660F771F881FB0
:1024C000D2F70895AA1BBB1B51E107C0AA1FBB1F6F
:1024D000A617B70710F0A61BB70B881F991F5A95B0
:1024E000A9F780959095BC01CD01089597FB072E23
:1024F00016F4009407D077FD09D00E94621207FC01
:1025000005D03EF4909581959F4F08957095619503
:102510007F4F0895EE0FFF1F0590F491E02D099471
:10252000FB01DC0102C001900D9241505040D8F7F0
:102530000895FB01DC010D900020E9F7119701904F
:102540000D920020E1F70895FB01DC01415050405D
:1025500048F001900D920020C9F701C01D92415032
:102560005040E0F7089510E0C9E7D0E004C0FE0154
:102570000E948A122196CA37D107C9F7F894FFCF73
:102580000000803F0608010203060A0B0200020059
:102590000500020005000200327C8900EDD9687751
:1025A000000000590000000000000000D69FDCA8D9
:1025B0001817AA90437327F6B968EDF4DED409FE24
:1025C000E61C1C84DDE80B992927D6DF8D210F033B
:1025D0006418EFEE1EC8B7008200941500347C002A
:1025E00000001400988F00000000000000000000B0
:1025F00000E7B73F3600000000000000AF669ED045
:102600003800000000000000000000000000000092
:1026100000000000000000000000000000000000BA
:1026200000000000000000000000000000000000AA
:10263000000000000000000000000000000000009A
:10264000000000000000000000000000000000008A
:10265000000000000000000000000000000000007A
:10266000000000000000000000000000000000006A
:10267000000000000000000000000000000000005A
:10268000000000000000000000000000000000004A
:1026900000CC31AA2C532E0000000000B50115011A
:1026A00042010202730151016501000000003B027A
:0C26B0001501D0023A029702AF0222028C
:00000001FF
