:100000000C9497000C94BF000C94BF000C94BF009C
:100010000C94BF000C94BF000C94BF000C94BF0064
:100020000C94BF000C94BF000C9440020C94EA02A4
:100030000C94F9010C94BF000C94BF000C94BF0009
:100040000C94AF010C94BF000C94D90D0C94B30D1B
:100050000C94BF000C94BF000C94BF000C94BF0024
:100060000C94BF000C94BF00460846085208700864
:10007000660879088608A008BB08DC081F0A310A50
:10008000410A570A6C0A790A970AB50AC80AF60B98
:10009000DE0AED0AFB0A0A0B1E0B370B490B650B38
:1000A000800B940BAA0BBB0BCB0BE30B084AD73B83
:1000B0003BCE016E84BCBFFDC12F3D6C74319ABD37
:1000C00056833DDA3D00C77F11BED9E4BB4C3E915B
:1000D0006BAAAABE000000803F00000000080002DA
:1000E0000100000304070000000000000000000001
:1000F0000000250028002B0000000000240027003D
:100100002A00040404040404040402020202020299
:1001100003030303030301020408102040800102CB
:10012000040810200102040810209C13800E1124E2
:100130001FBECFEFD8E0DEBFCDBF12E0A0E0B1E040
:10014000EAEEF4E302C005900D92AC33B107D9F7A3
:1001500026E0ACE3B2E001C01D92A631B207E1F7A0
:1001600010E0C6E9D0E004C02197FE010E944718C4
:10017000C539D107C9F70E949E0E0C94681A0C94D9
:100180000000FC01918D228D892F90E0805C9F4FB3
:10019000821B91098F739927089580E090E0892B45
:1001A00029F00E945F0C81110C9400000895409189
:1001B0000B0550910A05852F90E0242F30E045175C
:1001C00010F08C5B9F4F821B930B089550910E058E
:1001D00040910D05852F90E0242F30E0541710F446
:1001E000805B9F4F821B930B089580910E05E091D9
:1001F0000D058E1751F0EF5FE03508F0E0E0F0E01C
:10020000EF54FB4F808190E008958FEF9FEF0895AA
:1002100080910E0590910D05891769F09F5F9035CB
:1002200008F090E0E92FF0E0EF54FB4F80819093CD
:100230000D0590E008958FEF9FEF089580910C05D4
:100240008111FCCF089580910B058F5F843408F0F5
:1002500080E090910A059817E1F32FB7F8949091F8
:100260000C05992341F0E82FF0E0E959FB4F60833A
:1002700080930B051DC081E080930C056093AC0456
:100280001092AB0482E086BB80916F008260809305
:100290006F00809180008F738068809380008091D0
:1002A0008400909185004096909389008093880007
:1002B0002FBF81E090E00895FB012081822790E12B
:1002C000899F900111242827822F90E0582F4427DE
:1002D0009C0163E0220F331F6A95E1F74227532701
:1002E000218130E02427352774E0959587957A950C
:1002F000E1F782279327918380830895089580E012
:1003000090E00895FC01848DDF01A80FB11DA35A70
:10031000BF4F2C91848D90E001968F739927848F25
:10032000A689B7892C93A089B1898C9180648C931C
:10033000938D848D981306C00288F389E02D808107
:100340008F7D808308952FB7F89460910605709192
:10035000070580910805909109052FBF08951F9208
:100360000F920FB60F9211242F933F938F939F9369
:10037000AF93BF938091060590910705A091080562
:10038000B09109053091050523E0230F2D3720F4A6
:100390000196A11DB11D05C026E8230F0296A11DDF
:1003A000B11D209305058093060590930705A09342
:1003B0000805B09309058091010590910205A0916F
:1003C0000305B09104050196A11DB11D809301059F
:1003D00090930205A0930305B0930405BF91AF91DC
:1003E0009F918F913F912F910F900FBE0F901F9073
:1003F00018951F920F920FB60F9211242F938F937F
:100400009F93EF93FF9380916F008B7F80936F009A
:10041000809181008F7B8093810080910F052091D6
:10042000B00420589091AF04893020F49695922B17
:100430008F5FFACF9093AF0480910E058F5F803568
:1004400008F080E020910D05821739F0E82FF0E0E8
:10045000EF54FB4F908380930E0510920F0580910F
:1004600081008F7B809381001092B004FF91EF9107
:100470009F918F912F910F900FBE0F901F90189505
:100480001F920F920FB60F9211242F933F934F9309
:100490005F936F937F938F939F93AF93BF93EF93EC
:1004A000FF9380918600909187004091B004209145
:1004B0008100442331F02F7B209381001092B004FF
:1004C00006C020642093810020E82093B00430917E
:1004D0000F05311125C041116CC0209110053091DC
:1004E0001105280F391F30938B0020938A0024E0D8
:1004F00026BB20916F00246020936F00209112058D
:1005000030911305820F931F36952795820F931F05
:100510009093AE048093AD0481E080930F0549C0B1
:100520004091AD045091AE04609112057091130595
:10053000DB01A095B095E091B0042091AF04841B3D
:10054000950BA817B90768F126952E2B460F571F54
:100550003F5F861B970B3930A0F32093AF04809147
:100560006F008B7F80936F0080910E058F5F8035C9
:1005700008F080E090910D05891749F0E82FF0E030
:100580009091AF04EF54FB4F908380930E058091C0
:1005900081008F7B809381001092B00410920F0530
:1005A00008C02093AF045093AE044093AD04309341
:1005B0000F05FF91EF91BF91AF919F918F917F9127
:1005C0006F915F914F913F912F910F900FBE0F90C0
:1005D0001F9018951F920F920FB60F9211242F9310
:1005E0003F934F935F936F937F938F939F93EF937B
:1005F000FF9380910C056091AC04209188003091AC
:10060000890040911205509113059091AB048A30F6
:10061000F8F4240F351F893019F0762F717001C05E
:1006200071E066958F5F791791F390918000772341
:1006300011F0906C02C09F7390689093800030938B
:100640008900209388007093AB046093AC044AC087
:1006500090910B05E0910A059E1319C08A3051F460
:100660008BE080930C05240F351F30938900209375
:1006700088003AC010920C05809180008F7380939F
:10068000800080916F008D7F80936F002DC0EF5FA1
:10069000E43408F0E0E0E0930A05F0E0E959FB4FAC
:1006A00090819093AC041092AB04909180009F7362
:1006B0009068909380008A3059F48091120590914F
:1006C0001305280F391F309389002093880009C033
:1006D000809184009091850040969093890080934A
:1006E000880081E080930C05FF91EF919F918F919D
:1006F0007F916F915F914F913F912F910F900FBE1E
:100700000F901F9018952F923F924F925F926F9289
:100710007F928F929F92AF92BF92CF92DF92EF9291
:10072000FF920F931F93CF93DF93CDB7DEB7C250E5
:10073000D1400FB6F894DEBF0FBECDBF2E0126EA22
:10074000420E511C86E1F20111928A95E9F77E0171
:10075000F8EDEF0EF11C87E0F70111928A95E9F7A9
:100760005E01FCEBAF0EB11C82E1F50111928A959E
:10077000E9F73E01F1EF6F0E711C85E0F301119274
:100780008A95E9F76E01F5EECF0ED11C86E0F601F1
:1007900011928A95E9F7CE0182539F4FC750DF4FE0
:1007A00099838883C95FD0408AE0C750DF4FE881D2
:1007B000F981C95FD04011928A95E9F784E0CA5067
:1007C000DF4F8883C65FD04081E0C950DF4F888308
:1007D000C75FD040C850DF4F8883C85FD04043E038
:1007E000BE016A507F4F83E00E940B0EC152DF4F63
:1007F00019821882CF5DD040CF51DF4F1982188205
:10080000C15ED040CD51DF4F19821882C35ED04007
:1008100060E070E0CE0181529F4F0E94D20C8111A6
:1008200006C0CE0181529F4F0E94270D10C0CD51AE
:10083000DF4F19821882C35ED04066E372E0C15276
:10084000DF4F88819981CF5DD0400E94521A8091FC
:1008500030058E010F5F1F4F8111DBC06091630473
:1008600070916404809165049091660428EE33E0F1
:1008700040E050E00E9492151A8219821C821B826D
:100880001E821D82BE0161527F4FC801C150DF4FE1
:100890002883CF5FD040C050DF4F3883C050D14055
:1008A000CF5FDE4F4883C150D140CE5FDE4F5883CB
:1008B000C250D1400E94890D64E372E0C8010E94D9
:1008C000700DC150DF4F2881CF5FD040C050DF4F47
:1008D0003881C050D140CF5FDE4F4881C150D140F8
:1008E000CE5FDE4F5881C250D140BA01A9010E94AB
:1008F000390DBC01CE0181529F4F0E94890D898123
:100900009A810E94E21826E636E646E650E46091B7
:100910005F047091600480916104909162040E9470
:10092000D4140E947117C550DF4F688379838A837E
:100930009B83CB5FD040C551DF4F19821882CB5EBD
:10094000D040C351DF4F19821882CD5ED040C151D3
:10095000DF4F19821882CF5ED040BE0161527F4FB7
:10096000CE0185519F4F0E94890D67E372E0CE0151
:1009700085519F4F0E94700D4C014AE0B801C5504F
:10098000DF4F88819981CB5FD0400E944414F801E9
:1009900001900020E9F73197AF01401B510BB801DE
:1009A000C4010E94F90C811103C0C4010E94270DEB
:1009B000B401CE0181529F4F0E94890DC551DF4F76
:1009C00088819981CB5ED0400E94E218CD51DF4FE3
:1009D00088809980C35ED0408114910419F41092EC
:1009E000500422C0FEE08F16910418F08EE0882E8D
:1009F000912CC152DF4F68817981CF5DD040A40135
:100A000080E594E00E94591AF401E05BFB4F1082EC
:100A10000BC0813049F48FE0E1E4F4E0A0E5B4E0FC
:100A200001900D928A95E1F74FE060E574E08AE06D
:100A30000E940B0E80911A0590911B05A0911C0538
:100A4000B0911D05F20186839783A087B18746E1A7
:100A5000B20185E60E940B0E80912E05F70180837E
:100A600080913F04909140049483838380913B055F
:100A700090913C05968385838091390590913A0544
:100A80009283818347E0B7018EE60E940B0E80912E
:100A90003B0590913C0590933B0480933A048091F0
:100AA0002E05FAE08F9FC001112490933E0480939D
:100AB0003D048091390590913A05909339048093D3
:100AC000380480912F058093340480E594E190935D
:100AD00036048093350410923C0460913505709182
:100AE0003605809137059091380520E931E040E0E6
:100AF00050E00E94E815672B682B692B09F0F5C0C0
:100B000080910001882309F4EAC01A8219821C82AC
:100B10001B821E821D8260E070E0C8010E94D20C20
:100B2000811104C0C8010E94270D08C01E821D82C9
:100B300066E372E089819A810E94521A60912405CD
:100B400070912505809126059091270597FF07C094
:100B500090958095709561957F4F8F4F9F4F2AE0BC
:100B600030E040E050E00E94921519012A016091A6
:100B700028057091290580912A0590912B0597FFF2
:100B800007C090958095709561957F4F8F4F9F4FCF
:100B90002AE030E040E050E00E949215C551DF4F5E
:100BA00019821882CB5ED040C351DF4F1982188260
:100BB000CD5ED040C151DF4F19821882CF5ED04048
:100BC000B801CE0185519F4FC150DF4F2883CF5FC1
:100BD000D040C050DF4F3883C050D140CF5FDE4F90
:100BE0004883C150D140CE5FDE4F5883C250D140C0
:100BF0000E94890DC150DF4F2881CF5FD040C05087
:100C0000DF4F3881C050D140CF5FDE4F4881C150A7
:100C1000D140CE5FDE4F5881C250D140BA01A90108
:100C2000CE0185519F4F0E94390D66E372E00E940C
:100C3000700DB201A1010E94390DBC01C8010E94D2
:100C4000890DC551DF4F88819981CB5ED0400E94CC
:100C5000E21890900001292D30E0F90131978D8143
:100C60009E81E980FA80E817F90718F4E114F1048D
:100C700029F410923104E1E3F4E002C0EE0DFF1D0F
:100C80004081C551DF4F4883CB5ED04028173907DC
:100C900018F4E114F10429F410923104E1E3F4E0D2
:100CA00003C0F701E20FF31F8081C451DF4F888337
:100CB000CC5ED040CE0185519F4F0E94ED138093B2
:100CC00037042EE0291528F0939493949092000114
:100CD00002C010920001C7010E94E21806C08FEF07
:100CE0008093370481E0809300014BE064E374E07B
:100CF00082E80E940B0E8091280590912905A09111
:100D00002A05B0912B05F50182839383A483B583D3
:100D10008091240590912505A0912605B091270585
:100D200086839783A087B18780912305818342E1E1
:100D3000B5018AE60E940B0E809116059091170569
:100D4000F30191838083809114059091150593831D
:100D5000828345E0B3018BE60E940B0E609116057D
:100D6000709117058091180590911905693EF3E07F
:100D70007F078105910538F024E630E040E050E03F
:100D80000E94E81506C04AE0469F9001479F300D3B
:100D90001124F60133832283809114059091150567
:100DA0002091320430913304821B930B4AE0489F18
:100DB0009001499F300D1124F6013183208346E0D4
:100DC000B6018CE60E940B0EC253DF4F18821982C7
:100DD0001A821B82CE5CD0404AE0BE0162537F4F34
:100DE0008DE60E940B0E85EAF80111928A95E9F7CB
:100DF00088E3888788E1EE968FAFEE9782E090E0F7
:100E0000CA56DF4F99838883C659D04080E1C256C5
:100E1000DF4F8883CE59D04081E0CD55DF4F8883A6
:100E2000C35AD040CC55DF4F8883C45AD04083E8A2
:100E300098E09C878B878AEE90E09E878D87988BC1
:100E40008F879A8B898B9C8B8B8B9E8B8D8B988FAE
:100E50008F8B9A8F898F2FEE39E03C8F2B8F9E8F4F
:100E60008D8F98A38F8F26E338E03AA329A328E536
:100E700038E03CA32BA39EA38DA3209108013091C1
:100E8000090138A72FA39AA789A79CA78BA79EA77C
:100E90008DA798AB8FA79AAB89AB9CAB8BAB9EAB66
:100EA0008DAB28E138E038AF2FAB21E438E03AAF22
:100EB00029AF21E238E03CAF2BAF9EAF8DAF28EBDE
:100EC00039E021963FAF2EAF219728E939E02396EC
:100ED0003FAF2EAF239725969FAF8EAF25972796CE
:100EE0009FAF8EAF279729969FAF8EAF29972B96EE
:100EF0009FAF8EAF2B972D969FAF8EAF2D972F96CE
:100F00009FAF8EAF2F9761969FAF8EAF619763961D
:100F10009FAF8EAF639765969FAF8EAF65976796CD
:100F20009FAF8EAF679769969FAF8EAF69976B96AD
:100F30009FAF8EAF6B976D969FAF8EAF6D976F968D
:100F40009FAF8EAF6F97A1969FAF8EAFA197A396DD
:100F50009FAF8EAFA397A5969FAF8EAFA597A7968D
:100F60009FAF8EAFA797A9969FAF8EAFA997AB966D
:100F70009FAF8EAFAB97AD969FAF8EAFAD97AF964D
:100F80009FAF8EAFAF97E1969FAF8EAFE197E3969D
:100F90009FAF8EAFE397E5969FAF8EAFE597E7964D
:100FA0009FAF8EAFE797E9969FAF8EAFE997EB962D
:100FB0009FAF8EAFEB97ED969FAF8EAFED9745EA63
:100FC000B80184E50E940B0EC152DF4F88819981E0
:100FD000CF5DD0400E94E218CE5FDE4F0FB6F8948E
:100FE000DEBF0FBECDBFDF91CF911F910F91FF905C
:100FF000EF90DF90CF90BF90AF909F908F907F90B9
:101000006F905F904F903F902F9008952F923F9256
:101010004F925F926F927F928F929F92AF92BF9208
:10102000CF92DF92EF92FF920F931F93CF93DF93B4
:10103000CDB7DEB7C657D1090FB6F894DEBF0FBEE5
:10104000CDBFEE24E394F12C52E0252E312CCC249C
:10105000CA94DC2C86E096E00E94E6001816190679
:101060000CF0A0C186E096E00E9408013C01082F28
:1010700010923C02E0913F02F0914002EA30F1050B
:1010800008F0D5C0EC5CFF4F0C9447188E3F09F078
:10109000CEC03092400220923F0210926F028093A5
:1010A0006E02A3C0853630F080913D028F5F809341
:1010B0003D02A0C080936F02109241026CE672E084
:1010C0000E945C0134E0832E912C2DC0809370022D
:1010D0006CE672E00E945C0123E0A22EB12C2BC0D2
:1010E000809371026CE672E00E945C0125E030E0C2
:1010F0003DC0809372026CE672E00E945C0186E063
:1011000090E09093400280933F0291C080937302DD
:101110006CE672E00E945C0180916F02811108C050
:1011200098E0892E912C9092400280923F027FC0DD
:1011300087E0A82EB12CB0924002A0923F0277C067
:10114000E0914102772473947E0E70924102F0E0A8
:10115000EC58FD4F60826CE672E0862D0E945C01C7
:1011600080916F02781263C028E030E03093400233
:1011700020933F025CC0E0917302F0E0E05FFE4F1D
:101180006CE672E080810E945C0180916C0290911B
:101190006D0299279301332728173907F1F489E065
:1011A00090E09093400280933F02E0914102F0E092
:1011B000EC58FD4F60823BC090916D02E6969FAF68
:1011C000E697E7961FAEE797C3019927E7968EAC9F
:1011D0009FACE7978815990591F00E3F59F430922E
:1011E000400220923F0210926F02D0926D02C09294
:1011F0006C021DC0F0924002E0923F0218C081E0F4
:1012000080933C02F0924002E0923F02E091410262
:10121000F0E0EB58FD4F608280E7ECE6F2E0DE01A3
:10122000119601900D928A95E1F710917302209129
:101230003C02213099F480917002809342028091A7
:10124000440290914502009721F4109247021092B7
:1012500046020196909345028093440210923E020A
:10126000222309F4F7CE183109F471C0C0F4112318
:1012700009F474C0113009F0EDCE298D3A8D4FA1DB
:101280008F89988D64E670E00E94331860932E0574
:101290004093300430933C0520933B05DBCE133262
:1012A00009F46FC01A34A1F1113209F0D3CE4D8484
:1012B0005E846F84788849895A896B897C898D8995
:1012C0009E89AF89B88D898C9A8CAB8CBC8C8092AE
:1012D000630490926404A0926504B0926604409204
:1012E00028055092290560922A0570922B0540939B
:1012F0002405509325056093260570932705809358
:101300001F0590932005A0932105B0932205A2CE3E
:101310004D855E856F857889898D9A8D49845A843B
:101320006B847C8440922C0450922D0460922E0495
:1013300070922F0440935F045093600460936104A3
:1013400070936204909333048093320483CE8EA111
:101350009DA190932C05809323057CCE89859A8549
:10136000AB85BC8528893F8530931E0520932D05CC
:101370008093000690930106A0930206B0930306A3
:1013800069CE2E8D30E0AFEFB3E00E940A162FEF4A
:1013900030E040E050E00E949215309340042093EA
:1013A0003F0458CECA58DF4F0FB6F894DEBF0FBEC9
:1013B000CDBFDF91CF911F910F91FF90EF90DF9004
:1013C000CF90BF90AF909F908F907F906F905F90E5
:1013D0004F903F902F900895FC0181E0809330055D
:1013E0004093310550933205609333057093340573
:1013F0009FE0A1E4B4E001900D929A95E1F7089581
:101400000F931F93CF93DF93CDB7DEB72F970FB610
:10141000F894DEBF0FBECDBF00910006109101060B
:1014200020910206309103060831110508F0DEC153
:10143000AB01BC01F801E25CFF4F0C944718CE01F0
:1014400001962FE0DC011D922A95E9F72DE429830E
:1014500021E42A833EE43B8335E53C832D832CE461
:1014600061C1CE0101962FE0FC0111922A95E9F7A6
:1014700023E4298339E43A8332E53B832C832CE44B
:1014800084C0CE0101962FE0DC011D922A95E9F778
:1014900023E5298324E52A8321E42B8322E42C837A
:1014A00029E42D833CE43E832F832AE588C1CE01C5
:1014B00001962FE0FC0111922A95E9F724E5298392
:1014C00022E52A8321E42B8339E43C832EE42D8317
:1014D0003E832F8327E470C0CE0101962FE0DC010C
:1014E0001D922A95E9F721E4298323E42A8322E542
:1014F00071C0FE0131968FE0DF011D928A95E9F7F8
:1015000086E489838CE48A8389E58B8390E29C83DB
:1015100022E42D838E839F8387E5888789E48987EA
:1015200082E58A8785E48B879C8781E41CC0FE0165
:1015300031968FE0DF011D928A95E9F786E4898371
:101540008CE48A8329E52B8390E29C8382E48D835B
:101550002E839F8327E5288729E4298722E52A8788
:1015600025E42B879C878D87AEC0CE0101962FE0A6
:10157000FC0111922A95E9F723E4298322E52A83C5
:1015800025E52B8329E42C8323E52D8325E4CAC09C
:10159000CE0101962FE0DC011D922A95E9F721E4A6
:1015A000298325E52A8334E53B83EFE4EC833D83FF
:1015B0002E832EE42F8325E4288716C1CE010196C1
:1015C0002FE0FC0111922A95E9F721E4298325E512
:1015D0002A8324E52B832FE4DCC0CE0101962FE083
:1015E000DC011D922A95E9F722E5298324E52A8367
:1015F0002CE42B83F9C0CE0101962FE0FC0111925F
:101600002A95E9F72CE429832FE42A8329E42B8304
:1016100024E584C0CE0101962FE0DC011D922A95BD
:10162000E9F724E5298321E42A832BE42B8325E4AD
:101630002C832FE42D8326E42E838AC0CE010196CD
:101640002FE0FC0111922A95E9F731E4398326E570
:101650002A832FE42B8329E42C8324E42D83EFE5D4
:10166000EE833F83288723E5298722E447C0CE0104
:1016700001962FE0DC011D922A95E9F727E42983E2
:1016800025E52A8329E42B8324E42C8335E43D8358
:1016900049C0FE0131968FE0DF011D928A95E9F77E
:1016A00099E499838EE48A839B8324E52C839D832C
:1016B00021E42E832CE42F83988723E529879A87BA
:1016C0008B8787E48C87CF018FC0CE0101962FE0F6
:1016D000FC0111922A95E9F721E5298323E52A8364
:1016E00024E52B8321E42C8322E42D8329E42E831B
:1016F0003CE43F8328872AE5298725E42A8774C0AC
:10170000CE0101962FE0DC011D922A95E9F721E533
:10171000298328E42A832FE42B8326E52C8325E4E0
:101720002D8322E52E8360C0CE0101962FE0FC01BF
:1017300011922A95E9F721E529832CE42A832FE4E5
:101740002B8329E42C8324E52D8325E42E8322E5B5
:101750002F834AC0CE0101962FE0DC011D922A950D
:10176000E9F721E529832CE42A8321E42B832EE465
:101770002C8324E438C0CE0101962FE0FC011192A5
:101780002A95E9F721E5298322E52A8324E52B839D
:101790002CE42C8329C0CE0101962FE0DC011D92A0
:1017A0002A95E9F721E5298321E42A8325E52B837E
:1017B00034E53C83EFE4ED833E832F832EE42887DA
:1017C00025E4298711C0CE0101962FE0FC0111927A
:1017D0002A95E9F721E5298321E42A8323E42B8351
:1017E00022E52C832FE42D830E94EC092F960FB65F
:1017F000F894DEBF0FBECDBFDF91CF911F910F9147
:101800000895CF92DF92EF92FF920F931F93CF93A1
:10181000DF936C017A018B01C0E0D0E0CE15DF05CB
:1018200089F0D8016D918D01D601ED91FC91019067
:10183000F081E02DC6010995892B11F47E0102C0CB
:101840002196ECCFC701DF91CF911F910F91FF90AF
:10185000EF90DF90CF900895FC01538D448D252F9C
:1018600030E0842F90E0821B930B541710F0CF963A
:10187000089501970895FC01918D828D981761F06C
:10188000828DDF01A80FB11D5D968C91928D9F5FB7
:101890009F73928F90E008958FEF9FEF0895FC0162
:1018A000918D828D981731F0828DE80FF11D858D15
:1018B00090E008958FEF9FEF08950E94441A8FE5FE
:1018C00095E00E94C10021E0892B09F420E0822FDD
:1018D0000895EF92FF920F931F93CF93DF93EC0144
:1018E00081E0888F9B8D8C8D981305C0E889F989DC
:1018F000808185FD24C0F62E0B8D10E00F5F1F4FF9
:101900000F731127E02E8C8DE8120CC00FB607FC68
:10191000FACFE889F989808185FFF5CFCE010E9451
:101920008201F1CF8B8DFE01E80FF11DE35AFF4FCD
:10193000F0820B8FEA89FB898081806207C0EE8983
:10194000FF896083E889F98980818064808381E0F0
:1019500090E0DF91CF911F910F91FF90EF9008954C
:10196000CF93DF93EC01888D8823C9F0EA89FB8946
:10197000808185FD05C0A889B9898C9186FD0FC03D
:101980000FB607FCF5CF808185FFF2CFA889B98912
:101990008C9185FFEDCFCE010E948201E7CFDF91D0
:1019A000CF9108950F931F93CF93DF93EC0188811C
:1019B0009981009729F02A813B812617370788F4FF
:1019C0008B016F5F7F4F0E947A19009761F09983B6
:1019D00088831B830A832C813D81232B11F4FC0116
:1019E000108281E001C080E0DF91CF911F910F91C3
:1019F0000895EF92FF920F931F93CF93DF93FC0113
:101A0000248135816115710511F480E019C04115FB
:101A10005105A9F07B01EC018A01020F131FB801E7
:101A20000E94D20C882389F3288139818C819D8181
:101A3000B701820F931F0E94521A1D830C8381E00D
:101A4000DF91CF911F910F91FF90EF900895CF9369
:101A5000DF93EC0188819981009711F00E94E218D0
:101A6000198218821D821C821B821A82DF91CF91FB
:101A70000895EF92FF920F931F93CF93DF93CDB70B
:101A8000DEB72E970FB6F894DEBF0FBECDBF7C0138
:101A9000CB01BA012AE08E010F5F1F4FA8010E94FF
:101AA0000B14F80101900020E9F73197AF01401BBA
:101AB000510BB801C7010E94F90C811103C0C70185
:101AC0000E94270DC7012E960FB6F894DEBF0FBEF9
:101AD000CDBFDF91CF911F910F91FF90EF900895AF
:101AE000CF93DF93EC016115710561F0FB0101906B
:101AF0000020E9F73197AF01461B570B0E94F90C04
:101B0000811103C0CE010E94270DCE01DF91CF913C
:101B10000895EF92FF920F931F93CF93DF93EC0101
:101B2000FB0186179707B9F0008111810115110596
:101B300039F0E480F580B7010E94D20C811104C015
:101B4000CE010E94270D07C0FD82EC82B80188817A
:101B500099810E94521ACE01DF91CF911F910F916E
:101B6000FF90EF9008951F920F920FB60F921124DD
:101B70002F933F934F935F936F937F938F939F9395
:101B8000AF93BF93EF93FF938FE595E00E9482019F
:101B9000FF91EF91BF91AF919F918F917F916F9145
:101BA0005F914F913F912F910F900FBE0F901F901B
:101BB00018951F920F920FB60F9211242F938F93A7
:101BC0009F93EF93FF93E0916F05F09170058081F3
:101BD000E0917505F091760582FD12C090818091AB
:101BE00078058F5F8F7320917905821751F0E0910E
:101BF0007805F0E0E15AFA4F958F8093780501C09F
:101C00008081FF91EF919F918F912F910F900FBE47
:101C10000F901F901895CF92DF92EF92FF920F9343
:101C20001F93CF93DF931F92CDB7DEB7D82EF62E3A
:101C3000C42E8091590590915A05DC01ED91FC91DB
:101C40000190F081E02D64E2798309958091590536
:101C500090915A05DC01ED91FC910190F081E02D0D
:101C60006DE409958091590590915A05DC01ED913B
:101C7000FC910190F081E02D6CE30995809159056C
:101C800090915A05DC01ED91FC910190F081E02DDD
:101C90006C2D09958091590590915A05DC01ED91C3
:101CA000FC910190F081E02D6D2D0995DC24EF2C45
:101CB0000F2D7981172F8091590590915A05202F6A
:101CC0002E192C1560F4F80161918F01D626DC01E4
:101CD000ED91FC910190F081E02D0995ECCFDC01B4
:101CE000ED91FC910190F081E02D6D2D0F90DF9131
:101CF000CF911F910F91FF90EF90DF90CF900994BB
:101D000086E292E0909307068093060680916F002A
:101D10008B7F80936F0080916F008F7D80936F0029
:101D200080910D0580930E0580910C058111FCCFEB
:101D300080916F008D7F80936F000895CF93DF9324
:101D4000CDB7DEB72F970FB6F894DEBF0FBECDBF6D
:101D5000789484B5826084BD84B5816084BD85B586
:101D6000826085BD85B5816085BD80916E00816092
:101D700080936E0010928100809181008260809338
:101D8000810080918100816080938100809180003A
:101D90008160809380008091B10084608093B10065
:101DA0008091B00081608093B00080917A0084605F
:101DB00080937A0080917A00826080937A0080918B
:101DC0007A00816080937A0080917A0080688093A5
:101DD0007A001092C100E0916F05F091700582E0E9
:101DE0008083E0916B05F0916C051082E0916D05A8
:101DF000F0916E0580E1808310927705E091730584
:101E0000F091740586E08083E0917105F091720590
:101E1000808180618083E0917105F09172058081FD
:101E200088608083E0917105F091720580818068FF
:101E30008083E0917105F091720580818F7D8083B0
:101E40008FE595E090935A058093590584EF91E0D2
:101E5000A0E0B0E080935B0590935C05A0935D05E6
:101E6000B0935E0510926F001092800081E880931D
:101E7000810086E191E090931305809312058BE039
:101E80009AE09093110580931005EEE1F1E0249122
:101E9000EAE0F1E084918823C9F090E0880F991F6F
:101EA000FC01E850FF4F45915491FC01E251FF4F76
:101EB000A591B4919FB7F894FA013081822F809553
:101EC00083238083EC91E22BEC939FBFE3EEF0E061
:101ED00034914FE151E0FA0164918BE091E0FC0113
:101EE00024912223B9F1332339F1333091F038F4BE
:101EF0003130A9F0323001F534B53F7D12C03730B2
:101F000091F03830A1F03430B9F4309180003F7D49
:101F100003C0309180003F77309380000DC034B50E
:101F20003F7734BD09C03091B0003F7703C0309196
:101F3000B0003F7D3093B00030E0220F331F2251BC
:101F40003F4FF901A591B4912FB7F8943C91632BC1
:101F50006C932FBFFA014491FC018491882399F07E
:101F600090E0880F991FFC01E850FF4FA591B491B4
:101F7000FC01E251FF4F859194918FB7F8949C91A9
:101F8000492B4C938FBF10920F0510920E051092A3
:101F90000D0510920C0510920B0510920A0580E2B7
:101FA00086BB80936F000FE09E012F5F3F4F1901AA
:101FB00016E40E9406080E94A301C0905505D09027
:101FC0005605E0905705F09058059B01AC012C197F
:101FD0003D094E095F0969017A0134E6C316D1044F
:101FE000E104F10408F4D4C16093550570935605DB
:101FF000809357059093580580914505909146052B
:10200000A0914705B09148050097A105B10509F4D5
:102010009AC08090410590904205A0904305B090F1
:10202000440581149104A104B10409F48CC0C0904A
:102030002805D0902905E0902A05F0902B05BC01D9
:10204000CD016C197D098E099F090E9475146B01E1
:102050007C018091240590912505A0912605B091E1
:102060002705A5019401281B390B4A0B5B0BCA01FC
:10207000B9010E9475142091010130910201409133
:102080000301509104010E94D4144B015C01A7018B
:102090009601C701B6010E94D4142B013C01A50191
:1020A0009401C501B4010E94D4149B01AC01C30189
:1020B000B2010E941A160E94DA172CE23DE74EE8A0
:1020C0005FE30E94D4140E9471172B013C01C701E9
:1020D000B6019058A50194010E94991620EA3CE0AF
:1020E00043EB55E40E94D41420E030EA4CE056E47F
:1020F0000E941A160E946A176B017C0197FF06C0A6
:1021000030EAC30E3CE8D31EE11CF11CC301B2014E
:1021100024E630E040E050E00E94E81520931605E8
:10212000309317054093180550931905C701B60160
:1021300024E630E040E050E00E949215309315050F
:10214000209314050CC010921605109217051092DA
:10215000180510921905109215051092140520917A
:102160001E0580911A0590911B05A0911C05B09148
:102170001D0527FF02C0816001C08E7F80931A0574
:1021800090931B05A0931C05B0931D05409100067C
:1021900050910106609102067091030680911A0524
:1021A00090911B05A0911C05B0911D054230510571
:1021B0006105710511F4826001C08D7F80931A055D
:1021C00090931B05A0931C05B0931D0520912D0530
:1021D000255080911A0590911B05A0911C05B09186
:1021E0001D05223010F4806101C08F7E80931A0596
:1021F00090931B05A0931C05B0931D0580911A05B3
:1022000090911B05A0911C05B0911D054B30510507
:102210006105710511F4806201C08F7D80931A05FC
:1022200090931B05A0931C05B0931D050E9483038A
:1022300060913B0570913C05072E000C880B990BB3
:102240000E94751420E030E040E251E40E94D41472
:102250006B017C010E94A3010E947314209151051F
:102260003091520540915305509154050E94191622
:102270009B01AC01C701B6010E94D41420E03AEBE7
:102280004BE55AE40E94F81620914D0530914E0519
:1022900040914F05509150050E941A1660934D05CC
:1022A00070934E0580934F05909350050E947117CF
:1022B00070933A05609339050E94A3010E9473143C
:1022C0006093510570935205809353059093540584
:1022D000C0903505D0903605E0903705F090380570
:1022E000C701B60124E833E040E050E00E94E81561
:1022F00020910701672B682B692BD1F42130C1F4A1
:102300008091040690910506813D9740D8F0809118
:102310000801909109012091050130910601309347
:1023200009012093080190930601809305010AC0DA
:10233000211108C08091040690910506909309012F
:102340008093080154E6C50ED11CE11CF11CC0921B
:102350003505D0923605E0923705F0923805809128
:10236000310590913205A0913305B09134051816CE
:1023700019061A061B0664F484569109A109B109CD
:102380008093310590933205A0933305B0933405C3
:102390008091310590913205A0913305B0913405BB
:1023A000181619061A061B0614F0109230058091B3
:1023B000000690910106A0910206B091030640919B
:1023C000FC055091FD056091FE057091FF05841795
:1023D0009507A607B70771F08093FC059093FD055C
:1023E000A093FE05B093FF0568EE73E080E090E0F7
:1023F0000E94000A80912F05811127C080912E052F
:10240000882319F18B3220F481E080932F051DC0C1
:10241000853520F492E090932F0517C08F3720F474
:10242000E3E0E0932F0511C0893A20F4F4E0F09343
:102430002F050BC0833D20F425E020932F0505C018
:102440008F3F19F036E030932F0580912D05855090
:10245000823058F5609135057091360580913705C9
:102460009091380520E233E040E050E00E94E8150A
:10247000672B682B692BC9F4F101202F11922A9543
:10248000E9F7198381E48A8399E49B839CE49C8324
:1024900093E59D838E831F8385E4888744EF51E015
:1024A00060E070E0C1010E94EC090E94A301C090AD
:1024B0004905D0904A05E0904B05F0904C059B01F2
:1024C000AC012C193D094E095F0969017A0130E11F
:1024D000C31637E2D306E104F10470F060934905B6
:1024E00070934A0580934B0590934C0564EF71E01F
:1024F00080E090E00E94000A80912C05833008F46F
:1025000018C180910701813009F013C1609128053D
:102510007091290580912A0590912B05611571050F
:102520008105910509F405C1C0902405D0902505C9
:10253000E0902605F0902705C114D104E104F104D0
:1025400009F4F7C020912305263008F4F2C0609307
:102550004505709346058093470590934805C092C2
:102560004105D0924205E0924305F0924405C090A7
:102570001F05D0902005E0902105F0902205C09223
:102580003D05D0923E05E0923F05F09240050E9445
:1025900075149F7720E836E948E15BE40E94F8165D
:1025A00025E33AEF4EE85CE30E94D4142BED3FE0C4
:1025B00049EC5FE30E941A166B017C010E946A17C6
:1025C000DC01CB018096A11DB11D81349105A105CF
:1025D000B10508F0A1C02BED3FE049E450E4C7018C
:1025E000B6010E94C71718165CF42BED3FE049ECCA
:1025F00050E4C701B6010E9419166B017C01EBCFB4
:102600002BED3FE049E450ECC701B6010E946E1487
:1026100087FF0BC02BED3FE049EC50E4C701B6014A
:102620000E941A166B017C01EBCF2BED3FE049ECC9
:102630005FE3C701B6010E94C71718167CF42BEDA3
:102640003FE049EC5FE3C701B6010E9419169B0108
:10265000AC016BED7FE089EC9FE318C02BED3FE010
:1026600049EC5FEBC701B6010E946E1487FF12C0F0
:102670002BED3FE049EC5FE3C701B6010E941A165B
:102680009B01AC016BED7FE089EC9FEB0E9419167A
:102690006B017C01A7019601C701B6010E94D41409
:1026A0004B015C019B01AC01C701B6010E94D4142F
:1026B0002B013C0120E030E0A901C501B4010E94DA
:1026C000D41422E937EE41E459E30E9419169B0124
:1026D000AC01C501B4010E94D41427E930E348E0FD
:1026E0005CE30E941A169B01AC01C501B4010E9473
:1026F000D41425E138EA4AE25EE30E9419169B01F0
:10270000AC01C301B2010E94D4149B01AC01C7010A
:10271000B6010E941A1603C060E070E0CB0160931E
:1027200001017093020180930301909304011092C0
:1027300007010E94CD003DCCEFE5F5E01382128247
:1027400088EE93E0A0E0B0E084839583A683B7830E
:1027500024E132E03183208325EC30E03587248783
:1027600024EC30E03787268720EC30E0318B208B5B
:1027700021EC30E0338B228B22EC30E0358B248B44
:1027800026EC30E0378B268B118E128E138E148E32
:10279000E6E0F6E01382128284839583A683B783F2
:1027A00086E292E0918380838091080190910901F3
:1027B000909305068093040680910006909101068F
:1027C000A0910206B09103068093FC059093FD054D
:1027D000A093FE05B093FF050895FC018827992773
:1027E000E89421912032E9F3293010F02E30C8F31B
:1027F0002B3241F02D3239F4689404C00E941A142F
:10280000820F911D219120532A30C0F31EF4909520
:1028100081959F4F0895BB272A3051F4992342F4A4
:10282000BDE290958095709561957F4F8F4F9F4F3A
:102830000C9423147AE0979F902D879F802D910D03
:1028400011240895BB27FA01A62F6217710581058F
:102850009105330B30FB66F0AA27660F771F881FA0
:10286000991FAA1FA21710F0A21B63953850A9F751
:10287000A05DAA3308F0A95DA19336F7B111B19319
:102880001082CA010C945E14BB27FB015527AA27AE
:10289000880F991FAA1FA41710F0A41B83955051ED
:1028A000B9F7A05DAA3308F0A95DA193009779F765
:1028B000B111B1931192CB010C945E14DC01FC01B7
:1028C000672F71917723E1F7329704C07C916D9364
:1028D00070836291AE17BF07C8F308950E94B014C9
:1028E00008F481E00895E89409C097FB3EF49095C0
:1028F0008095709561957F4F8F4F9F4F9923A9F0D9
:10290000F92F96E9BB279395F69587957795679567
:10291000B795F111F8CFFAF4BB0F11F460FF1BC0AB
:102920006F5F7F4F8F4F9F4F16C0882311F096E93E
:1029300011C0772321F09EE8872F762F05C06623EC
:1029400071F096E8862F70E060E02AF09A95660FA5
:10295000771F881FDAF7880F9695879597F908955E
:10296000990F0008550FAA0BE0E8FEEF16161706A0
:10297000E807F907C0F012161306E407F50798F008
:10298000621B730B840B950B39F40A2661F0232B21
:10299000242B252B21F408950A2609F4A140A6959D
:1029A0008FEF811D811D08950E94E7140C94581526
:1029B0000E944A1538F00E94511520F0952311F01D
:1029C0000C9441150C94471511240C948C150E94FD
:1029D000691570F3959FC1F3950F50E0551F629FE5
:1029E000F001729FBB27F00DB11D639FAA27F00D68
:1029F000B11DAA1F649F6627B00DA11D661F829F8F
:102A00002227B00DA11D621F739FB00DA11D621F73
:102A1000839FA00D611D221F749F3327A00D611D90
:102A2000231F849F600D211D822F762F6A2F112472
:102A30009F5750409AF0F1F088234AF0EE0FFF1FA5
:102A4000BB1F661F771F881F91505040A9F79E3FFC
:102A5000510580F00C9441150C948C155F3FE4F304
:102A6000983ED4F3869577956795B795F795E79552
:102A70009F5FC1F7FE2B880F911D9695879597F95B
:102A8000089597F99F6780E870E060E008959FEFF0
:102A900080EC089500240A941616170618060906F5
:102AA000089500240A9412161306140605060895C4
:102AB000092E0394000C11F4882352F0BB0F40F44C
:102AC000BF2B11F460FF04C06F5F7F4F8F4F9F4F8C
:102AD000089557FD9058440F551F59F05F3F71F00E
:102AE0004795880F97FB991F61F09F3F79F0879575
:102AF0000895121613061406551FF2CF4695F1DFFE
:102B000008C0161617061806991FF1CF869571058D
:102B1000610508940895E894BB2766277727CB01C1
:102B200097F90895052E97FB1EF400940E94A915AD
:102B300057FD07D00E94E81507FC03D04EF40C9413
:102B4000A91550954095309521953F4F4F4F5F4FB8
:102B5000089590958095709561957F4F8F4F9F4F09
:102B600008952F923F924F925F926F927F928F9231
:102B70009F92AF92BF92CF92DF92EF92FF920F930C
:102B80001F93CF93DF93CDB7DEB7CA1BDB0B0FB616
:102B9000F894DEBF0FBECDBF09942A8839884888D3
:102BA0005F846E847D848C849B84AA84B984C88469
:102BB000DF80EE80FD800C811B81AA81B981CE0F60
:102BC000D11D0FB6F894DEBF0FBECDBFED01089545
:102BD000A1E21A2EAA1BBB1BFD010DC0AA1FBB1F21
:102BE000EE1FFF1FA217B307E407F50720F0A21B93
:102BF000B30BE40BF50B661F771F881F991F1A9400
:102C000069F760957095809590959B01AC01BD0129
:102C1000CF010895A29FB001B39FC001A39F700D83
:102C2000811D1124911DB29F700D811D1124911DD4
:102C300008955058BB27AA270E9431160C945815A6
:102C40000E944A1538F00E94511520F039F49F3F38
:102C500019F426F40C9447150EF4E095E7FB0C9458
:102C60004115E92F0E94691558F3BA1762077307D7
:102C70008407950720F079F4A6F50C948B150EF4D3
:102C8000E0950B2EBA2FA02D0B01B90190010C017C
:102C9000CA01A0011124FF27591B99F0593F50F494
:102CA000503E68F11A16F040A22F232F342F4427EC
:102CB000585FF3CF469537952795A795F0405395E4
:102CC000C9F77EF41F16BA0B620B730B840BBAF0B4
:102CD0009150A1F0FF0FBB1F661F771F881FC2F71F
:102CE0000EC0BA0F621F731F841F48F48795779533
:102CF0006795B795F7959E3F08F0B0CF9395880FED
:102D000008F09927EE0F9795879508950E944A1528
:102D100060F080E891E009F49EEF0E94511528F0E0
:102D200040E851E071F45EEF0CC00C9447150C9430
:102D30008B15E92FE0780E94691540F3092E052ACA
:102D4000B1F3261737074807590738F00E2E07F852
:102D5000E02569F0E025E0640AC0EF6307F800941D
:102D600007FADB01B9019D01DC01CA01AD01EF9356
:102D70000E940F170E9458150E94C9165F91552393
:102D800039F02BED3FE049E450FD49EC0C941A1664
:102D90000895DF93DD27B92FBF7740E85FE316166C
:102DA000170648075B0718F4D92F0E94CC179F938A
:102DB0008F937F936F930E941A18ECEAF0E00E94C1
:102DC000A0170E9458152F913F914F915F910E943B
:102DD000E714DD2351F09058A2EA2AED3FE049ECD8
:102DE0005FE3D0785D270E943116DF910C9458156F
:102DF0000E940C170C9458150E94511558F00E940F
:102E00004A1540F029F45F3F29F00C944115511107
:102E10000C948C150C9447150E94691568F399233E
:102E2000B1F3552391F3951B550BBB27AA276217C6
:102E30007307840738F09F5F5F4F220F331F441FD3
:102E4000AA1FA9F335D00E2E3AF0E0E832D0915007
:102E50005040E695001CCAF72BD0FE2F29D0660FF4
:102E6000771F881FBB1F261737074807AB07B0E837
:102E700009F0BB0B802DBF01FF2793585F4F3AF03D
:102E80009E3F510578F00C9441150C948C155F3FD2
:102E9000E4F3983ED4F3869577956795B795F795C3
:102EA0009F5FC9F7880F911D9695879597F90895AB
:102EB000E1E0660F771F881FBB1F62177307840747
:102EC000BA0720F0621B730B840BBA0BEE1F88F756
:102ED000E09508950E9471176894B1110C948C15B7
:102EE00008950E94711588F09F5798F0B92F99277F
:102EF000B751B0F0E1F0660F771F881F991F1AF0E5
:102F0000BA95C9F714C0B13091F00E948B15B1E0A9
:102F100008950C948B15672F782F8827B85F39F0A8
:102F2000B93FCCF3869577956795B395D9F73EF47D
:102F300090958095709561957F4F8F4F9F4F089525
:102F4000DF93CF931F930F93FF92EF92DF927B015A
:102F50008C01689406C0DA2EEF010E94E714FE018E
:102F6000E894A5912591359145915591A6F3EF01EE
:102F70000E943116FE019701A801DA9469F7DF90EB
:102F8000EF90FF900F911F91CF91DF9108950E94D4
:102F9000B01408F48FEF08959B01AC0160E070E07D
:102FA00080E89FE30C94F81619F416F40C94471576
:102FB0000C941E180E947115B8F39923C9F3B6F347
:102FC0009F57550B87FF0E942C180024A0E640EA6B
:102FD000900180585695979528F4805C660F771F6E
:102FE000881F20F026173707480730F4621B730B41
:102FF000840B202931294A2BA69517940794202564
:1030000031254A2758F7660F771F881F20F02617AB
:103010003707480730F4620B730B840B200D311D0A
:10302000411DA09581F7B901842F9158880F96957D
:10303000879508959B01AC010C94D4149F3F31F007
:10304000915020F4879577956795B795880F911DD6
:103050009695879597F9089591505040660F771F80
:10306000881FD2F70895AA1BBB1B51E107C0AA1FF6
:10307000BB1FA617B70710F0A61BB70B881F991F19
:103080005A95A9F780959095BC01CD010895EE0F52
:10309000FF1F0590F491E02D0994CF93DF938230C8
:1030A000910510F482E090E0E0911406F09115068D
:1030B00020E030E0C0E0D0E0309711F14081518154
:1030C00048175907C0F04817590761F48281938166
:1030D000209719F09B838A832BC0909315068093C9
:1030E000140626C02115310519F04217530718F4AC
:1030F0009A01BE01DF01EF010280F381E02DDCCFF8
:103100002115310509F1281B390B2430310590F4C4
:1031100012968D919C9113976115710521F0FB0119
:103120009383828304C09093150680931406FD0157
:10313000329644C0FD01E20FF31F81939193225018
:1031400031092D933C933AC0209112063091130619
:10315000232B41F420910C0130910D013093130683
:103160002093120620910A0130910B01211531059F
:1031700041F42DB73EB740910E0150910F01241B31
:10318000350BE0911206F0911306E217F307A0F455
:103190002E1B3F0B2817390778F0AC014E5F5F4FAD
:1031A0002417350748F04E0F5F1F509313064093C6
:1031B00012068193919302C0E0E0F0E0CF01DF912D
:1031C000CF9108950F931F93CF93DF93009709F446
:1031D0008CC0FC0132971382128200911406109168
:1031E00015060115110581F420813181820F931F8D
:1031F00020911206309113062817390779F5F093BC
:103200001306E093120671C0D80140E050E0AE17FB
:10321000BF0750F412962D913C911397AD012115E3
:10322000310509F1D901F3CF9D01DA0133832283FE
:1032300060817181860F971F8217930769F4EC01F3
:1032400028813981260F371F2E5F3F4F318320831E
:103250008A819B8193838283452B29F4F093150601
:10326000E093140642C01396FC93EE931297ED017F
:10327000499159919E01240F351FE217F30771F40C
:1032800080819181840F951F029611969C938E9355
:103290008281938113969C938E931297E0E0F0E0E5
:1032A000D80112968D919C911397009719F0F8010F
:1032B0008C01F6CF8D919C9198012E5F3F4F820F2C
:1032C000931F20911206309113062817390769F4CD
:1032D000309729F4109215061092140602C013823A
:1032E00012821093130600931206DF91CF911F9163
:1032F0000F910895A0E0B0E0E0E8F9E10C94B51575
:10330000EC01009721F4CB010E944D18B8C0FC01DC
:10331000E60FF71F9C0122503109E217F30708F46A
:10332000ACC0D9010D911C91119706171707B0F089
:103330000530110508F49FC0C80104978617970748
:1033400008F499C002501109061B170B0193119341
:103350006D937C93CF010E94E2188DC05B01A01A8F
:10336000B10A4C01800E911EA0911406B091150671
:1033700040E050E0E12CF12C109709F44AC0A81568
:10338000B905D1F56D907C901197630182E0C80E6C
:10339000D11CCA14DB0480F1A3014A195B096A013C
:1033A00082E0C80ED11C1296BC9012971396AC9175
:1033B000B5E0CB16D10440F0B282A38351834083A1
:1033C000D9016D937C930AC00E5F1F4FC301800F1C
:1033D000911FF90191838083EB2DFA2FE114F10401
:1033E00031F0D7011396FC93EE93129744C0F093FB
:1033F0001506E09314063FC08D919C9111974817D4
:10340000590708F4AC017D0112960D90BC91A02DD6
:10341000B3CF809112069091130688159905E1F4B7
:1034200046175707C8F480910A0190910B01009745
:1034300041F48DB79EB740910E0150910F01841B4E
:10344000950BE817F907C8F4F0931306E0931206FA
:10345000F901718360830FC0CB010E944D187C017C
:10346000009759F0A801BE010E94491ACE010E949E
:10347000E218C70104C0CE0102C080E090E0CDB7E1
:10348000DEB7EEE00C94D11581E090E0F8940C9456
:10349000681AFB01DC0102C001900D9241505040BE
:1034A000D8F70895FB01DC0101900D920020E1F7AF
:1034B0000895FB01DC014150504048F001900D920D
:1034C0000020C9F701C01D9241505040E0F7089517
:1034D00010E0C6E9D0E004C0FE010E944718219622
:0A34E000C739D107C9F7F894FFCFF0
:1034EA00010000803FEA0001A109000016068000E1
:1034FA00327C8900EDD9687700000059000000008D
:10350A0000000000D69FDCA81817AA90437327F67C
:10351A00B968EDF4DED409FEE61C1C84DDE80B99DB
:10352A002927D6DF8D210F036418EFEE1EC8B700D6
:10353A008200941500347C0000001400988F00006B
:10354A00000000000000000000E7B73F360000005E
:10355A0000000000AF669ED03800000000000000A6
:10356A000000000000000000000000000000000051
:10357A000000000000000000000000000000000041
:10358A000000000000000000000000000000000031
:10359A000000000000000000000000000000000021
:1035AA000000000000000000000000000000000011
:1035BA000000000000000000000000000000000001
:1035CA0000000000000000000000000000000000F1
:1035DA0000000000000000000000000000000000E1
:1035EA00000000000000000000CC31AA2C532E007D
:1035FA0000000000690C010C2C0CB00CC1003B0C43
:10360A004F0C000000002301010CD7001E01E60048
:0C361A000801F500413A0020533A00007E
:107800000C94343C0C94513C0C94513C0C94513CE1
:107810000C94513C0C94513C0C94513C0C94513CB4
:107820000C94513C0C94513C0C94513C0C94513CA4
:107830000C94513C0C94513C0C94513C0C94513C94
:107840000C94513C0C94513C0C94513C0C94513C84
:107850000C94513C0C94513C0C94513C0C94513C74
:107860000C94513C0C94513C11241FBECFEFD8E036
:10787000DEBFCDBF11E0A0E0B1E0ECE9FFE702C060
:1078800005900D92A230B107D9F712E0A2E0B1E065
:1078900001C01D92AD30B107E1F70E942D3D0C945F
:1078A000CC3F0C94003C982F959595959595959582
:1078B000905D8F708A307CF0282F295A8091C0000B
:1078C00085FFFCCF9093C6008091C00085FFFCCF60
:1078D0002093C6000895282F205DF0CF982F809127
:1078E000C00085FFFCCF9093C6000895EF92FF92F1
:1078F0000F931F93EE24FF2487018091C00087FD22
:1079000017C00894E11CF11C011D111D81E4E8164B
:1079100082E4F8068FE0080780E0180770F3E09132
:107920000401F091050109958091C00087FFE9CF1E
:107930008091C6001F910F91FF90EF9008950E94D3
:10794000763C982F8091C00085FFFCCF9093C600B5
:1079500091362CF490330CF09053892F089597555D
:10796000892F08951F930E949F3C182F0E949F3CCF
:107970001295107F810F1F9108951F93182F882350
:1079800021F00E94763C1150E1F71F9108951F935A
:10799000182F0E94763C803249F0809103018F5F5E
:1079A000809303018530C1F01F9108958091C0003C
:1079B00085FFFCCF84E18093C6008091C00085FFE5
:1079C000FCCF1093C6008091C00085FFFCCF80E102
:1079D0008093C6001F910895E0910401F091050184
:1079E00009951F9108950E94763C803241F0809164
:1079F00003018F5F80930301853081F008958091AA
:107A0000C00085FFFCCF84E18093C6008091C00058
:107A100085FFFCCF80E18093C6000895E0910401CA
:107A2000F09105010995089540E951E08823A1F0FE
:107A30002D9A28EE33E0FA013197F1F721503040CA
:107A4000D1F72D9828EE33E0FA013197F1F7215064
:107A50003040D1F7815061F708953F924F925F9285
:107A60006F927F928F929F92AF92BF92CF92DF924E
:107A7000EF92FF920F931F93CF93DF93000080E16B
:107A80008093C4001092C50088E18093C10086E015
:107A90008093C2005098589A259A81E00E94143D24
:107AA00024E1F22E9EE1E92E85E9D82E0FE0C02ECA
:107AB00010E1B12EAA24A394B1E49B2EA6E58A2E50
:107AC000F2E57F2EE0E26E2E79E4572E63E5462E36
:107AD00050E5352E0E94763C8033B1F18133B9F107
:107AE000803409F46FC0813409F476C0823409F41B
:107AF00085C0853409F488C0803531F1823521F1A3
:107B0000813511F1853509F485C0863509F48DC0BC
:107B1000843609F496C0843709F403C1853709F423
:107B200072C1863709F466C0809103018F5F80932C
:107B30000301853079F6E0910401F0910501099582
:107B40000E94763C803351F60E94F33CC3CF0E94E2
:107B5000763C803249F78091C00085FFFCCFF092DF
:107B6000C6008091C00085FFFCCF9092C600809136
:107B7000C00085FFFCCF8092C6008091C00085FFC9
:107B8000FCCF7092C6008091C00085FFFCCF609250
:107B9000C6008091C00085FFFCCF5092C600809146
:107BA000C00085FFFCCF4092C6008091C00085FFD9
:107BB000FCCF3092C6008091C00085FFFCCFB09210
:107BC000C60088CF0E94763C863808F4BDCF0E945C
:107BD000763C0E94F33C7ECF0E94763C803809F4CC
:107BE0009CC0813809F40BC1823809F43CC1883942
:107BF00009F48FC080E00E94C73C6CCF84E10E94F2
:107C0000BD3C0E94F33C66CF85E00E94BD3C0E94D3
:107C1000F33C60CF0E94763C809306010E94763C44
:107C2000809307010E94F33C55CF0E94763C80333D
:107C300009F41DC183E00E94BD3C80E00E94C73C66
:107C400049CF0E94763C809309020E94763C809343
:107C5000080280910C028E7F80930C020E94763C79
:107C6000853409F415C18091080290910902892B8D
:107C700089F000E010E00E94763CF801E85FFE4FDA
:107C800080830F5F1F4F80910802909109020817AF
:107C9000190788F30E94763C803209F045CF809125
:107CA0000C0280FF01C16091060170910701660F0F
:107CB000771F7093070160930601A0910802B091AD
:107CC00009021097C9F0E8E0F1E09B01AD014E0F09
:107CD0005F1FF999FECF32BD21BD819180BDFA9A17
:107CE000F99A2F5F3F4FE417F50799F76A0F7B1F4B
:107CF00070930701609306018091C00085FFFCCF5F
:107D0000F092C6008091C00085FFFCCFB092C60003
:107D1000E1CE83E00E94C73CDDCE82E00E94C73CFA
:107D2000D9CE0E94763C809309020E94763C8093D3
:107D300008028091060190910701880F991F909386
:107D40000701809306010E94763C853409F4A6C0A1
:107D500080910C028E7F80930C020E94763C8032D0
:107D600009F0B8CE8091C00085FFFCCFF092C6002C
:107D7000609108027091090261157105B9F140E046
:107D800050E080910C02A82FA170B82FB27011C0E2
:107D9000BB2309F45CC0E0910601F0910701319624
:107DA000F0930701E09306014F5F5F4F46175707B7
:107DB000E8F4AA2369F3F999FECF209106013091E6
:107DC000070132BD21BDF89A90B58091C00085FFB2
:107DD000FCCF9093C6002F5F3F4F30930701209355
:107DE00006014F5F5F4F4617570718F38091C00099
:107DF00085FDE5CE8091C00085FFF8CFE0CE81E023
:107E00000E94C73C67CE0E94763C803209F08CCE3F
:107E10008091C00085FFFCCFF092C6008091C00029
:107E200085FFFCCFE092C6008091C00085FFFCCFAB
:107E3000D092C6008091C00085FFFCCFC092C600E2
:107E40008091C00085FFFCCFB092C60043CEE09188
:107E50000601F091070194918091C00085FFFCCF4D
:107E60009093C6009CCF80E10E94C73C33CE0E9415
:107E7000763C0E94763C182F0E94763C112309F430
:107E800083C0113009F484C08FE00E94C73C22CE29
:107E900080910C02816080930C02E5CE80910C02EF
:107EA000816080930C0259CF809107018823880F4D
:107EB000880B8A2180930B02809106019091070123
:107EC000880F991F90930701809306018091080203
:107ED00080FF09C080910802909109020196909359
:107EE000090280930802F894F999FECF1127E091D6
:107EF0000601F0910701C8E0D1E08091080290915D
:107F00000902103091F40091570001700130D9F34B
:107F100003E000935700E89500915700017001308D
:107F2000D9F301E100935700E89509901990009169
:107F3000570001700130D9F301E000935700E89534
:107F40001395103498F011270091570001700130FB
:107F5000D9F305E000935700E895009157000170B0
:107F60000130D9F301E100935700E895329602976A
:107F700009F0C7CF103011F00296E5CF112480919F
:107F8000C00085FFB9CEBCCE8EE10E94C73CA2CD19
:0C7F900085E90E94C73C9ECDF894FFCF0D
:027F9C00800063
:040000030000780081
:00000001FF
