:100000000C9484000C94AC000C94AC000C949203FF
:100010000C9492030C9492030C94AC000C94AC00DE
:100020000C94AC000C94AC000C94AC000C94AC00A0
:100030000C94AC000C94AC000C94AC000C94AC0090
:100040000C9448030C94AC000C94CA020C94A402C7
:100050000C94AC000C94AC000C94AC000C94AC0070
:100060000C94AC000C94AC0063076307770795070A
:100070008B07A307B107CA07E5071008084AD73B53
:100080003BCE016E84BCBFFDC12F3D6C74319ABD67
:1000900056833DDA3D00C77F11BED9E4BB4C3E918B
:1000A0006BAAAABE000000803F000000000800020A
:1000B0000100000304070000000000000000000031
:1000C0000000250028002B0000000000240027006D
:1000D0002A00000000002300260029000404040474
:1000E00004040404020202020202030303030303E2
:1000F00001020408102040800102040810200102BF
:1001000004081020FF0DF50D11241FBECFEFD8E01D
:10011000DEBFCDBF12E0A0E0B1E0E4E1F6E202C054
:1001200005900D92AC32B107D9F725E0ACE2B2E010
:1001300001C01D92A539B207E1F710E0C3E8D0E095
:1001400004C02197FE010E94CF12C238D107C9F71F
:100150000E9481040C94FD120C940000CF92DF9257
:10016000EF92FF920F931F93CF93DF936C017A016D
:100170008B01C0E0D0E0CE15DF0589F0D8016D918C
:100180008D01D601ED91FC910190F081E02DC60129
:100190000995892B11F47E0102C02196ECCFC7018D
:1001A000DF91CF911F910F91FF90EF90DF90CF9053
:1001B0000895FC01538D448D252F30E0842F90E06D
:1001C000821B930B541710F0CF9608950197089552
:1001D000FC01918D828D981761F0828DDF01A80F4F
:1001E000B11D5D968C91928D9F5F9F73928F90E071
:1001F00008958FEF9FEF0895FC01918D828D9817E0
:1002000031F0828DE80FF11D858D90E008958FEF1C
:100210009FEF0895FC01918D228D892F90E0805CE5
:100220009F4F821B91098F739927089588ED94E061
:100230000E940A0121E0892B09F420E0822F089511
:10024000FC01848DDF01A80FB11DA35ABF4F2C9173
:10025000848D90E001968F739927848FA689B78942
:100260002C93A089B1898C9180648C93938D848D1B
:10027000981306C00288F389E02D80818F7D8083EA
:100280000895EF92FF920F931F93CF93DF93EC01AA
:1002900081E0888F9B8D8C8D981305C0E889F98942
:1002A000808185FD24C0F62E0B8D10E00F5F1F4F5F
:1002B0000F731127E02E8C8DE8120CC00FB607FCCF
:1002C000FACFE889F989808185FFF5CFCE010E94B8
:1002D0002001F1CF8B8DFE01E80FF11DE35AFF4F96
:1002E000F0820B8FEA89FB898081806207C0EE89EA
:1002F000FF896083E889F98980818064808381E057
:1003000090E0DF91CF911F910F91FF90EF900895B2
:10031000CF93DF93EC01888D8823C9F0EA89FB89AC
:10032000808185FD05C0A889B9898C9186FD0FC0A3
:100330000FB607FCF5CF808185FFF2CFA889B98978
:100340008C9185FFEDCFCE010E942001E7CFDF9198
:10035000CF91089580E090E0892B29F00E9416014A
:1003600081110C94000008952FB7F89460917102E8
:100370007091720280917302909174022FBF089560
:1003800020917702309178022817390771F4909103
:10039000750280917602981741F0E0917502F0E0C5
:1003A000E45DFD4F808190E008958FEF9FEF089509
:1003B00008951F93CF93DF93DC015C962D913C91C0
:1003C0005D972115310539F481E090E013969C93F7
:1003D0008E9312973DC05196ED91FC915297509695
:1003E0009C915097892F80951FB75E964C915E9790
:1003F00041FB772770F941FD6095F89440817723A0
:1004000011F0492B01C048234083E9012197F1F7FE
:1004100048E0508160FF02C0592B01C0582350832F
:10042000E9012197F1F76695415099F7772321F07B
:1004300090818923808303C08081982B90831FBF84
:100440005C968D919C915D970197F1F721E030E0EA
:10045000C901DF91CF911F910895209177023091CA
:1004600078022817390771F480917602209175027D
:1004700090E0805C9F4F821B910960E470E00E94D5
:10048000BB12089580E090E00895209177023091AA
:10049000780228173907B9F4909175028091760295
:1004A000981789F0E0917502F0E0E45DFD4F8081DE
:1004B0002091750230E02F5F3F4F2F733327209339
:1004C000750290E008958FEF9FEF0895E091770215
:1004D000F0917802E817F90769F4A389B4899C912F
:1004E0008589809589238C931092780210927702E7
:1004F00081E0089580E0089580E090E008950895F7
:10050000FB012081822790E1899F900111242827F7
:10051000822F90E0582F44279C0163E0220F331F65
:100520006A95E1F742275327218130E024273527B8
:1005300074E0959587957A95E1F7822793279183C3
:10054000808308950E94D5121F920F920FB60F92CA
:1005500011242F933F934F935F936F937F938F93C8
:100560009F93AF93BF93EF93FF9388ED94E00E9426
:100570002001FF91EF91BF91AF919F918F917F915A
:100580006F915F914F913F912F910F900FBE0F9000
:100590001F9018951F920F920FB60F9211242F9350
:1005A0008F939F93EF93FF93E091E804F091E90418
:1005B0008081E091EE04F091EF0482FD12C0908101
:1005C0008091F1048F5F8F732091F204821751F0B4
:1005D000E091F104F0E0E852FB4F958F8093F10435
:1005E00001C08081FF91EF919F918F912F910F908A
:1005F0000FBE0F901F90189590E0FC01E655FF4F3D
:100600003491FC01E051FF4F2491FC01E452FF4F73
:10061000E491EE2309F43BC0332339F1333091F0F8
:1006200038F43130A9F0323001F584B58F7D12C035
:10063000373091F03830A1F03430B9F48091800037
:100640008F7D03C0809180008F77809380000DC0E4
:1006500084B58F7784BD09C08091B0008F7703C0C7
:100660008091B0008F7D8093B000F0E0EE0FFF1F0F
:10067000E254FF4FA591B4918FB7F894EC916111BA
:1006800003C020952E2301C02E2B2C938FBF0895DD
:100690001F920F920FB60F9211242F933F938F93B7
:1006A0009F93AF93BF938091710290917202A0913A
:1006B0007302B09174023091700223E0230F2D3742
:1006C00020F40196A11DB11D05C026E8230F029656
:1006D000A11DB11D2093700280937102909372024C
:1006E000A0937302B093740280916C0290916D029A
:1006F000A0916E02B0916F020196A11DB11D809371
:100700006C0290936D02A0936E02B0936F02BF9142
:10071000AF919F918F913F912F910F900FBE0F90AE
:100720001F9018951F920F920FB60F9211242F93BE
:100730003F934F935F936F937F938F939F93AF9369
:10074000BF93EF93FF93E0917702F0917802309797
:1007500009F451C0968DA685B785858591FF04C0A3
:100760009C91892329F447C09C91892309F043C0B7
:10077000A389B4899C918589809589238C938689E6
:1007800097890197F1F7608D718DA685B78555859D
:1007900038E020E0CB010197F1F7822F90E09595AA
:1007A0008795282F4C91452309F02068315091F707
:1007B000868D81FD20958091760290E001968F7361
:1007C000992730917502381749F0A0917602B0E070
:1007D000A45DBD4F2C938093760203C0868D81600B
:1007E000868F828D938D0197F1F7A389B4899C91AF
:1007F0008589892B8C93FF91EF91BF91AF919F9148
:100800008F917F916F915F914F913F912F910F90B9
:100810000FBE0F901F901895CF92DF92EF92FF922C
:100820000F931F93CF93DF931F92CDB7DEB7D82ED0
:10083000F62EC42E8091D2049091D304DC01ED9168
:10084000FC910190F081E02D64E27983099580911B
:10085000D2049091D304DC01ED91FC910190F081E0
:10086000E02D6DE409958091D2049091D304DC01D0
:10087000ED91FC910190F081E02D6CE30995809160
:10088000D2049091D304DC01ED91FC910190F081B0
:10089000E02D6C2D09958091D2049091D304DC0158
:1008A000ED91FC910190F081E02D6D2D0995DC24F6
:1008B000EF2C0F2D7981172F8091D2049091D304C2
:1008C000202F2E192C1560F4F80161918F01D62686
:1008D000DC01ED91FC910190F081E02D0995ECCFC8
:1008E000DC01ED91FC910190F081E02D6D2D0F90D8
:1008F000DF91CF911F910F91FF90EF90DF90CF90FC
:100900000994CF93DF93CDB7DEB7C255D2400FB66F
:10091000F894DEBF0FBECDBF789484B5826084BDED
:1009200084B5816084BD85B5826085BD85B58160F3
:1009300085BD80916E00816080936E001092810071
:10094000809181008260809381008091810081602C
:1009500080938100809180008160809380008091ED
:10096000B10084608093B1008091B0008160809379
:10097000B00080917A00846080937A0080917A0040
:10098000826080937A0080917A00816080937A00FF
:1009900080917A00806880937A001092C100E09183
:1009A000E804F091E90482E08083E091E404F091AE
:1009B000E5041082E091E604F091E70480E1808391
:1009C0001092F004E091EC04F091ED0486E0808355
:1009D000E091EA04F091EB04808180618083E091F2
:1009E000EA04F091EB04808188608083E091EA045E
:1009F000F091EB04808180688083E091EA04F091BB
:100A0000EB0480818F7D808388ED94E09093D30404
:100A10008093D20484EF91E0A0E0B0E08093D4040E
:100A20009093D504A093D604B093D7041092910567
:100A30001092900510928F0510928E0510928D05E0
:100A400010928C0582E490E0909393058093920538
:100A500090918205963108F057C02FE030E0309336
:100A60008D0520938C0520E430E030938F05209392
:100A70008E0527E230E03093910520939005209178
:100A80006800983050F031E09E3008F430E081E0AA
:100A900001C0880F3A95EAF701C084E0822B809369
:100AA0006800983038F09E3040F0963148F020E0F1
:100AB00030E008C02DE630E005C02BE630E002C093
:100AC0002CE630E030938A0520938905983030F485
:100AD00081E001C0880F9A95EAF70EC0292F30E017
:100AE0009E3018F42850310902C02E50310981E09F
:100AF00001C0880F2A95EAF780938B0580919205B3
:100B0000909193050197F1F780919005909191054F
:100B1000892B21F1809177029091780225E0863728
:100B20009207E1F0009711F00E946602809194050F
:100B30008E7F80939405109276021092750286E75C
:100B400095E09093780280937702E0918905F09187
:100B50008A05908180918B05892B808346EA50E03D
:100B60004C0F5D1F4E5F5F4FC25BDD4F5983488363
:100B7000CE54D2401E0152E1251A5EEF350AC10162
:100B80000E96C05BDD4F99838883C055D24080911B
:100B9000D1049091CC042091050130910401409141
:100BA000CD045091CE046091CF047091D004C25511
:100BB000DF4F488359836A837B83CE5AD040CE541B
:100BC000DF4F3883C25BD040CD54DF4F2883C35BF7
:100BD000D040CC54DF4F9883C45BD040CB54DF4F20
:100BE0008883C55BD04083E0CA54DF4F8883C65BEF
:100BF000D040C355DF4F1882CD5AD0408EEFC85534
:100C0000DF4F8883C85AD04089E0C755DF4F8883BB
:100C1000C95AD04087ECC555DF4F8883CB5AD040A6
:100C200082E3C455DF4F8883CC5AD0408091800244
:100C3000C655DF4F8883CA5AD0408F5F80938002A9
:100C40008FEF9FEF9A83898356EAE52EF12CEC0E05
:100C5000FD1E93E0E90EF11C06EA10E00C0F1D1FCB
:100C60000F5E1F4FBE016F5F7F4FE016F10631F040
:100C7000D7018D917D010E948002F4CF82E30E9412
:100C8000800299818A81C755DF4F2881C95AD04097
:100C9000EEEAF0E0EC0FFD1FE20FF11D9083C75567
:100CA000DF4F9881C95AD040EFEAF0E0EC0FFD1F0A
:100CB000E90FF11D8083C755DF4F0881C95AD04025
:100CC00010E0085F1F4FA801C25BDD4F688179818A
:100CD000CE54D240CE018E579E4F0E94DA120E940F
:100CE000B4012091CA043091CB04FB01E21BF30B49
:100CF0009F01283E334008F4C8C07093CB04609332
:100D0000CA04A801BE016E577E4F86E795E00E9497
:100D1000AE00809175058F5F809375058C3308F464
:100D2000B4C0FE01E250FE4F87E0DF011D928A95BC
:100D3000E9F781E0808382E0818383E0828386E03B
:100D400083838AE084838BE085838EE0D1011D92CA
:100D50008A95E9F782E090E0D10111969C938E93F9
:100D600013969C938E93129725E030E015963C9352
:100D70002E93149717969C938E93169719963C93DF
:100D80002E9318971B969C938E931A9761018F014F
:100D90007724739492E4692E2EEF522E36E0432E80
:100DA000AA24AA94BA2C4E01BFE08B0E911CF60126
:100DB000819191916F01D8012D918D019A87898739
:100DC0007B861C862D877E8668865B824C8282E0CD
:100DD0008E8388EC8F83809180028D838F5F8093D8
:100DE0008002CA5EDD4FB982A882C651D240FE01A0
:100DF00034967F01BE016A5E7D4FE814F90431F03C
:100E0000D7018D917D010E948002F4CF84E90E9478
:100E10008002CA5EDD4F9881C651D240C95EDD4F67
:100E20008881C751D2402C81E9E0F0E0EC0FFD1F32
:100E3000E20FF11D90839C81EAE0F0E0EC0FFD1FD2
:100E4000E90FF11D8083EC80F12CB8E0EB0EF11C72
:100E5000A701BE016D5F7F4FCE018A5E9E4F0E944B
:100E6000DA12A701BE016A5E7E4F86E795E00E9416
:100E7000AE00C05BDD4FE881F981C055D240CE168F
:100E8000DF0609F094CF1092750501E010E086E7C7
:100E900095E00E942D02181619060CF008C286E78C
:100EA00095E00E9445027C01982F10927902E09112
:100EB0007C02F0917D02EA30F10508F0FBC0EC5CA9
:100EC000FF4F0C94CF128E3F09F0F4C022E030E0C7
:100ED00030937D0220937C021092AC02E092AB0230
:100EE0004FEF5FEF5093AA024093A902E3C085360B
:100EF00030F080917A028F5F80937A02AAC0E092EC
:100F0000AC0210927E0269EA72E08E2D0E9480028D
:100F100084E090E03AC0E092AD0269EA72E08E2D82
:100F20000E948002A3E0B0E04BC0E092AE0269EA0A
:100F300072E08E2D0E948002E5E0F0E0F0937D02E9
:100F4000E0937C02B7C0E092AF0269EA72E08E2DB6
:100F50000E94800226E030E030937D0220937C02E4
:100F6000A9C0E092B00269EA72E08E2D0E94800270
:100F70008091AC02811107C048E050E050937D029F
:100F800040937C0297C087E090E090937D0280932D
:100F90007C0290C0E0917E02FF24F394FE0EF0925A
:100FA0007E02F0E0EF54FD4FE08269EA72E08E2DA0
:100FB0000E9480028091AC02F8127CC0A8E0B0E0F0
:100FC000B0937D02A0937C0275C0E091B002F0E086
:100FD000EA5FFE4F69EA72E08081CE5ADD4F988366
:100FE000C255D2400E9480022091A9023091AA02EB
:100FF0003327A7015527CE5ADD4F9881C255D240DD
:101000004217530721F549E050E050937D02409389
:101010007C02E0917E02F0E0EF54FD4FE0824AC096
:101020005091AA02C45BDD4F5883CC54D240C35BBD
:10103000DD4F1882CD54D24097013327C45BDD4F7A
:10104000A881B981CC54D2402A173B07B1F09E3F0A
:1010500029F010937D0200937C022CC0E2E0F0E0C6
:10106000F0937D02E0937C021092AC022FEF3FEFF1
:101070003093AA022093A9021DC081E080937902D7
:1010800010937D0200937C02E0917E02F0E0EE542A
:10109000FD4FE08280E7E9EAF2E0DE01119601907F
:1010A0000D928A95E1F73091B002C55BDD4F388330
:1010B000CB54D24020917902213099F48091AD0235
:1010C00080937F028091810290918202009721F4A7
:1010D0001092840210928302019690938202809370
:1010E000810210927B02222309F4D1CEC55BDD4F31
:1010F0004881CB54D240413209F458C070F4413099
:1011000051F108F4BBC0483109F0C1CE8EA19DA1B8
:1011100090936D0480938104BACEC55BDD4F5881F6
:10112000CB54D240513309F47AC05A3431F153329E
:1011300009F0ADCE2E8D30E0AFEFB3E00E947E100F
:101140002FEF30E040E050E00E943D1030938B04E0
:1011500020938A049CCE298D3A8D4FA18F89988D3A
:1011600064E670E00E94A71260938C0440937604BA
:101170003093C7042093C6048ACE8D859E85AF85A3
:10118000B88949855A856B857C8540937204509354
:101190007304609374047093750480938D0490932A
:1011A0008E04A0938F04B093900471CE4D845E841E
:1011B0006F84788889889A88AB88BC88CD88DE88D7
:1011C000EF88F88C698D7A8D8B8D9C8D2BA13CA13D
:1011D00030937C0420937B0428EE33E040E050E021
:1011E0000E943D1030939204209391044092860413
:1011F00050928704609288047092890480928204DD
:1012000090928304A0928404B0928504C0926E04EC
:10121000D0926F04E0927004F092710438CE8CE0AA
:10122000FE013996DE01A65FBD4F01900D928A95B1
:10123000E1F74D855E856F85788989899A89AB89C3
:10124000BC89C984DA84EB84FC84C092B804D0924F
:10125000B904E092BA04F092BB044093770450932F
:1012600078046093790470937A048093690490936E
:101270006A04A0936B04B0936C0409CE49855A8527
:101280006B857C852D859E8588893F853093CC0430
:1012900020930401909305014093CD045093CE0414
:1012A0006093CF047093D0048093D104F0CD0E945A
:1012B000B4012091C8043091C904DB01A21BB30B17
:1012C000A83CB10508F4A8C37093C9046093C8048E
:1012D0008091B8049091B904A091BA04B091BB0474
:1012E0000097A105B10509F497C08090770490900C
:1012F0007804A0907904B0907A0481149104A10438
:10130000B10409F489C000918604109187042091EA
:10131000880430918904BC01CD01601B710B820BE4
:10132000930B0E94200F6B017C01809182049091AD
:101330008304A0918404B0918504A5019401281B25
:10134000390B4A0B5B0BCA01B9010E94200F209197
:1013500000013091010140910201509103010E946E
:101360007F0F2B013C01A7019601C701B6010E9426
:101370007F0F4B015C01A3019201C301B2010E94E6
:101380007F0F9B01AC01C501B4010E948E100E9429
:101390004E122CE23DE74EE85FE30E947F0F0E9471
:1013A000E5114B015C01C701B6019058A301920100
:1013B0000E940D1120EA3CE043EB55E40E947F0FB0
:1013C00020E030EA4CE056E40E948E100E94DE11CC
:1013D0006B017C0197FF06C030EAC30E3CE8D31EC8
:1013E000E11CF11C84E6482E512C612C712CC501A6
:1013F000B401A30192010E945C10309380042093F9
:101400007F04C701B601A30192010E943D103093F1
:101410007E0420937D0408C01092800410927F0403
:1014200010927E0410927D048091CC0487FF12C03C
:1014300081E090E0A0E0B0E0C95DDD4F8883998352
:10144000AA83BB83C752D240F10186839783A087CA
:10145000B1870FC0C95DDD4F188219821A821B82C5
:10146000C752D240D10116961D921D921D921C9218
:10147000199704E0C85BDD4F0883C854D24081E06F
:10148000C75BDD4F8883C954D240C65BDD4F88837C
:10149000CA54D24043E0BE01685B7D4F83E00E94A6
:1014A0000C041AE0EDEAF4E0DF01212F1D922A95E9
:1014B000E9F7E3EAF4E0DF01212F1D922A95E9F72D
:1014C0008CE0E7E9F4E0DF011D928A95E9F71092DC
:1014D000930410929404109295041092960481E45F
:1014E0008093970480E28093930483E5809394042F
:1014F0004AE06DEA74E080919104909192040E9418
:10150000E40E26E636E646E650E460918D047091DE
:101510008E0480918F04909190040E947F0F0E940E
:10152000E511DC01CB014AE063EA74E00E94E40EBD
:101530006DEA74E087E994E00E94E31263E974E0E5
:1015400087E994E00E94E31263EA74E087E994E09B
:101550000E94E3124CE050E067E974E0CE01825053
:101560009E4F0E94EE124CE0BE0162507E4F8AE018
:101570000E940C044BE0BE016F5D7D4F85E60E942A
:101580000C0480918C04CA5CDD4F8883C653D24022
:1015900080918A0490918B04C75CDD4F9983888386
:1015A000C953D2408091C6049091C704C55CDD4FF9
:1015B00099838883CB53D2408091BC049091BD0421
:1015C000C95CDD4F99838883C753D24047E0BE0191
:1015D0006A5C7D4F8EE60E940C048091C604909157
:1015E000C704C45EDD4F99838883CC51D24080917B
:1015F0008C0490E0C15EDD4F99838883CF51D24047
:101600008091BC049091BD04C65EDD4F99838883B0
:10161000CA51D240CA5EDD4F0883C651D24080E530
:1016200094E1C95EDD4F99838883C751D24088EA2F
:10163000C75EDD4F8883C951D240C25EDD4F18823C
:10164000CE51D2404BE0BE016A5E7D4F82E80E94DF
:101650000C0440E1B10186E90E940C0480918604EB
:1016600090918704A0918804B0918904C85EDE4FF0
:1016700088839983AA83BB83C851D1408091820417
:1016800090918304A0918404B0918504C45EDE4FE0
:1016900088839983AA83BB83CC51D14080918104F4
:1016A000C95EDE4F8883C751D14042E1BE016A5E08
:1016B0007E4F8AE60E940C0480917F049091800402
:1016C000CD5BDD4F99838883C354D24080917D04E4
:1016D00090917E04CB5BDD4F99838883C554D240C3
:1016E00045E0BE016D5B7D4F8BE60E940C0480914E
:1016F0007F0490918004893EB3E09B075CF064E630
:1017000070E00E94BB12C15CDD4F79836883CF53C8
:10171000D2400BC0189F9001199F300D1124C15C5D
:10172000DD4F39832883CF53D24080917B04909141
:101730007C0464E670E00E94A71280917D04909181
:101740007E04861B970B4AE0489F9001499F300D0D
:101750001124C35CDD4F39832883CD53D24046E04A
:10176000BE01635C7D4F8CE60E940C04C45DDD4FBE
:10177000188219821A821B82CC52D2404AE0BE01E2
:10178000645D7D4F8DE60E940C0488E3888788E1C4
:10179000EE968FAFEE9782E090E0CA56DF4F9983C6
:1017A0008883C659D04080E1C256DF4F8883CE5926
:1017B000D04081E0CD55DF4F8883C35AD040CC550F
:1017C000DF4F8883C45AD040CB55DF4F1882C55AAB
:1017D000D04084E098E09C878B8787E198E09E87E3
:1017E0008D878AEE90E0988B8F879A8B898B9C8B64
:1017F0008B8B9E8B8D8B988F8F8B9A8F898F21EC03
:1018000039E03C8F2B8F9E8F8D8F98A38F8F27E38E
:1018100038E03AA329A328E538E03CA32BA39EA3F4
:101820008DA321EA39E038A72FA39AA789A79CA7FF
:101830008BA79EA78DA798AB8FA79AAB89AB9CABC4
:101840008BAB9EAB8DAB98AF8FAB21E438E03AAF5A
:1018500029AF21E238E03CAF2BAF9EAF8DAF28EB34
:1018600039E021963FAF2EAF219728E939E0239642
:101870003FAF2EAF239725969FAF8EAF2597279624
:101880009FAF8EAF279729969FAF8EAF29972B9644
:101890009FAF8EAF2B972D969FAF8EAF2D972F9624
:1018A0009FAF8EAF2F9761969FAF8EAF6197639674
:1018B0009FAF8EAF639765969FAF8EAF6597679624
:1018C0009FAF8EAF679769969FAF8EAF69976B9604
:1018D0009FAF8EAF6B976D969FAF8EAF6D976F96E4
:1018E0009FAF8EAF6F97A1969FAF8EAFA197A39634
:1018F0009FAF8EAFA397A5969FAF8EAFA597A796E4
:101900009FAF8EAFA797A9969FAF8EAFA997AB96C3
:101910009FAF8EAFAB97AD969FAF8EAFAD97AF96A3
:101920009FAF8EAFAF97E1969FAF8EAFE197E396F3
:101930009FAF8EAFE397E5969FAF8EAFE597E796A3
:101940009FAF8EAFE797E9969FAF8EAFE997EB9683
:101950009FAF8EAFEB97ED969FAF8EAFED9745EAB9
:10196000BE016F5F7F4F84E50E940C046091C60446
:101970007091C704072E000C880B990B0E94200F52
:1019800020E030E040E251E40E947F0F6B017C01D7
:101990000E94B4010E941E0F2091C2043091C30422
:1019A0004091C4045091C5040E948D109B01AC016C
:1019B000C701B6010E947F0F20E03AEB4BE55AE4E5
:1019C0000E946C112DE73FE345E95FE30E947F0F22
:1019D0002091BE043091BF044091C0045091C104D5
:1019E0000E948E106093BE047093BF048093C00465
:1019F0009093C1040E94E5117093BD046093BC04F0
:101A00000E94B4010E941E0F6093C2047093C3042D
:101A10008093C4049093C5046091B8047091B90494
:101A20008091BA049091BB046115710581059105FF
:101A300009F4D7C02091B7042111D3C00E94200F10
:101A40009F7720E836E948E15BE40E946C1125E3CA
:101A50003AEF4EE85CE30E947F0F2BED3FE049EC4C
:101A60005FE30E948E106B017C010E94DE11DC019D
:101A7000CB018096A11DB11D81349105A105B10551
:101A800008F0A1C02BED3FE049E450E4C701B601E6
:101A90000E943B1218165CF42BED3FE049EC50E439
:101AA000C701B6010E948D106B017C01EBCF2BEDBD
:101AB0003FE049E450ECC701B6010E94190F87FFCF
:101AC0000BC02BED3FE049EC50E4C701B6010E948A
:101AD0008E106B017C01EBCF2BED3FE049EC5FE317
:101AE000C701B6010E943B1218167CF42BED3FE0B3
:101AF00049EC5FE3C701B6010E948D109B01AC0168
:101B00006BED7FE089EC9FE318C02BED3FE049ECE3
:101B10005FEBC701B6010E94190F87FF12C02BEDC2
:101B20003FE049EC5FE3C701B6010E948E109B01C4
:101B3000AC016BED7FE089EC9FEB0E948D106B0197
:101B40007C01A7019601C701B6010E947F0F4B01DE
:101B50005C019B01AC01C701B6010E947F0F2B0104
:101B60003C0120E030E0A901C501B4010E947F0FD3
:101B700022E937EE41E459E30E948D109B01AC014C
:101B8000C501B4010E947F0F27E930E348E05CE320
:101B90000E948E109B01AC01C501B4010E947F0F11
:101BA00025E138EA4AE25EE30E948D109B01AC0118
:101BB000C301B2010E947F0F9B01AC01C701B601B6
:101BC0000E948E1003C060E070E0CB0160930001C2
:101BD00070930101809302019093030181E080934F
:101BE000B7040E94AA010C94C7058CE192E090937F
:101BF00077058093760586E795E00C946602CF938F
:101C0000DF931092DB041092DA0488EE93E0A0E0F8
:101C1000B0E08093DC049093DD04A093DE04B093E5
:101C2000DF042AE032E03093D9042093D80425EC75
:101C300030E03093E5042093E40424EC30E030936A
:101C4000E7042093E60420EC30E03093E90420938D
:101C5000E80421EC30E03093EB042093EA0422EC1A
:101C600030E03093ED042093EC0426EC30E0309328
:101C7000EF042093EE041092F1041092F2041092FB
:101C8000F3041092F4041092790510927805809371
:101C90007A0590937B05A0937C05B0937D058CE13C
:101CA00092E0909377058093760510928D051092BF
:101CB0008C0510928F0510928E051092910510924E
:101CC00090051092930510929205609194056E7F95
:101CD0006D7F609394056695617081E0682789E067
:101CE0000E94FC02E9EFF0E02491E5EEF0E084913F
:101CF000882399F090E0880F991FFC01E853FF4F6B
:101D0000A591B491FC01E254FF4F859194918FB756
:101D1000F894EC91E22BEC938FBFE9EFF0E0E491C3
:101D2000E0938605E5EEF0E0E491F0E0EE0FFF1FB2
:101D3000E254FF4F85919491909388058093870595
:101D4000E8EFF0E02491E4EEF0E084918823C1F024
:101D500090E0880F991FFC01E853FF4FC591D49183
:101D6000FC01E254FF4FA591B4919FB7F89488818C
:101D7000E22FE0958E2388838C91E823EC939FBF1C
:101D80008091940581FD04C061E088E00E94FC021E
:101D900088E080938205E8EFF0E0E491E09383052A
:101DA000E4EEF0E0E491F0E0EE0FFF1FEE52FF4FA3
:101DB0008591949190938505809384058CE380931D
:101DC0007505DF91CF910895BB274A3031F49923EF
:101DD00022F4BDE2909581959F4F0C94F00EBB27A5
:101DE000FB015527AA27880F991FAA1FA41710F0D7
:101DF000A41B83955051B9F7A05DAA3308F0A95DE3
:101E0000A193009779F7B111B1931192CB010C9482
:101E1000090FDC01FC01672F71917723E1F73297FD
:101E200004C07C916D9370836291AE17BF07C8F3B5
:101E300008950E945B0F08F481E00895E89409C0BA
:101E400097FB3EF490958095709561957F4F8F4FED
:101E50009F4F9923A9F0F92F96E9BB279395F69503
:101E6000879577956795B795F111F8CFFAF4BB0F81
:101E700011F460FF1BC06F5F7F4F8F4F9F4F16C0E5
:101E8000882311F096E911C0772321F09EE8872F6F
:101E9000762F05C0662371F096E8862F70E060E02B
:101EA0002AF09A95660F771F881FDAF7880F9695A4
:101EB000879597F90895990F0008550FAA0BE0E848
:101EC000FEEF16161706E807F907C0F012161306FC
:101ED000E407F50798F0621B730B840B950B39F43C
:101EE0000A2661F0232B242B252B21F408950A26A2
:101EF00009F4A140A6958FEF811D811D08950E94D0
:101F0000920F0C9403100E94F50F38F00E94FC0F02
:101F100020F0952311F00C94EC0F0C94F20F112487
:101F20000C9437100E94141070F3959FC1F3950F15
:101F300050E0551F629FF001729FBB27F00DB11D4D
:101F4000639FAA27F00DB11DAA1F649F6627B00DDD
:101F5000A11D661F829F2227B00DA11D621F739FC6
:101F6000B00DA11D621F839FA00D611D221F749FD4
:101F70003327A00D611D231F849F600D211D822F1B
:101F8000762F6A2F11249F5750409AF0F1F0882342
:101F90004AF0EE0FFF1FBB1F661F771F881F91506F
:101FA0005040A9F79E3F510580F00C94EC0F0C9423
:101FB00037105F3FE4F3983ED4F3869577956795A5
:101FC000B795F795E7959F5FC1F7FE2B880F911D99
:101FD0009695879597F9089597F99F6780E870E03F
:101FE00060E008959FEF80EC089500240A9416168F
:101FF000170618060906089500240A9412161306F7
:10200000140605060895092E0394000C11F4882384
:1020100052F0BB0F40F4BF2B11F460FF04C06F5FA0
:102020007F4F8F4F9F4F089557FD9058440F551F76
:1020300059F05F3F71F04795880F97FB991F61F04A
:102040009F3F79F087950895121613061406551FC1
:10205000F2CF4695F1DF08C0161617061806991F2D
:10206000F1CF86957105610508940895E894BB2722
:1020700066277727CB0197F90895052E97FB1EF465
:1020800000940E94541057FD07D00E945C1007FC7A
:1020900003D04EF40C9454105095409530952195F2
:1020A0003F4F4F4F5F4F0895909580957095619584
:1020B0007F4F8F4F9F4F0895A1E21A2EAA1BBB1B83
:1020C000FD010DC0AA1FBB1FEE1FFF1FA217B30704
:1020D000E407F50720F0A21BB30BE40BF50B661F1A
:1020E000771F881F991F1A9469F7609570958095DE
:1020F00090959B01AC01BD01CF010895A29FB00155
:10210000B39FC001A39F700D811D1124911DB29F2B
:10211000700D811D1124911D08955058BB27AA27C9
:102120000E94A5100C9403100E94F50F38F00E9435
:10213000FC0F20F039F49F3F19F426F40C94F20FB1
:102140000EF4E095E7FB0C94EC0FE92F0E941410BD
:1021500058F3BA17620773078407950720F079F4DC
:10216000A6F50C9436100EF4E0950B2EBA2FA02D88
:102170000B01B90190010C01CA01A0011124FF2734
:10218000591B99F0593F50F4503E68F11A16F0402F
:10219000A22F232F342F4427585FF3CF469537952E
:1021A0002795A795F0405395C9F77EF41F16BA0BF3
:1021B000620B730B840BBAF09150A1F0FF0FBB1FA1
:1021C000661F771F881FC2F70EC0BA0F621F731FEA
:1021D000841F48F4879577956795B795F7959E3F47
:1021E00008F0B0CF9395880F08F09927EE0F9795D8
:1021F000879508950E94F50F60F080E891E009F45A
:102200009EEF0E94FC0F28F040E851E071F45EEF71
:102210000CC00C94F20F0C943610E92FE0780E9459
:10222000141040F3092E052AB1F326173707480783
:10223000590738F00E2E07F8E02569F0E025E06434
:102240000AC0EF6307F8009407FADB01B9019D01AA
:10225000DC01CA01AD01EF930E9483110E940310BB
:102260000E943D115F91552339F02BED3FE049E489
:1022700050FD49EC0C948E100895DF93DD27B92FA3
:10228000BF7740E85FE31616170648075B0718F4A8
:10229000D92F0E9440129F938F937F936F930E9438
:1022A0008E12ECE7F0E00E9414120E9403102F91AE
:1022B0003F914F915F910E94920FDD2351F0905812
:1022C000A2EA2AED3FE049EC5FE3D0785D270E9467
:1022D000A510DF910C9403100E9480110C94031040
:1022E0000E94FC0F58F00E94F50F40F029F45F3F68
:1022F00029F00C94EC0F51110C9437100C94F20F40
:102300000E94141068F39923B1F3552391F3951BA0
:10231000550BBB27AA2762177307840738F09F5F06
:102320005F4F220F331F441FAA1FA9F335D00E2E73
:102330003AF0E0E832D091505040E695001CCAF7E0
:102340002BD0FE2F29D0660F771F881FBB1F2617A3
:1023500037074807AB07B0E809F0BB0B802DBF017A
:10236000FF2793585F4F3AF09E3F510578F00C9449
:10237000EC0F0C9437105F3FE4F3983ED4F386954E
:1023800077956795B795F7959F5FC9F7880F911D6A
:102390009695879597F90895E1E0660F771F881F56
:1023A000BB1F621773078407BA0720F0621B730B09
:1023B000840BBA0BEE1F88F7E09508950E94E51193
:1023C0006894B1110C94371008950E941C1088F085
:1023D0009F5798F0B92F9927B751B0F0E1F0660FE9
:1023E000771F881F991F1AF0BA95C9F714C0B1302A
:1023F00091F00E943610B1E008950C943610672FCA
:10240000782F8827B85F39F0B93FCCF38695779558
:102410006795B395D9F73EF4909580957095619541
:102420007F4F8F4F9F4F0895DF93CF931F930F934D
:10243000FF92EF92DF927B018C01689406C0DA2E46
:10244000EF010E94920FFE01E894A591259135912C
:1024500045915591A6F3EF010E94A510FE01970149
:10246000A801DA9469F7DF90EF90FF900F911F9128
:10247000CF91DF9108950E945B0F08F48FEF0895CC
:102480009B01AC0160E070E080E89FE30C946C116C
:1024900019F416F40C94F20F0C9492120E941C1072
:1024A000B8F39923C9F3B6F39F57550B87FF0E94E2
:1024B000A0120024A0E640EA900180585695979516
:1024C00028F4805C660F771F881F20F026173707D7
:1024D000480730F4621B730B840B202931294A2BE7
:1024E000A69517940794202531254A2758F7660F9B
:1024F000771F881F20F026173707480730F4620B34
:10250000730B840B200D311D411DA09581F7B9017E
:10251000842F9158880F9695879508959B01AC015B
:102520000C947F0F9F3F31F0915020F48795779561
:102530006795B795880F911D9695879597F908959A
:1025400091505040660F771F881FD2F70895AA1B3D
:10255000BB1B51E107C0AA1FBB1FA617B70710F08E
:10256000A61BB70B881F991F5A95A9F780959095C0
:10257000BC01CD01089597FB072E16F4009407D0F7
:1025800077FD09D00E94A71207FC05D03EF4909574
:1025900081959F4F0895709561957F4F0895EE0F37
:1025A000FF1F0590F491E02D099481E090E0F894EC
:1025B0000C94FD12FB01DC0102C001900D92415010
:1025C0005040D8F70895FB01DC010D900020E9F799
:1025D000119701900D920020E1F70895FB01DC01B5
:1025E0004150504048F001900D920020C9F701C0C1
:1025F0001D9241505040E0F7089510E0C3E8D0E04C
:1026000004C0FE010E94CF122196C438D107C9F739
:04261000F894FFCF6C
:102614000000803F0608327C8900EDD9687700000D
:1026240000590000000000000000D69FDCA8181725
:10263400AA90437327F6B968EDF4DED409FEE61CCC
:102644001C84DDE80B992927D6DF8D210F0364183C
:10265400EFEE1EC8B7008200941500347C00000021
:102664001400988F0000000000000000000000E744
:10267400B73F3600000000000000AF669ED038006F
:102684000000000000000000000000000000000046
:102694000000000000000000000000000000000036
:1026A4000000000000000000000000000000000026
:1026B4000000000000000000000000000000000016
:1026C4000000000000000000000000000000000006
:1026D40000000000000000000000000000000000F6
:1026E40000000000000000000000000000000000E6
:1026F40000000000000000000000000000000000D6
:10270400000000000000000000000000000000CCF9
:1027140031AA2C532E00000000004101AE00D90064
:1027240088010A01E800FC0000000000D901AE00A5
:0C2734007C02D8012D024502C0013C00CF
:107800000C94343C0C94513C0C94513C0C94513CE1
:107810000C94513C0C94513C0C94513C0C94513CB4
:107820000C94513C0C94513C0C94513C0C94513CA4
:107830000C94513C0C94513C0C94513C0C94513C94
:107840000C94513C0C94513C0C94513C0C94513C84
:107850000C94513C0C94513C0C94513C0C94513C74
:107860000C94513C0C94513C11241FBECFEFD8E036
:10787000DEBFCDBF11E0A0E0B1E0ECE9FFE702C060
:1078800005900D92A230B107D9F712E0A2E0B1E065
:1078900001C01D92AD30B107E1F70E942D3D0C945F
:1078A000CC3F0C94003C982F959595959595959582
:1078B000905D8F708A307CF0282F295A8091C0000B
:1078C00085FFFCCF9093C6008091C00085FFFCCF60
:1078D0002093C6000895282F205DF0CF982F809127
:1078E000C00085FFFCCF9093C6000895EF92FF92F1
:1078F0000F931F93EE24FF2487018091C00087FD22
:1079000017C00894E11CF11C011D111D81E4E8164B
:1079100082E4F8068FE0080780E0180770F3E09132
:107920000401F091050109958091C00087FFE9CF1E
:107930008091C6001F910F91FF90EF9008950E94D3
:10794000763C982F8091C00085FFFCCF9093C600B5
:1079500091362CF490330CF09053892F089597555D
:10796000892F08951F930E949F3C182F0E949F3CCF
:107970001295107F810F1F9108951F93182F882350
:1079800021F00E94763C1150E1F71F9108951F935A
:10799000182F0E94763C803249F0809103018F5F5E
:1079A000809303018530C1F01F9108958091C0003C
:1079B00085FFFCCF84E18093C6008091C00085FFE5
:1079C000FCCF1093C6008091C00085FFFCCF80E102
:1079D0008093C6001F910895E0910401F091050184
:1079E00009951F9108950E94763C803241F0809164
:1079F00003018F5F80930301853081F008958091AA
:107A0000C00085FFFCCF84E18093C6008091C00058
:107A100085FFFCCF80E18093C6000895E0910401CA
:107A2000F09105010995089540E951E08823A1F0FE
:107A30002D9A28EE33E0FA013197F1F721503040CA
:107A4000D1F72D9828EE33E0FA013197F1F7215064
:107A50003040D1F7815061F708953F924F925F9285
:107A60006F927F928F929F92AF92BF92CF92DF924E
:107A7000EF92FF920F931F93CF93DF93000080E16B
:107A80008093C4001092C50088E18093C10086E015
:107A90008093C2005098589A259A81E00E94143D24
:107AA00024E1F22E9EE1E92E85E9D82E0FE0C02ECA
:107AB00010E1B12EAA24A394B1E49B2EA6E58A2E50
:107AC000F2E57F2EE0E26E2E79E4572E63E5462E36
:107AD00050E5352E0E94763C8033B1F18133B9F107
:107AE000803409F46FC0813409F476C0823409F41B
:107AF00085C0853409F488C0803531F1823521F1A3
:107B0000813511F1853509F485C0863509F48DC0BC
:107B1000843609F496C0843709F403C1853709F423
:107B200072C1863709F466C0809103018F5F80932C
:107B30000301853079F6E0910401F0910501099582
:107B40000E94763C803351F60E94F33CC3CF0E94E2
:107B5000763C803249F78091C00085FFFCCFF092DF
:107B6000C6008091C00085FFFCCF9092C600809136
:107B7000C00085FFFCCF8092C6008091C00085FFC9
:107B8000FCCF7092C6008091C00085FFFCCF609250
:107B9000C6008091C00085FFFCCF5092C600809146
:107BA000C00085FFFCCF4092C6008091C00085FFD9
:107BB000FCCF3092C6008091C00085FFFCCFB09210
:107BC000C60088CF0E94763C863808F4BDCF0E945C
:107BD000763C0E94F33C7ECF0E94763C803809F4CC
:107BE0009CC0813809F40BC1823809F43CC1883942
:107BF00009F48FC080E00E94C73C6CCF84E10E94F2
:107C0000BD3C0E94F33C66CF85E00E94BD3C0E94D3
:107C1000F33C60CF0E94763C809306010E94763C44
:107C2000809307010E94F33C55CF0E94763C80333D
:107C300009F41DC183E00E94BD3C80E00E94C73C66
:107C400049CF0E94763C809309020E94763C809343
:107C5000080280910C028E7F80930C020E94763C79
:107C6000853409F415C18091080290910902892B8D
:107C700089F000E010E00E94763CF801E85FFE4FDA
:107C800080830F5F1F4F80910802909109020817AF
:107C9000190788F30E94763C803209F045CF809125
:107CA0000C0280FF01C16091060170910701660F0F
:107CB000771F7093070160930601A0910802B091AD
:107CC00009021097C9F0E8E0F1E09B01AD014E0F09
:107CD0005F1FF999FECF32BD21BD819180BDFA9A17
:107CE000F99A2F5F3F4FE417F50799F76A0F7B1F4B
:107CF00070930701609306018091C00085FFFCCF5F
:107D0000F092C6008091C00085FFFCCFB092C60003
:107D1000E1CE83E00E94C73CDDCE82E00E94C73CFA
:107D2000D9CE0E94763C809309020E94763C8093D3
:107D300008028091060190910701880F991F909386
:107D40000701809306010E94763C853409F4A6C0A1
:107D500080910C028E7F80930C020E94763C8032D0
:107D600009F0B8CE8091C00085FFFCCFF092C6002C
:107D7000609108027091090261157105B9F140E046
:107D800050E080910C02A82FA170B82FB27011C0E2
:107D9000BB2309F45CC0E0910601F0910701319624
:107DA000F0930701E09306014F5F5F4F46175707B7
:107DB000E8F4AA2369F3F999FECF209106013091E6
:107DC000070132BD21BDF89A90B58091C00085FFB2
:107DD000FCCF9093C6002F5F3F4F30930701209355
:107DE00006014F5F5F4F4617570718F38091C00099
:107DF00085FDE5CE8091C00085FFF8CFE0CE81E023
:107E00000E94C73C67CE0E94763C803209F08CCE3F
:107E10008091C00085FFFCCFF092C6008091C00029
:107E200085FFFCCFE092C6008091C00085FFFCCFAB
:107E3000D092C6008091C00085FFFCCFC092C600E2
:107E40008091C00085FFFCCFB092C60043CEE09188
:107E50000601F091070194918091C00085FFFCCF4D
:107E60009093C6009CCF80E10E94C73C33CE0E9415
:107E7000763C0E94763C182F0E94763C112309F430
:107E800083C0113009F484C08FE00E94C73C22CE29
:107E900080910C02816080930C02E5CE80910C02EF
:107EA000816080930C0259CF809107018823880F4D
:107EB000880B8A2180930B02809106019091070123
:107EC000880F991F90930701809306018091080203
:107ED00080FF09C080910802909109020196909359
:107EE000090280930802F894F999FECF1127E091D6
:107EF0000601F0910701C8E0D1E08091080290915D
:107F00000902103091F40091570001700130D9F34B
:107F100003E000935700E89500915700017001308D
:107F2000D9F301E100935700E89509901990009169
:107F3000570001700130D9F301E000935700E89534
:107F40001395103498F011270091570001700130FB
:107F5000D9F305E000935700E895009157000170B0
:107F60000130D9F301E100935700E895329602976A
:107F700009F0C7CF103011F00296E5CF112480919F
:107F8000C00085FFB9CEBCCE8EE10E94C73CA2CD19
:0C7F900085E90E94C73C9ECDF894FFCF0D
:027F9C00800063
:040000030000780081
:00000001FF
