:100000000C949C000C94C4000C94C4000C946B02DF
:100010000C946B020C946B020C94C4000C94C400FE
:100020000C94C4000C94C4000C94C4000C94C40040
:100030000C94C4000C94C4000C94C4000C94C40030
:100040000C9421020C94C4000C94190C0C94F30B26
:100050000C94C4000C94C4000C94C4000C94C40010
:100060000C94C4000C94C4007606760682069E06A4
:100070009506A706B406CC06E306040756086808EA
:1000800078088E08A308B008CE08EC08FF082D0AEF
:10009000150924093209410955096E0980099C098D
:1000A000B709CB09E109F209020A1A0A084AD73B43
:1000B0003BCE016E84BCBFFDC12F3D6C74319ABD37
:1000C00056833DDA3D00C77F11BED9E4BB4C3E915B
:1000D0006BAAAABE000000803F00000000080002DA
:1000E0000100000304070000000000000000000001
:1000F0000000250028002B0000000000240027003D
:100100002A00000000002300260029000404040443
:1001100004040404020202020202030303030303B1
:10012000010204081020408001020408102001028E
:10013000040810202011C00C11241FBECFEFD8E0FE
:10014000DEBFCDBF12E0A0E0B1E0EEEBF0E302C015
:1001500005900D92AA33B107D9F725E0AAE3B2E0E2
:1001600001C01D92A13AB207E1F710E0CBE9D0E05F
:1001700004C02197FE010E943116CA39D107C9F780
:100180000E94CA0C0C9452180C940000FC01918D32
:10019000228D892F90E0805C9F4F821B91098F7385
:1001A0009927089580E090E0892B29F00E94960A13
:1001B00081110C94000008952091950430919604CB
:1001C0002817390771F4909193048091940498173B
:1001D00041F0E0919304F0E0E65BFB4F808190E01A
:1001E00008958FEF9FEF089508951F93CF93DF93A6
:1001F000DC015C962D913C915D972115310539F418
:1002000081E090E013969C938E9312973DC0519697
:10021000ED91FC91529750969C915097892F809523
:100220001FB75E964C915E9741FB772770F941FDB1
:100230006095F8944081772311F0492B01C0482341
:100240004083E9012197F1F748E0508160FF02C047
:10025000592B01C058235083E9012197F1F7669586
:10026000415099F7772321F090818923808303C03F
:100270008081982B90831FBF5C968D919C915D9798
:100280000197F1F721E030E0C901DF91CF911F9193
:10029000089520919504309196042817390771F438
:1002A000809194042091930490E0805C9F4F821B86
:1002B000910960E470E00E941D16089580E090E0CE
:1002C0000895209195043091960428173907B9F4C0
:1002D0009091930480919404981789F0E09193048D
:1002E000F0E0E65BFB4F80812091930430E02F5FCC
:1002F0003F4F2F7333272093930490E008958FEF9F
:100300009FEF089580E090E008950895FB0120811B
:10031000822790E1899F900111242827822F90E065
:10032000582F44279C0163E0220F331F6A95E1F7A1
:1003300042275327218130E02427352774E0959503
:1003400087957A95E1F78227932791838083089593
:10035000FC01848DDF01A80FB11DA35ABF4F2C9162
:10036000848D90E001968F739927848FA689B78931
:100370002C93A089B1898C9180648C93938D848D0A
:10038000981306C00288F389E02D80818F7D8083D9
:10039000089590E0FC01E652FF4F3491FC01E05ECD
:1003A000FE4F2491FC01E45FFE4FE491EE2309F43B
:1003B0003BC0332339F1333091F038F43130A9F0B8
:1003C000323001F584B58F7D12C0373091F038306E
:1003D000A1F03430B9F4809180008F7D03C080910A
:1003E00080008F77809380000DC084B58F7784BDA7
:1003F00009C08091B0008F7703C08091B0008F7DDD
:100400008093B000F0E0EE0FFF1FE251FF4FA59187
:10041000B4918FB7F894EC91611103C020952E230D
:1004200001C02E2B2C938FBF08952FB7F8946091A5
:100430008F047091900480919104909192042FBF49
:1004400008951F920F920FB60F9211242F933F938E
:100450008F939F93AF93BF9380918F04909190045B
:10046000A0919104B091920430918E0423E0230F67
:100470002D3720F40196A11DB11D05C026E8230FDC
:100480000296A11DB11D20938E0480938F0490933A
:100490009004A0939104B093920480918A04909167
:1004A0008B04A0918C04B0918D040196A11DB11D07
:1004B00080938A0490938B04A0938C04B0938D0452
:1004C000BF91AF919F918F913F912F910F900FBE50
:1004D0000F901F9018951F920F920FB60F92112434
:1004E0002F933F934F935F936F937F938F939F933C
:1004F000AF93BF93EF93FF93E0919504F09196042F
:10050000309709F451C0968DA685B785858591FFF2
:1005100004C09C91892329F447C09C91892309F048
:1005200043C0A389B4899C918589809589238C9344
:10053000868997890197F1F7608D718DA685B785BA
:10054000558538E020E0CB010197F1F7822F90E04C
:1005500095958795282F4C91452309F020683150B7
:1005600091F7868D81FD20958091940490E001960D
:100570008F73992730919304381749F0A091940410
:10058000B0E0A65BBB4F2C938093940403C0868D90
:100590008160868F828D938D0197F1F7A389B4894D
:1005A0009C918589892B8C93FF91EF91BF91AF919D
:1005B0009F918F917F916F915F914F913F912F917B
:1005C0000F900FBE0F901F901895E0919504F09139
:1005D0009604E817F90769F4A389B4899C91858981
:1005E000809589238C93109296041092950481E053
:1005F000089580E00895CF92DF92EF92FF920F93DB
:100600001F93CF93DF93CDB7DEB7C151D1400FB663
:10061000F894DEBF0FBECDBF8091490487FF15C09F
:1006200081E090E0A0E0B0E0C851DF4F888399837B
:10063000AA83BB83C85ED040C254DF4F88839983AE
:10064000AA83BB83CE5BD04010C0C851DF4F188255
:1006500019821A821B82C85ED040C254DF4F1882B2
:1006600019821A821B82CE5BD04084E0C15FDE4FCC
:100670008883CF50D14081E0C05FDE4F8883C05176
:10068000D140CF5EDE4F8883C151D14043E0BE01EF
:10069000615F7E4F83E00E944B0CC250DF4F198296
:1006A0001882CE5FD040C050DF4F19821882C050F0
:1006B000D140CE5FDE4F19821882C250D14060E037
:1006C00070E0CE0182509F4F0E94090B811106C03D
:1006D000CE0182509F4F0E94300B10C0CE5FDE4F84
:1006E00019821882C250D14065E372E0C250DF4FD8
:1006F00088819981CE5FD0400E943C188091AB04E4
:1007000081117EC000914704109148041A82198219
:100710001C821B821E821D82BE0162507F4FCE0151
:1007200001960E94C90B63E372E0CE0101960E941C
:10073000950BB8010E94420BBC01CE0182509F4F25
:100740000E94C90B89819A810E94CC1626E636E662
:1007500046E650E46091430470914404809145045E
:10076000909146040E94AA120E9447156B017C01D9
:100770001A8219821C821B821E821D82BE01625057
:100780007F4FCE0101960E94C90B66E372E0CE0155
:1007900001960E94950BB6010E94420BBC01CE014E
:1007A00082509F4F0E94C90B89819A810E94CC166A
:1007B000CE5FDE4F08811981C250D140011511056D
:1007C00031F4C853DF4F1882C85CD04025C00E30CA
:1007D000110510F00EE010E0C250DF4F6881798102
:1007E000CE5FD040A801CE0188539F4F0E9443188E
:1007F000E8ECF0E0EC0FFD1FE00FF11F10820CC0E1
:10080000813051F48FE0E4E3F4E0DE01A853BF4F00
:1008100001900D928A95E1F74FE0BE0168537F4F3A
:100820008AE00E944B0C4BE0BE016E517F4F85E683
:100830000E944B0C8091A904C950DF4F8883C75F89
:10084000D0408091320490913304C650DF4F998399
:100850008883CA5FD0408091B2049091B304C450A1
:10086000DF4F99838883CC5FD0408091B004909112
:10087000B104C850DF4F99838883C85FD04047E0F8
:10088000BE0169507F4F8EE60E944B0C8091B204EE
:100890009091B304C352DF4F99838883CD5DD040DC
:1008A0008091A9049AE0899F90011124C052DF4FE2
:1008B00039832883C05ED0402091B0043091B104C8
:1008C000C552DF4F39832883CB5DD0409091AA0475
:1008D000C952DF4F9883C75DD04020E534E1C8524C
:1008E000DF4F39832883C85DD04090E005966AE0E9
:1008F00070E00E941D16C652DF4F6883CA5DD0406B
:10090000C152DF4F1882CF5DD0404BE0BE0169522B
:100910007F4F82E80E944B0C40E1BE0168547F4F3C
:1009200086E90E944B0C8091A3049091A404A091AD
:10093000A504B091A604C855DF4F88839983AA8384
:10094000BB83C85AD04080919F049091A004A0918D
:10095000A104B091A204C455DF4F88839983AA8370
:10096000BB83CC5AD04080913104C955DF4F888376
:10097000C75AD04042E1BE016A557F4F8AE60E94C5
:100980004B0C8091990490919A04C65FDE4F998335
:100990008883CA50D1408091970490919804C45F95
:1009A000DE4F99838883CC50D14045E0BE01665F1D
:1009B0007E4F8BE60E944B0C8091990490919A0493
:1009C000893E23E092075CF064E670E00E941D1609
:1009D000CA5FDE4F79836883C650D1400CC04AE0BD
:1009E000489F9001499F300D1124CA5FDE4F398323
:1009F0002883C650D14080912F049091300464E642
:100A000070E00E9409168091970490919804861BCB
:100A1000970B4AE0489F9001499F300D1124CC5F0D
:100A2000DE4F39832883C450D14046E0BE016C5F5D
:100A30007E4F8CE60E944B0CC351DF4F1882198207
:100A40001A821B82CD5ED0404AE0BE0163517F4FC7
:100A50008DE60E944B0C88E3888788E1EE968FAF85
:100A6000EE9782E090E0CA56DF4F99838883C6599B
:100A7000D04080E1C256DF4F8883CE59D04081E01C
:100A8000CD55DF4F8883C35AD040CC55DF4F888384
:100A9000C45AD040CB55DF4F1882C55AD04083E8A6
:100AA00098E09C878B878AEE90E09E878D87988B55
:100AB0008F879A8B898B9C8B8B8B9E8B8D8B988F42
:100AC0008F8B9A8F898F2FEE39E03C8F2B8F9E8FE3
:100AD0008D8F98A38F8F26E338E03AA329A328E5CA
:100AE00038E03CA32BA39EA38DA320910701309156
:100AF000080138A72FA39AA789A79CA78BA79EA711
:100B00008DA798AB8FA79AAB89AB9CAB8BAB9EABF9
:100B10008DAB28E138E038AF2FAB21E438E03AAFB5
:100B200029AF21E238E03CAF2BAF9EAF8DAF28EB71
:100B300039E021963FAF2EAF219728E939E023967F
:100B40003FAF2EAF239725969FAF8EAF2597279661
:100B50009FAF8EAF279729969FAF8EAF29972B9681
:100B60009FAF8EAF2B972D969FAF8EAF2D972F9661
:100B70009FAF8EAF2F9761969FAF8EAF61976396B1
:100B80009FAF8EAF639765969FAF8EAF6597679661
:100B90009FAF8EAF679769969FAF8EAF69976B9641
:100BA0009FAF8EAF6B976D969FAF8EAF6D976F9621
:100BB0009FAF8EAF6F97A1969FAF8EAFA197A39671
:100BC0009FAF8EAFA397A5969FAF8EAFA597A79621
:100BD0009FAF8EAFA797A9969FAF8EAFA997AB9601
:100BE0009FAF8EAFAB97AD969FAF8EAFAD97AF96E1
:100BF0009FAF8EAFAF97E1969FAF8EAFE197E39631
:100C00009FAF8EAFE397E5969FAF8EAFE597E796E0
:100C10009FAF8EAFE797E9969FAF8EAFE997EB96C0
:100C20009FAF8EAFEB97ED969FAF8EAFED9745EAF6
:100C3000BE016F5F7F4F84E50E944B0CC250DF4FB7
:100C400088819981CE5FD0400E94CC16CF5EDE4F66
:100C50000FB6F894DEBF0FBECDBFDF91CF911F91CD
:100C60000F91FF90EF90DF90CF9008952F923F92D9
:100C70004F925F926F927F928F929F92AF92BF92AC
:100C8000CF92DF92EF92FF920F931F93CF93DF9358
:100C9000CDB7DEB7C657D1090FB6F894DEBF0FBE89
:100CA000CDBFEE24E394F12C92E0292E312CCC24FC
:100CB000CA94DC2C8EE795E00E94490118161906AB
:100CC0000CF0A7C18EE795E00E9461015C01082F3E
:100CD00010923A02E0913D02F0913E02EA30F105B5
:100CE00008F0CDC0EC5CFF4F0C9431168E3F09F03C
:100CF000C6C030923E0220923D0210926D02809357
:100D00006C029BC0853630F080913B028F5F8093F0
:100D10003B0298C080936D0210923F026AE672E037
:100D20000E94860124E030E01AC080936E026AE6D9
:100D300072E00E94860183E090E022C080936F02FF
:100D40006AE672E00E948601A5E0B0E020C08093D0
:100D500070026AE672E00E94860126E030E030937D
:100D60003E0220933D028BC0809371026AE672E0DE
:100D70000E94860180916D02811107C088E090E099
:100D800090933E0280933D027AC0A7E0B0E0B0931A
:100D90003E02A0933D0273C0E0913F02BB24B39496
:100DA000BE0EB0923F02F0E0EE58FD4FA0826AE620
:100DB00072E08A2D0E94860180916D02B8125FC098
:100DC00028E030E0CCCFE0917102F0E0E15FFE4F2F
:100DD0006AE672E080810E94860180916A029091A9
:100DE0006B0299279501332728173907F1F489E019
:100DF00090E090933E0280933D02E0913F02F0E04C
:100E0000EE58FD4FA0823BC090916B02E6969FAFDB
:100E1000E697E7961FAEE797C5019927E796AEAD2F
:100E2000BFADE7978A179B0791F00E3F59F43092B8
:100E30003E0220923D0210926D02D0926B02C0924F
:100E40006A021DC0F0923E02E0923D0218C081E0AD
:100E500080933A02F0923E02E0923D02E0913F021E
:100E6000F0E0ED58FD4FA08280E7EAE6F2E0DE0117
:100E7000119601900D928A95E1F7109171022091DF
:100E80003A02213099F480916E0280934002809161
:100E9000420290914302009721F410924502109271
:100EA00044020196909343028093420210923C02C6
:100EB000222309F4FFCE183109F480C0C0F41123B5
:100EC00009F483C0113009F0F5CE298D3A8D4FA178
:100ED0008F89988D64E670E00E9409166093A904DA
:100EE00040932E043093B3042093B204E3CE133224
:100EF00009F47EC01A3409F448C0113209F0DACE80
:100F00008D859E85AF85B889E5968CAF9DAFAEAFD8
:100F1000BFAFE59749885A886B887C888D889E8802
:100F2000AF88B88C698D7A8D8B8D9C8D2BA13CA15F
:100F30003093300420932F0428EE33E040E050E05B
:100F40000E9468133093480420934704E5968CADC3
:100F50009DADAEADBFADE5978093A3049093A4047F
:100F6000A093A504B093A60440929F045092A004BD
:100F70006092A1047092A20480929B0490929C04BF
:100F8000A0929D04B0929E0495CE8D859E85AF85DE
:100F9000B88949855A856B857C8540932A0450938E
:100FA0002B0460932C0470932D048093430490933E
:100FB0004404A0934504B09346047CCE8EA19DA129
:100FC0009093A7048093310475CE89859A85AB856B
:100FD000BC8528893F85309349042093A8048093D9
:100FE000780590937905A0937A05B0937B0562CE3E
:100FF0002E8D30E0AFEFB3E00E94E0132FEF30E032
:1010000040E050E00E946813309333042093320490
:1010100051CECA58DF4F0FB6F894DEBF0FBECDBF1A
:10102000DF91CF911F910F91FF90EF90DF90CF90C4
:10103000BF90AF909F908F907F906F905F904F90F8
:101040003F902F900895FC0181E08093AB04409382
:10105000AC045093AD046093AE047093AF049FE072
:10106000A4E3B4E001900D929A95E1F708950F93EF
:101070001F93CF93DF93CDB7DEB72F970FB6F894BA
:10108000DEBF0FBECDBF009178051091790520918C
:101090007A0530917B050831110508F0DEC1AB01FE
:1010A000BC01F801E25CFF4F0C943116CE010196B1
:1010B0002FE0DC011D922A95E9F72DE4298321E434
:1010C0002A833EE43B8335E53C832D832CE461C1D8
:1010D000CE0101962FE0FC0111922A95E9F723E455
:1010E000298339E43A8332E53B832C832CE484C0A2
:1010F000CE0101962FE0DC011D922A95E9F723E548
:10110000298324E52A8321E42B8322E42C8329E408
:101110002D833CE43E832F832AE588C1CE010196CE
:101120002FE0FC0111922A95E9F724E5298322E5B5
:101130002A8321E42B8339E43C832EE42D833E83F0
:101140002F8327E470C0CE0101962FE0DC011D92B1
:101150002A95E9F721E4298323E42A8322E571C053
:10116000FE0131968FE0DF011D928A95E9F786E452
:1011700089838CE48A8389E58B8390E29C8322E4D3
:101180002D838E839F8387E5888789E4898782E51D
:101190008A8785E48B879C8781E41CC0FE01319699
:1011A0008FE0DF011D928A95E9F786E489838CE45C
:1011B0008A8329E52B8390E29C8382E48D832E83AE
:1011C0009F8327E5288729E4298722E52A8725E4C4
:1011D0002B879C878D87AEC0CE0101962FE0FC0146
:1011E00011922A95E9F723E4298322E52A8325E54C
:1011F0002B8329E42C8323E52D8325E4CAC0CE016B
:1012000001962FE0DC011D922A95E9F721E429835C
:1012100025E52A8334E53B83EFE4EC833D832E838D
:101220002EE42F8325E4288716C1CE0101962FE0F6
:10123000FC0111922A95E9F721E4298325E52A8307
:1012400024E52B832FE4DCC0CE0101962FE0DC01E6
:101250001D922A95E9F722E5298324E52A832CE4C7
:101260002B83F9C0CE0101962FE0FC0111922A9543
:10127000E9F72CE429832FE42A8329E42B8324E54E
:1012800084C0CE0101962FE0DC011D922A95E9F77A
:1012900024E5298321E42A832BE42B8325E42C8372
:1012A0002FE42D8326E42E838AC0CE0101962FE001
:1012B000FC0111922A95E9F731E4398326E52A8366
:1012C0002FE42B8329E42C8324E42D83EFE5EE83A4
:1012D0003F83288723E5298722E447C0CE01019672
:1012E0002FE0DC011D922A95E9F727E4298325E503
:1012F0002A8329E42B8324E42C8335E43D8349C0ED
:10130000FE0131968FE0DF011D928A95E9F799E49D
:1013100099838EE48A839B8324E52C839D8321E437
:101320002E832CE42F83988723E529879A878B8740
:1013300087E48C87CF018FC0CE0101962FE0FC019E
:1013400011922A95E9F721E5298323E52A8324E5EB
:101350002B8321E42C8322E42D8329E42E833CE497
:101360003F8328872AE5298725E42A8774C0CE0190
:1013700001962FE0DC011D922A95E9F721E52983EA
:1013800028E42A832FE42B8326E52C8325E42D8370
:1013900022E52E8360C0CE0101962FE0FC01119260
:1013A0002A95E9F721E529832CE42A832FE42B836E
:1013B00029E42C8324E52D8325E42E8322E52F8345
:1013C0004AC0CE0101962FE0DC011D922A95E9F773
:1013D00021E529832CE42A8321E42B832EE42C832A
:1013E00024E438C0CE0101962FE0FC0111922A9529
:1013F000E9F721E5298322E52A8324E52B832CE4E0
:101400002C8329C0CE0101962FE0DC011D922A9584
:10141000E9F721E5298321E42A8325E52B8334E5B7
:101420003C83EFE4ED833E832F832EE4288725E47D
:10143000298711C0CE0101962FE0FC0111922A9557
:10144000E9F721E5298321E42A8323E42B8322E59C
:101450002C832FE42D830E9423082F960FB6F89437
:10146000DEBF0FBECDBFDF91CF911F910F910895C9
:10147000CF92DF92EF92FF920F931F93CF93DF9360
:101480006C017A018B01C0E0D0E0CE15DF0589F058
:10149000D8016D918D01D601ED91FC910190F08103
:1014A000E02DC6010995892B11F47E0102C0219619
:1014B000ECCFC701DF91CF911F910F91FF90EF907B
:1014C000DF90CF900895FC01538D448D252F30E09F
:1014D000842F90E0821B930B541710F0CF96089541
:1014E00001970895FC01918D828D981761F0828D8E
:1014F000DF01A80FB11D5D968C91928D9F5F9F7348
:10150000928F90E008958FEF9FEF0895FC01918DE9
:10151000828D981731F0828DE80FF11D858D90E056
:1015200008958FEF9FEF08950E942E1887ED94E0A5
:101530000E94C60021E0892B09F420E0822F089543
:10154000EF92FF920F931F93CF93DF93EC0181E013
:10155000888F9B8D8C8D981305C0E889F9898081CF
:1015600085FD24C0F62E0B8D10E00F5F1F4F0F730B
:101570001127E02E8C8DE8120CC00FB607FCFACFB5
:10158000E889F989808185FFF5CFCE010E94A80105
:10159000F1CF8B8DFE01E80FF11DE35AFF4FF08272
:1015A0000B8FEA89FB898081806207C0EE89FF8901
:1015B0006083E889F98980818064808381E090E09C
:1015C000DF91CF911F910F91FF90EF900895CF93EE
:1015D000DF93EC01888D8823C9F0EA89FB8980813B
:1015E00085FD05C0A889B9898C9186FD0FC00FB60D
:1015F00007FCF5CF808185FFF2CFA889B9898C914E
:1016000085FFEDCFCE010E94A801E7CFDF91CF91FA
:1016100008950F931F93CF93DF93EC0188819981F5
:10162000009729F02A813B812617370788F48B0120
:101630006F5F7F4F0E946417009761F099838883E2
:101640001B830A832C813D81232B11F4FC01108222
:1016500081E001C080E0DF91CF911F910F9108954B
:10166000CF93DF93EC0188819981009711F00E945C
:10167000CC16198218821D821C821B821A82DF916D
:10168000CF910895CF92DF92EF92FF920F931F9325
:10169000CF93DF93CDB7DEB727970FB6F894DEBFB1
:1016A0000FBECDBF8C01CB014AE09E012F5F3F4FA3
:1016B0006901B9010E941A12F60101900020E9F7B0
:1016C0003197EC19FD09D8011496ED90FC9015970F
:1016D0003097D9F0EE0EFF1EB701C8010E94090B2A
:1016E000882381F0F8012081318184819581B601C0
:1016F000820F931F0E943C18D8011596FC92EE921F
:10170000149703C0C8010E94300BC80127960FB67A
:10171000F894DEBF0FBECDBFDF91CF911F910F9127
:10172000FF90EF90DF90CF900895EF92FF920F938C
:101730001F93CF93DF93EC017B0161157105F1F0ED
:10174000FB0101900020E9F73197E61BF70B0C81B4
:101750001D813097B1F00E0F1F1FB8010E94090BB9
:10176000882361F0288139818C819D81B701820FA6
:10177000931F0E943C181D830C8303C0CE010E945E
:10178000300BCE01DF91CF911F910F91FF90EF9021
:101790000895EF92FF920F931F93CF93DF93EC0185
:1017A000FB0186179707B9F000811181011511051A
:1017B00039F0E480F580B7010E94090B811104C063
:1017C000CE010E94300B07C0FD82EC82B8018881F7
:1017D00099810E943C18CE01DF91CF911F910F910A
:1017E000FF90EF9008951F920F920FB60F92112461
:1017F0002F933F934F935F936F937F938F939F9319
:10180000AF93BF93EF93FF9387ED94E00E94A801FD
:10181000FF91EF91BF91AF919F918F917F916F91C8
:101820005F914F913F912F910F900FBE0F901F909E
:1018300018951F920F920FB60F9211242F938F932A
:101840009F93EF93FF93E091E704F091E804808188
:10185000E091ED04F091EE0482FD12C09081809140
:10186000F0048F5F8F732091F104821751F0E091A3
:10187000F004F0E0E952FB4F958F8093F00401C033
:101880008081FF91EF919F918F912F910F900FBECB
:101890000F901F901895CF92DF92EF92FF920F93C7
:1018A0001F93CF93DF931F92CDB7DEB7D82EF62EBE
:1018B000C42E8091D1049091D204DC01ED91FC9171
:1018C0000190F081E02D64E2798309958091D10443
:1018D0009091D204DC01ED91FC910190F081E02D1A
:1018E0006DE409958091D1049091D204DC01ED91D1
:1018F000FC910190F081E02D6CE309958091D10479
:101900009091D204DC01ED91FC910190F081E02DE9
:101910006C2D09958091D1049091D204DC01ED9158
:10192000FC910190F081E02D6D2D0995DC24EF2CC8
:101930000F2D7981172F8091D1049091D204202FFF
:101940002E192C1560F4F80161918F01D626DC0167
:10195000ED91FC910190F081E02D0995ECCFDC0137
:10196000ED91FC910190F081E02D6D2D0F90DF91B4
:10197000CF911F910F91FF90EF90DF90CF9009943E
:1019800085E292E090937F0580937E058EE795E057
:101990000C94E502CF93DF93CDB7DEB72F970FB648
:1019A000F894DEBF0FBECDBF789484B5826084BD4D
:1019B00084B5816084BD85B5826085BD85B5816053
:1019C00085BD80916E00816080936E0010928100D1
:1019D000809181008260809381008091810081608C
:1019E000809381008091800081608093800080914D
:1019F000B10084608093B1008091B00081608093D9
:101A0000B00080917A00846080937A0080917A009F
:101A1000826080937A0080917A00816080937A005E
:101A200080917A00806880937A001092C100E091E2
:101A3000E704F091E80482E08083E091E304F09110
:101A4000E4041082E091E504F091E60480E18083F3
:101A50001092EF04E091EB04F091EC0486E08083B7
:101A6000E091E904F091EA04808180618083E09153
:101A7000E904F091EA04808188608083E091E904C0
:101A8000F091EA04808180688083E091E904F0911C
:101A9000EA0480818F7D808387ED94E09093D20467
:101AA0008093D10484EF91E0A0E0B0E08093D30470
:101AB0009093D404A093D504B093D60410929905C2
:101AC0001092980510929705109296051092950520
:101AD0001092940582E490E090939B0580939A0580
:101AE00090918A05963108F057C02FE030E030938E
:101AF00095052093940520E430E0309397052093DA
:101B0000960527E230E030939905209398052091BF
:101B10006800983050F031E09E3008F430E081E009
:101B200001C0880F3A95EAF701C084E0822B8093C8
:101B30006800983038F09E3040F0963148F020E050
:101B400030E008C02DE630E005C02BE630E002C0F2
:101B50002CE630E03093920520939105983030F4D4
:101B600081E001C0880F9A95EAF70EC0292F30E076
:101B70009E3018F42850310902C02E50310981E0FE
:101B800001C0880F2A95EAF78093930580919A0502
:101B900090919B050197F1F7809198059091990597
:101BA000892B21F1809195049091960425E08E3740
:101BB0009207E1F0009711F00E94E50280919C05E8
:101BC0008E7F80939C0510929404109293048EE76C
:101BD00095E09093960480939504E0919105F0919F
:101BE0009205908180919305892B8083AE014F5F90
:101BF0005F4F1A0106E411E40E9436060E941502A6
:101C0000C090CD04D090CE04E090CF04F090D004EA
:101C10009B01AC012C193D094E095F0969017A014C
:101C200034E6C316D104E104F10408F455C160930D
:101C3000CD047093CE048093CF049093D004809110
:101C4000BC049091BD04A091BE04B091BF04009764
:101C5000A105B10509F496C08090B8049090B9042C
:101C6000A090BA04B090BB0481149104A104B10403
:101C700009F488C0C090A304D090A404E090A50407
:101C8000F090A604BC01CD016C197D098E099F0955
:101C90000E944B126B017C0180919F049091A004E3
:101CA000A091A104B091A204A5019401281B390BB5
:101CB0004A0B5B0BCA01B9010E944B122091000133
:101CC0003091010140910201509103010E94AA123A
:101CD0004B015C01A7019601C701B6010E94AA123F
:101CE0002B013C01A5019401C501B4010E94AA1277
:101CF0009B01AC01C301B2010E94F0130E94B01518
:101D00002CE23DE74EE85FE30E94AA120E944715CD
:101D10002B013C01C701B6019058A50194010E9416
:101D20006F1420EA3CE043EB55E40E94AA1220E045
:101D300030EA4CE056E40E94F0130E9440156B011B
:101D40007C0197FF06C030EAC30E3CE8D31EE11CBD
:101D5000F11CC301B20124E630E040E050E00E94F3
:101D6000BE1330939A0420939904C701B60124E668
:101D700030E040E050E00E946813309398042093D4
:101D8000970408C010929A04109299041092980433
:101D9000109297040E94FB026091B2047091B30408
:101DA000072E000C880B990B0E944B1220E030E0AC
:101DB00040E251E40E94AA126B017C010E941502CC
:101DC0000E9449122091C9043091CA044091CB0469
:101DD0005091CC040E94EF139B01AC01C701B601E6
:101DE0000E94AA1220E03AEB4BE55AE40E94CE147E
:101DF0002DE73FE345E95FE30E94AA122091C50465
:101E00003091C6044091C7045091C8040E94F01359
:101E10006093C5047093C6048093C7049093C8046C
:101E20000E9447157093B1046093B0040E9415029C
:101E30000E9449126093C9047093CA048093CB0432
:101E40009093CC049091C404809106019930E0F005
:101E50008130D1F480917C0590917D05813D974042
:101E6000E8F08091070190910801209104013091E0
:101E70000501309308012093070190930501809399
:101E800004011092C4040AC0811108C080917C052D
:101E900090917D0590930801809307018091C4047F
:101EA0008F5F8093C4048091AC049091AD04A091A5
:101EB000AE04B091AF04181619061A061B0664F496
:101EC00084569109A109B1098093AC049093AD04A3
:101ED000A093AE04B093AF048091AC049091AD0494
:101EE000A091AE04B091AF04181619061A061B068D
:101EF00014F01092AB048091780590917905A0912F
:101F00007A05B0917B0540917405509175056091FB
:101F100076057091770584179507A607B70771F0C6
:101F20008093740590937505A0937605B09377051B
:101F300068EE73E080E090E00E9437088091AA0488
:101F4000811127C08091A904882319F18B3220F4D4
:101F500051E05093AA041DC0853520F482E080939F
:101F6000AA0417C08F3720F493E09093AA0411C0FD
:101F7000893A20F4E4E0E093AA040BC0833D20F406
:101F8000F5E0F093AA0405C08F3F19F026E02093F6
:101F9000AA048091A80485508230E0F48091C404A2
:101FA0008770C1F4F1012FE011922A95E9F70983B6
:101FB0001A8339E43B838CE48C8383E58D831E8311
:101FC0000F8385E4888744EF51E060E070E0C10151
:101FD0000E9423080E941502C090C004D090C10442
:101FE000E090C204F090C3049B01AC012C193D09A0
:101FF0004E095F0969017A0130E1C31637E2D30661
:10200000E104F10470F06093C0047093C104809304
:10201000C2049093C30464EF71E080E090E00E94FA
:1020200037088091A704833008F407C18091060126
:10203000813009F002C16091A3047091A4048091E1
:10204000A5049091A6046093BC047093BD04809392
:10205000BE049093BF04C0909F04D090A004E09071
:10206000A104F090A204C092B804D092B904E09206
:10207000BA04F092BB04C0909B04D0909C04E09002
:102080009D04F0909E04C092B404D092B504E092F6
:10209000B604F092B7040E944B129F7720E836E90D
:1020A00048E15BE40E94CE1425E33AEF4EE85CE39E
:1020B0000E94AA122BED3FE049EC5FE30E94F0136F
:1020C0006B017C010E944015DC01CB018096A11DB3
:1020D000B11D81349105A105B10508F0A1C02BED1A
:1020E0003FE049E450E4C701B6010E949D1518166F
:1020F0005CF42BED3FE049EC50E4C701B6010E94CF
:10210000EF136B017C01EBCF2BED3FE049E450EC8A
:10211000C701B6010E94441287FF0BC02BED3FE0C0
:1021200049EC50E4C701B6010E94F0136B017C0139
:10213000EBCF2BED3FE049EC5FE3C701B6010E9416
:102140009D1518167CF42BED3FE049EC5FE3C701C9
:10215000B6010E94EF139B01AC016BED7FE089ECAF
:102160009FE318C02BED3FE049EC5FEBC701B601E0
:102170000E94441287FF12C02BED3FE049EC5FE361
:10218000C701B6010E94F0139B01AC016BED7FE02B
:1021900089EC9FEB0E94EF136B017C01A701960174
:1021A000C701B6010E94AA124B015C019B01AC0160
:1021B000C701B6010E94AA122B013C0120E030E0C9
:1021C000A901C501B4010E94AA1222E937EE41E437
:1021D00059E30E94EF139B01AC01C501B4010E94B9
:1021E000AA1227E930E348E05CE30E94F0139B0168
:1021F000AC01C501B4010E94AA1225E138EA4AE205
:102200005EE30E94EF139B01AC01C301B2010E9487
:10221000AA129B01AC01C701B6010E94F01303C0D2
:1022200060E070E0CB016093000170930101809346
:10223000020190930301109206010E94D200DCCCAF
:10224000CF93DF931092DA041092D90488EE93E0D2
:10225000A0E0B0E08093DB049093DC04A093DD0465
:10226000B093DE0423E132E03093D8042093D70406
:1022700025EC30E03093E4042093E30424EC30E0D8
:102280003093E6042093E50420EC30E03093E8043A
:102290002093E70421EC30E03093EA042093E90432
:1022A00022EC30E03093EC042093EB0426EC30E099
:1022B0003093EE042093ED041092F0041092F10498
:1022C0001092F2041092F30410928105109280058E
:1022D0008093820590938305A0938405B093850530
:1022E00085E292E090937F0580937E05109295059C
:1022F00010929405109297051092960510929905E8
:102300001092980510929B0510929A0560919C0579
:102310006E7F6D7F60939C056695617081E0682794
:1023200089E00E94C901E9E2F1E02491E5E1F1E0F0
:102330008491882399F090E0880F991FFC01E85060
:10234000FF4FA591B491FC01E251FF4F859194910B
:102350008FB7F894EC91E22BEC938FBFE9E2F1E0B8
:10236000E491E0938E05E5E1F1E0E491F0E0EE0F19
:10237000FF1FE251FF4F85919491909390058093B8
:102380008F05E8E2F1E02491E4E1F1E08491882313
:10239000C1F090E0880F991FFC01E850FF4FC591F4
:1023A000D491FC01E251FF4FA591B4919FB7F894ED
:1023B0008881E22FE0958E2388838C91E823EC932B
:1023C0009FBF80919C0581FD04C061E088E00E9470
:1023D000C90188E080938A05E8E2F1E0E491E093A6
:1023E0008B05E4E1F1E0E491F0E0EE0FFF1FEE5F1A
:1023F000FE4F8591949190938D0580938C058091EB
:1024000007019091080190937D0580937C05809150
:10241000780590917905A0917A05B0917B0580931C
:10242000740590937505A0937605B0937705DF91B9
:10243000CF910895BB27FB015527AA27880F991F25
:10244000AA1FA41710F0A41B83955051B9F7A05DE3
:10245000AA3308F0A95DA193009779F7B111B19360
:102460001192CB010C943412DC01FC01672F7191A5
:102470007723E1F7329704C07C916D93708362916A
:10248000AE17BF07C8F308950E94861208F481E0D2
:102490000895E89409C097FB3EF490958095709557
:1024A00061957F4F8F4F9F4F9923A9F0F92F96E9A0
:1024B000BB279395F695879577956795B795F11115
:1024C000F8CFFAF4BB0F11F460FF1BC06F5F7F4FB2
:1024D0008F4F9F4F16C0882311F096E911C07723C4
:1024E00021F09EE8872F762F05C0662371F096E8CD
:1024F000862F70E060E02AF09A95660F771F881F9C
:10250000DAF7880F9695879597F90895990F00083F
:10251000550FAA0BE0E8FEEF16161706E807F907B5
:10252000C0F012161306E407F50798F0621B730B50
:10253000840B950B39F40A2661F0232B242B252BD1
:1025400021F408950A2609F4A140A6958FEF811D74
:10255000811D08950E94BD120C942E130E94201319
:1025600038F00E94271320F0952311F00C941713D4
:102570000C941D1311240C9462130E943F1370F3EA
:10258000959FC1F3950F50E0551F629FF001729F18
:10259000BB27F00DB11D639FAA27F00DB11DAA1F27
:1025A000649F6627B00DA11D661F829F2227B00D74
:1025B000A11D621F739FB00DA11D621F839FA00DFF
:1025C000611D221F749F3327A00D611D231F849F4F
:1025D000600D211D822F762F6A2F11249F575040A6
:1025E0009AF0F1F088234AF0EE0FFF1FBB1F661F21
:1025F000771F881F91505040A9F79E3F510580F0EA
:102600000C9417130C9462135F3FE4F3983ED4F3D9
:10261000869577956795B795F795E7959F5FC1F78D
:10262000FE2B880F911D9695879597F9089597F938
:102630009F6780E870E060E008959FEF80EC089568
:1026400000240A9416161706180609060895002491
:102650000A9412161306140605060895092E03940B
:10266000000C11F4882352F0BB0F40F4BF2B11F47F
:1026700060FF04C06F5F7F4F8F4F9F4F089557FDDE
:102680009058440F551F59F05F3F71F04795880FE0
:1026900097FB991F61F09F3F79F087950895121677
:1026A00013061406551FF2CF4695F1DF08C0161623
:1026B00017061806991FF1CF8695710561050894D4
:1026C0000895E894BB2766277727CB0197F90895EB
:1026D000052E97FB1EF400940E947F1357FD07D030
:1026E0000E94BE1307FC03D04EF40C947F13509548
:1026F0004095309521953F4F4F4F5F4F08959095EE
:102700008095709561957F4F8F4F9F4F08952F92C1
:102710003F924F925F926F927F928F929F92AF9271
:10272000BF92CF92DF92EF92FF920F931F93CF93BE
:10273000DF93CDB7DEB7CA1BDB0B0FB6F894DEBF55
:102740000FBECDBF09942A88398848885F846E847B
:102750007D848C849B84AA84B984C884DF80EE80C5
:10276000FD800C811B81AA81B981CE0FD11D0FB6CE
:10277000F894DEBF0FBECDBFED010895A1E21A2E81
:10278000AA1BBB1BFD010DC0AA1FBB1FEE1FFF1F15
:10279000A217B307E407F50720F0A21BB30BE40B65
:1027A000F50B661F771F881F991F1A9469F76095AC
:1027B0007095809590959B01AC01BD01CF01089566
:1027C000A29FB001B39FC001A39F700D811D112472
:1027D000911DB29F700D811D1124911D08955058B7
:1027E000BB27AA270E9407140C942E130E942013C3
:1027F00038F00E94271320F039F49F3F19F426F493
:102800000C941D130EF4E095E7FB0C941713E92FBD
:102810000E943F1358F3BA1762077307840795079E
:1028200020F079F4A6F50C9461130EF4E0950B2ECC
:10283000BA2FA02D0B01B90190010C01CA01A00112
:102840001124FF27591B99F0593F50F4503E68F16D
:102850001A16F040A22F232F342F4427585FF3CFAE
:10286000469537952795A795F0405395C9F77EF47F
:102870001F16BA0B620B730B840BBAF09150A1F0C8
:10288000FF0FBB1F661F771F881FC2F70EC0BA0F4E
:10289000621F731F841F48F4879577956795B795D6
:1028A000F7959E3F08F0B0CF9395880F08F09927D1
:1028B000EE0F9795879508950E94201360F080E8A9
:1028C00091E009F49EEF0E94271328F040E851E0C0
:1028D00071F45EEF0CC00C941D130C946113E92F7E
:1028E000E0780E943F1340F3092E052AB1F3261722
:1028F00037074807590738F00E2E07F8E02569F02A
:10290000E025E0640AC0EF6307F8009407FADB01F2
:10291000B9019D01DC01CA01AD01EF930E94E514EC
:102920000E942E130E949F145F91552339F02BEDC6
:102930003FE049E450FD49EC0C94F0130895DF9317
:10294000DD27B92FBF7740E85FE316161706480763
:102950005B0718F4D92F0E94A2159F938F937F9342
:102960006F930E94F015ECEAF0E00E9476150E9449
:102970002E132F913F914F915F910E94BD12DD2345
:1029800051F09058A2EA2AED3FE049EC5FE3D0789D
:102990005D270E940714DF910C942E130E94E2140D
:1029A0000C942E130E94271358F00E94201340F01D
:1029B00029F45F3F29F00C94171351110C94621302
:1029C0000C941D130E943F1368F39923B1F3552310
:1029D00091F3951B550BBB27AA2762177307840732
:1029E00038F09F5F5F4F220F331F441FAA1FA9F3C8
:1029F00035D00E2E3AF0E0E832D091505040E695B6
:102A0000001CCAF72BD0FE2F29D0660F771F881F16
:102A1000BB1F261737074807AB07B0E809F0BB0B09
:102A2000802DBF01FF2793585F4F3AF09E3F51051D
:102A300078F00C9417130C9462135F3FE4F3983E04
:102A4000D4F3869577956795B795F7959F5FC9F706
:102A5000880F911D9695879597F90895E1E0660F87
:102A6000771F881FBB1F621773078407BA0720F000
:102A7000621B730B840BBA0BEE1F88F7E095089569
:102A80000E9447156894B1110C94621308950E9436
:102A9000471388F09F5798F0B92F9927B751B0F096
:102AA000E1F0660F771F881F991F1AF0BA95C9F7D2
:102AB00014C0B13091F00E946113B1E008950C94FC
:102AC0006113672F782F8827B85F39F0B93FCCF3AF
:102AD000869577956795B395D9F73EF4909580954F
:102AE000709561957F4F8F4F9F4F0895DF93CF93E0
:102AF0001F930F93FF92EF92DF927B018C016894FA
:102B000006C0DA2EEF010E94BD12FE01E894A591E5
:102B10002591359145915591A6F3EF010E94071437
:102B2000FE019701A801DA9469F7DF90EF90FF901A
:102B30000F911F91CF91DF9108950E94861208F4A2
:102B40008FEF08959B01AC0160E070E080E89FE3A7
:102B50000C94CE1419F416F40C941D130C94F41563
:102B60000E944713B8F39923C9F3B6F39F57550B47
:102B700087FF0E9402160024A0E640EA90018058D8
:102B80005695979528F4805C660F771F881F20F074
:102B900026173707480730F4621B730B840B202974
:102BA00031294A2BA69517940794202531254A27C9
:102BB00058F7660F771F881F20F02617370748073A
:102BC00030F4620B730B840B200D311D411DA09559
:102BD00081F7B901842F9158880F969587950895AC
:102BE0009B01AC010C94AA129F3F31F0915020F44C
:102BF000879577956795B795880F911D96958795D9
:102C000097F9089591505040660F771F881FD2F7AB
:102C10000895AA1BBB1B51E107C0AA1FBB1FA61723
:102C2000B70710F0A61BB70B881F991F5A95A9F775
:102C300080959095BC01CD01089597FB072E16F461
:102C4000009407D077FD09D00E94091607FC05D033
:102C50003EF4909581959F4F0895709561957F4FB3
:102C60000895EE0FFF1F0590F491E02D0994CF9386
:102C7000DF938230910510F482E090E0E0919F05AF
:102C8000F091A00520E030E0C0E0D0E0309711F1F5
:102C90004081518148175907C0F04817590761F41E
:102CA00082819381209719F09B838A832BC0909314
:102CB000A00580939F0526C02115310519F0421704
:102CC000530718F49A01BE01DF01EF010280F3817E
:102CD000E02DDCCF2115310509F1281B390B2430FB
:102CE000310590F412968D919C91139761157105A1
:102CF00021F0FB019383828304C09093A00580930D
:102D00009F05FD01329644C0FD01E20FF31F819340
:102D10009193225031092D933C933AC020919D0507
:102D200030919E05232B41F420910B0130910C0131
:102D300030939E0520939D052091090130910A0151
:102D40002115310541F42DB73EB740910D01509149
:102D50000E01241B350BE0919D05F0919E05E217B5
:102D6000F307A0F42E1B3F0B2817390778F0AC01AE
:102D70004E5F5F4F2417350748F04E0F5F1F50938B
:102D80009E0540939D058193919302C0E0E0F0E0A1
:102D9000CF01DF91CF9108950F931F93CF93DF93CE
:102DA000009709F48CC0FC013297138212820091C3
:102DB0009F051091A0050115110581F42081318135
:102DC000820F931F20919D0530919E05281739078A
:102DD00079F5F0939E05E0939D0571C0D80140E020
:102DE00050E0AE17BF0750F412962D913C91139707
:102DF000AD012115310509F1D901F3CF9D01DA01AA
:102E00003383228360817181860F971F8217930716
:102E100069F4EC0128813981260F371F2E5F3F4F5F
:102E2000318320838A819B8193838283452B29F47C
:102E3000F093A005E0939F0542C01396FC93EE9398
:102E40001297ED01499159919E01240F351FE21708
:102E5000F30771F480819181840F951F029611967A
:102E60009C938E938281938113969C938E93129759
:102E7000E0E0F0E0D80112968D919C9113970097B5
:102E800019F0F8018C01F6CF8D919C9198012E5F7D
:102E90003F4F820F931F20919D0530919E0528176B
:102EA000390769F4309729F41092A00510929F0514
:102EB00002C01382128210939E0500939D05DF913C
:102EC000CF911F910F910895A0E0B0E0EAE6F7E1FD
:102ED0000C948B13EC01009721F4CB010E94371660
:102EE000B8C0FC01E60FF71F9C0122503109E21720
:102EF000F30708F4ACC0D9010D911C911197061786
:102F00001707B0F00530110508F49FC0C8010497F9
:102F10008617970708F499C002501109061B170B72
:102F2000019311936D937C93CF010E94CC168DC0B9
:102F30005B01A01AB10A4C01800E911EA0919F0561
:102F4000B091A00540E050E0E12CF12C109709F47D
:102F50004AC0A815B905D1F56D907C901197630111
:102F600082E0C80ED11CCA14DB0480F1A3014A1907
:102F70005B096A0182E0C80ED11C1296BC901297C0
:102F80001396AC91B5E0CB16D10440F0B282A38386
:102F900051834083D9016D937C930AC00E5F1F4F0C
:102FA000C301800F911FF90191838083EB2DFA2FCC
:102FB000E114F10431F0D7011396FC93EE931297CC
:102FC00044C0F093A005E0939F053FC08D919C9174
:102FD00011974817590708F4AC017D0112960D901E
:102FE000BC91A02DB3CF80919D0590919E05881531
:102FF0009905E1F446175707C8F4809109019091AB
:103000000A01009741F48DB79EB740910D01509190
:103010000E01841B950BE817F907C8F4F0939E0581
:10302000E0939D05F901718360830FC0CB010E947D
:1030300037167C01009759F0A801BE010E94331891
:10304000CE010E94CC16C70104C0CE0102C080E0B0
:1030500090E0CDB7DEB7EEE00C94A71381E090E0EE
:10306000F8940C945218FB01DC0102C001900D92FF
:1030700041505040D8F70895FB01DC0101900D92BA
:103080000020E1F70895FB01DC014150504048F079
:1030900001900D920020C9F701C01D92415050408F
:1030A000E0F7089510E0CBE9D0E004C0FE010E94F3
:0E30B00031162196CC39D107C9F7F894FFCF1D
:1030BE000000803FEA0001A1090000A10580003256
:1030CE007C8900EDD96877000000590000000000EF
:1030DE00000000D69FDCA81817AA90437327F6B9F4
:1030EE0068EDF4DED409FEE61C1C84DDE80B99299C
:1030FE0027D6DF8D210F036418EFEE1EC8B70082AE
:10310E0000941500347C0000001400988F0000001D
:10311E000000000000000000E7B73F36000000008E
:10312E00000000AF669ED0380000000000000000D6
:10313E000000000000000000000000000000000081
:10314E000000000000000000000000000000000071
:10315E000000000000000000000000000000000061
:10316E000000000000000000000000000000000051
:10317E000000000000000000000000000000000041
:10318E000000000000000000000000000000000031
:10319E000000000000000000000000000000000021
:1031AE000000000000000000000000000000000011
:1031BE000000000000000000CC31AA2C532E0000AD
:1031CE00000000A00A380A630AE70AC600720A86DF
:1031DE000A00000000F500380A8201F4004901617E
:0A31EE0001DC00413A0020533A00D2
:00000001FF
