:100000000C9497000C94BF000C94BF000C94BF009C
:100010000C94BF000C94BF000C94BF000C94BF0064
:100020000C94BF000C94BF000C94A0030C944A04E1
:100030000C9459030C94BF000C94BF000C94BF00A7
:100040000C940F030C94BF000C94D1020C94AB02DF
:100050000C94BF000C94BF000C94BF000C94BF0024
:100060000C94BF000C94BF005E085E086A08860806
:100070007D088F089C08B408CB08EC083E0A500A9B
:10008000600A760A8B0A980AB60AD40AE70A150C9F
:10009000FD0A0C0B1A0B290B3D0B560B680B840B3E
:1000A0009F0BB30BC90BDA0BEA0B020C084AD73BC8
:1000B0003BCE016E84BCBFFDC12F3D6C74319ABD37
:1000C00056833DDA3D00C77F11BED9E4BB4C3E915B
:1000D0006BAAAABE000000803F00000000080002DA
:1000E0000100000304070000000000000000000001
:1000F0000000250028002B0000000000240027003D
:100100002A00040404040404040402020202020299
:1001100003030303030301020408102040800102CB
:1001200004081020010204081020660D480D112457
:100130001FBECFEFD8E0DEBFCDBF12E0A0E0B1E040
:10014000E6EBF0E302C005900D92A835B107D9F7B0
:1001500026E0A8E5B2E001C01D92AC30B207E1F79D
:1001600010E0C6E9D0E004C02197FE010E942D16E0
:10017000C539D107C9F70E94B70D0C944E180C94DD
:100180000000CF92DF92EF92FF920F931F93CF93D5
:10019000DF936C017A018B01C0E0D0E0CE15DF0562
:1001A00089F0D8016D918D01D601ED91FC910190FE
:1001B000F081E02DC6010995892B11F47E0102C062
:1001C0002196ECCFC701DF91CF911F910F91FF9046
:1001D000EF90DF90CF900895FC01538D448D252F33
:1001E00030E0842F90E0821B930B541710F0CF96D1
:1001F000089501970895FC01918D828D981761F003
:10020000828DDF01A80FB11D5D968C91928D9F5F4D
:100210009F73928F90E008958FEF9FEF0895FC01F8
:10022000918D828D981731F0828DE80FF11D858DAB
:1002300090E008958FEF9FEF0895FC01918D228D3E
:10024000892F90E0805C9F4F821B91098F739927C3
:10025000089588E395E00E941D0121E0892B09F4AF
:1002600020E0822F0895FC01848DDF01A80FB11DCD
:10027000A35ABF4F2C91848D90E001968F739927DC
:10028000848FA689B7892C93A089B1898C918064C9
:100290008C93938D848D981306C00288F389E02D8A
:1002A00080818F7D80830895EF92FF920F931F933B
:1002B000CF93DF93EC0181E0888F9B8D8C8D981319
:1002C00005C0E889F989808185FD24C0F62E0B8D53
:1002D00010E00F5F1F4F0F731127E02E8C8DE81277
:1002E0000CC00FB607FCFACFE889F989808185FF39
:1002F000F5CFCE010E943301F1CF8B8DFE01E80FC7
:10030000F11DE35AFF4FF0820B8FEA89FB89808150
:10031000806207C0EE89FF896083E889F98980815E
:100320008064808381E090E0DF91CF911F910F91F5
:10033000FF90EF900895CF93DF93EC01888D882391
:10034000C9F0EA89FB89808185FD05C0A889B98942
:100350008C9186FD0FC00FB607FCF5CF808185FF1D
:10036000F2CFA889B9898C9185FFEDCFCE010E948B
:100370003301E7CFDF91CF91089580E090E0892BA2
:1003800029F00E94290181110C94000008954091E8
:100390000C0550910B05852F90E0242F30E0451778
:1003A00010F08C5B9F4F821B930B089550910F05AB
:1003B00040910E05852F90E0242F30E0541710F463
:1003C000805B9F4F821B930B089580910F05E091F6
:1003D0000E058E1751F0EF5FE03508F0E0E0F0E039
:1003E000EE54FB4F808190E008958FEF9FEF0895CA
:1003F00080910F0590910E05891769F09F5F9035E8
:1004000008F090E0E92FF0E0EE54FB4F80819093EC
:100410000E0590E008958FEF9FEF089580910D05F0
:100420008111FCCF089580910C058F5F843408F012
:1004300080E090910B059817E1F32FB7F894909115
:100440000D05992341F0E82FF0E0E859FB4F608358
:1004500080930C051DC081E080930D056093AD0471
:100460001092AC0482E086BB80916F008260809322
:100470006F00809180008F738068809380008091EE
:100480008400909185004096909389008093880025
:100490002FBF81E090E00895FB012081822790E149
:1004A000899F900111242827822F90E0582F4427FC
:1004B0009C0163E0220F331F6A95E1F7422753271F
:1004C000218130E02427352774E0959587957A952A
:1004D000E1F782279327918380830895089580E030
:1004E00090E008950F931F93CF93DF93EC018881E1
:1004F0009981009729F02A813B812617370788F4D4
:100500008B016F5F7F4F0E946017009761F09983A6
:1005100088831B830A832C813D81232B11F4FC01EA
:10052000108281E001C080E0DF91CF911F910F9197
:100530000895CF93DF93EC0188819981009711F0A2
:100540000E94C816198218821D821C821B821A8280
:10055000DF91CF9108951F920F920FB60F92112441
:100560002F933F934F935F936F937F938F939F93BB
:10057000AF93BF93EF93FF9388E395E00E9433011D
:10058000FF91EF91BF91AF919F918F917F916F916B
:100590005F914F913F912F910F900FBE0F901F9041
:1005A00018951F920F920FB60F9211242F938F93CD
:1005B0009F93EF93FF93E0914805F0914905808167
:1005C000E0914E05F0914F0582FD12C0908180911F
:1005D00051058F5F8F7320915205821751F0E09182
:1005E0005105F0E0E85CFA4F958F8093510501C00A
:1005F0008081FF91EF919F918F912F910F900FBE6E
:100600000F901F9018952FB7F8946091070570917F
:1006100008058091090590910A052FBF08951F9242
:100620000F920FB60F9211242F933F938F939F93A6
:10063000AF93BF938091070590910805A09109059C
:10064000B0910A053091060523E0230F2D3720F4E1
:100650000196A11DB11D05C026E8230F0296A11D1C
:10066000B11D209306058093070590930805A0937C
:100670000905B0930A058091020590910305A091A8
:100680000405B09105050196A11DB11D80930205D9
:1006900090930305A0930405B0930505BF91AF9116
:1006A0009F918F913F912F910F900FBE0F901F90B0
:1006B00018951F920F920FB60F9211242F938F93BC
:1006C0009F93EF93FF9380916F008B7F80936F00D8
:1006D000809181008F7B8093810080911005209113
:1006E000B10420589091B004893020F49695922B53
:1006F0008F5FFACF9093B00480910F058F5F8035A4
:1007000008F080E020910E05821739F0E82FF0E024
:10071000EE54FB4F908380930F051092100580914B
:1007200081008F7B809381001092B104FF91EF9143
:100730009F918F912F910F900FBE0F901F90189542
:100740001F920F920FB60F9211242F933F934F9346
:100750005F936F937F938F939F93AF93BF93EF9329
:10076000FF9380918600909187004091B104209181
:100770008100442331F02F7B209381001092B1043B
:1007800006C020642093810020E82093B1043091BA
:100790001005311125C041116CC020911105309117
:1007A0001205280F391F30938B0020938A0024E014
:1007B00026BB20916F00246020936F0020911305C9
:1007C00030911405820F931F36952795820F931F42
:1007D0009093AF048093AE0481E08093100549C0EC
:1007E0004091AE045091AF046091130570911405CF
:1007F000DB01A095B095E091B1042091B004841B79
:10080000950BA817B90768F126952E2B460F571F91
:100810003F5F861B970B3930A0F32093B004809183
:100820006F008B7F80936F0080910F058F5F803505
:1008300008F080E090910E05891749F0E82FF0E06C
:100840009091B004EE54FB4F908380930F058091FC
:1008500081008F7B809381001092B104109210056B
:1008600008C02093B0045093AF044093AE0430937B
:100870001005FF91EF91BF91AF919F918F917F9163
:100880006F915F914F913F912F910F900FBE0F90FD
:100890001F9018951F920F920FB60F9211242F934D
:1008A0003F934F935F936F937F938F939F93EF93B8
:1008B000FF9380910D056091AD04209188003091E7
:1008C000890040911305509114059091AC048A3031
:1008D000F8F4240F351F893019F0762F717001C09C
:1008E00071E066958F5F791791F39091800077237F
:1008F00011F0906C02C09F739068909380003093C9
:100900008900209388007093AC046093AD044AC0C2
:1009100090910C05E0910B059E1319C08A3051F49B
:100920008BE080930D05240F351F309389002093B1
:1009300088003AC010920D05809180008F738093DB
:10094000800080916F008D7F80936F002DC0EF5FDE
:10095000E43408F0E0E0E0930B05F0E0E859FB4FE9
:1009600090819093AD041092AC04909180009F739D
:100970009068909380008A3059F48091130590918B
:100980001405280F391F309389002093880009C06F
:100990008091840090918500409690938900809387
:1009A000880081E080930D05FF91EF919F918F91D9
:1009B0007F916F915F914F913F912F910F900FBE5B
:1009C0000F901F901895CF92DF92EF92FF920F93A6
:1009D0001F93CF93DF93CDB7DEB7C151D1400FB690
:1009E000F894DEBF0FBECDBF8091670487FF15C0AE
:1009F00081E090E0A0E0B0E0C851DF4F88839983A8
:100A0000AA83BB83C85ED040C254DF4F88839983DA
:100A1000AA83BB83CE5BD04010C0C851DF4F188281
:100A200019821A821B82C85ED040C254DF4F1882DE
:100A300019821A821B82CE5BD04084E0C15FDE4FF8
:100A40008883CF50D14081E0C05FDE4F8883C051A2
:100A5000D140CF5EDE4F8883C151D14043E0BE011B
:100A6000615F7E4F83E00E94220CC250DF4F1982EB
:100A70001882CE5FD040C050DF4F19821882C0501C
:100A8000D140CE5FDE4F19821882C250D14060E063
:100A900070E0CE0182509F4F0E947202811106C009
:100AA000CE0182509F4F0E94990210C0CE5FDE4F50
:100AB00019821882C250D14063E572E0C250DF4F04
:100AC00088819981CE5FD0400E9438188091290595
:100AD00081117EC000916504109166041A8219820A
:100AE0001C821B821E821D82BE0162507F4FCE017E
:100AF00001960E941E0D61E572E0CE0101960E94F2
:100B0000EA0CB8010E94970CBC01CE0182509F4FA5
:100B10000E941E0D89819A810E94C81626E636E63B
:100B200046E650E460916104709162048091630430
:100B3000909164040E94A6120E9443156B017C01EF
:100B40001A8219821C821B821E821D82BE01625083
:100B50007F4FCE0101960E941E0D64E572E0CE012A
:100B600001960E94EA0CB6010E94970CBC01CE01CE
:100B700082509F4F0E941E0D89819A810E94C81643
:100B8000CE5FDE4F08811981C250D1400115110599
:100B900031F4C853DF4F1882C85CD04025C00E30F6
:100BA000110510F00EE010E0C250DF4F688179812E
:100BB000CE5FD040A801CE0188539F4F0E943F18BE
:100BC000E8ECF0E0EC0FFD1FE00FF11F10820CC00D
:100BD000813051F48FE0E2E5F4E0DE01A853BF4F2D
:100BE00001900D928A95E1F74FE0BE0168537F4F67
:100BF0008AE00E94220C4BE0BE016E517F4F85E6D9
:100C00000E94220C80912705C950DF4F8883C75F5F
:100C1000D0408091500490915104C650DF4F998389
:100C20008883CA5FD0408091300590913105C450CF
:100C3000DF4F99838883CC5FD04080912E059091BF
:100C40002F05C850DF4F99838883C85FD04047E0A5
:100C5000BE0169507F4F8EE60E94220C80913005C4
:100C600090913105C352DF4F99838883CD5DD04089
:100C7000809127059AE0899F90011124C052DF4F8F
:100C800039832883C05ED04020912E0530912F05F6
:100C9000C552DF4F39832883CB5DD0409091280522
:100CA000C952DF4F9883C75DD04020E534E1C85278
:100CB000DF4F39832883C85DD04090E005966AE015
:100CC00070E00E941916C652DF4F6883CA5DD0409B
:100CD000C152DF4F1882CF5DD0404BE0BE01695258
:100CE0007F4F82E80E94220C40E1BE0168547F4F92
:100CF00086E90E94220C8091210590912205A09105
:100D00002305B0912405C855DF4F88839983AA83B2
:100D1000BB83C85AD04080911D0590911E05A091BB
:100D20001F05B0912005C455DF4F88839983AA839E
:100D3000BB83CC5AD04080914F04C955DF4F888384
:100D4000C75AD04042E1BE016A557F4F8AE60E94F1
:100D5000220C8091170590911805C65FDE4F99838C
:100D60008883CA50D1408091150590911605C45FC3
:100D7000DE4F99838883CC50D14045E0BE01665F49
:100D80007E4F8BE60E94220C8091170590911805EA
:100D9000893E23E092075CF064E670E00E94191639
:100DA000CA5FDE4F79836883C650D1400CC04AE0E9
:100DB000489F9001499F300D1124CA5FDE4F39834F
:100DC0002883C650D14080914D0490914E0464E632
:100DD00070E00E9405168091150590911605861BFE
:100DE000970B4AE0489F9001499F300D1124CC5F3A
:100DF000DE4F39832883C450D14046E0BE016C5F8A
:100E00007E4F8CE60E94220CC351DF4F188219825C
:100E10001A821B82CD5ED0404AE0BE0163517F4FF3
:100E20008DE60E94220C88E3888788E1EE968FAFDA
:100E3000EE9782E090E0CA56DF4F99838883C659C7
:100E4000D04080E1C256DF4F8883CE59D04081E048
:100E5000CD55DF4F8883C35AD040CC55DF4F8883B0
:100E6000C45AD040CB55DF4F1882C55AD04083E8D2
:100E700098E09C878B878AEE90E09E878D87988B81
:100E80008F879A8B898B9C8B8B8B9E8B8D8B988F6E
:100E90008F8B9A8F898F2FEE39E03C8F2B8F9E8F0F
:100EA0008D8F98A38F8F26E338E03AA329A328E5F6
:100EB00038E03CA32BA39EA38DA320910701309182
:100EC000080138A72FA39AA789A79CA78BA79EA73D
:100ED0008DA798AB8FA79AAB89AB9CAB8BAB9EAB26
:100EE0008DAB28E138E038AF2FAB21E438E03AAFE2
:100EF00029AF21E238E03CAF2BAF9EAF8DAF28EB9E
:100F000039E021963FAF2EAF219728E939E02396AB
:100F10003FAF2EAF239725969FAF8EAF259727968D
:100F20009FAF8EAF279729969FAF8EAF29972B96AD
:100F30009FAF8EAF2B972D969FAF8EAF2D972F968D
:100F40009FAF8EAF2F9761969FAF8EAF61976396DD
:100F50009FAF8EAF639765969FAF8EAF659767968D
:100F60009FAF8EAF679769969FAF8EAF69976B966D
:100F70009FAF8EAF6B976D969FAF8EAF6D976F964D
:100F80009FAF8EAF6F97A1969FAF8EAFA197A3969D
:100F90009FAF8EAFA397A5969FAF8EAFA597A7964D
:100FA0009FAF8EAFA797A9969FAF8EAFA997AB962D
:100FB0009FAF8EAFAB97AD969FAF8EAFAD97AF960D
:100FC0009FAF8EAFAF97E1969FAF8EAFE197E3965D
:100FD0009FAF8EAFE397E5969FAF8EAFE597E7960D
:100FE0009FAF8EAFE797E9969FAF8EAFE997EB96ED
:100FF0009FAF8EAFEB97ED969FAF8EAFED9745EA23
:10100000BE016F5F7F4F84E50E94220CC250DF4F0C
:1010100088819981CE5FD0400E94C816CF5EDE4F96
:101020000FB6F894DEBF0FBECDBFDF91CF911F91F9
:101030000F91FF90EF90DF90CF9008952F923F9205
:101040004F925F926F927F928F929F92AF92BF92D8
:10105000CF92DF92EF92FF920F931F93CF93DF9384
:10106000CDB7DEB7C657D1090FB6F894DEBF0FBEB5
:10107000CDBFEE24E394F12C92E0292E312CCC2428
:10108000CA94DC2C8FED95E00E94D6011816190643
:101090000CF0A7C18FED95E00E94F8015C01082FCC
:1010A00010925802E0915B02F0915C02EA30F10587
:1010B00008F0CDC0EC5CFF4F0C942D168E3F09F06C
:1010C000C6C030925C0220925B0210928B02809329
:1010D0008A029BC0853630F0809159028F5F8093E1
:1010E000590298C080938B0210925D0268E872E00A
:1010F0000E944C0224E030E01AC080938C0268E821
:1011000072E00E944C0283E090E022C080938D0246
:1011100068E872E00E944C02A5E0B0E020C0809335
:101120008E0268E872E00E944C0226E030E03093C4
:101130005C0220935B028BC080938F0268E872E0B0
:101140000E944C0280918B02811107C088E090E0E0
:1011500090935C0280935B027AC0A7E0B0E0B0930A
:101160005C02A0935B0273C0E0915D02BB24B39468
:10117000BE0EB0925D02F0E0E057FD4FA08268E83D
:1011800072E08A2D0E944C0280918B02B8125FC0DF
:1011900028E030E0CCCFE0918F02F0E0E15FFE4F3D
:1011A00068E872E080810E944C02809188029091F0
:1011B000890299279501332728173907F1F489E027
:1011C00090E090935C0280935B02E0915D02F0E01E
:1011D000E057FD4FA0823BC090918902E6969FAFF9
:1011E000E697E7961FAEE797C5019927E796AEAD5C
:1011F000BFADE7978A179B0791F00E3F59F43092E5
:101200005C0220925B0210928B02D0928902C09203
:1012100088021DC0F0925C02E0925B0218C081E07F
:1012200080935802F0925C02E0925B02E0915D02D2
:10123000F0E0EF56FD4FA08280E7E8E8F2E0DE0143
:10124000119601900D928A95E1F710918F022091ED
:101250005802213099F480918C0280935E02809133
:10126000600290916102009721F410926302109243
:1012700062020196909361028093600210925A027A
:10128000222309F4FFCE183109F480C0C0F41123E1
:1012900009F483C0113009F0F5CE298D3A8D4FA1A4
:1012A0008F89988D64E670E00E940516609327058B
:1012B00040934C043093310520933005E3CE133234
:1012C00009F47EC01A3409F448C0113209F0DACEAC
:1012D0008D859E85AF85B889E5968CAF9DAFAEAF05
:1012E000BFAFE59749885A886B887C888D889E882F
:1012F000AF88B88C698D7A8D8B8D9C8D2BA13CA18C
:1013000030934E0420934D0428EE33E040E050E04B
:101310000E9464133093660420936504E5968CADB7
:101320009DADAEADBFADE5978093210590932205AD
:10133000A0932305B093240540921D0550921E05ED
:1013400060921F05709220058092190590921A05EF
:10135000A0921B05B0921C0595CE8D859E85AF850C
:10136000B88949855A856B857C854093480450939C
:10137000490460934A0470934B04809361049093F2
:101380006204A0936304B09364047CCE8EA19DA1FB
:101390009093250580934F0475CE89859A85AB85FA
:1013A000BC8528893F853093670420932605809368
:1013B000D9059093DA05A093DB05B093DC0562CEE6
:1013C0002E8D30E0AFEFB3E00E94DC132FEF30E062
:1013D00040E050E00E946413309351042093500485
:1013E00051CECA58DF4F0FB6F894DEBF0FBECDBF47
:1013F000DF91CF911F910F91FF90EF90DF90CF90F1
:10140000BF90AF909F908F907F906F905F904F9024
:101410003F902F900895FC0181E08093290540932F
:101420002A0550932B0560932C0570932D059FE0A2
:10143000A2E5B4E001900D929A95E1F708950F931B
:101440001F93CF93DF93CDB7DEB72F970FB6F894E6
:10145000DEBF0FBECDBF0091D9051091DA052091F6
:10146000DB053091DC050831110508F0DEC1AB0168
:10147000BC01F801E25CFF4F0C942D16CE010196E1
:101480002FE0DC011D922A95E9F72DE4298321E460
:101490002A833EE43B8335E53C832D832CE461C104
:1014A000CE0101962FE0FC0111922A95E9F723E481
:1014B000298339E43A8332E53B832C832CE484C0CE
:1014C000CE0101962FE0DC011D922A95E9F723E574
:1014D000298324E52A8321E42B8322E42C8329E435
:1014E0002D833CE43E832F832AE588C1CE010196FB
:1014F0002FE0FC0111922A95E9F724E5298322E5E2
:101500002A8321E42B8339E43C832EE42D833E831C
:101510002F8327E470C0CE0101962FE0DC011D92DD
:101520002A95E9F721E4298323E42A8322E571C07F
:10153000FE0131968FE0DF011D928A95E9F786E47E
:1015400089838CE48A8389E58B8390E29C8322E4FF
:101550002D838E839F8387E5888789E4898782E549
:101560008A8785E48B879C8781E41CC0FE013196C5
:101570008FE0DF011D928A95E9F786E489838CE488
:101580008A8329E52B8390E29C8382E48D832E83DA
:101590009F8327E5288729E4298722E52A8725E4F0
:1015A0002B879C878D87AEC0CE0101962FE0FC0172
:1015B00011922A95E9F723E4298322E52A8325E578
:1015C0002B8329E42C8323E52D8325E4CAC0CE0197
:1015D00001962FE0DC011D922A95E9F721E4298389
:1015E00025E52A8334E53B83EFE4EC833D832E83BA
:1015F0002EE42F8325E4288716C1CE0101962FE023
:10160000FC0111922A95E9F721E4298325E52A8333
:1016100024E52B832FE4DCC0CE0101962FE0DC0112
:101620001D922A95E9F722E5298324E52A832CE4F3
:101630002B83F9C0CE0101962FE0FC0111922A956F
:10164000E9F72CE429832FE42A8329E42B8324E57A
:1016500084C0CE0101962FE0DC011D922A95E9F7A6
:1016600024E5298321E42A832BE42B8325E42C839E
:101670002FE42D8326E42E838AC0CE0101962FE02D
:10168000FC0111922A95E9F731E4398326E52A8392
:101690002FE42B8329E42C8324E42D83EFE5EE83D0
:1016A0003F83288723E5298722E447C0CE0101969E
:1016B0002FE0DC011D922A95E9F727E4298325E52F
:1016C0002A8329E42B8324E42C8335E43D8349C019
:1016D000FE0131968FE0DF011D928A95E9F799E4CA
:1016E00099838EE48A839B8324E52C839D8321E464
:1016F0002E832CE42F83988723E529879A878B876D
:1017000087E48C87CF018FC0CE0101962FE0FC01CA
:1017100011922A95E9F721E5298323E52A8324E517
:101720002B8321E42C8322E42D8329E42E833CE4C3
:101730003F8328872AE5298725E42A8774C0CE01BC
:1017400001962FE0DC011D922A95E9F721E5298316
:1017500028E42A832FE42B8326E52C8325E42D839C
:1017600022E52E8360C0CE0101962FE0FC0111928C
:101770002A95E9F721E529832CE42A832FE42B839A
:1017800029E42C8324E52D8325E42E8322E52F8371
:101790004AC0CE0101962FE0DC011D922A95E9F79F
:1017A00021E529832CE42A8321E42B832EE42C8356
:1017B00024E438C0CE0101962FE0FC0111922A9555
:1017C000E9F721E5298322E52A8324E52B832CE40C
:1017D0002C8329C0CE0101962FE0DC011D922A95B1
:1017E000E9F721E5298321E42A8325E52B8334E5E4
:1017F0003C83EFE4ED833E832F832EE4288725E4AA
:10180000298711C0CE0101962FE0FC0111922A9583
:10181000E9F721E5298321E42A8323E42B8322E5C8
:101820002C832FE42D830E940B0A2F960FB6F89479
:10183000DEBF0FBECDBFDF91CF911F910F910895F5
:101840000E942A18CF92DF92EF92FF920F931F937C
:10185000CF93DF931F92CDB7DEB7D82EF62EC42ECE
:101860008091320590913305DC01ED91FC9101905E
:10187000F081E02D64E279830995809132059091A1
:101880003305DC01ED91FC910190F081E02D6DE4D8
:1018900009958091320590913305DC01ED91FC9121
:1018A0000190F081E02D6CE30995809132059091D3
:1018B0003305DC01ED91FC910190F081E02D6C2D60
:1018C00009958091320590913305DC01ED91FC91F1
:1018D0000190F081E02D6D2D0995DC24EF2C0F2D6A
:1018E0007981172F8091320590913305202F2E1981
:1018F0002C1560F4F80161918F01D626DC01ED9181
:10190000FC910190F081E02D0995ECCFDC01ED9187
:10191000FC910190F081E02D6D2D0F90DF91CF9122
:101920001F910F91FF90EF90DF90CF900994CF928D
:10193000DF92EF92FF920F931F93CF93DF93CDB778
:10194000DEB727970FB6F894DEBF0FBECDBF8C0170
:10195000CB014AE09E012F5F3F4F6901B9010E9410
:101960001612F60101900020E9F73197EC19FD09F4
:10197000D8011496ED90FC9015973097D9F0EE0EA3
:10198000FF1EB701C8010E947202882381F0F8018E
:101990002081318184819581B601820F931F0E943D
:1019A0003818D8011596FC92EE92149703C0C8011E
:1019B0000E949902C80127960FB6F894DEBF0FBEA9
:1019C000CDBFDF91CF911F910F91FF90EF90DF90EE
:1019D000CF900895EF92FF920F931F93CF93DF93D1
:1019E000EC017B0161157105F1F0FB010190002014
:1019F000E9F73197E61BF70B0C811D813097B1F0A9
:101A00000E0F1F1FB8010E947202882361F0288107
:101A100039818C819D81B701820F931F0E943818F4
:101A20001D830C8303C0CE010E949902CE01DF9179
:101A3000CF911F910F91FF90EF900895EF92FF9239
:101A40000F931F93CF93DF93EC01FB01861797074A
:101A5000B9F0008111810115110539F0E480F5809C
:101A6000B7010E947202811104C0CE010E94990246
:101A700007C0FD82EC82B801888199810E943818E4
:101A8000CE01DF91CF911F910F91FF90EF900895BC
:101A900085E292E09093E0058093DF0580916F00EE
:101AA0008B7F80936F0080916F008F7D80936F009C
:101AB00080910E0580930F0580910D058111FCCF5B
:101AC00080916F008D7F80936F000895E8E3F5E0CB
:101AD0001382128288EE93E0A0E0B0E084839583C5
:101AE000A683B78323E132E03183208325EC30E005
:101AF0003587248724EC30E03787268720EC30E0D8
:101B0000318B208B21EC30E0338B228B22EC30E0C8
:101B1000358B248B26EC30E0378B268B118E128E82
:101B2000138E148EEFEDF5E0138212828483958379
:101B3000A683B78385E292E0918380838091070139
:101B4000909108019093DE058093DD058091D90581
:101B50009091DA05A091DB05B091DC058093D50565
:101B60009093D605A093D705B093D8050895CF9349
:101B7000DF93CDB7DEB72F970FB6F894DEBF0FBE59
:101B8000CDBF789484B5826084BD84B5816084BD06
:101B900085B5826085BD85B5816085BD80916E000B
:101BA000816080936E00109281008091810082603C
:101BB0008093810080918100816080938100809179
:101BC00080008160809380008091B1008460809368
:101BD000B1008091B00081608093B00080917A0064
:101BE000846080937A0080917A00826080937A008A
:101BF00080917A00816080937A0080917A00806879
:101C000080937A001092C100E0914805F091490557
:101C100082E08083E0914405F09145051082E091D7
:101C20004605F091470580E1808310925005E091D0
:101C30004C05F0914D0586E08083E0914A05F091D6
:101C40004B05808180618083E0914A05F0914B05CE
:101C5000808188608083E0914A05F0914B05808106
:101C600080688083E0914A05F0914B0580818F7DEB
:101C7000808388E395E0909333058093320584EF69
:101C800091E0A0E0B0E08093340590933505A093F7
:101C90003605B093370510926F001092800081E8EE
:101CA0008093810086E191E0909314058093130561
:101CB0008BE09AE09093120580931105EEE1F1E03C
:101CC0002491EAE0F1E084918823C9F090E0880F44
:101CD000991FFC01E850FF4F45915491FC01E251DE
:101CE000FF4FA591B4919FB7F894FA013081822FEC
:101CF000809583238083EC91E22BEC939FBFE3EEEE
:101D0000F0E034914FE151E0FA0164918BE091E011
:101D1000FC0124912223B9F1332339F1333091F0BE
:101D200038F43130A9F0323001F534B53F7D12C0BE
:101D3000373091F03830A1F03430B9F43091800070
:101D40003F7D03C0309180003F77309380000DC00D
:101D500034B53F7734BD09C03091B0003F7703C040
:101D60003091B0003F7D3093B00030E0220F331F40
:101D700022513F4FF901A591B4912FB7F8943C91AE
:101D8000632B6C932FBFFA014491FC01849188234B
:101D900099F090E0880F991FFC01E850FF4FA59142
:101DA000B491FC01E251FF4F859194918FB7F89463
:101DB0009C91492B4C938FBF1092100510920F05E8
:101DC00010920E0510920D0510920C0510920B0545
:101DD00080E286BB80936F009E012F5F3F4F190109
:101DE00006E411E40E941E080E940303C09004064A
:101DF000D0900506E0900606F09007069B01AC0126
:101E00002C193D094E095F0969017A0134E6C316B0
:101E1000D104E104F10408F455C160930406709301
:101E2000050680930606909307068091F30590912E
:101E3000F405A091F505B091F6050097A105B1054F
:101E400009F496C08090EF059090F005A090F10500
:101E5000B090F20581149104A104B10409F488C082
:101E6000C0902105D0902205E0902305F090240534
:101E7000BC01CD016C197D098E099F090E94471292
:101E80006B017C0180911D0590911E05A0911F059D
:101E9000B0912005A5019401281B390B4A0B5B0B5F
:101EA000CA01B9010E94471220910001309101013D
:101EB00040910201509103010E94A6124B015C0166
:101EC000A7019601C701B6010E94A6122B013C0191
:101ED000A5019401C501B4010E94A6129B01AC01A9
:101EE000C301B2010E94EC130E94AC152CE23DE745
:101EF0004EE85FE30E94A6120E9443152B013C01AD
:101F0000C701B6019058A50194010E946B1420EA04
:101F10003CE043EB55E40E94A61220E030EA4CE09E
:101F200056E40E94EC130E943C156B017C0197FF64
:101F300006C030EAC30E3CE8D31EE11CF11CC3010D
:101F4000B20124E630E040E050E00E94BA13309342
:101F5000180520931705C701B60124E630E040E0DC
:101F600050E00E946413309316052093150508C0B5
:101F7000109218051092170510921605109215056B
:101F80000E94E3046091300570913105072E000C2A
:101F9000880B990B0E94471220E030E040E251E4A8
:101FA0000E94A6126B017C010E9403030E9445124D
:101FB00020910006309101064091020650910306DF
:101FC0000E94EB139B01AC01C701B6010E94A6124F
:101FD00020E03AEB4BE55AE40E94CA142DE73FE3B8
:101FE00045E95FE30E94A6122091FC053091FD05B2
:101FF0004091FE055091FF050E94EC136093FC0593
:102000007093FD058093FE059093FF050E94431594
:1020100070932F0560932E050E9403030E944512C2
:102020006093000670930106809302069093030666
:102030009091FB05809106019930E0F08130D1F458
:102040008091DD059091DE05813D9740E8F080911B
:10205000070190910801209104013091050130930E
:1020600008012093070190930501809304011092C9
:10207000FB050AC0811108C08091DD059091DE0545
:1020800090930801809307018091FB058F5F8093F7
:10209000FB0580912A0590912B05A0912C05B0910C
:1020A0002D05181619061A061B0664F484569109A4
:1020B000A109B10980932A0590932B05A0932C05C3
:1020C000B0932D0580912A0590912B05A0912C05A8
:1020D000B0912D05181619061A061B0614F0109259
:1020E00029058091D9059091DA05A091DB05B09181
:1020F000DC054091D5055091D6056091D7057091CA
:10210000D80584179507A607B70771F08093D50502
:102110009093D605A093D705B093D80568EE73E0E9
:1021200080E090E00E941F0A80912805811127C05D
:1021300080912705882319F18B3220F451E05093C8
:1021400028051DC0853520F482E08093280517C03E
:102150008F3720F493E09093280511C0893A20F43A
:10216000E4E0E09328050BC0833D20F4F5E0F09314
:10217000280505C08F3F19F026E02093280580919F
:10218000260585508230E0F48091FB058770C1F40C
:10219000F1012FE011922A95E9F709831A8339E4B6
:1021A0003B838CE48C8383E58D831E830F8385E4DE
:1021B000888744EF51E060E070E0C1010E940B0AA3
:1021C0000E940303C090F705D090F805E090F90550
:1021D000F090FA059B01AC012C193D094E095F09ED
:1021E00069017A0130E1C31637E2D306E104F10454
:1021F00070F06093F7057093F8058093F90590935C
:10220000FA0564EF71E080E090E00E941F0A80917F
:102210002505833008F407C180910601813009F05B
:1022200002C1609121057091220580912305909152
:1022300024056093F3057093F4058093F50590935E
:10224000F605C0901D05D0901E05E0901F05F0908A
:102250002005C092EF05D092F005E092F105F092D2
:10226000F205C0901905D0901A05E0901B05F0907A
:102270001C05C092EB05D092EC05E092ED05F092C2
:10228000EE050E9447129F7720E836E948E15BE4BB
:102290000E94CA1425E33AEF4EE85CE30E94A612BE
:1022A0002BED3FE049EC5FE30E94EC136B017C01F6
:1022B0000E943C15DC01CB018096A11DB11D81342B
:1022C0009105A105B10508F0A1C02BED3FE049E45F
:1022D00050E4C701B6010E94991518165CF42BED65
:1022E0003FE049EC50E4C701B6010E94EB136B01DB
:1022F0007C01EBCF2BED3FE049E450ECC701B60188
:102300000E94401287FF0BC02BED3FE049EC50E4E8
:10231000C701B6010E94EC136B017C01EBCF2BEDE2
:102320003FE049EC5FE3C701B6010E94991518161A
:102330007CF42BED3FE049EC5FE3C701B6010E945E
:10234000EB139B01AC016BED7FE089EC9FE318C0C0
:102350002BED3FE049EC5FEBC701B6010E94401254
:1023600087FF12C02BED3FE049EC5FE3C701B601E8
:102370000E94EC139B01AC016BED7FE089EC9FEBBD
:102380000E94EB136B017C01A7019601C701B60106
:102390000E94A6124B015C019B01AC01C701B60172
:1023A0000E94A6122B013C0120E030E0A901C501EA
:1023B000B4010E94A61222E937EE41E459E30E94DB
:1023C000EB139B01AC01C501B4010E94A61227E9E1
:1023D00030E348E05CE30E94EC139B01AC01C501D3
:1023E000B4010E94A61225E138EA4AE25EE30E94A7
:1023F000EB139B01AC01C301B2010E94A6129B0129
:10240000AC01C701B6010E94EC1303C060E070E0AC
:10241000CB016093000170930101809302019093BE
:102420000301109206010E94BD01DCCCBB27FB0119
:102430005527AA27880F991FAA1FA41710F0A41BBD
:1024400083955051B9F7A05DAA3308F0A95DA19317
:10245000009779F7B111B1931192CB010C9430121E
:10246000DC01FC01672F71917723E1F7329704C0FB
:102470007C916D9370836291AE17BF07C8F3089586
:102480000E94821208F481E00895E89409C097FB45
:102490003EF490958095709561957F4F8F4F9F4F3B
:1024A0009923A9F0F92F96E9BB279395F69587957F
:1024B00077956795B795F111F8CFFAF4BB0F11F442
:1024C00060FF1BC06F5F7F4F8F4F9F4F16C08823E9
:1024D00011F096E911C0772321F09EE8872F762F1F
:1024E00005C0662371F096E8862F70E060E02AF060
:1024F0009A95660F771F881FDAF7880F969587954C
:1025000097F90895990F0008550FAA0BE0E8FEEF20
:1025100016161706E807F907C0F012161306E407A7
:10252000F50798F0621B730B840B950B39F40A26A0
:1025300061F0232B242B252B21F408950A2609F47E
:10254000A140A6958FEF811D811D08950E94B912AB
:102550000C942A130E941C1338F00E94231320F0BD
:10256000952311F00C9413130C94191311240C944B
:102570005E130E943B1370F3959FC1F3950F50E0DB
:10258000551F629FF001729FBB27F00DB11D639F25
:10259000AA27F00DB11DAA1F649F6627B00DA11DCB
:1025A000661F829F2227B00DA11D621F739FB00D71
:1025B000A11D621F839FA00D611D221F749F3327E1
:1025C000A00D611D231F849F600D211D822F762F7A
:1025D0006A2F11249F5750409AF0F1F088234AF057
:1025E000EE0FFF1FBB1F661F771F881F91505040C3
:1025F000A9F79E3F510580F00C9413130C945E13C1
:102600005F3FE4F3983ED4F3869577956795B79549
:10261000F795E7959F5FC1F7FE2B880F911D969563
:10262000879597F9089597F99F6780E870E060E0D3
:1026300008959FEF80EC089500240A94161617065B
:1026400018060906089500240A94121613061406A3
:1026500005060895092E0394000C11F4882352F006
:10266000BB0F40F4BF2B11F460FF04C06F5F7F4FBE
:102670008F4F9F4F089557FD9058440F551F59F0A5
:102680005F3F71F04795880F97FB991F61F09F3F5F
:1026900079F087950895121613061406551FF2CF88
:1026A0004695F1DF08C0161617061806991FF1CFD8
:1026B00086957105610508940895E894BB276627FF
:1026C0007727CB0197F90895052E97FB1EF4009408
:1026D0000E947B1357FD07D00E94BA1307FC03D05A
:1026E0004EF40C947B1350954095309521953F4FB7
:1026F0004F4F5F4F089590958095709561957F4FEE
:102700008F4F9F4F08952F923F924F925F926F92FB
:102710007F928F929F92AF92BF92CF92DF92EF9271
:10272000FF920F931F93CF93DF93CDB7DEB7CA1BF2
:10273000DB0B0FB6F894DEBF0FBECDBF09942A881D
:10274000398848885F846E847D848C849B84AA84C5
:10275000B984C884DF80EE80FD800C811B81AA8152
:10276000B981CE0FD11D0FB6F894DEBF0FBECDBF1D
:10277000ED010895A1E21A2EAA1BBB1BFD010DC09D
:10278000AA1FBB1FEE1FFF1FA217B307E407F50721
:1027900020F0A21BB30BE40BF50B661F771F881FFD
:1027A000991F1A9469F760957095809590959B0193
:1027B000AC01BD01CF010895A29FB001B39FC0013C
:1027C000A39F700D811D1124911DB29F700D811D5D
:1027D0001124911D08955058BB27AA270E94031465
:1027E0000C942A130E941C1338F00E94231320F02B
:1027F00039F49F3F19F426F40C9419130EF4E09564
:10280000E7FB0C941313E92F0E943B1358F3BA17FC
:10281000620773078407950720F079F4A6F50C94F6
:102820005D130EF4E0950B2EBA2FA02D0B01B9010C
:1028300090010C01CA01A0011124FF27591B99F036
:10284000593F50F4503E68F11A16F040A22F232F42
:10285000342F4427585FF3CF469537952795A79592
:10286000F0405395C9F77EF41F16BA0B620B730B39
:10287000840BBAF09150A1F0FF0FBB1F661F771FAA
:10288000881FC2F70EC0BA0F621F731F841F48F45F
:10289000879577956795B795F7959E3F08F0B0CFE8
:1028A0009395880F08F09927EE0F979587950895CF
:1028B0000E941C1360F080E891E009F49EEF0E94F2
:1028C000231328F040E851E071F45EEF0CC00C9443
:1028D00019130C945D13E92FE0780E943B1340F329
:1028E000092E052AB1F3261737074807590738F08C
:1028F0000E2E07F8E02569F0E025E0640AC0EF63DA
:1029000007F8009407FADB01B9019D01DC01CA0157
:10291000AD01EF930E94E1140E942A130E949B14C0
:102920005F91552339F02BED3FE049E450FD49EC30
:102930000C94EC130895DF93DD27B92FBF7740E89F
:102940005FE31616170648075B0718F4D92F0E9495
:102950009E159F938F937F936F930E94EC15ECEAE3
:10296000F0E00E9472150E942A132F913F914F911F
:102970005F910E94B912DD2351F09058A2EA2AED2E
:102980003FE049EC5FE3D0785D270E940314DF91BC
:102990000C942A130E94DE140C942A130E94231311
:1029A00058F00E941C1340F029F45F3F29F00C946A
:1029B000131351110C945E130C9419130E943B13C2
:1029C00068F39923B1F3552391F3951B550BBB275E
:1029D000AA2762177307840738F09F5F5F4F220FA3
:1029E000331F441FAA1FA9F335D00E2E3AF0E0E89A
:1029F00032D091505040E695001CCAF72BD0FE2FE4
:102A000029D0660F771F881FBB1F26173707480777
:102A1000AB07B0E809F0BB0B802DBF01FF2793582F
:102A20005F4F3AF09E3F510578F00C9413130C94CD
:102A30005E135F3FE4F3983ED4F3869577956795F0
:102A4000B795F7959F5FC9F7880F911D9695879564
:102A500097F90895E1E0660F771F881FBB1F621783
:102A600073078407BA0720F0621B730B840BBA0B41
:102A7000EE1F88F7E09508950E9443156894B11100
:102A80000C945E1308950E94431388F09F5798F0AA
:102A9000B92F9927B751B0F0E1F0660F771F881F63
:102AA000991F1AF0BA95C9F714C0B13091F00E947D
:102AB0005D13B1E008950C945D13672F782F88277C
:102AC000B85F39F0B93FCCF3869577956795B395A4
:102AD000D9F73EF490958095709561957F4F8F4F13
:102AE0009F4F0895DF93CF931F930F93FF92EF9221
:102AF000DF927B018C01689406C0DA2EEF010E9400
:102B0000B912FE01E894A591259135914591559111
:102B1000A6F3EF010E940314FE019701A801DA94C5
:102B200069F7DF90EF90FF900F911F91CF91DF91A8
:102B300008950E94821208F48FEF08959B01AC0162
:102B400060E070E080E89FE30C94CA1419F416F476
:102B50000C9419130C94F0150E944313B8F39923A5
:102B6000C9F3B6F39F57550B87FF0E94FE1500244B
:102B7000A0E640EA900180585695979528F4805C2D
:102B8000660F771F881F20F026173707480730F495
:102B9000621B730B840B202931294A2BA6951794AD
:102BA0000794202531254A2758F7660F771F881F7D
:102BB00020F026173707480730F4620B730B840B9D
:102BC000200D311D411DA09581F7B901842F915829
:102BD000880F9695879508959B01AC010C94A612D9
:102BE0009F3F31F0915020F4879577956795B79581
:102BF000880F911D9695879597F9089591505040AB
:102C0000660F771F881FD2F70895AA1BBB1B51E1DF
:102C100007C0AA1FBB1FA617B70710F0A61BB70B4C
:102C2000881F991F5A95A9F780959095BC01CD01F1
:102C3000089597FB072E16F4009407D077FD09D06E
:102C40000E94051607FC05D03EF4909581959F4F94
:102C50000895709561957F4F0895EE0FFF1F0590C1
:102C6000F491E02D0994CF93DF938230910510F415
:102C700082E090E0E0910A06F0910B0620E030E05F
:102C8000C0E0D0E0309711F14081518148175907D9
:102C9000C0F04817590761F482819381209719F099
:102CA0009B838A832BC090930B0680930A0626C0D1
:102CB0002115310519F04217530718F49A01BE0186
:102CC000DF01EF010280F381E02DDCCF211531051A
:102CD00009F1281B390B2430310590F412968D919F
:102CE0009C9113976115710521F0FB0193838283F9
:102CF00004C090930B0680930A06FD01329644C0EF
:102D0000FD01E20FF31F81939193225031092D931E
:102D10003C933AC02091080630910906232B41F4D8
:102D200020910B0130910C01309309062093080685
:102D30002091090130910A012115310541F42DB787
:102D40003EB740910D0150910E01241B350BE091CF
:102D50000806F0910906E217F307A0F42E1B3F0BBB
:102D60002817390778F0AC014E5F5F4F24173507FD
:102D700048F04E0F5F1F5093090640930806819359
:102D8000919302C0E0E0F0E0CF01DF91CF91089590
:102D90000F931F93CF93DF93009709F48CC0FC012E
:102DA00032971382128200910A0610910B060115C8
:102DB000110581F420813181820F931F2091080633
:102DC000309109062817390779F5F0930906E09341
:102DD000080671C0D80140E050E0AE17BF0750F4BC
:102DE00012962D913C911397AD012115310509F1F2
:102DF000D901F3CF9D01DA01338322836081718190
:102E0000860F971F8217930769F4EC012881398197
:102E1000260F371F2E5F3F4F318320838A819B818E
:102E200093838283452B29F4F0930B06E0930A06E3
:102E300042C01396FC93EE931297ED01499159917C
:102E40009E01240F351FE217F30771F480819181F1
:102E5000840F951F029611969C938E938281938185
:102E600013969C938E931297E0E0F0E0D8011296AF
:102E70008D919C911397009719F0F8018C01F6CF72
:102E80008D919C9198012E5F3F4F820F931F20914F
:102E90000806309109062817390769F4309729F494
:102EA00010920B0610920A0602C01382128210932F
:102EB000090600930806DF91CF911F910F910895A5
:102EC000A0E0B0E0E6E6F7E10C948713EC01009790
:102ED00021F4CB010E943316B8C0FC01E60FF71FA6
:102EE0009C0122503109E217F30708F4ACC0D90164
:102EF0000D911C91119706171707B0F005301105B9
:102F000008F49FC0C80104978617970708F499C072
:102F100002501109061B170B019311936D937C93BB
:102F2000CF010E94C8168DC05B01A01AB10A4C01E6
:102F3000800E911EA0910A06B0910B0640E050E071
:102F4000E12CF12C109709F44AC0A815B905D1F568
:102F50006D907C901197630182E0C80ED11CCA1459
:102F6000DB0480F1A3014A195B096A0182E0C80E03
:102F7000D11C1296BC9012971396AC91B5E0CB166B
:102F8000D10440F0B282A38351834083D9016D9371
:102F90007C930AC00E5F1F4FC301800F911FF90180
:102FA00091838083EB2DFA2FE114F10431F0D701E6
:102FB0001396FC93EE93129744C0F0930B06E093A4
:102FC0000A063FC08D919C9111974817590708F444
:102FD000AC017D0112960D90BC91A02DB3CF8091D4
:102FE00008069091090688159905E1F446175707D8
:102FF000C8F48091090190910A01009741F48DB7BE
:103000009EB740910D0150910E01841B950BE8175E
:10301000F907C8F4F0930906E0930806F9017183F3
:1030200060830FC0CB010E9433167C01009759F0DA
:10303000A801BE010E942F18CE010E94C816C70128
:1030400004C0CE0102C080E090E0CDB7DEB7EEE074
:103050000C94A31381E090E0F8940C944E18FB01BB
:10306000DC0102C001900D9241505040D8F7089504
:10307000FB01DC0101900D920020E1F70895FB01B6
:10308000DC014150504048F001900D920020C9F7FA
:1030900001C01D9241505040E0F7089510E0C6E98C
:1030A000D0E004C0FE010E942D162196C739D10739
:0630B000C9F7F894FFCF00
:1030B6000000803FEA0001A10900000C06800032F2
:1030C6007C8900EDD96877000000590000000000F7
:1030D600000000D69FDCA81817AA90437327F6B9FC
:1030E60068EDF4DED409FEE61C1C84DDE80B9929A4
:1030F60027D6DF8D210F036418EFEE1EC8B70082B6
:1031060000941500347C0000001400988F00000025
:103116000000000000000000E7B73F360000000096
:10312600000000AF669ED0380000000000000000DE
:103136000000000000000000000000000000000089
:103146000000000000000000000000000000000079
:103156000000000000000000000000000000000069
:103166000000000000000000000000000000000059
:103176000000000000000000000000000000000049
:103186000000000000000000000000000000000039
:103196000000000000000000000000000000000029
:1031A6000000000000000000000000000000000019
:1031B6000000000000000000CC31AA2C532E0000B5
:1031C6000000005401C100EC009B011D01FB000F33
:1031D60001000000001302C100C7010E02D601F86B
:1031E60001E50100000000200CC1006F026E022004
:1031F6000C200C200C00000000200CC1006F026E99
:0832060002413A0020533A0096
:00000001FF
