:100000000C9497000C94BF000C94BF000C94BF009C
:100010000C94BF000C94BF000C94BF000C94BF0064
:100020000C94BF000C94BF000C9440020C94EA02A4
:100030000C94F9010C94BF000C94BF000C94BF0009
:100040000C94AF010C94BF000C94AF0C0C94890C71
:100050000C94BF000C94BF000C94BF000C94BF0024
:100060000C94BF000C94BF00530753075F077D0734
:10007000730786079307AD07C807E9072C093E09F0
:100080004E09640979098609A409C209D509030B37
:10009000EB09FA09080A170A2B0A440A560A720AD7
:1000A0008D0AA10AB70AC80AD80AF00A084AD73B3B
:1000B0003BCE016E84BCBFFDC12F3D6C74319ABD37
:1000C00056833DDA3D00C77F11BED9E4BB4C3E915B
:1000D0006BAAAABE000000803F00000000080002DA
:1000E0000100000304070000000000000000000001
:1000F0000000250028002B0000000000240027003D
:100100002A00040404040404040402020202020299
:1001100003030303030301020408102040800102CB
:10012000040810200102040810204D12560D11245D
:100130001FBECFEFD8E0DEBFCDBF12E0A0E0B1E040
:10014000E8E2F2E302C005900D92AA33B107D9F7B5
:1001500025E0AAE3B2E001C01D92A63FB207E1F795
:1001600010E0C6E9D0E004C02197FE010E94E61627
:10017000C539D107C9F70E94740D0C9407190C9466
:100180000000FC01918D228D892F90E0805C9F4FB3
:10019000821B91098F739927089580E090E0892B45
:1001A00029F00E946C0B81110C940000089540917D
:1001B000EE045091ED04852F90E0242F30E0451798
:1001C00010F08C5B9F4F821B930B08955091F104AC
:1001D0004091F004852F90E0242F30E0541710F464
:1001E000805B9F4F821B930B08958091F104E091F7
:1001F000F0048E1751F0EF5FE03508F0E0E0F0E03A
:10020000EC56FB4F808190E008958FEF9FEF0895AB
:100210008091F1049091F004891769F09F5F903507
:1002200008F090E0E92FF0E0EC56FB4F80819093CE
:10023000F00490E008958FEF9FEF08958091EF0410
:100240008111FCCF08958091EE048F5F843408F013
:1002500080E09091ED049817E1F32FB7F894909116
:10026000EF04992341F0E82FF0E0E65BFB4F608359
:100270008093EE041DC081E08093EF0460938F04AF
:1002800010928E0482E086BB80916F008260809322
:100290006F00809180008F738068809380008091D0
:1002A0008400909185004096909389008093880007
:1002B0002FBF81E090E00895FB012081822790E12B
:1002C000899F900111242827822F90E0582F4427DE
:1002D0009C0163E0220F331F6A95E1F74227532701
:1002E000218130E02427352774E0959587957A950C
:1002F000E1F782279327918380830895089580E012
:1003000090E00895FC01848DDF01A80FB11DA35A70
:10031000BF4F2C91848D90E001968F739927848F25
:10032000A689B7892C93A089B1898C9180648C931C
:10033000938D848D981306C00288F389E02D808107
:100340008F7D808308952FB7F8946091E9047091B0
:10035000EA048091EB049091EC042FBF08951F9262
:100360000F920FB60F9211242F933F938F939F9369
:10037000AF93BF938091E9049091EA04A091EB04BC
:10038000B091EC043091E80423E0230F2D3720F4E2
:100390000196A11DB11D05C026E8230F0296A11DDF
:1003A000B11D2093E8048093E9049093EA04A0939C
:1003B000EB04B093EC048091E4049091E504A091E7
:1003C000E604B091E7040196A11DB11D8093E404F9
:1003D0009093E504A093E604B093E704BF91AF9136
:1003E0009F918F913F912F910F900FBE0F901F9073
:1003F00018951F920F920FB60F9211242F938F937F
:100400009F93EF93FF9380916F008B7F80936F009A
:10041000809181008F7B809381008091F2042091F4
:100420009304205890919204893020F49695922B51
:100430008F5FFACF909392048091F1048F5F8035A3
:1004400008F080E02091F004821739F0E82FF0E006
:10045000EC56FB4F90838093F1041092F20480914C
:1004600081008F7B8093810010929304FF91EF9124
:100470009F918F912F910F900FBE0F901F90189505
:100480001F920F920FB60F9211242F933F934F9309
:100490005F936F937F938F939F93AF93BF93EF93EC
:1004A000FF93809186009091870040919304209162
:1004B0008100442331F02F7B20938100109293041C
:1004C00006C020642093810020E82093930430919B
:1004D000F204311125C041116CC02091F304309118
:1004E000F404280F391F30938B0020938A0024E0F6
:1004F00026BB20916F00246020936F002091F504AB
:100500003091F604820F931F36952795820F931F23
:10051000909391048093900481E08093F20449C009
:1005200040919004509191046091F5047091F6040B
:10053000DB01A095B095E091930420919204841B77
:10054000950BA817B90768F126952E2B460F571F54
:100550003F5F861B970B3930A0F320939204809164
:100560006F008B7F80936F008091F1048F5F8035E7
:1005700008F080E09091F004891749F0E82FF0E04E
:1005800090919204EC56FB4F90838093F1048091FC
:1005900081008F7B80938100109293041092F2046B
:1005A00008C0209392045093910440939004309398
:1005B000F204FF91EF91BF91AF919F918F917F9145
:1005C0006F915F914F913F912F910F900FBE0F90C0
:1005D0001F9018951F920F920FB60F9211242F9310
:1005E0003F934F935F936F937F938F939F93EF937B
:1005F000FF938091EF0460918F04209188003091E7
:1006000089004091F5045091F60490918E048A304F
:10061000F8F4240F351F893019F0762F717001C05E
:1006200071E066958F5F791791F390918000772341
:1006300011F0906C02C09F7390689093800030938B
:1006400089002093880070938E0460938F044AC0C1
:100650009091EE04E091ED049E1319C08A3051F49C
:100660008BE08093EF04240F351F30938900209393
:1006700088003AC01092EF04809180008F738093BD
:10068000800080916F008D7F80936F002DC0EF5FA1
:10069000E43408F0E0E0E093ED04F0E0E65BFB4FCB
:1006A000908190938F0410928E04909180009F739C
:1006B0009068909380008A3059F48091F50490916D
:1006C000F604280F391F309389002093880009C051
:1006D000809184009091850040969093890080934A
:1006E000880081E08093EF04FF91EF919F918F91BB
:1006F0007F916F915F914F913F912F910F900FBE1E
:100700000F901F9018958F929F92AF92BF92EF9289
:10071000FF920F931F93CF93DF93CDB7DEB7C151F5
:10072000D1400FB6F894DEBF0FBECDBF84E0C15FED
:10073000DE4F8883CF50D14081E0C05FDE4F888399
:10074000C051D140CF5EDE4F8883C151D14043E0DC
:10075000BE01615F7E4F83E00E94E10CC250DF4F1B
:1007600019821882CE5FD040C050DF4F19821882A4
:10077000C050D140CE5FDE4F19821882C250D140A6
:1007800060E070E0CE0182509F4F0E94DF0B81112C
:1007900006C0CE0182509F4F0E94340C10C0CE5F25
:1007A000DE4F19821882C250D14065E372E0C25018
:1007B000DF4F88819981CE5FD0400E94F1188091EF
:1007C00013058E010F5F1F4F8111D9C06091460440
:1007D00070914704809148049091490428EE33E0D9
:1007E00040E050E00E941D1449015A01CA55DF4FF4
:1007F00019821882C65AD040C855DF4F1982188214
:10080000C85AD040C655DF4F19821882CA5AD04004
:10081000BE0162507F4FCE018A559F4F0E945F0CF0
:1008200063E372E0CE018A559F4F0E94460C7C0123
:100830002AE0A801C501B4010E949E12F8010190AE
:100840000020E9F73197AF01401B510BB801C701F8
:100850000E94060C811103C0C7010E94340CB7012D
:10086000CE0182509F4F0E945F0CCA55DF4F888196
:100870009981C65AD0400E94811726E636E646E6A0
:1008800050E460914204709143048091440490913B
:1008900045040E945F130E94FC154B015C01CA5580
:1008A000DF4F19821882C65AD040C855DF4F1982CF
:1008B0001882C85AD040C655DF4F19821882CA5ACA
:1008C000D040BE0162507F4FCE018A559F4F0E949B
:1008D0005F0C66E372E0CE018A559F4F0E94460C82
:1008E0007C014AE0B801C4010E94CF12F8010190D6
:1008F0000020E9F73197AF01401B510BB801C70148
:100900000E94060C811103C0C7010E94340CB7017C
:10091000CE0182509F4F0E945F0CCA55DF4F8881E5
:100920009981C65AD0400E948117CE5FDE4FE88081
:10093000F980C250D140E114F10431F4C853DF4FC3
:100940001882C85CD04027C02EE0E216F10418F0EF
:100950008EE0E82EF12CC250DF4F68817981CE5FA6
:10096000D040A701CE0188539F4F0E94F818E8ECB1
:10097000F0E0EC0FFD1FEE0DFF1D10820CC081306A
:1009800051F48FE0E3E3F4E0DE01A853BF4F0190A0
:100990000D928A95E1F74FE0BE0168537F4F8AE0E0
:1009A0000E94E10C8091FD049091FE04A091FF044F
:1009B000B0910005C851DF4F88839983AA83BB8318
:1009C000C85ED0404BE0BE016E517F4F85E60E946D
:1009D000E10C80911105C950DF4F8883C75FD0407B
:1009E0008091310490913204C650DF4F99838883FF
:1009F000CA5FD04080911A0590911B05C450DF4F0B
:100A000099838883CC5FD040809118059091190517
:100A1000C850DF4F99838883C85FD04047E0BE014C
:100A200069507F4F8EE60E94E10C80911A059091EB
:100A30001B05C352DF4F99838883CD5DD0408091E1
:100A400011059AE0899F90011124C052DF4F39832C
:100A50002883C05ED0402091180530911905C552F9
:100A6000DF4F39832883CB5DD04090911205C95266
:100A7000DF4F9883C75DD04020E534E1C852DF4F97
:100A800039832883C85DD04090E005966AE070E025
:100A90000E94D216C652DF4F6883CA5DD040C15251
:100AA000DF4F1882CF5DD0404BE0BE0169527F4FCF
:100AB00082E80E94E10C8091FD049091FE04A091D7
:100AC000FF04B0910005C254DF4F88839983AA8345
:100AD000BB83CE5BD04040E1BE0168547F4F86E9C6
:100AE0000E94E10C80910B0590910C05A0910D05E1
:100AF000B0910E05C855DF4F88839983AA83BB83C5
:100B0000C85AD0408091070590910805A091090529
:100B1000B0910A05C455DF4F88839983AA83BB83AC
:100B2000CC5AD04080910605C955DF4F8883C75AFB
:100B3000D04042E1BE016A557F4F8AE60E94E10C37
:100B40008091F9049091FA04C65FDE4F99838883FF
:100B5000CA50D1408091F7049091F804C45FDE4FF1
:100B600099838883CC50D14045E0BE01665F7E4FBB
:100B70008BE60E94E10C6091F9047091FA04809177
:100B8000FB049091FC04693E23E072078105910506
:100B900038F024E630E040E050E00E94731406C0D4
:100BA0004AE0469F9001479F300D1124CA5FDE4FF7
:100BB00039832883C650D1408091F7049091F8047E
:100BC00020912F0430913004821B930B4AE0489F00
:100BD0009001499F300D1124CC5FDE4F398328836B
:100BE000C450D14046E0BE016C5F7E4F8CE60E944F
:100BF000E10CC351DF4F188219821A821B82CD5E2D
:100C0000D0404AE0BE0163517F4F8DE60E94E10C67
:100C100088E3888788E1EE968FAFEE9782E090E0D8
:100C2000CA56DF4F99838883C659D04080E1C256A7
:100C3000DF4F8883CE59D04081E0CD55DF4F888388
:100C4000C35AD040CC55DF4F8883C45AD040CB55CF
:100C5000DF4F1882C55AD04083E898E09C878B8785
:100C60008AEE90E09E878D87988B8F879A8B898BF1
:100C70009C8B8B8B9E8B8D8B988F8F8B9A8F898F74
:100C80002FEE39E03C8F2B8F9E8F8D8F98A38F8F07
:100C900026E338E03AA329A328E538E03CA32BA3B8
:100CA0009EA38DA3209107013091080138A72FA39F
:100CB0009AA789A79CA78BA79EA78DA798AB8FA75C
:100CC0009AAB89AB9CAB8BAB9EAB8DAB28E138E08C
:100CD00038AF2FAB21E438E03AAF29AF21E238E05A
:100CE0003CAF2BAF9EAF8DAF28EB39E021963FAFE5
:100CF0002EAF219728E939E023963FAF2EAF2397F7
:100D000025969FAF8EAF259727969FAF8EAF2797DB
:100D100029969FAF8EAF29972B969FAF8EAF2B97BB
:100D20002D969FAF8EAF2D972F969FAF8EAF2F979B
:100D300061969FAF8EAF619763969FAF8EAF6397BB
:100D400065969FAF8EAF659767969FAF8EAF67979B
:100D500069969FAF8EAF69976B969FAF8EAF6B977B
:100D60006D969FAF8EAF6D976F969FAF8EAF6F975B
:100D7000A1969FAF8EAFA197A3969FAF8EAFA3977B
:100D8000A5969FAF8EAFA597A7969FAF8EAFA7975B
:100D9000A9969FAF8EAFA997AB969FAF8EAFAB973B
:100DA000AD969FAF8EAFAD97AF969FAF8EAFAF971B
:100DB000E1969FAF8EAFE197E3969FAF8EAFE3973B
:100DC000E5969FAF8EAFE597E7969FAF8EAFE7971B
:100DD000E9969FAF8EAFE997EB969FAF8EAFEB97FB
:100DE000ED969FAF8EAFED9745EAB80184E50E947E
:100DF000E10CC250DF4F88819981CE5FD0400E94C4
:100E00008117CF5EDE4F0FB6F894DEBF0FBECDBFA9
:100E1000DF91CF911F910F91FF90EF90BF90AF9016
:100E20009F908F9008952F923F924F925F926F9272
:100E30007F928F929F92AF92BF92CF92DF92EF926A
:100E4000FF920F931F93CF93DF93CDB7DEB7C657B3
:100E5000D1090FB6F894DEBF0FBECDBFEE24E394E8
:100E6000F12C52E0252E312CCC24CA94DC2C86EEB9
:100E700095E00E94E600181619060CF0A0C186EE57
:100E800095E00E9408013C01082F10923A02E0917F
:100E90003D02F0913E02EA30F10508F0D5C0EC5C6D
:100EA000FF4F0C94E6168E3F09F0CEC030923E0202
:100EB00020923D0210926D0280936C02A3C0853691
:100EC00030F080913B028F5F80933B02A0C0809303
:100ED0006D0210923F026AE672E00E945C0134E00B
:100EE000832E912C2DC080936E026AE672E00E94E0
:100EF0005C0123E0A22EB12C2BC080936F026AE626
:100F000072E00E945C0125E030E03DC080937002F9
:100F10006AE672E00E945C0186E090E090933E02F7
:100F200080933D0291C0809371026AE672E00E9454
:100F30005C0180916D02811108C098E0892E912C8E
:100F400090923E0280923D027FC087E0A82EB12C95
:100F5000B0923E02A0923D0277C0E0913F0277241A
:100F600073947E0E70923F02F0E0EE58FD4F608267
:100F70006AE672E0862D0E945C0180916D02781213
:100F800063C028E030E030933E0220933D025CC015
:100F9000E0917102F0E0E15FFE4F6AE672E080816D
:100FA0000E945C0180916A0290916B0299279301E3
:100FB000332728173907F1F489E090E090933E0237
:100FC00080933D02E0913F02F0E0EE58FD4F6082D9
:100FD0003BC090916B02E6969FAFE697E7961FAEF7
:100FE000E797C3019927E7968EAC9FACE7978815E2
:100FF000990591F00E3F59F430923E0220923D0245
:1010000010926D02D0926B02C0926A021DC0F092E3
:101010003E02E0923D0218C081E080933A02F092D5
:101020003E02E0923D02E0913F02F0E0ED58FD4FBC
:10103000608280E7EAE6F2E0DE01119601900D920F
:101040008A95E1F71091710220913A02213099F4CA
:1010500080916E02809340028091420290914302FF
:10106000009721F410924502109244020196909349
:1010700043028093420210923C02222309F4F7CEED
:10108000183109F471C0C0F4112309F474C011308F
:1010900009F0EDCE298D3A8D4FA18F89988D64E6A8
:1010A00070E00E94BE166093110540932E043093A9
:1010B0001B0520931A05DBCE133209F46FC01A34D6
:1010C000A1F1113209F0D3CE4D845E846F8478880B
:1010D00049895A896B897C898D899E89AF89B88DA8
:1010E000898C9A8CAB8CBC8C80924604909247047D
:1010F000A0924804B092490440920B0550920C050E
:1011000060920D0570920E054093070550930805F7
:101110006093090570930A05809302059093030577
:10112000A0930405B0930505A2CE4D855E856F851D
:101130007889898D9A8D49845A846B847C84409205
:101140002A0450922B0460922C0470922D04409338
:101150004204509343046093440470934504909375
:10116000300480932F0483CE8EA19DA190930F0510
:10117000809306057CCE89859A85AB85BC852889B8
:101180003F8530930105209310058093E0059093EF
:10119000E105A093E205B093E30569CE2E8D30E022
:1011A000AFEFB3E00E9495142FEF30E040E050E045
:1011B0000E941D14309332042093310458CECA5833
:1011C000DF4F0FB6F894DEBF0FBECDBFDF91CF91DA
:1011D0001F910F91FF90EF90DF90CF90BF90AF9055
:1011E0009F908F907F906F905F904F903F902F9047
:1011F0000895FC0181E080931305409314055093FA
:10120000150560931605709317059FE0A3E3B4E0FE
:1012100001900D929A95E1F708950F931F93CF9344
:10122000DF93CDB7DEB72F970FB6F894DEBF0FBEB2
:10123000CDBF0091E0051091E1052091E2053091CC
:10124000E3050831110508F0DEC1AB01BC01F8016E
:10125000E25CFF4F0C94E616CE0101962FE0DC0114
:101260001D922A95E9F72DE4298321E42A833EE49F
:101270003B8335E53C832D832CE461C1CE0101968F
:101280002FE0FC0111922A95E9F723E4298339E440
:101290003A8332E53B832C832CE484C0CE01019653
:1012A0002FE0DC011D922A95E9F723E5298324E547
:1012B0002A8321E42B8322E42C8329E42D833CE43C
:1012C0003E832F832AE588C1CE0101962FE0FC01E1
:1012D00011922A95E9F724E5298322E52A8321E45E
:1012E0002B8339E43C832EE42D833E832F8327E434
:1012F00070C0CE0101962FE0DC011D922A95E9F71E
:1013000021E4298323E42A8322E571C0FE0131967A
:101310008FE0DF011D928A95E9F786E489838CE4EA
:101320008A8389E58B8390E29C8322E42D838E83DC
:101330009F8387E5888789E4898782E58A8785E4B2
:101340008B879C8781E41CC0FE0131968FE0DF0112
:101350001D928A95E9F786E489838CE48A8329E5DE
:101360002B8390E29C8382E48D832E839F8327E5E9
:10137000288729E4298722E52A8725E42B879C876B
:101380008D87AEC0CE0101962FE0FC0111922A9507
:10139000E9F723E4298322E52A8325E52B8329E441
:1013A0002C8323E52D8325E4CAC0CE0101962FE0CE
:1013B000DC011D922A95E9F721E4298325E52A839A
:1013C00034E53B83EFE4EC833D832E832EE42F83CF
:1013D00025E4288716C1CE0101962FE0FC01119269
:1013E0002A95E9F721E4298325E52A8324E52B833F
:1013F0002FE4DCC0CE0101962FE0DC011D922A957E
:10140000E9F722E5298324E52A832CE42B83F9C01C
:10141000CE0101962FE0FC0111922A95E9F72CE408
:1014200029832FE42A8329E42B8324E584C0CE0179
:1014300001962FE0DC011D922A95E9F724E5298326
:1014400021E42A832BE42B8325E42C832FE42D83B2
:1014500026E42E838AC0CE0101962FE0FC01119272
:101460002A95E9F731E4398326E52A832FE42B8393
:1014700029E42C8324E42D83EFE5EE833F83288742
:1014800023E5298722E447C0CE0101962FE0DC0145
:101490001D922A95E9F727E4298325E52A8329E483
:1014A0002B8324E42C8335E43D8349C0FE0131962F
:1014B0008FE0DF011D928A95E9F799E499838EE424
:1014C0008A839B8324E52C839D8321E42E832CE453
:1014D0002F83988723E529879A878B8787E48C87D2
:1014E000CF018FC0CE0101962FE0FC0111922A9509
:1014F000E9F721E5298323E52A8324E52B8321E4E9
:101500002C8322E42D8329E42E833CE43F83288727
:101510002AE5298725E42A8774C0CE0101962FE0A9
:10152000DC011D922A95E9F721E5298328E42A8325
:101530002FE42B8326E52C8325E42D8322E52E83BF
:1015400060C0CE0101962FE0FC0111922A95E9F7C7
:1015500021E529832CE42A832FE42B8329E42C839F
:1015600024E52D8325E42E8322E52F834AC0CE0176
:1015700001962FE0DC011D922A95E9F721E52983E8
:101580002CE42A8321E42B832EE42C8324E438C02A
:10159000CE0101962FE0FC0111922A95E9F721E591
:1015A000298322E52A8324E52B832CE42C8329C07C
:1015B000CE0101962FE0DC011D922A95E9F721E585
:1015C000298321E42A8325E52B8334E53C83EFE45A
:1015D000ED833E832F832EE4288725E4298711C0DD
:1015E000CE0101962FE0FC0111922A95E9F721E541
:1015F000298321E42A8323E42B8322E52C832FE40F
:101600002D830E94F9082F960FB6F894DEBF0FBE07
:10161000CDBFDF91CF911F910F910895CF92DF92AF
:10162000EF92FF920F931F93CF93DF936C017A0198
:101630008B01C0E0D0E0CE15DF0589F0D8016D91B7
:101640008D01D601ED91FC910190F081E02DC60154
:101650000995892B11F47E0102C02196ECCFC701B8
:10166000DF91CF911F910F91FF90EF90DF90CF907E
:101670000895FC01538D448D252F30E0842F90E098
:10168000821B930B541710F0CF960895019708957D
:10169000FC01918D828D981761F0828DDF01A80F7A
:1016A000B11D5D968C91928D9F5F9F73928F90E09C
:1016B00008958FEF9FEF0895FC01918D828D98170B
:1016C00031F0828DE80FF11D858D90E008958FEF48
:1016D0009FEF08950E94E3188FE395E00E94C100F8
:1016E00021E0892B09F420E0822F0895EF92FF92E8
:1016F0000F931F93CF93DF93EC0181E0888F9B8D35
:101700008C8D981305C0E889F989808185FD24C0F6
:10171000F62E0B8D10E00F5F1F4F0F731127E02E79
:101720008C8DE8120CC00FB607FCFACFE889F98956
:10173000808185FFF5CFCE010E948201F1CF8B8D94
:10174000FE01E80FF11DE35AFF4FF0820B8FEA898B
:10175000FB898081806207C0EE89FF896083E88908
:10176000F98980818064808381E090E0DF91CF916E
:101770001F910F91FF90EF900895CF93DF93EC01AD
:10178000888D8823C9F0EA89FB89808185FD05C0A1
:10179000A889B9898C9186FD0FC00FB607FCF5CFDB
:1017A000808185FFF2CFA889B9898C9185FFEDCF23
:1017B000CE010E948201E7CFDF91CF9108950F9370
:1017C0001F93CF93DF93EC0188819981009729F0D3
:1017D0002A813B812617370788F48B016F5F7F4F83
:1017E0000E941918009761F0998388831B830A83EC
:1017F0002C813D81232B11F4FC01108281E001C07A
:1018000080E0DF91CF911F910F910895EF92FF92A9
:101810000F931F93CF93DF93FC01248135816115D2
:10182000710511F480E019C041155105A9F07B0143
:10183000EC018A01020F131FB8010E94DF0B8823FD
:1018400089F3288139818C819D81B701820F931F93
:101850000E94F1181D830C8381E0DF91CF911F91CD
:101860000F91FF90EF900895CF93DF93EC01888163
:101870009981009711F00E948117198218821D82A8
:101880001C821B821A82DF91CF910895CF93DF9340
:10189000EC016115710561F0FB0101900020E9F791
:1018A0003197AF01461B570B0E94060C811103C0F4
:1018B000CE010E94340CCE01DF91CF910895EF92BA
:1018C000FF920F931F93CF93DF93EC01FB018617D9
:1018D0009707B9F0008111810115110539F0E480F5
:1018E000F580B7010E94DF0B811104C0CE010E9478
:1018F000340C07C0FD82EC82B801888199810E9476
:10190000F118CE01DF91CF911F910F91FF90EF90D1
:1019100008951F920F920FB60F9211242F933F93A9
:101920004F935F936F937F938F939F93AF93BF93E7
:10193000EF93FF938FE395E00E948201FF91EF9177
:10194000BF91AF919F918F917F916F915F914F91D7
:101950003F912F910F900FBE0F901F9018951F92DF
:101960000F920FB60F9211242F938F939F93EF93A3
:10197000FF93E0914F05F09150058081E09155056E
:10198000F091560582FD12C09081809158058F5FBD
:101990008F7320915905821751F0E0915805F0E0BE
:1019A000E15CFA4F958F8093580501C08081FF91CB
:1019B000EF919F918F912F910F900FBE0F901F90DD
:1019C0001895CF92DF92EF92FF920F931F93CF93D0
:1019D000DF931F92CDB7DEB7D82EF62EC42E80919E
:1019E000390590913A05DC01ED91FC910190F0816F
:1019F000E02D64E2798309958091390590913A054B
:101A0000DC01ED91FC910190F081E02D6DE40995F0
:101A10008091390590913A05DC01ED91FC9101909E
:101A2000F081E02D6CE309958091390590913A059C
:101A3000DC01ED91FC910190F081E02D6C2D099578
:101A40008091390590913A05DC01ED91FC9101906E
:101A5000F081E02D6D2D0995DC24EF2C0F2D79817F
:101A6000172F8091390590913A05202F2E192C15AA
:101A700060F4F80161918F01D626DC01ED91FC91B3
:101A80000190F081E02D0995ECCFDC01ED91FC9106
:101A90000190F081E02D6D2D0F90DF91CF911F917E
:101AA0000F91FF90EF90DF90CF90099485E292E044
:101AB0009093E7058093E60580916F008B7F80937C
:101AC0006F0080916F008F7D80936F008091F00494
:101AD0008093F1048091EF048111FCCF80916F001D
:101AE0008D7F80936F000895CF93DF93CDB7DEB7DE
:101AF0002F970FB6F894DEBF0FBECDBF789484B594
:101B0000826084BD84B5816084BD85B5826085BDF9
:101B100085B5816085BD80916E00816080936E0087
:101B20001092810080918100826080938100809179
:101B3000810081608093810080918000816080932A
:101B400080008091B10084608093B1008091B000EA
:101B500081608093B00080917A00846080937A00E5
:101B600080917A00826080937A0080917A0081600F
:101B700080937A0080917A00806880937A00109236
:101B8000C100E0914F05F091500582E08083E09123
:101B90004B05F0914C051082E0914D05F0914E05FA
:101BA00080E1808310925705E0915305F091540530
:101BB00086E08083E0915105F0915205808180613B
:101BC0008083E0915105F091520580818860808387
:101BD000E0915105F0915205808180688083E09109
:101BE0005105F091520580818F7D80838FE395E0D0
:101BF00090933A058093390584EF91E0A0E0B0E03E
:101C000080933B0590933C05A0933D05B0933E0522
:101C100010926F001092800081E88093810086E12D
:101C200091E09093F6048093F5048BE09AE0909312
:101C3000F4048093F304EEE1F1E02491EAE0F1E0B2
:101C400084918823C9F090E0880F991FFC01E85027
:101C5000FF4F45915491FC01E251FF4FA591B49182
:101C60009FB7F894FA013081822F80958323808377
:101C7000EC91E22BEC939FBFE3EEF0E034914FE167
:101C800051E0FA0164918BE091E0FC012491222360
:101C9000B9F1332339F1333091F038F43130A9F010
:101CA000323001F534B53F7D12C0373091F0383015
:101CB000A1F03430B9F4309180003F7D03C0309101
:101CC00080003F77309380000DC034B53F7734BD3E
:101CD00009C03091B0003F7703C03091B0003F7D24
:101CE0003093B00030E0220F331F22513F4FF901F3
:101CF000A591B4912FB7F8943C91632B6C932FBFAF
:101D0000FA014491FC018491882399F090E0880FB6
:101D1000991FFC01E850FF4FA591B491FC01E251DD
:101D2000FF4F859194918FB7F8949C91492B4C93D8
:101D30008FBF1092F2041092F1041092F0041092EE
:101D4000EF041092EE041092ED0480E286BB8093C3
:101D50006F009E012F5F3F4F190106E411E40E94BE
:101D600013070E94A301C0903505D0903605E0907E
:101D70003705F09038059B01AC012C193D094E093F
:101D80005F0969017A0134E6C316D104E104F10464
:101D900008F4BEC16093350570933605809337050E
:101DA000909338058091240590912505A0912605F2
:101DB000B09127050097A105B10509F49AC080905C
:101DC000200590902105A0902205B0902305811454
:101DD0009104A104B10409F48CC0C0900B05D0900B
:101DE0000C05E0900D05F0900E05BC01CD016C19BD
:101DF0007D098E099F090E9400136B017C0180916F
:101E0000070590910805A0910905B0910A05A50163
:101E10009401281B390B4A0B5B0BCA01B9010E94C4
:101E20000013209100013091010140910201509175
:101E300003010E945F134B015C01A7019601C701DA
:101E4000B6010E945F132B013C01A5019401C5015D
:101E5000B4010E945F139B01AC01C301B2010E9457
:101E6000A5140E9465162CE23DE74EE85FE30E9450
:101E70005F130E94FC152B013C01C701B60190586D
:101E8000A50194010E94241520EA3CE043EB55E4AF
:101E90000E945F1320E030EA4CE056E40E94A51453
:101EA0000E94F5156B017C0197FF06C030EAC30E56
:101EB0003CE8D31EE11CF11CC301B20124E630E072
:101EC00040E050E00E9473142093F9043093FA0428
:101ED0004093FB045093FC04C701B60124E630E0B4
:101EE00040E050E00E941D143093F8042093F70462
:101EF0000CC01092F9041092FA041092FB04109294
:101F0000FC041092F8041092F704209101058091CE
:101F1000FD049091FE04A091FF04B091000527FFFD
:101F200002C0816001C08E7F8093FD049093FE0407
:101F3000A093FF04B09300054091E0055091E105A6
:101F40006091E2057091E3058091FD049091FE049B
:101F5000A091FF04B0910005423051056105710563
:101F600011F4826001C08D7F8093FD049093FE0484
:101F7000A093FF04B0930005209110052550809197
:101F8000FD049091FE04A091FF04B0910005223061
:101F900010F4806101C08F7E8093FD049093FE0455
:101FA000A093FF04B09300058091FD049091FE047E
:101FB000A091FF04B09100054B30510561057105FA
:101FC00011F4806201C08F7D8093FD049093FE0424
:101FD000A093FF04B09300050E94830360911A054B
:101FE00070911B05072E000C880B990B0E940013A3
:101FF00020E030E040E251E40E945F136B017C017D
:102000000E94A3010E94FE122091310530913205F9
:1020100040913305509134050E94A4149B01AC01FA
:10202000C701B6010E945F1320E03AEB4BE55AE48A
:102030000E94831520912D0530912E0540912F058A
:10204000509130050E94A51460932D0570932E05C4
:1020500080932F05909330050E94FC15709319050D
:10206000609318050E94A3010E94FE12609331053F
:1020700070933205809333059093340590912C052D
:10208000809106019930E0F08130D1F48091E4052F
:102090009091E505813D9740E8F08091070190918E
:1020A000080120910401309105013093080120932B
:1020B0000701909305018093040110922C050AC03A
:1020C000811108C08091E4059091E5059093080185
:1020D0008093070180912C058F5F80932C05809160
:1020E000140590911505A0911605B09117051816C5
:1020F00019061A061B0664F484569109A109B10950
:102100008093140590931505A0931605B0931705B9
:102110008091140590911505A0911605B0911705B1
:10212000181619061A061B0614F010921305809152
:10213000E0059091E105A091E205B091E3054091A1
:10214000DC055091DD056091DE057091DF05841797
:102150009507A607B70771F08093DC059093DD051E
:10216000A093DE05B093DF0568EE73E080E090E0B9
:102170000E940D0980911205811127C080911105DF
:10218000882319F18B3220F451E0509312051DC0C1
:10219000853520F482E08093120517C08F3720F434
:1021A00093E09093120511C0893A20F4E4E0E093A3
:1021B00012050BC0833D20F4F5E0F093120505C035
:1021C0008F3F19F026E0209312058091100585506D
:1021D0008230E0F480912C058770C1F4F1012FE08A
:1021E00011922A95E9F709831A8339E43B838CE439
:1021F0008C8383E58D831E830F8385E4888744EF7A
:1022000051E060E070E0C1010E94F9080E94A30162
:10221000C0902805D0902905E0902A05F0902B0564
:102220009B01AC012C193D094E095F0969017A0136
:1022300030E1C31637E2D306E104F10470F0609395
:1022400028057093290580932A0590932B0564EF48
:1022500071E080E090E00E940D0980910F058330CD
:1022600008F418C180910601813009F013C1609112
:102270000B0570910C0580910D0590910E0561156F
:1022800071058105910509F405C1C0900705D0903D
:102290000805E0900905F0900A05C114D104E10495
:1022A000F10409F4F7C020910605263008F4F2C0C5
:1022B0006093240570932505809326059093270548
:1022C000C0922005D0922105E0922205F0922305CC
:1022D000C0900205D0900305E0900405F09005053C
:1022E000C0921C05D0921D05E0921E05F0921F05BC
:1022F0000E9400139F7720E836E948E15BE40E94E2
:10230000831525E33AEF4EE85CE30E945F132BED63
:102310003FE049EC5FE30E94A5146B017C010E9441
:10232000F515DC01CB018096A11DB11D813491050D
:10233000A105B10508F0A1C02BED3FE049E450E450
:10234000C701B6010E94521618165CF42BED3FE04F
:1023500049EC50E4C701B6010E94A4146B017C0152
:10236000EBCF2BED3FE049E450ECC701B6010E94F2
:10237000F91287FF0BC02BED3FE049EC50E4C70199
:10238000B6010E94A5146B017C01EBCF2BED3FE061
:1023900049EC5FE3C701B6010E94521618167CF49F
:1023A0002BED3FE049EC5FE3C701B6010E94A414A6
:1023B0009B01AC016BED7FE089EC9FE318C02BED36
:1023C0003FE049EC5FEBC701B6010E94F91287FFBD
:1023D00012C02BED3FE049EC5FE3C701B6010E945C
:1023E000A5149B01AC016BED7FE089EC9FEB0E9493
:1023F000A4146B017C01A7019601C701B6010E94DC
:102400005F134B015C019B01AC01C701B6010E9447
:102410005F132B013C0120E030E0A901C501B401AC
:102420000E945F1322E937EE41E459E30E94A414AD
:102430009B01AC01C501B4010E945F1327E930E3A1
:1024400048E05CE30E94A5149B01AC01C501B40106
:102450000E945F1325E138EA4AE25EE30E94A41479
:102460009B01AC01C301B2010E945F139B01AC014F
:10247000C701B6010E94A51403C060E070E0CB0163
:102480006093000170930101809302019093030116
:10249000109206010E94CD0062CCEFE3F5E01382BA
:1024A000128288EE93E0A0E0B0E084839583A68357
:1024B000B78323E132E03183208325EC30E0358798
:1024C000248724EC30E03787268720EC30E0318BFE
:1024D000208B21EC30E0338B228B22EC30E0358BEB
:1024E000248B26EC30E0378B268B118E128E138EC8
:1024F000148EE6EEF5E01382128284839583A68320
:10250000B78385E292E09183808380910701909167
:1025100008019093E5058093E4058091E005909192
:10252000E105A091E205B091E3058093DC0590936D
:10253000DD05A093DE05B093DF050895BB272A30A3
:1025400051F4992342F4BDE2909580957095619580
:102550007F4F8F4F9F4F0C94AE12BB27FA01A62FCF
:102560006217710581059105330B30FB66F0AA27D0
:10257000660F771F881F991FAA1FA21710F0A21BB2
:1025800063953850A9F7A05DAA3308F0A95DA1931F
:1025900036F7B111B1931082CA010C94E912BB272E
:1025A000FB015527AA27880F991FAA1FA41710F00F
:1025B000A41B83955051B9F7A05DAA3308F0A95D1B
:1025C000A193009779F7B111B1931192CB010C94BB
:1025D000E912DC01FC01672F71917723E1F7329753
:1025E00004C07C916D9370836291AE17BF07C8F3EE
:1025F00008950E943B1308F481E00895E89409C00F
:1026000097FB3EF490958095709561957F4F8F4F25
:102610009F4F9923A9F0F92F96E9BB279395F6953B
:10262000879577956795B795F111F8CFFAF4BB0FB9
:1026300011F460FF1BC06F5F7F4F8F4F9F4F16C01D
:10264000882311F096E911C0772321F09EE8872FA7
:10265000762F05C0662371F096E8862F70E060E063
:102660002AF09A95660F771F881FDAF7880F9695DC
:10267000879597F90895990F0008550FAA0BE0E880
:10268000FEEF16161706E807F907C0F01216130634
:10269000E407F50798F0621B730B840B950B39F474
:1026A0000A2661F0232B242B252B21F408950A26DA
:1026B00009F4A140A6958FEF811D811D08950E9408
:1026C00072130C94E3130E94D51338F00E94DC13AC
:1026D00020F0952311F00C94CC130C94D2131124F8
:1026E0000C9417140E94F41370F3959FC1F3950F87
:1026F00050E0551F629FF001729FBB27F00DB11D86
:10270000639FAA27F00DB11DAA1F649F6627B00D15
:10271000A11D661F829F2227B00DA11D621F739FFE
:10272000B00DA11D621F839FA00D611D221F749F0C
:102730003327A00D611D231F849F600D211D822F53
:10274000762F6A2F11249F5750409AF0F1F088237A
:102750004AF0EE0FFF1FBB1F661F771F881F9150A7
:102760005040A9F79E3F510580F00C94CC130C9477
:1027700017145F3FE4F3983ED4F3869577956795F9
:10278000B795F795E7959F5FC1F7FE2B880F911DD1
:102790009695879597F9089597F99F6780E870E077
:1027A00060E008959FEF80EC089500240A941616C7
:1027B000170618060906089500240A94121613062F
:1027C000140605060895092E0394000C11F48823BD
:1027D00052F0BB0F40F4BF2B11F460FF04C06F5FD9
:1027E0007F4F8F4F9F4F089557FD9058440F551FAF
:1027F00059F05F3F71F04795880F97FB991F61F083
:102800009F3F79F087950895121613061406551FF9
:10281000F2CF4695F1DF08C0161617061806991F65
:10282000F1CF86957105610508940895E894BB275A
:1028300066277727CB0197F90895052E97FB1EF49D
:1028400000940E94341457FD07D00E94731407FCB3
:1028500003D04EF40C943414509540953095219546
:102860003F4F4F4F5F4F08959095809570956195BC
:102870007F4F8F4F9F4F08952F923F924F925F92BD
:102880006F927F928F929F92AF92BF92CF92DF9280
:10289000EF92FF920F931F93CF93DF93CDB7DEB7E5
:1028A000CA1BDB0B0FB6F894DEBF0FBECDBF099479
:1028B0002A88398848885F846E847D848C849B84D0
:1028C000AA84B984C884DF80EE80FD800C811B81DE
:1028D000AA81B981CE0FD11D0FB6F894DEBF0FBE0D
:1028E000CDBFED010895A1E21A2EAA1BBB1BFD016D
:1028F0000DC0AA1FBB1FEE1FFF1FA217B307E407DF
:10290000F50720F0A21BB30BE40BF50B661F771F36
:10291000881F991F1A9469F7609570958095909516
:102920009B01AC01BD01CF010895A29FB001B39FEF
:10293000C001A39F700D811D1124911DB29F700DC8
:10294000811D1124911D08955058BB27AA270E946C
:10295000BC140C94E3130E94D51338F00E94DC13CE
:1029600020F039F49F3F19F426F40C94D2130EF49E
:10297000E095E7FB0C94CC13E92F0E94F41358F375
:10298000BA17620773078407950720F079F4A6F554
:102990000C9416140EF4E0950B2EBA2FA02D0B01FB
:1029A000B90190010C01CA01A0011124FF27591B94
:1029B00099F0593F50F4503E68F11A16F040A22F9A
:1029C000232F342F4427585FF3CF4695379527950B
:1029D000A795F0405395C9F77EF41F16BA0B620B0A
:1029E000730B840BBAF09150A1F0FF0FBB1F661F51
:1029F000771F881FC2F70EC0BA0F621F731F841F94
:102A000048F4879577956795B795F7959E3F08F0B9
:102A1000B0CF9395880F08F09927EE0F979587957B
:102A200008950E94D51360F080E891E009F49EEFCC
:102A30000E94DC1328F040E851E071F45EEF0CC016
:102A40000C94D2130C941614E92FE0780E94F4131E
:102A500040F3092E052AB1F326173707480759070F
:102A600038F00E2E07F8E02569F0E025E0640AC092
:102A7000EF6307F8009407FADB01B9019D01DC015F
:102A8000CA01AD01EF930E949A150E94E3130E94C0
:102A900054155F91552339F02BED3FE049E450FD8B
:102AA00049EC0C94A5140895DF93DD27B92FBF7767
:102AB00040E85FE31616170648075B0718F4D92F9E
:102AC0000E9457169F938F937F936F930E94A51632
:102AD000ECEAF0E00E942B160E94E3132F913F9145
:102AE0004F915F910E947213DD2351F09058A2EA3A
:102AF0002AED3FE049EC5FE3D0785D270E94BC14EB
:102B0000DF910C94E3130E9497150C94E3130E9439
:102B1000DC1358F00E94D51340F029F45F3F29F0F0
:102B20000C94CC1351110C9417140C94D2130E94D2
:102B3000F41368F39923B1F3552391F3951B550BC7
:102B4000BB27AA2762177307840738F09F5F5F4F80
:102B5000220F331F441FAA1FA9F335D00E2E3AF0BF
:102B6000E0E832D091505040E695001CCAF72BD0D7
:102B7000FE2F29D0660F771F881FBB1F2617370728
:102B80004807AB07B0E809F0BB0B802DBF01FF275A
:102B900093585F4F3AF09E3F510578F00C94CC1358
:102BA0000C9417145F3FE4F3983ED4F38695779521
:102BB0006795B795F7959F5FC9F7880F911D969513
:102BC000879597F90895E1E0660F771F881FBB1F6F
:102BD000621773078407BA0720F0621B730B840B1C
:102BE000BA0BEE1F88F7E09508950E94FC156894D3
:102BF000B1110C94171408950E94FC1388F09F578C
:102C000098F0B92F9927B751B0F0E1F0660F771F10
:102C1000881F991F1AF0BA95C9F714C0B13091F006
:102C20000E941614B1E008950C941614672F782FA3
:102C30008827B85F39F0B93FCCF3869577956795CB
:102C4000B395D9F73EF490958095709561957F4F37
:102C50008F4F9F4F0895DF93CF931F930F93FF9252
:102C6000EF92DF927B018C01689406C0DA2EEF01AF
:102C70000E947213FE01E894A5912591359145912A
:102C80005591A6F3EF010E94BC14FE019701A80123
:102C9000DA9469F7DF90EF90FF900F911F91CF9139
:102CA000DF9108950E943B1308F48FEF08959B0174
:102CB000AC0160E070E080E89FE30C94831519F4A8
:102CC00016F40C94D2130C94A9160E94FC13B8F3BA
:102CD0009923C9F3B6F39F57550B87FF0E94B71688
:102CE0000024A0E640EA900180585695979528F474
:102CF000805C660F771F881F20F02617370748076C
:102D000030F4621B730B840B202931294A2BA695C2
:102D100017940794202531254A2758F7660F771F07
:102D2000881F20F026173707480730F4620B730B13
:102D3000840B200D311D411DA09581F7B901842F11
:102D40009158880F9695879508959B01AC010C9436
:102D50005F139F3F31F0915020F4879577956795E9
:102D6000B795880F911D9695879597F9089591507D
:102D70005040660F771F881FD2F70895AA1BBB1B10
:102D800051E107C0AA1FBB1FA617B70710F0A61B6B
:102D9000B70B881F991F5A95A9F780959095BC018C
:102DA000CD01089597FB072E16F4009407D077FD08
:102DB00009D00E94BE1607FC05D03EF4909581957F
:102DC0009F4F0895709561957F4F0895EE0FFF1FF7
:102DD0000590F491E02D0994CF93DF938230910513
:102DE00010F482E090E0E091F405F091F50520E028
:102DF00030E0C0E0D0E0309711F1408151814817B8
:102E00005907C0F04817590761F4828193812097D0
:102E100019F09B838A832BC09093F5058093F4056A
:102E200026C02115310519F04217530718F49A01ED
:102E3000BE01DF01EF010280F381E02DDCCF21151F
:102E4000310509F1281B390B2430310590F4129615
:102E50008D919C9113976115710521F0FB0193836E
:102E6000828304C09093F5058093F405FD013296AA
:102E700044C0FD01E20FF31F819391932250310969
:102E80002D933C933AC02091F2053091F305232B0A
:102E900041F420910B0130910C013093F305209304
:102EA000F2052091090130910A012115310541F403
:102EB0002DB73EB740910D0150910E01241B350BEB
:102EC000E091F205F091F305E217F307A0F42E1B51
:102ED0003F0B2817390778F0AC014E5F5F4F24177E
:102EE000350748F04E0F5F1F5093F3054093F205EE
:102EF0008193919302C0E0E0F0E0CF01DF91CF91A8
:102F000008950F931F93CF93DF93009709F48CC01C
:102F1000FC013297138212820091F4051091F5059D
:102F20000115110581F420813181820F931F2091B9
:102F3000F2053091F3052817390779F5F093F30579
:102F4000E093F20571C0D80140E050E0AE17BF0732
:102F500050F412962D913C911397AD012115310536
:102F600009F1D901F3CF9D01DA0133832283608116
:102F70007181860F971F8217930769F4EC012881EE
:102F80003981260F371F2E5F3F4F318320838A817F
:102F90009B8193838283452B29F4F093F505E0937D
:102FA000F40542C01396FC93EE931297ED014991FC
:102FB00059919E01240F351FE217F30771F48081A8
:102FC0009181840F951F029611969C938E93828116
:102FD000938113969C938E931297E0E0F0E0D801D2
:102FE00012968D919C911397009719F0F8018C011E
:102FF000F6CF8D919C9198012E5F3F4F820F931FCA
:103000002091F2053091F3052817390769F43097BC
:1030100029F41092F5051092F40502C01382128271
:103020001093F3050093F205DF91CF911F910F915B
:103030000895A0E0B0E0EFE1F8E10C944014EC0159
:10304000009721F4CB010E94EC16B8C0FC01E60FFA
:10305000F71F9C0122503109E217F30708F4ACC0B6
:10306000D9010D911C91119706171707B0F0053083
:10307000110508F49FC0C80104978617970708F444
:1030800099C002501109061B170B019311936D9300
:103090007C93CF010E9481178DC05B01A01AB10AF9
:1030A0004C01800E911EA091F405B091F50540E011
:1030B00050E0E12CF12C109709F44AC0A815B9058D
:1030C000D1F56D907C901197630182E0C80ED11C00
:1030D000CA14DB0480F1A3014A195B096A0182E08A
:1030E000C80ED11C1296BC9012971396AC91B5E005
:1030F000CB16D10440F0B282A38351834083D9011F
:103100006D937C930AC00E5F1F4FC301800F911F08
:10311000F90191838083EB2DFA2FE114F10431F052
:10312000D7011396FC93EE93129744C0F093F505E4
:10313000E093F4053FC08D919C9111974817590772
:1031400008F4AC017D0112960D90BC91A02DB3CF77
:103150008091F2059091F30588159905E1F44617E1
:103160005707C8F48091090190910A01009741F432
:103170008DB79EB740910D0150910E01841B950BA8
:10318000E817F907C8F4F093F305E093F205F901A5
:10319000718360830FC0CB010E94EC167C01009705
:1031A00059F0A801BE010E94E818CE010E948117C3
:1031B000C70104C0CE0102C080E090E0CDB7DEB709
:1031C000EEE00C945C1481E090E0F8940C94071904
:1031D000FB01DC0102C001900D9241505040D8F734
:1031E0000895FB01DC0101900D920020E1F70895A4
:1031F000FB01DC014150504048F001900D9200204D
:10320000C9F701C01D9241505040E0F7089510E009
:10321000C6E9D0E004C0FE010E94E6162196C73937
:08322000D107C9F7F894FFCFB4
:103228000000803FEA0001A1090000F60580003295
:103238007C8900EDD9687700000059000000000083
:10324800000000D69FDCA81817AA90437327F6B988
:1032580068EDF4DED409FEE61C1C84DDE80B992930
:1032680027D6DF8D210F036418EFEE1EC8B7008242
:1032780000941500347C0000001400988F000000B2
:103288000000000000000000E7B73F360000000023
:10329800000000AF669ED03800000000000000006B
:1032A8000000000000000000000000000000000016
:1032B8000000000000000000000000000000000006
:1032C80000000000000000000000000000000000F6
:1032D80000000000000000000000000000000000E6
:1032E80000000000000000000000000000000000D6
:1032F80000000000000000000000000000000000C6
:1033080000000000000000000000000000000000B5
:1033180000000000000000000000000000000000A5
:103328000000000000000000CC31AA2C532E000041
:10333800000000760B0E0B390BBD0BC100480B5C6F
:103348000B0000000023010E0BD7001E01E6000849
:0A33580001F500413A0020533A004D
:00000001FF
