:100000000C9484000C94AC000C94AC000C949D08EF
:100010000C949D080C949D080C94AC000C94AC00BE
:100020000C94AC000C94AC000C94AC000C94AC00A0
:100030000C94AC000C94AC000C94AC000C94AC0090
:100040000C9453080C94AC000C9421080C94FB07FE
:100050000C94AC000C94AC000C94AC000C94AC0070
:100060000C94AC000C94AC005A065A066606820644
:1000700079068B069806B006C706E806084AD73BFD
:100080003BCE016E84BCBFFDC12F3D6C74319ABD67
:1000900056833DDA3D00C77F11BED9E4BB4C3E918B
:1000A0006BAAAABE000000803F000000000800020A
:1000B0000100000304070000000000000000000031
:1000C0000000250028002B0000000000240027006D
:1000D0002A00000000002300260029000404040474
:1000E00004040404020202020202030303030303E2
:1000F00001020408102040800102040810200102BF
:10010000040810201709680D11241FBECFEFD8E096
:10011000DEBFCDBF12E0A0E0B1E0EEE1F3E202C04D
:1001200005900D92AA32B107D9F725E0AAE2B2E014
:1001300001C01D92AD38B207E1F710E0C3E8D0E08E
:1001400004C02197FE010E945D11C238D107C9F792
:100150000E94F9090C9482110C940000CF92DF9256
:10016000EF92FF920F931F93CF93DF931F92CDB720
:10017000DEB7D82EF62EC42E8091CB049091CC04FD
:10018000DC01ED91FC910190F081E02D64E2798336
:1001900009958091CB049091CC04DC01ED91FC9108
:1001A0000190F081E02D6DE409958091CB04909150
:1001B000CC04DC01ED91FC910190F081E02D6CE329
:1001C00009958091CB049091CC04DC01ED91FC91D8
:1001D0000190F081E02D6C2D09958091CB049091D8
:1001E000CC04DC01ED91FC910190F081E02D6D2DAE
:1001F0000995DC24EF2C0F2D7981172F8091CB04EA
:100200009091CC04202F2E192C1560F4F8016191E7
:100210008F01D626DC01ED91FC910190F081E02D5B
:100220000995ECCFDC01ED91FC910190F081E02D7E
:100230006D2D0F90DF91CF911F910F91FF90EF9057
:10024000DF90CF900994CF92DF92EF92FF920F93BD
:100250001F93CF93DF936C017A018B01C0E0D0E054
:10026000CE15DF0589F0D8016D918D01D601ED9194
:10027000FC910190F081E02DC6010995892B11F4C4
:100280007E0102C02196ECCFC701DF91CF911F9173
:100290000F91FF90EF90DF90CF900895FC01538D68
:1002A000448D252F30E0842F90E0821B930B541750
:1002B00010F0CF96089501970895FC01918D828DDD
:1002C000981761F0828DDF01A80FB11D5D968C91AA
:1002D000928D9F5F9F73928F90E008958FEF9FEFB5
:1002E0000895FC01918D828D981731F0828DE80F71
:1002F000F11D858D90E008958FEF9FEF0895FC012B
:10030000918D228D892F90E0805C9F4F821B9109F7
:100310008F739927089581ED94E00E947F0121E079
:10032000892B09F420E0822F0895FC01848DDF01E0
:10033000A80FB11DA35ABF4F2C91848D90E0019658
:100340008F739927848FA689B7892C93A089B18947
:100350008C9180648C93938D848D981306C0028851
:10036000F389E02D80818F7D80830895EF92FF9245
:100370000F931F93CF93DF93EC0181E0888F9B8DC8
:100380008C8D981305C0E889F989808185FD24C08A
:10039000F62E0B8D10E00F5F1F4F0F731127E02E0D
:1003A0008C8DE8120CC00FB607FCFACFE889F989EA
:1003B000808185FFF5CFCE010E949501F1CF8B8D15
:1003C000FE01E80FF11DE35AFF4FF0820B8FEA891F
:1003D000FB898081806207C0EE89FF896083E8899C
:1003E000F98980818064808381E090E0DF91CF9102
:1003F0001F910F91FF90EF900895CF93DF93EC0141
:10040000888D8823C9F0EA89FB89808185FD05C034
:10041000A889B9898C9186FD0FC00FB607FCF5CF6E
:10042000808185FFF2CFA889B9898C9185FFEDCFB6
:10043000CE010E949501E7CFDF91CF91089580E032
:1004400090E0892B29F00E948B0181110C9400000F
:10045000089590E0FC01E655FF4F3491FC01E05116
:10046000FF4F2491FC01E452FF4FE491EE2309F485
:100470003BC0332339F1333091F038F43130A9F0F7
:10048000323001F584B58F7D12C0373091F03830AD
:10049000A1F03430B9F4809180008F7D03C0809149
:1004A00080008F77809380000DC084B58F7784BDE6
:1004B00009C08091B0008F7703C08091B0008F7D1C
:1004C0008093B000F0E0EE0FFF1FE254FF4FA591C4
:1004D000B4918FB7F894EC91611103C020952E234D
:1004E00001C02E2B2C938FBF08952091980430913A
:1004F00099042817390771F4909196048091970414
:10050000981741F0E0919604F0E0EF5AFB4F80819C
:1005100090E008958FEF9FEF089508951F93CF9374
:10052000DF93DC015C962D913C915D97211531059F
:1005300039F481E090E013969C938E9312973DC01E
:100540005196ED91FC91529750969C915097892F1E
:1005500080951FB75E964C915E9741FB772770F9A7
:1005600041FD6095F8944081772311F0492B01C03B
:1005700048234083E9012197F1F748E0508160FF6B
:1005800002C0592B01C058235083E9012197F1F78C
:100590006695415099F7772321F0908189238083D4
:1005A00003C08081982B90831FBF5C968D919C9196
:1005B0005D970197F1F721E030E0C901DF91CF911C
:1005C0001F910895209198043091990428173907B4
:1005D00071F4809197042091960490E0805C9F4F85
:1005E000821B910960E470E00E944911089580E047
:1005F00090E00895209198043091990428173907C4
:10060000B9F49091960480919704981789F0E0913D
:100610009604F0E0EF5AFB4F80812091960430E081
:100620002F5F3F4F2F7333272093960490E0089558
:100630008FEF9FEF0895E0919804F0919904E817E7
:10064000F90769F4A389B4899C91858980958923E8
:100650008C93109299041092980481E0089580E0A0
:10066000089580E090E008950895FB01208182279D
:1006700090E1899F900111242827822F90E0582F24
:1006800044279C0163E0220F331F6A95E1F742275C
:100690005327218130E02427352774E095958795ED
:1006A0007A95E1F7822793279183808308950E94AA
:1006B00063110F931F93CF93DF93CDB7DEB7C8506D
:1006C000D1400FB6F894DEBF0FBECDBF809150046D
:1006D00087FF15C081E090E0A0E0B0E0CB51DF4F94
:1006E00088839983AA83BB83C55ED040C254DF4F01
:1006F00088839983AA83BB83CE5BD04010C0CB5143
:10070000DF4F188219821A821B82C55ED040C25404
:10071000DF4F188219821A821B82CE5BD04004E020
:10072000CA5FDE4F0883C650D14081E0C95FDE4F0B
:100730008883C750D140C85FDE4F8883C850D140FE
:1007400043E0BE016A5F7E4F83E00E94AE001AE084
:10075000E6E4F4E0DF01212F1D922A95E9F7ECE3AE
:10076000F4E0DF01212F1D922A95E9F78CE0E0E308
:10077000F4E0DF011D928A95E9F710922C041092A3
:100780002D0410922E0410922F0481E480933004E3
:1007900080E280932C0483E580932D044AE066E494
:1007A00074E080912A0490912B040E94720D26E639
:1007B00036E646E650E46091260470912704809165
:1007C0002804909129040E940D0E0E947310DC01F0
:1007D000CB014AE06CE374E00E94720D66E474E0C1
:1007E00080E394E00E9468116CE274E080E394E09E
:1007F0000E9468116CE374E080E394E00E94681149
:100800004CE050E060E374E0CE0188539F4F0E94BB
:1008100073114CE0BE0168537F4F8AE00E94AE0026
:100820004BE0BE0161527F4F85E60E94AE00809191
:100830002504CC50DF4F8883C45FD04080912304CF
:1008400090912404C950DF4F99838883C75FD040BB
:100850008091C5049091C604C750DF4F9983888367
:10086000C95FD0408091BB049091BC04CB50DF4F56
:1008700099838883C55FD04047E0BE016C507F4FAD
:100880008EE60E94AE008091C5049091C604C652C7
:10089000DF4F99838883CA5DD0408091250490E022
:1008A000C352DF4F99838883CD5DD0408091BB04D4
:1008B0009091BC04C852DF4F99838883C85DD040B3
:1008C000CC52DF4F0883C45DD04080E594E1CB5229
:1008D000DF4F99838883C55DD04088EAC952DF4FD6
:1008E0008883C75DD040C452DF4F1882CC5DD040B2
:1008F0004BE0BE016C527F4F82E80E94AE0040E1A7
:10090000BE0168547F4F86E90E94AE008091B60414
:100910009091B704A091B804B091B904C855DF4FC5
:1009200088839983AA83BB83C85AD0408091AE0440
:100930009091AF04A091B004B091B104C455DF4FC1
:1009400088839983AA83BB83CC5AD04080912204A8
:10095000C955DF4F8883C75AD04042E1BE016A556E
:100960007F4F8AE60E94AE0080919C0490919D0486
:10097000CF5FDE4F99838883C150D14080919A0424
:1009800090919B04CD5FDE4F99838883C350D14003
:1009900045E0BE016F5F7E4F8BE60E94AE00809106
:1009A0009C0490919D04893EB3E09B075CF064E653
:1009B00070E00E944911C350DF4F79836883CD5F97
:1009C000D0400BC0189F9001199F300D1124C350C7
:1009D000DF4F39832883CD5FD040809120049091F0
:1009E000210464E670E00E94351180919A04909190
:1009F0009B04861B970B4AE0489F9001499F300D4E
:100A00001124C550DF4F39832883CB5FD04046E0A7
:100A1000BE0165507F4F8CE60E94AE00C651DF4F8D
:100A2000188219821A821B82CA5ED0404AE0BE0137
:100A300066517F4F8DE60E94AE0088E3888788E18B
:100A4000EE968FAFEE9782E090E0CA56DF4F998323
:100A50008883C659D04080E1C256DF4F8883CE5983
:100A6000D04081E0CD55DF4F8883C35AD040CC556C
:100A7000DF4F8883C45AD040CB55DF4F1882C55A08
:100A8000D04084E098E09C878B8787E198E09E8740
:100A90008D878AEE90E0988B8F879A8B898B9C8BC1
:100AA0008B8B9E8B8D8B988F8F8B9A8F898F21EC60
:100AB00039E03C8F2B8F9E8F8D8F98A38F8F27E3EC
:100AC00038E03AA329A328E538E03CA32BA39EA352
:100AD0008DA321EA39E038A72FA39AA789A79CA75D
:100AE0008BA79EA78DA798AB8FA79AAB89AB9CAB22
:100AF0008BAB9EAB8DAB98AF8FAB21E438E03AAFB8
:100B000029AF21E238E03CAF2BAF9EAF8DAF28EB91
:100B100039E021963FAF2EAF219728E939E023969F
:100B20003FAF2EAF239725969FAF8EAF2597279681
:100B30009FAF8EAF279729969FAF8EAF29972B96A1
:100B40009FAF8EAF2B972D969FAF8EAF2D972F9681
:100B50009FAF8EAF2F9761969FAF8EAF61976396D1
:100B60009FAF8EAF639765969FAF8EAF6597679681
:100B70009FAF8EAF679769969FAF8EAF69976B9661
:100B80009FAF8EAF6B976D969FAF8EAF6D976F9641
:100B90009FAF8EAF6F97A1969FAF8EAFA197A39691
:100BA0009FAF8EAFA397A5969FAF8EAFA597A79641
:100BB0009FAF8EAFA797A9969FAF8EAFA997AB9621
:100BC0009FAF8EAFAB97AD969FAF8EAFAD97AF9601
:100BD0009FAF8EAFAF97E1969FAF8EAFE197E39651
:100BE0009FAF8EAFE397E5969FAF8EAFE597E79601
:100BF0009FAF8EAFE797E9969FAF8EAFE997EB96E1
:100C00009FAF8EAFEB97ED969FAF8EAFED9745EA16
:100C1000BE016F5F7F4F84E50E94AE00C85FDE4F6C
:100C20000FB6F894DEBF0FBECDBFDF91CF911F91FD
:100C30000F9108952F923F924F925F926F927F9201
:100C40008F929F92AF92BF92CF92DF92EF92FF92DC
:100C50000F931F93CF93DF93CDB7DEB7C657D1095C
:100C60000FB6F894DEBF0FBECDBFEE24E394F12C97
:100C700092E0292E312CCC24CA94DC2C8EE695E00F
:100C80000E94E202181619060CF09BC18EE695E050
:100C90000E94FA025C01082F10922A02E0912D02B4
:100CA000F0912E02EA30F10508F0CDC0EC5CFF4F68
:100CB0000C945D118E3F09F0C6C030922E02209236
:100CC0002D0210925D0280935C029BC0853630F04D
:100CD00080912B028F5F80932B0298C080935D02DE
:100CE00010922F026AE572E00E94350324E030E0A2
:100CF0001AC080935E026AE572E00E94350383E0C9
:100D000090E022C080935F026AE572E00E943503A2
:100D1000A5E0B0E020C0809360026AE572E00E9426
:100D2000350326E030E030932E0220932D028BC055
:100D3000809361026AE572E00E94350380915D0252
:100D4000811107C088E090E090932E0280932D02DD
:100D50007AC0A7E0B0E0B0932E02A0932D0273C03A
:100D6000E0912F02BB24B394BE0EB0922F02F0E0AC
:100D7000EE59FD4FA0826AE572E08A2D0E9435038C
:100D800080915D02B8125FC028E030E0CCCFE091E6
:100D90006102F0E0EB5FFE4F6AE572E080810E9445
:100DA000350380915A0290915B0299279501332770
:100DB00028173907F1F489E090E090932E02809390
:100DC0002D02E0912F02F0E0EE59FD4FA0823BC0D2
:100DD00090915B02E6969FAFE697E7961FAEE79786
:100DE000C5019927E796AEADBFADE7978A179B0778
:100DF00091F00E3F59F430922E0220922D02109263
:100E00005D02D0925B02C0925A021DC0F0922E0287
:100E1000E0922D0218C081E080932A02F0922E0207
:100E2000E0922D02E0912F02F0E0ED59FD4FA082FB
:100E300080E7EAE5F2E0DE01119601900D928A95D5
:100E4000E1F71091610220912A02213099F48091FA
:100E50005E028093300280913202909133020097BB
:100E600021F41092350210923402019690933302CD
:100E70008093320210922C02222309F4FFCE183103
:100E800009F480C0C0F4112309F483C0113009F0C3
:100E9000F5CE298D3A8D4FA18F89988D64E670E04B
:100EA0000E9435116093250440931F043093C604BB
:100EB0002093C504E3CE133209F472C01A3409F446
:100EC00048C0113209F0DACE8D859E85AF85B8898C
:100ED000E5968CAF9DAFAEAFBFAFE59749885A8816
:100EE0006B887C888D889E88AF88B88C698D7A8D58
:100EF0008B8D9C8D2BA13CA1309321042093200449
:100F000028EE33E040E050E00E94CB0E30932B04FB
:100F100020932A04E5968CAD9DADAEADBFADE597AF
:100F20008093B6049093B704A093B804B093B90427
:100F30004092AE045092AF046092B0047092B1043B
:100F40008092A6049092A704A092A804B092A9044B
:100F500095CE8D859E85AF85B88949855A856B85E7
:100F60007C8540931B0450931C0460931D04709374
:100F70001E048093260490932704A0932804B09322
:100F800029047CCE8EA19DA19093BA048093220463
:100F900075CE88899F859093500480931A046ECEF5
:100FA0002E8D30E0AFEFB3E00E940C0F2FEF30E05A
:100FB00040E050E00E94CB0E3093240420932304A1
:100FC0005DCECA58DF4F0FB6F894DEBF0FBECDBF5F
:100FD000DF91CF911F910F91FF90EF90DF90CF9015
:100FE000BF90AF909F908F907F906F905F904F9049
:100FF0003F902F9008951F920F920FB60F921124D9
:101000002F933F934F935F936F937F938F939F9310
:10101000AF93BF93EF93FF9381ED94E00E9495010E
:10102000FF91EF91BF91AF919F918F917F916F91C0
:101030005F914F913F912F910F900FBE0F901F9096
:1010400018951F920F920FB60F9211242F938F9322
:101050009F93EF93FF93E091E104F091E20480818C
:10106000E091E704F091E80482FD12C09081809144
:10107000EA048F5F8F732091EB04821751F0E091A7
:10108000EA04F0E0EF52FB4F958F8093EA0401C031
:101090008081FF91EF919F918F912F910F900FBEC3
:1010A0000F901F9018951F920F920FB60F92112458
:1010B0002F933F938F939F93AF93BF9380919E0401
:1010C00090919F04A091A004B091A1043091950447
:1010D00023E0230F2D3720F40196A11DB11D05C07B
:1010E00026E8230F0296A11DB11D2093950480933D
:1010F0009E0490939F04A093A004B093A1048091B8
:10110000910490919204A0919304B091940401965B
:10111000A11DB11D8093910490939204A093930418
:10112000B0939404BF91AF919F918F913F912F9174
:101130000F900FBE0F901F9018951F920F920FB631
:101140000F9211242F933F934F935F936F937F934D
:101150008F939F93AF93BF93EF93FF93E091980486
:10116000F0919904309709F451C0968DA685B78502
:10117000858591FF04C09C91892329F447C09C91E7
:10118000892309F043C0A389B4899C9185898095FE
:1011900089238C93868997890197F1F7608D718DEA
:1011A000A685B785558538E020E0CB010197F1F79A
:1011B000822F90E095958795282F4C91452309F033
:1011C0002068315091F7868D81FD2095809197049C
:1011D00090E001968F73992730919604381749F063
:1011E000A0919704B0E0AF5ABB4F2C938093970423
:1011F00003C0868D8160868F828D938D0197F1F774
:10120000A389B4899C918589892B8C93FF91EF9157
:10121000BF91AF919F918F917F916F915F914F910E
:101220003F912F910F900FBE0F901F901895CF9365
:10123000DF931092D4041092D30488EE93E0A0E0E0
:10124000B0E08093D5049093D604A093D704B093D4
:10125000D80429E032E03093D2042093D10425EC65
:1012600030E03093DE042093DD0424EC30E0309352
:10127000E0042093DF0420EC30E03093E20420937C
:10128000E10421EC30E03093E4042093E30422EC09
:1012900030E03093E6042093E50426EC30E0309310
:1012A000E8042093E7041092EA041092EB041092F1
:1012B000EC041092ED041092710510927005809369
:1012C000720590937305A0937405B09375058BE137
:1012D00092E090936F0580936E05109285051092B1
:1012E0008405109287051092860510928905109248
:1012F000880510928B0510928A0560918C056E7F8F
:101300006D7F60938C056695617081E0682789E048
:101310000E942902E9EFF0E02491E5EEF0E08491EB
:10132000882399F090E0880F991FFC01E853FF4F44
:10133000A591B491FC01E254FF4F859194918FB730
:10134000F894EC91E22BEC938FBFE9EFF0E0E4919D
:10135000E0937E05E5EEF0E0E491F0E0EE0FFF1F94
:10136000E254FF4F859194919093800580937F057F
:10137000E8EFF0E02491E4EEF0E084918823C1F0FE
:1013800090E0880F991FFC01E853FF4FC591D4915D
:10139000FC01E254FF4FA591B4919FB7F894888166
:1013A000E22FE0958E2388838C91E823EC939FBFF6
:1013B00080918C0581FD04C061E088E00E942902D3
:1013C00088E080937A05E8EFF0E0E491E0937B0514
:1013D000E4EEF0E0E491F0E0EE0FFF1FEE52FF4F7D
:1013E0008591949190937D0580937C05DF91CF91B9
:1013F0000895789484B5826084BD84B5816084BD8D
:1014000085B5826085BD85B5816085BD80916E00A2
:10141000816080936E0010928100809181008260D3
:101420008093810080918100816080938100809110
:1014300080008160809380008091B10084608093FF
:10144000B1008091B00081608093B00080917A00FB
:10145000846080937A0080917A00826080937A0021
:1014600080917A00816080937A0080917A00806810
:1014700080937A001092C100E091E104F091E204BF
:1014800082E08083E091DD04F091DE041082E0913F
:10149000DF04F091E00480E180831092E904E091A0
:1014A000E504F091E60486E08083E091E304F091A6
:1014B000E404808180618083E091E304F091E4049E
:1014C000808188608083E091E304F091E40480816E
:1014D00080688083E091E304F091E40480818F7D53
:1014E000808381ED94E09093CC048093CB0484EFCF
:1014F00091E0A0E0B0E08093CD049093CE04A0935F
:10150000CF04B093D00410928905109288051092F0
:10151000870510928605109285051092840582E455
:1015200090E090938B0580938A0590917A0596318F
:1015300008F057C02FE030E03093850520938405F4
:1015400020E430E0309387052093860527E230E0E1
:10155000309389052093880520916800983050F0D9
:1015600031E09E3008F430E081E001C0880F3A9508
:10157000EAF701C084E0822B80936800983038F04D
:101580009E3040F0963148F020E030E008C02DE673
:1015900030E005C02BE630E002C02CE630E03093AE
:1015A000820520938105983030F481E001C0880FD6
:1015B0009A95EAF70EC0292F30E09E3018F4285093
:1015C000310902C02E50310981E001C0880F2A95EF
:1015D000EAF78093830580918A0590918B050197A6
:1015E000F1F78091880590918905892B21F18091EF
:1015F00098049091990405E08E369007E1F00097E9
:1016000011F00E941B0380918C058E7F80938C05C6
:1016100010929704109296048EE695E090939904A8
:1016200080939804E0918105F091820590818091EA
:101630008305892B80830E941A062FB7F894809126
:101640009E0490919F04A091A004B091A1042FBF8B
:101650004091C7045091C8046091C9047091CA04B4
:101660008C019D01041B150B260B370B083C110543
:101670002105310508F41DC18093C7049093C80467
:10168000A093C904B093CA048091B2049091B304AA
:10169000A091B404B091B5040097A105B10509F477
:1016A00096C08090AA049090AB04A090AC04B09037
:1016B000AD0481149104A104B10409F488C0C09060
:1016C000B604D090B704E090B804F090B904BC011F
:1016D000CD016C197D098E099F090E94AE0D6B0129
:1016E0007C018091AE049091AF04A091B004B091C0
:1016F000B104A5019401281B390B4A0B5B0BCA01ED
:10170000B9010E94AE0D209100013091010140917C
:101710000201509103010E940D0E4B015C01A701D3
:101720009601C701B6010E940D0E2B013C01A501D7
:101730009401C501B4010E940D0E9B01AC01C301CF
:10174000B2010E941C0F0E94DC102CE23DE74EE823
:101750005FE30E940D0E0E9473102B013C01C70134
:10176000B6019058A50194010E949B0F20EA3CE02D
:1017700043EB55E40E940D0E20E030EA4CE056E4C5
:101780000E941C0F0E946C106B017C0197FF06C029
:1017900030EAC30E3CE8D31EE11CF11CC301B201C8
:1017A00024E630E040E050E00E94EA0E30939D04D1
:1017B00020939C04C701B60124E630E040E050E0ED
:1017C0000E94CB0E30939B0420939A0408C0109281
:1017D0009D0410929C0410929B0410929A040E9403
:1017E00059036091C5047091C604072E000C880B44
:1017F000990B0E94AE0D20E030E040E251E40E94DF
:101800000D0E6B017C012FB7F89460919E047091CE
:101810009F048091A0049091A1042FBF0E94AC0D61
:101820002091C1043091C2044091C3045091C4047A
:101830000E941B0F9B01AC01C701B6010E940D0E57
:1018400020E03AEB4BE55AE40E94FA0F2DE73FE324
:1018500045E95FE30E940D0E2091BD043091BE0466
:101860004091BF045091C0040E941C0F6093BD04BE
:101870007093BE048093BF049093C0040E947310C1
:101880007093BC046093BB042FB7F89460919E04DE
:1018900070919F048091A0049091A1042FBF0E9499
:1018A000AC0D6093C1047093C2048093C304909301
:1018B000C4048091BA04833008F407C18091040104
:1018C000813009F002C16091B6047091B704809133
:1018D000B8049091B9046093B2047093B3048093F8
:1018E000B4049093B504C090AE04D090AF04E090DF
:1018F000B004F090B104C092AA04D092AB04E0927C
:10190000AC04F092AD04C090A604D090A704E0907F
:10191000A804F090A904C092A204D092A304E0927B
:10192000A404F092A5040E94AE0D9F7720E836E94A
:1019300048E15BE40E94FA0F25E33AEF4EE85CE3EE
:101940000E940D0E2BED3FE049EC5FE30E941C0F5F
:101950006B017C010E946C10DC01CB018096A11D03
:10196000B11D81349105A105B10508F0A1C02BED91
:101970003FE049E450E4C701B6010E94C9101816BF
:101980005CF42BED3FE049EC50E4C701B6010E9446
:101990001B0F6B017C01EBCF2BED3FE049E450ECDA
:1019A000C701B6010E94A70D87FF0BC02BED3FE0DA
:1019B00049EC50E4C701B6010E941C0F6B017C0189
:1019C000EBCF2BED3FE049EC5FE3C701B6010E948E
:1019D000C91018167CF42BED3FE049EC5FE3C7011A
:1019E000B6010E941B0F9B01AC016BED7FE089ECFF
:1019F0009FE318C02BED3FE049EC5FEBC701B60158
:101A00000E94A70D87FF12C02BED3FE049EC5FE37A
:101A1000C701B6010E941C0F9B01AC016BED7FE07A
:101A200089EC9FEB0E941B0F6B017C01A7019601C3
:101A3000C701B6010E940D0E4B015C019B01AC0178
:101A4000C701B6010E940D0E2B013C0120E030E0E1
:101A5000A901C501B4010E940D0E22E937EE41E44F
:101A600059E30E941B0F9B01AC01C501B4010E9408
:101A70000D0E27E930E348E05CE30E941C0F9B0158
:101A8000AC01C501B4010E940D0E25E138EA4AE21D
:101A90005EE30E941B0F9B01AC01C301B2010E94D7
:101AA0000D0E9B01AC01C701B6010E941C0F03C0C3
:101AB00060E070E0CB0160930001709301018093BE
:101AC000020190930301109204010E941F02B3CD02
:101AD0008BE192E090936F0580936E058EE695E022
:101AE0000C941B03BB274A3031F4992322F4BDE246
:101AF000909581959F4F0C947E0DBB27FB01552738
:101B0000AA27880F991FAA1FA41710F0A41B83955A
:101B10005051B9F7A05DAA3308F0A95DA1930097D1
:101B200079F7B111B1931192CB010C94970DDC01AF
:101B3000FC01672F71917723E1F7329704C07C9104
:101B40006D9370836291AE17BF07C8F308950E942A
:101B5000E90D08F481E00895E89409C097FB3EF48C
:101B600090958095709561957F4F8F4F9F4F9923EA
:101B7000A9F0F92F96E9BB279395F6958795779568
:101B80006795B795F111F8CFFAF4BB0F11F460FF28
:101B90001BC06F5F7F4F8F4F9F4F16C0882311F080
:101BA00096E911C0772321F09EE8872F762F05C094
:101BB000662371F096E8862F70E060E02AF09A952F
:101BC000660F771F881FDAF7880F9695879597F924
:101BD0000895990F0008550FAA0BE0E8FEEF1616BE
:101BE0001706E807F907C0F012161306E407F50711
:101BF00098F0621B730B840B950B39F40A2661F085
:101C0000232B242B252B21F408950A2609F4A14027
:101C1000A6958FEF811D811D08950E94200E0C94C2
:101C2000910E0E94830E38F00E948A0E20F09523B8
:101C300011F00C947A0E0C94800E11240C94C50EA5
:101C40000E94A20E70F3959FC1F3950F50E0551FAF
:101C5000629FF001729FBB27F00DB11D639FAA2701
:101C6000F00DB11DAA1F649F6627B00DA11D661F50
:101C7000829F2227B00DA11D621F739FB00DA11D71
:101C8000621F839FA00D611D221F749F3327A00D2B
:101C9000611D231F849F600D211D822F762F6A2FC7
:101CA00011249F5750409AF0F1F088234AF0EE0F2C
:101CB000FF1FBB1F661F771F881F91505040A9F759
:101CC0009E3F510580F00C947A0E0C94C50E5F3F38
:101CD000E4F3983ED4F3869577956795B795F79595
:101CE000E7959F5FC1F7FE2B880F911D969587950D
:101CF00097F9089597F99F6780E870E060E008958C
:101D00009FEF80EC089500240A9416161706180613
:101D10000906089500240A941216130614060506EF
:101D20000895092E0394000C11F4882352F0BB0F80
:101D300040F4BF2B11F460FF04C06F5F7F4F8F4FE3
:101D40009F4F089557FD9058440F551F59F05F3F1E
:101D500071F04795880F97FB991F61F09F3F79F0CD
:101D600087950895121613061406551FF2CF46954F
:101D7000F1DF08C0161617061806991FF1CF8695D1
:101D80007105610508940895E894BB2766277727B5
:101D9000CB0197F90895052E97FB1EF400940E943D
:101DA000E20E57FD07D00E94EA0E07FC03D04EF466
:101DB0000C94E20E50954095309521953F4F4F4F32
:101DC0005F4F089590958095709561957F4F8F4FE7
:101DD0009F4F0895A1E21A2EAA1BBB1BFD010DC047
:101DE000AA1FBB1FEE1FFF1FA217B307E407F507CB
:101DF00020F0A21BB30BE40BF50B661F771F881FA7
:101E0000991F1A9469F760957095809590959B013C
:101E1000AC01BD01CF010895A29FB001B39FC001E5
:101E2000A39F700D811D1124911DB29F700D811D06
:101E30001124911D08955058BB27AA270E94330FE3
:101E40000C94910E0E94830E38F00E948A0E20F0AE
:101E500039F49F3F19F426F40C94800E0EF4E095AB
:101E6000E7FB0C947A0EE92F0E94A20E58F3BA17E2
:101E7000620773078407950720F079F4A6F50C94A0
:101E8000C40E0EF4E0950B2EBA2FA02D0B01B90154
:101E900090010C01CA01A0011124FF27591B99F0E0
:101EA000593F50F4503E68F11A16F040A22F232FEC
:101EB000342F4427585FF3CF469537952795A7953C
:101EC000F0405395C9F77EF41F16BA0B620B730BE3
:101ED000840BBAF09150A1F0FF0FBB1F661F771F54
:101EE000881FC2F70EC0BA0F621F731F841F48F409
:101EF000879577956795B795F7959E3F08F0B0CF92
:101F00009395880F08F09927EE0F97958795089578
:101F10000E94830E60F080E891E009F49EEF0E9439
:101F20008A0E28F040E851E071F45EEF0CC00C948A
:101F3000800E0C94C40EE92FE0780E94A20E40F3AC
:101F4000092E052AB1F3261737074807590738F035
:101F50000E2E07F8E02569F0E025E0640AC0EF6383
:101F600007F8009407FADB01B9019D01DC01CA0101
:101F7000AD01EF930E9411100E94910E0E94CB0FB1
:101F80005F91552339F02BED3FE049E450FD49ECDA
:101F90000C941C0F0895DF93DD27B92FBF7740E81D
:101FA0005FE31616170648075B0718F4D92F0E943F
:101FB000CE109F938F937F936F930E941C11ECE739
:101FC000F0E00E94A2100E94910E2F913F914F913C
:101FD0005F910E94200EDD2351F09058A2EA2AED75
:101FE0003FE049EC5FE3D0785D270E94330FDF913B
:101FF0000C94910E0E940E100C94910E0E948A0E69
:1020000058F00E94830E40F029F45F3F29F00C94B1
:102010007A0E51110C94C50E0C94800E0E94A20EE3
:1020200068F39923B1F3552391F3951B550BBB2707
:10203000AA2762177307840738F09F5F5F4F220F4C
:10204000331F441FAA1FA9F335D00E2E3AF0E0E843
:1020500032D091505040E695001CCAF72BD0FE2F8D
:1020600029D0660F771F881FBB1F26173707480721
:10207000AB07B0E809F0BB0B802DBF01FF279358D9
:102080005F4F3AF09E3F510578F00C947A0E0C9415
:10209000C50E5F3FE4F3983ED4F386957795679538
:1020A000B795F7959F5FC9F7880F911D969587950E
:1020B00097F90895E1E0660F771F881FBB1F62172D
:1020C00073078407BA0720F0621B730B840BBA0BEB
:1020D000EE1F88F7E09508950E9473106894B1117F
:1020E0000C94C50E08950E94AA0E88F09F5798F090
:1020F000B92F9927B751B0F0E1F0660F771F881F0D
:10210000991F1AF0BA95C9F714C0B13091F00E9426
:10211000C40EB1E008950C94C40E672F782F882761
:10212000B85F39F0B93FCCF3869577956795B3954D
:10213000D9F73EF490958095709561957F4F8F4FBC
:102140009F4F0895DF93CF931F930F93FF92EF92CA
:10215000DF927B018C01689406C0DA2EEF010E94A9
:10216000200EFE01E894A591259135914591559158
:10217000A6F3EF010E94330FFE019701A801DA9444
:1021800069F7DF90EF90FF900F911F91CF91DF9152
:1021900008950E94E90D08F48FEF08959B01AC01AA
:1021A00060E070E080E89FE30C94FA0F19F416F4F5
:1021B0000C94800E0C9420110E94AA0EB8F399235F
:1021C000C9F3B6F39F57550B87FF0E942E110024C9
:1021D000A0E640EA900180585695979528F4805CD7
:1021E000660F771F881F20F026173707480730F43F
:1021F000621B730B840B202931294A2BA695179457
:102200000794202531254A2758F7660F771F881F26
:1022100020F026173707480730F4620B730B840B46
:10222000200D311D411DA09581F7B901842F9158D2
:10223000880F9695879508959B01AC010C940D0E1F
:102240009F3F31F0915020F4879577956795B7952A
:10225000880F911D9695879597F908959150504054
:10226000660F771F881FD2F70895AA1BBB1B51E189
:1022700007C0AA1FBB1FA617B70710F0A61BB70BF6
:10228000881F991F5A95A9F780959095BC01CD019B
:10229000089597FB072E16F4009407D077FD09D018
:1022A0000E94351107FC05D03EF4909581959F4F13
:1022B0000895709561957F4F0895EE0FFF1F05906B
:1022C000F491E02D099481E090E0F8940C9482114F
:1022D000FB01DC010D900020E9F7119701900D92B0
:1022E0000020E1F70895FB01DC014150504048F027
:1022F00001900D920020C9F701C01D92415050403D
:10230000E0F7089510E0C3E8D0E004C0FE010E94A9
:0E2310005D112196C438D107C9F7F894FFCFAC
:10231E000000803F01327C8900EDD9687700000013
:10232E00590000000000000000D69FDCA81817AA74
:10233E0090437327F6B968EDF4DED409FEE61C1C53
:10234E0084DDE80B992927D6DF8D210F036418EF62
:10235E00EE1EC8B7008200941500347C00000014F5
:10236E0000988F0000000000000000000000E7B79A
:10237E003F3600000000000000AF669ED03800001F
:10238E00000000000000000000000000000000003F
:10239E00000000000000000000000000000000002F
:1023AE00000000000000000000000000000000001F
:1023BE00000000000000000000000000000000000F
:1023CE0000000000000000000000000000000000FF
:1023DE0000000000000000000000000000000000EF
:1023EE0000000000000000000000000000000000DF
:1023FE0000000000000000000000000000000000CF
:10240E000000000000000000000000000000CC31C1
:10241E00AA2C532E0000000000B60123014E01FD30
:10242E00017F015D017101000000008E0223013168
:0A243E00038D02E202FA02750200AB
:00000001FF
