:100000000C9433010C945B010C945B010C945B0128
:100010000C945B010C945B010C945B010C945B01F0
:100020000C945B010C945B010C94D8040C94820535
:100030000C9491040C945B010C945B010C945B0197
:100040000C9447040C945B010C9415040C94EF037E
:100050000C945B010C945B010C945B010C945B01B0
:100060000C945B010C945B015B065B0667068506DE
:100070007B068E069B06B506D006F106084AD73BDE
:100080003BCE016E84BCBFFDC12F3D6C74319ABD67
:1000900056833DDA3D00C77F11BED9E4BB4C3E918B
:1000A0006BAAAABE000000803F000000000800020A
:1000B0000100000304070000000000000000000031
:1000C0000000250028002B0000000000240027006D
:1000D0002A000404040404040404020202020202CA
:1000E00003030303030301020408102040800102FC
:1000F000040810200102040810204D414E55414CC7
:10010000000000000000000000504F534954494FC8
:100110004E5F484F4C440000414E474C45000000A4
:1001200000000000000000000000000000000000CF
:100130000000000000004143524F0000000000009A
:100140000000000000414C5449545544455F484F5D
:100150004C4400000000000000000000000000000F
:10016000000000000000000000000000000000008F
:10017000000000000000000000000000000000007F
:10018000000000000000000000000000000000006F
:100190004D495353494F4E000000000000000052EB
:1001A00054480000000000000000000000000000B3
:1001B000000000000000000000000000000000003F
:1001C000000000000000000000000000000000002F
:1001D00000000000000000000000004C41554E43AC
:1001E00048000000000000000000000000000000C7
:1001F00000000000000000000000000000000000FF
:1002000000000000000000000000000000000000EE
:1002100000000000000000000000000000000000DE
:1002200000000000000000000000000000000000CE
:1002300000000000000000000000000000000000BE
:1002400000000000000000000000000000000000AE
:10025000000000000000000000000000000000009E
:100260000000E411C61111241FBECFEFD8E0DEBF9D
:10027000CDBF12E0A0E0B1E0EEE7F1E302C00590EF
:100280000D92A836B107D9F725E0A8E6B2E001C083
:100290001D92AB3BB207E1F711E0C2E3D1E004C02D
:1002A0002197FE010E949616C133D107C9F70E941B
:1002B000E5080C94B2180C940000CF92DF92EF92F4
:1002C000FF920F931F93CF93DF936C017A018B0101
:1002D000C0E0D0E0CE15DF0589F0D8016D918D0129
:1002E000D601ED91FC910190F081E02DC6010995B8
:1002F000892B11F47E0102C02196ECCFC701DF915A
:10030000CF911F910F91FF90EF90DF90CF900895C4
:10031000FC01538D448D252F30E0842F90E0821B0B
:10032000930B541710F0CF96089501970895FC0190
:10033000918D828D981761F0828DDF01A80FB11D1C
:100340005D968C91928D9F5F9F73928F90E0089540
:100350008FEF9FEF0895FC01918D828D981731F0FA
:10036000828DE80FF11D858D90E008958FEF9FEF4E
:100370000895FC01918D228D892F90E0805C9F4F24
:10038000821B91098F739927089584E095E00E945C
:10039000B90121E0892B09F420E0822F0895FC01A6
:1003A000848DDF01A80FB11DA35ABF4F2C91848DFE
:1003B00090E001968F739927848FA689B7892C9333
:1003C000A089B1898C9180648C93938D848D9813CE
:1003D00006C00288F389E02D80818F7D8083089597
:1003E000EF92FF920F931F93CF93DF93EC0181E085
:1003F000888F9B8D8C8D981305C0E889F989808141
:1004000085FD24C0F62E0B8D10E00F5F1F4F0F737C
:100410001127E02E8C8DE8120CC00FB607FCFACF26
:10042000E889F989808185FFF5CFCE010E94CF014F
:10043000F1CF8B8DFE01E80FF11DE35AFF4FF082E3
:100440000B8FEA89FB898081806207C0EE89FF8972
:100450006083E889F98980818064808381E090E00D
:10046000DF91CF911F910F91FF90EF900895CF935F
:10047000DF93EC01888D8823C9F0EA89FB898081AC
:1004800085FD05C0A889B9898C9186FD0FC00FB67E
:1004900007FCF5CF808185FFF2CFA889B9898C91BF
:1004A00085FFEDCFCE010E94CF01E7CFDF91CF9145
:1004B000089580E090E0892B29F00E94C501811108
:1004C0000C94000008954091690250916802852FB4
:1004D00090E0242F30E0451710F08C5B9F4F821B7B
:1004E000930B089550916C0240916B02852F90E020
:1004F000242F30E0541710F4805B9F4F821B930B26
:10050000089580916C02E0916B028E1751F0EF5FBD
:10051000E03508F0E0E0F0E0E755FB4F808190E047
:1005200008958FEF9FEF089580916C0290916B0278
:10053000891769F09F5F903508F090E0E92FF0E0AF
:10054000E755FB4F808190936B0290E008958FEF09
:100550009FEF089580916A028111FCCF08958091E8
:1005600069028F5F843408F080E0909168029817E8
:10057000E1F32FB7F89490916A02992341F0E82FA4
:10058000F0E0E15AFB4F6083809369021DC081E077
:1005900080936A026093A4041092A30482E086BB55
:1005A00080916F00826080936F00809180008F73D4
:1005B00080688093800080918400909185004096AF
:1005C00090938900809388002FBF81E090E0089588
:1005D000FB012081822790E1899F90011124282727
:1005E000822F90E0582F44279C0163E0220F331F95
:1005F0006A95E1F742275327218130E024273527E8
:1006000074E0959587957A95E1F7822793279183F2
:1006100080830895089580E090E008950F931F93DC
:10062000CF93DF93EC0188819981009729F02A818B
:100630003B812617370788F48B016F5F7F4F0E943D
:10064000C917009761F0998388831B830A832C81E3
:100650003D81232B11F4FC01108281E001C080E078
:10066000DF91CF911F910F910895EF92FF920F9319
:100670001F93CF93DF93FC012481358161157105B0
:1006800011F480E019C041155105A9F07B01EC017E
:100690008A01020F131FB8010E940E03882389F3F9
:1006A000288139818C819D81B701820F931F0E941F
:1006B0009C181D830C8381E0DF91CF911F910F91D6
:1006C000FF90EF900895CF93DF93EC01888199819B
:1006D000009711F00E943117198218821D821C8226
:1006E0001B821A82DF91CF910895EF92FF920F93B0
:1006F0001F93CF93DF93CDB7DEB72E970FB6F89445
:10070000DEBF0FBECDBF7C01CB01BA012AE08E0156
:100710000F5F1F4FA8010E945A12F801019000209C
:10072000E9F73197AF01401B510BB801C7010E9497
:100730003503811103C0C7010E946303C7012E96D0
:100740000FB6F894DEBF0FBECDBFDF91CF911F91E2
:100750000F91FF90EF900895CF93DF93EC01611517
:10076000710561F0FB0101900020E9F73197AF01BD
:10077000461B570B0E943503811103C0CE010E9416
:100780006303CE01DF91CF910895EF92FF920F9313
:100790001F93CF93DF93EC01FB0186179707B9F006
:1007A000008111810115110539F0E480F580B70150
:1007B0000E940E03811104C0CE010E94630307C092
:1007C000FD82EC82B801888199810E949C18CE013B
:1007D000DF91CF911F910F91FF90EF9008951F929D
:1007E0000F920FB60F9211242F933F934F935F9365
:1007F0006F937F938F939F93AF93BF93EF93FF93E9
:1008000084E095E00E94CF01FF91EF91BF91AF91FD
:100810009F918F917F916F915F914F913F912F9118
:100820000F900FBE0F901F9018951F920F920FB64A
:100830000F9211242F938F939F93EF93FF93E09147
:100840001405F09115058081E0911A05F0911B05C2
:1008500082FD12C0908180911D058F5F8F73209162
:100860001E05821751F0E0911D05F0E0EC5FFA4F94
:10087000958F80931D0501C08081FF91EF919F911D
:100880008F912F910F900FBE0F901F9018951F9270
:100890000F920FB60F9211242F933F938F939F9334
:1008A000AF93BF938091730290917402A0917502EF
:1008B000B09176023091FD0423E0230F2D3720F410
:1008C0000196A11DB11D05C026E8230F0296A11DAA
:1008D000B11D2093FD048093730290937402A09342
:1008E0007502B09376028091F9049091FA04A09178
:1008F000FB04B091FC040196A11DB11D8093F90485
:100900009093FA04A093FB04B093FC04BF91AF91C1
:100910009F918F913F912F910F900FBE0F901F903D
:1009200018951F920F920FB60F9211242F938F9349
:100930009F93EF93FF9380916F008B7F80936F0065
:10094000809181008F7B8093810080916D02209146
:10095000A80420589091A704893020F49695922BF2
:100960008F5FFACF9093A70480916C028F5F8035E0
:1009700008F080E020916B02821739F0E82FF0E058
:10098000E755FB4F908380936C0210926D0280912B
:1009900081008F7B809381001092A804FF91EF91DA
:1009A0009F918F912F910F900FBE0F901F901895D0
:1009B0001F920F920FB60F9211242F933F934F93D4
:1009C0005F936F937F938F939F93AF93BF93EF93B7
:1009D000FF9380918600909187004091A804209118
:1009E0008100442331F02F7B209381001092A804D2
:1009F00006C020642093810020E82093A804309151
:100A00006D02311125C041116CC020916E023091F0
:100A10006F02280F391F30938B0020938A0024E047
:100A200026BB20916F00246020936F0020917002FC
:100A300030917102820F931F36952795820F931F75
:100A40009093A6048093A50481E080936D0249C031
:100A50004091A5045091A6046091700270917102BA
:100A6000DB01A095B095E091A8042091A704841B18
:100A7000950BA817B90768F126952E2B460F571F1F
:100A80003F5F861B970B3930A0F32093A70480911A
:100A90006F008B7F80936F0080916C028F5F803539
:100AA00008F080E090916B02891749F0E82FF0E0A0
:100AB0009091A704E755FB4F908380936C0280913F
:100AC00081008F7B809381001092A80410926D02A8
:100AD00008C02093A7045093A6044093A504309324
:100AE0006D02FF91EF91BF91AF919F918F917F9197
:100AF0006F915F914F913F912F910F900FBE0F908B
:100B00001F9018951F920F920FB60F9211242F93DA
:100B10003F934F935F936F937F938F939F93EF9345
:100B2000FF9380916A026091A40420918800309123
:100B3000890040917002509171029091A3048A3013
:100B4000F8F4240F351F893019F0762F717001C029
:100B500071E066958F5F791791F39091800077230C
:100B600011F0906C02C09F73906890938000309356
:100B70008900209388007093A3046093A4044AC062
:100B800090916902E09168029E1319C08A3051F475
:100B90008BE080936A02240F351F309389002093E5
:100BA00088003AC010926A02809180008F7380930F
:100BB000800080916F008D7F80936F002DC0EF5F6C
:100BC000E43408F0E0E0E0936802F0E0E15AFB4F23
:100BD00090819093A4041092A304909180009F733D
:100BE0009068909380008A3059F4809170029091BF
:100BF0007102280F391F309389002093880009C0A3
:100C00008091840090918500409690938900809314
:100C1000880081E080936A02FF91EF919F918F910C
:100C20007F916F915F914F913F912F910F900FBEE8
:100C30000F901F9018952F923F924F925F926F9254
:100C40007F928F929F92AF92BF92CF92DF92EF925C
:100C5000FF920F931F93CF93DF93CDB7DEB7C657A5
:100C6000D1090FB6F894DEBF0FBECDBFEE24E394DA
:100C7000F12C52E0252E312CCC24CA94DC2C8BEAAA
:100C800095E00E947202181619060CF0C9C18BEA91
:100C900095E00E9494023C01082F1092D503E09148
:100CA000D803F091D903EA30F10508F0D5C0EC5C27
:100CB000FF4F0C9496168E3F09F0CEC03092D903A8
:100CC0002092D8031092E4038093E303A3C08636F6
:100CD00030F08091D6038F5F8093D603A0C08093BD
:100CE000E4031092DA0361EE73E00E94E80234E05C
:100CF000832E912C2DC08093E50361EE73E00E945A
:100D0000E80223E0A22EB12C2BC08093E60361EE13
:100D100073E00E94E80225E030E03DC08093E703E5
:100D200061EE73E00E94E80286E090E09093D903C0
:100D30008093D80391C08093E80361EE73E00E9432
:100D4000E8028091E403811108C098E0892E912C7B
:100D50009092D9038092D8037FC087E0A82EB12C4F
:100D6000B092D903A092D80377C0E091DA03772438
:100D700073947E0E7092DA03F0E0E751FC4F6082CC
:100D800061EE73E0862D0E94E8028091E403781200
:100D900063C028E030E03093D9032093D8035CC0CF
:100DA000E091E803F0E0E35CFE4F61EE73E08081E8
:100DB0000E94E8028091E1039091E2039927930158
:100DC000332728173907F1F489E090E09093D9038D
:100DD0008093D803E091DA03F0E0E751FC4F6082A2
:100DE0003BC09091E203E6969FAFE697E7961FAE71
:100DF000E797C3019927E7968EAC9FACE7978815D4
:100E0000990591F00E3F59F43092D9032092D803FE
:100E10001092E403D092E203C092E1031DC0F0926D
:100E2000D903E092D80318C081E08093D503F092F3
:100E3000D903E092D803E091DA03F0E0E651FC4FE9
:100E4000608280E7E1EEF3E0DE01119601900D9201
:100E50008A95E1F71091E8032091D503213099F4A8
:100E60008091E5038093DB038091DD039091DE03A5
:100E7000009721F41092E0031092DF030196909303
:100E8000DE038093DD031092D703222309F4F7CE0B
:100E9000113209F468C070F4113029F108F494C0DB
:100EA000183109F0ECCE8EA19DA19093A6028093FB
:100EB0009D02E5CE1A3449F1183A09F498C013326C
:100EC00009F0DDCE2E8D30E0AFEFB3E00E94591473
:100ED0002FEF30E040E050E00E94E11330938002B9
:100EE00020937F02CCCE298D3A8D4FA18F89988D8A
:100EF00064E670E00E9482166093A70240935E044D
:100F000030937E0220937D02BACE4D855E856F853B
:100F100078898D899E89AF89B88D298D3A8DEB8D21
:100F200049845A846B847C8440925A0450925B04B6
:100F300060925C0470925D04409390025093910221
:100F4000609392027093930230937C0220937B0211
:100F5000E09359048093770290937802A0937902EA
:100F6000B0937A028CCE4D845E846F8478884989F0
:100F70005A896B897C898D899E89AF89B88D898CC6
:100F80009A8CAB8CBC8C8092940290929502A09229
:100F90009602B09297024092A2025092A3026092EF
:100FA000A4027092A50240939E0250939F02609308
:100FB000A0027093A1028093990290939A02A09349
:100FC0009B02B0939C025BCE89859A85AB85BC85DC
:100FD00028893F8530937202209398028093A5055B
:100FE0009093A605A093A705B093A80548CE8D853C
:100FF0009E85AF85B88949855A856B857C854093E8
:10100000550450935604609357047093580480938A
:10101000510490935204A0935304B09354042FCEE0
:10102000CA58DF4F0FB6F894DEBF0FBECDBFDF91B9
:10103000CF911F910F91FF90EF90DF90CF90BF90D5
:10104000AF909F908F907F906F905F904F903F9068
:101050002F900895FC019FE0A1E8B2E001900D926D
:101060009A95E1F70895CF92DF92EF92FF92CF9396
:10107000DF93CDB7DEB72F970FB6F894DEBF0FBE64
:10108000CDBF6B017C012091A5053091A6054FE0F5
:10109000429FC001439F900D1124BC0166507F4FB9
:1010A000CE0101960E94531281E08093A802C09263
:1010B000A902D092AA02E092AB02F092AC02CE0159
:1010C00001960E942A082F960FB6F894DEBF0FBE35
:1010D000CDBFDF91CF91FF90EF90DF90CF9008953B
:1010E000CF92DF92EF92FF920F931F93CF93DF93F4
:1010F0001F92CDB7DEB7D82EF62EC42E8091FE04F7
:101100009091FF04DC01ED91FC910190F081E02DC4
:1011100064E2798309958091FE049091FF04DC01DB
:10112000ED91FC910190F081E02D6DE409958091A5
:10113000FE049091FF04DC01ED91FC910190F0819F
:10114000E02D6CE309958091FE049091FF04DC0191
:10115000ED91FC910190F081E02D6C2D099580912D
:10116000FE049091FF04DC01ED91FC910190F0816F
:10117000E02D6D2D0995DC24EF2C0F2D7981172F93
:101180008091FE049091FF04202F2E192C1560F4FD
:10119000F80161918F01D626DC01ED91FC9101905F
:1011A000F081E02D0995ECCFDC01ED91FC910190EF
:1011B000F081E02D6D2D0F90DF91CF911F910F9158
:1011C000FF90EF90DF90CF900994CF93DF93CDB74E
:1011D000DEB76F970FB6F894DEBF0FBECDBF789421
:1011E00084B5826084BD84B5816084BD85B582602C
:1011F00085BD85B5816085BD80916E0081608093DD
:101200006E00109281008091810082608093810045
:101210008091810081608093810080918000816055
:10122000809380008091B10084608093B1008091B0
:10123000B00081608093B00080917A0084608093D8
:101240007A0080917A00826080937A0080917A009F
:10125000816080937A0080917A00806880937A0020
:101260001092C100E0911405F091150582E0808391
:10127000E0911005F09111051082E0911205F091B6
:10128000130580E1808310921C05E0911805F09110
:10129000190586E08083E0911605F091170580819D
:1012A00080618083E0911605F09117058081886048
:1012B0008083E0911605F091170580818068808316
:1012C000E0911605F091170580818F7D808384E081
:1012D00095E09093FF048093FE0484EF91E0A0E0FA
:1012E000B0E08093000590930105A0930205B093B0
:1012F000030510926F001092800081E880938100B6
:1013000086E191E090937102809370028BE09AE005
:1013100090936F0280936E02EEEEF0E02491EAED7E
:10132000F0E084918823C9F090E0880F991FFC01B8
:10133000E853FF4F45915491FC01E254FF4FA591B2
:10134000B4919FB7F894FA013081822F809583235E
:101350008083EC91E22BEC939FBFE3EBF0E03491C0
:101360004FEE50E0FA0164918BED90E0FC01249186
:101370002223B9F1332339F1333091F038F431308D
:10138000A9F0323001F534B53F7D12C0373091F00D
:101390003830A1F03430B9F4309180003F7D03C083
:1013A000309180003F77309380000DC034B53F7797
:1013B00034BD09C03091B0003F7703C03091B00018
:1013C0003F7D3093B00030E0220F331F22543F4F57
:1013D000F901A591B4912FB7F8943C91632B6C93CC
:1013E0002FBFFA014491FC018491882399F090E089
:1013F000880F991FFC01E853FF4FA591B491FC01A0
:10140000E254FF4F859194918FB7F8949C91492BAA
:101410004C938FBF10926D0210926C0210926B026F
:1014200010926A02109269021092680280E286BBF2
:1014300080936F008E010F5F1F4F1E01FBE02F0E88
:10144000311C0E941B062FB7F89480917302909173
:101450007402A0917502B09176022FBF4091D10322
:101460005091D2036091D3037091D4036C017D013C
:10147000C41AD50AE60AF70AB701A601443651058F
:101480006105710508F47EC58093D1039093D20362
:10149000A093D303B093D4038091C8039091C90360
:1014A000A091CA03B091CB030097A105B10509F43F
:1014B0009AC08090C4039090C503A090C603B090DA
:1014C000C70381149104A104B10409F48CC0C09035
:1014D000A202D090A302E090A402F090A502BC0169
:1014E000CD016C197D098E099F090E94C4126B0100
:1014F0007C0180919E0290919F02A091A002B091E8
:10150000A102A5019401281B390B4A0B5B0BCA01F0
:10151000B9010E94C412209103013091040140914D
:101520000501509106010E9423134B015C01A701A4
:101530009601C701B6010E9423132B013C01A501AE
:101540009401C501B4010E9423139B01AC01C301A6
:10155000B2010E9469140E9429162CE23DE74EE870
:101560005FE30E9423130E94C0152B013C01C701B9
:10157000B6019058A50194010E94E81420EA3CE0CD
:1015800043EB55E40E94231320E030EA4CE056E49C
:101590000E9469140E94B9156B017C0197FF06C077
:1015A00030EAC30E3CE8D31EE11CF11CC301B201BA
:1015B00024E630E040E050E00E94371420936D03B1
:1015C00030936E0340936F0350937003C701B601CD
:1015D00024E630E040E050E00E94E11330936603DF
:1015E000209365030CC010926D0310926E0310924D
:1015F0006F0310927003109266031092650320919E
:1016000072028091AD039091AE03A091AF03B091AF
:10161000B00327FF02C0816001C08E7F8093AD03BD
:101620009093AE03A093AF03B093B0034091A50590
:101630005091A6056091A7057091A8058091AD0312
:101640009091AE03A091AF03B091B0034230510529
:101650006105710511F4826001C08D7F8093AD0337
:101660009093AE03A093AF03B093B0032091980280
:1016700025508091AD039091AE03A091AF03B0913E
:10168000B003223010F4806101C08F7E8093AD03DF
:101690009093AE03A093AF03B093B0038091AD03DA
:1016A0009091AE03A091AF03B091B0034B305105C0
:1016B0006105710511F4806201C08F7D8093AD03D7
:1016C0009093AE03A093AF03B093B00360917D02FB
:1016D00070917E02072E000C880B990B0E94C41299
:1016E00020E030E040E251E40E9423136B017C01D2
:1016F0002FB7F89460917302709174028091750213
:10170000909176022FBF0E94C2122091B1023091B7
:10171000B2024091B3025091B4020E9468149B013E
:10172000AC01C701B6010E94231320E03AEB4BE560
:101730005AE40E9447152091AD023091AE024091CB
:10174000AF025091B0020E9469146093AD02709391
:10175000AE028093AF029093B0020E94C0157093C6
:101760008F0360938E032FB7F8946091730270918A
:10177000740280917502909176022FBF0E94C2126E
:101780006093B1027093B2028093B3029093B4025B
:101790006091CD037091CE038091CF039091D003DF
:1017A00024E833E040E050E00E9437142091070124
:1017B000672B682B692BD1F42130C1F48091A905E6
:1017C0009091AA05813D9740D8F0809108019091B1
:1017D000090120910001309101013093090120930A
:1017E000080190930101809300010AC0211108C0F3
:1017F0008091A9059091AA05909309018093080111
:101800001F8A1E8A198E188E1B8E1A8E60E070E059
:10181000CE0146960E940E03811105C0CE01469668
:101820000E94630308C01B8E1A8E63E672E08E89E5
:101830009F890E949C188091A802811194C0609198
:10184000940270919502809196029091970228EEF1
:1018500033E040E050E00E94E1131A8219821C82BA
:101860001B821E821D82BE016A5E7F4FC8012C8FC3
:101870003D8F4E8F5F8F0E94C50361E672E0C80105
:101880000E94AC032C8D3D8D4E8D5F8DBA01A90158
:101890000E947503BC01CE0146960E94C503898152
:1018A0009A810E94311726E636E646E650E46091BA
:1018B00090027091910280919202909193020E9405
:1018C00023130E94C0154B015C01198A188A1B8AD8
:1018D0001A8A1D8A1C8ABE016A5E7F4FCE0140961D
:1018E0000E94C50364E672E0CE0140960E94AC03FC
:1018F0007C014AE0B801C4010E949312F8010190F2
:101900000020E9F73197AF01401B510BB801C70127
:101910000E943503811103C0C7010E946303B70110
:10192000CE0146960E94C503888999890E94311785
:10193000EA8CFB8CE114F10419F41092B1031EC07F
:101940005EE0E516F10418F09EE0E92EF12C6E89B8
:101950007F89A70181EB93E00E94A318F701EF5460
:10196000FC4F10820BC0813049F48FE0E1E8F2E0D7
:10197000A1EBB3E001900D928A95E1F74FE061EBA6
:1019800073E08AE00E9470088091AD039091AE03ED
:10199000A091AF03B091B00380939D0390939E03F9
:1019A000A0939F03B093A00346E167E973E085E647
:1019B0000E9470088091A7028093900380917F021B
:1019C00090918002909394038093930380917D0281
:1019D00090917E02909396038093950380918E035D
:1019E00090918F03909392038093910347E060E975
:1019F00073E08EE60E94700880917D0290917E02D5
:101A000090938A03809389038091A702AAE08A9F1A
:101A1000C001112490938D0380938C0380918E03D9
:101A200090918F0390938803809387038091CC03D8
:101A30008093830380E594E19093850380938403EE
:101A400010928B036091CD037091CE038091CF03F0
:101A50009091D00320E931E040E050E00E9437143B
:101A6000672B682B692B09F0BFC080910201882386
:101A700009F4B4C0198A188A1B8A1A8A1D8A1C8A1A
:101A800060E070E0CE0140960E940E03811105C017
:101A9000CE0140960E94630308C01D8A1C8A63E63B
:101AA00072E0888999890E949C1860919E027091C9
:101AB0009F028091A0029091A10297FF07C090958C
:101AC0008095709561957F4F8F4F9F4F2AE030E052
:101AD00040E050E00E94E11369017A016091A202A6
:101AE0007091A3028091A4029091A50297FF07C074
:101AF00090958095709561957F4F8F4F9F4F2AE00D
:101B000030E040E050E00E94E1131A8219821C820A
:101B10001B821E821D82BE01605F7F4FC8012C8F19
:101B20003D8F4E8F5F8F0E94C5032C8D3D8D4E8D56
:101B30005F8DBA01A901C8010E94750363E672E0D6
:101B40000E94AC03B701A6010E947503BC01CE013F
:101B500040960E94C50389819A810E943117909016
:101B60000201A92CB12CF5013197CC88DD88E888D9
:101B7000F988EC15FD0518F4E114F10429F410922C
:101B8000B502E5EBF2E002C0EE0DFF1D8081898316
:101B9000AC14BD0418F4E114F10429F41092B50258
:101BA000E5EBF2E003C0F701EA0DFB1D80818A83BB
:101BB000C8010E94351280938603B2E0CB1AD10887
:101BC000CA14DB0428F0939493949092020102C00B
:101BD00010920201C7010E94311706C08FEF809357
:101BE000860381E0809302014BE063E873E082E8C2
:101BF0000E9470088091A2029091A302A091A40279
:101C0000B091A5028093730390937403A09375031E
:101C1000B093760380919E0290919F02A091A002C2
:101C2000B091A1028093770390937803A0937903F6
:101C3000B0937A0380919D028093720342E161E741
:101C400073E08AE60E94700860916D0370916E03E4
:101C500080916F0390917003693EE3E07E078105F8
:101C6000910538F024E630E040E050E00E9437145F
:101C700006C04AE0469F9001479F300D11243093E3
:101C80006A03209369038091650390916603209114
:101C90007B0230917C02821B930B4AE0489F9001AB
:101CA000499F300D1124309368032093670346E069
:101CB00067E673E08CE60E94700820E030E048ECB4
:101CC00052E460917702709178028091790290914C
:101CD0007A020E9423130E94B915709360036093E7
:101CE0005F034AE06BE573E08DE60E94700888E3CD
:101CF0008093BD0288E18093320382E090E090936C
:101D00004C0380934B0380E18093530381E08093E5
:101D100058038093590310925A0383E898E09093F4
:101D2000C1028093C0028AEE90E09093C302809338
:101D3000C2029093C5028093C4029093C70280931D
:101D4000C6029093C9028093C8029093CB028093FD
:101D5000CA029093CD028093CC029093CF028093DD
:101D6000CE022FEE39E03093D1022093D00290932F
:101D7000D3028093D2029093D5028093D40226E3BB
:101D800038E03093D7022093D60228E538E030932C
:101D9000D9022093D8029093DB028093DA0220913B
:101DA0000801309109013093DD022093DC02909309
:101DB000DF028093DE029093E1028093E002909331
:101DC000E3028093E2029093E5028093E402909311
:101DD000E7028093E6029093E9028093E8029093F1
:101DE000EB028093EA0228E138E03093ED02209381
:101DF000EC0221E438E03093EF022093EE0221E27E
:101E000038E03093F1022093F0029093F302809334
:101E1000F20228EB39E03093F5022093F40228E92E
:101E200039E03093F7022093F6029093F902809301
:101E3000F8029093FB028093FA029093FD02809344
:101E4000FC029093FF028093FE0290930103809323
:101E5000000324EE39E030930303209302039093B0
:101E600005038093040390930703809306039093E4
:101E700009038093080390930B0380930A039093C4
:101E80000D0380930C0390930F0380930E039093A4
:101E90001103809310039093130380931203909384
:101EA0001503809314039093170380931603909364
:101EB00019038093180390931B0380931A03909344
:101EC0001D0380931C0390931F0380931E03909324
:101ED0002103809320039093230380932203909304
:101EE00025038093240390932703809326039093E4
:101EF00029038093280390932B0380932A039093C4
:101F00002D0380932C0390932F0380932E039093A3
:101F100031038093300345EA66EB72E084E50E946A
:101F200070088E899F890E9431178091CD0390910E
:101F3000CE03A091CF03B091D0038C599F4FAF4FE8
:101F4000BF4F8093CD039093CE03A093CF03B09364
:101F5000D0038091A9029091AA02A091AB02B09106
:101F6000AC02181619061A061B0664F48456910969
:101F7000A109B1098093A9029093AA02A093AB0290
:101F8000B093AC028091A9029091AA02A091AB02F9
:101F9000B091AC02181619061A061B0614F010921E
:101FA000A8028091A5059091A605A091A705B091E2
:101FB000A8054091A1055091A2056091A3057091DB
:101FC000A40584179507A607B70771F08093A105AC
:101FD0009093A205A093A305B093A40568EE73E0C7
:101FE00080E090E00E9433088091CC0381111DC0F5
:101FF0008091A7028823C9F08B3210F481E013C0CE
:10200000853510F482E00FC08F3710F483E00BC0E9
:10201000893A10F484E007C0833D10F485E003C0E2
:102020008F3F19F086E08093CC0320919802609155
:10203000CD037091CE038091CF039091D0032530D2
:10204000C1F420E233E040E050E00E943714672BF7
:10205000682B692B09F062C089E0E0E1F1E0D8016A
:1020600001900D928A95E1F7FE013A9686E0DF0134
:1020700017C0263051F520E233E040E050E00E94E6
:102080003714672B682B692B09F048C08AE0EFE111
:10209000F1E0D80101900D928A95E1F785E0D10138
:1020A0001D928A95E9F781E08093A80284EFC82EFB
:1020B000DD24D394E12CF12CC092A902D092AA0283
:1020C000E092AB02F092AC0226C0223039F520E259
:1020D00033E040E050E00E943714672B682B692BF7
:1020E000E9F48CE0EEE2F1E0D80101900D928A95DE
:1020F000E1F71D861E861F8681E08093A80224EFEB
:1021000031E040E050E02093A9023093AA024093CE
:10211000AB025093AC02C8010E942A086091CD0323
:102120007091CE038091CF039091D00320E137E2EC
:1021300040E050E00E943714672B682B692B31F484
:1021400064EF71E080E090E00E9433088091A60285
:10215000833008F418C180910701813009F013C160
:102160006091A2027091A3028091A4029091A502B5
:10217000611571058105910509F405C1C0909E02A4
:10218000D0909F02E090A002F090A102C114D1046F
:10219000E104F10409F4F7C020919D02263008F40F
:1021A000F2C06093C8037093C9038093CA039093ED
:1021B000CB03C092C403D092C503E092C603F09251
:1021C000C703C0909902D0909A02E0909B02F090D1
:1021D0009C02C092C003D092C103E092C203F0926D
:1021E000C3030E94C4129F7720E836E948E15BE40C
:1021F0000E94471525E33AEF4EE85CE30E94231363
:102200002BED3FE049EC5FE30E9469146B017C0118
:102210000E94B915DC01CB018096A11DB11D81344E
:102220009105A105B10508F0A1C02BED3FE049E4FF
:1022300050E4C701B6010E94161618165CF42BED87
:102240003FE049EC50E4C701B6010E9468146B01FD
:102250007C01EBCF2BED3FE049E450ECC701B60128
:102260000E94BD1287FF0BC02BED3FE049EC50E40C
:10227000C701B6010E9469146B017C01EBCF2BED05
:102280003FE049EC5FE3C701B6010E94161618163D
:102290007CF42BED3FE049EC5FE3C701B6010E94FF
:1022A00068149B01AC016BED7FE089EC9FE318C0E3
:1022B0002BED3FE049EC5FEBC701B6010E94BD1278
:1022C00087FF12C02BED3FE049EC5FE3C701B60189
:1022D0000E9469149B01AC016BED7FE089EC9FEBE0
:1022E0000E9468146B017C01A7019601C701B60129
:1022F0000E9423134B015C019B01AC01C701B60195
:102300000E9423132B013C0120E030E0A901C5010C
:10231000B4010E94231322E937EE41E459E30E94FD
:1023200068149B01AC01C501B4010E94231327E985
:1023300030E348E05CE30E9469149B01AC01C501F5
:10234000B4010E94231325E138EA4AE25EE30E94C9
:1023500068149B01AC01C301B2010E9423139B01CD
:10236000AC01C701B6010E94691403C060E070E0CF
:10237000CB01609303017093040180930501909356
:102380000601109207010E9459025BC883E592E0A2
:102390009093AC058093AB0580916F008B7F809309
:1023A0006F0080916F008F7D80936F0080916B0232
:1023B00080936C0280916A028111FCCF80916F0042
:1023C0008D7F80936F000895E4E0F5E01382128220
:1023D00088EE93E0A0E0B0E084839583A683B78382
:1023E00021E432E03183208325EC30E035872487F7
:1023F00024EC30E03787268720EC30E0318B208BCF
:1024000021EC30E0338B228B22EC30E0358B248BB7
:1024100026EC30E0378B268B118E128E138E148EA5
:10242000EBEAF5E01382128284839583A683B78357
:1024300083E592E091838083809108019091090166
:102440009093AA058093A9058091A5059091A60572
:10245000A091A705B091A8058093A1059093A2052E
:10246000A093A305B093A4050895FC01882799279C
:10247000E89421912032E9F3293010F02E30C8F38E
:102480002B3241F02D3239F4689404C00E94691255
:10249000820F911D219120532A30C0F31EF4909594
:1024A00081959F4F0895FB01DC0105900D9200205E
:1024B000E1F70895BB272A3051F4992342F4BDE295
:1024C00090958095709561957F4F8F4F9F4F0C949D
:1024D00072127AE0979F902D879F802D910D112485
:1024E0000895BB27FA01A62F621771058105910592
:1024F000330B30FB66F0AA27660F771F881F991FE2
:10250000AA1FA21710F0A21B63953850A9F7A05D6F
:10251000AA3308F0A95DA19336F7B111B1931082E7
:10252000CA010C94AD12BB27FB015527AA27880FBF
:10253000991FAA1FA41710F0A41B83955051B9F737
:10254000A05DAA3308F0A95DA193009779F7B111B6
:10255000B1931192CB010C94AD12DC01FC01672FF9
:1025600071917723E1F7329704C07C916D9370836A
:102570006291AE17BF07C8F308950E94FF1208F4D6
:1025800081E00895E89409C097FB3EF4909580950A
:10259000709561957F4F8F4F9F4F9923A9F0F92F29
:1025A00096E9BB279395F695879577956795B795A7
:1025B000F111F8CFFAF4BB0F11F460FF1BC06F5F8D
:1025C0007F4F8F4F9F4F16C0882311F096E911C09F
:1025D000772321F09EE8872F762F05C0662371F0C0
:1025E00096E8862F70E060E02AF09A95660F771FD4
:1025F000881FDAF7880F9695879597F90895990FB0
:102600000008550FAA0BE0E8FEEF16161706E807BC
:10261000F907C0F012161306E407F50798F0621BDD
:10262000730B840B950B39F40A2661F0232B242BB2
:10263000252B21F408950A2609F4A140A6958FEFD1
:10264000811D811D08950E9436130C94A7130E94CA
:10265000991338F00E94A01320F0952311F00C94E8
:1026600090130C94961311240C94DB130E94B8134E
:1026700070F3959FC1F3950F50E0551F629FF001D5
:10268000729FBB27F00DB11D639FAA27F00DB11DEE
:10269000AA1F649F6627B00DA11D661F829F222777
:1026A000B00DA11D621F739FB00DA11D621F839FFE
:1026B000A00D611D221F749F3327A00D611D231FD4
:1026C000849F600D211D822F762F6A2F11249F5722
:1026D00050409AF0F1F088234AF0EE0FFF1FBB1F25
:1026E000661F771F881F91505040A9F79E3F5105E4
:1026F00080F00C9490130C94DB135F3FE4F3983E4E
:10270000D4F3869577956795B795F795E7959F5F8D
:10271000C1F7FE2B880F911D9695879597F908951F
:1027200097F99F6780E870E060E008959FEF80EC84
:10273000089500240A941616170618060906089527
:1027400000240A9412161306140605060895092E8D
:102750000394000C11F4882352F0BB0F40F4BF2BFC
:1027600011F460FF04C06F5F7F4F8F4F9F4F08953C
:1027700057FD9058440F551F59F05F3F71F0479532
:10278000880F97FB991F61F09F3F79F08795089517
:10279000121613061406551FF2CF4695F1DF08C036
:1027A000161617061806991FF1CF86957105610553
:1027B00008940895E894BB2766277727CB0197F9FB
:1027C0000895052E97FB1EF400940E94F81357FD00
:1027D00007D00E94371407FC03D04EF40C94F81372
:1027E00050954095309521953F4F4F4F5F4F08953D
:1027F00090958095709561957F4F8F4F9F4F08956D
:102800002F923F924F925F926F927F928F929F9200
:10281000AF92BF92CF92DF92EF92FF920F931F93EE
:10282000CF93DF93CDB7DEB7CA1BDB0B0FB6F8949F
:10283000DEBF0FBECDBF09942A88398848885F84DF
:102840006E847D848C849B84AA84B984C884DF8050
:10285000EE80FD800C811B81AA81B981CE0FD11D34
:102860000FB6F894DEBF0FBECDBFED010895A1E213
:102870001A2EAA1BBB1BFD010DC0AA1FBB1FEE1FFA
:10288000FF1FA217B307E407F50720F0A21BB30B45
:10289000E40BF50B661F771F881F991F1A9469F7C1
:1028A00060957095809590959B01AC01BD01CF011D
:1028B0000895A29FB001B39FC001A39F700D811D19
:1028C0001124911DB29F700D811D1124911D089539
:1028D0005058BB27AA270E9480140C94A7130E946B
:1028E000991338F00E94A01320F039F49F3F19F497
:1028F00026F40C9496130EF4E095E7FB0C949013D9
:10290000E92F0E94B81358F3BA17620773078407B8
:10291000950720F079F4A6F50C94DA130EF4E095FF
:102920000B2EBA2FA02D0B01B90190010C01CA0189
:10293000A0011124FF27591B99F0593F50F4503E34
:1029400068F11A16F040A22F232F342F4427585F26
:10295000F3CF469537952795A795F0405395C9F73E
:102960007EF41F16BA0B620B730B840BBAF09150F6
:10297000A1F0FF0FBB1F661F771F881FC2F70EC095
:10298000BA0F621F731F841F48F487957795679568
:10299000B795F7959E3F08F0B0CF9395880F08F054
:1029A0009927EE0F9795879508950E94991360F0E7
:1029B00080E891E009F49EEF0E94A01328F040E81F
:1029C00051E071F45EEF0CC00C9496130C94DA1382
:1029D000E92FE0780E94B81340F3092E052AB1F3DD
:1029E000261737074807590738F00E2E07F8E02555
:1029F00069F0E025E0640AC0EF6307F8009407FA85
:102A0000DB01B9019D01DC01CA01AD01EF930E9418
:102A10005E150E94A7130E9418155F91552339F087
:102A20002BED3FE049E450FD49EC0C946914089506
:102A3000DF93DD27B92FBF7740E85FE3161617064F
:102A400048075B0718F4D92F0E941B169F938F939A
:102A50007F936F930E946916ECE7F0E00E94EF15F8
:102A60000E94A7132F913F914F915F910E943613BF
:102A7000DD2351F09058A2EA2AED3FE049EC5FE3F4
:102A8000D0785D270E948014DF910C94A7130E94D8
:102A90005B150C94A7130E94A01358F00E94991381
:102AA00040F029F45F3F29F00C94901351110C94DD
:102AB000DB130C9496130E94B81368F39923B1F3B7
:102AC000552391F3951B550BBB27AA276217730754
:102AD000840738F09F5F5F4F220F331F441FAA1FE8
:102AE000A9F335D00E2E3AF0E0E832D091505040A4
:102AF000E695001CCAF72BD0FE2F29D0660F771F52
:102B0000881FBB1F261737074807AB07B0E809F037
:102B1000BB0B802DBF01FF2793585F4F3AF09E3FBC
:102B2000510578F00C9490130C94DB135F3FE4F3A1
:102B3000983ED4F3869577956795B795F7959F5FFF
:102B4000C9F7880F911D9695879597F90895E1E04B
:102B5000660F771F881FBB1F621773078407BA07AA
:102B600020F0621B730B840BBA0BEE1F88F7E09505
:102B700008950E94C0156894B1110C94DB13089558
:102B80000E94C01388F09F5798F0B92F9927B7512A
:102B9000B0F0E1F0660F771F881F991F1AF0BA9501
:102BA000C9F714C0B13091F00E94DA13B1E0089572
:102BB0000C94DA13672F782F8827B85F39F0B93F64
:102BC000CCF3869577956795B395D9F73EF49095B4
:102BD0008095709561957F4F8F4F9F4F0895DF933C
:102BE000CF931F930F93FF92EF92DF927B018C01A3
:102BF000689406C0DA2EEF010E943613FE01E894B5
:102C0000A5912591359145915591A6F3EF010E942B
:102C10008014FE019701A801DA9469F7DF90EF9024
:102C2000FF900F911F91CF91DF9108950E94FF12A5
:102C300008F48FEF08959B01AC0160E070E080E83C
:102C40009FE30C94471519F416F40C9496130C9406
:102C50006D160E94C013B8F39923C9F3B6F39F57BA
:102C6000550B87FF0E947B160024A0E640EA9001E6
:102C700080585695979528F4805C660F771F881FBB
:102C800020F026173707480730F4621B730B840BBC
:102C9000202931294A2BA695179407942025312500
:102CA0004A2758F7660F771F881F20F02617370727
:102CB000480730F4620B730B840B200D311D411D4E
:102CC000A09581F7B901842F9158880F9695879523
:102CD00008959B01AC010C9423139F3F31F0915058
:102CE00020F4879577956795B795880F911D9695F0
:102CF000879597F9089591505040660F771F881F68
:102D0000D2F70895AA1BBB1B51E107C0AA1FBB1F26
:102D1000A617B70710F0A61BB70B881F991F5A9567
:102D2000A9F780959095BC01CD010895EE0FFF1F86
:102D30000590F491E02D0994CF93DF9382309105B3
:102D400010F482E090E0E091B905F091BA0520E03E
:102D500030E0C0E0D0E0309711F140815181481758
:102D60005907C0F04817590761F482819381209771
:102D700019F09B838A832BC09093BA058093B90581
:102D800026C02115310519F04217530718F49A018E
:102D9000BE01DF01EF010280F381E02DDCCF2115C0
:102DA000310509F1281B390B2430310590F41296B6
:102DB0008D919C9113976115710521F0FB0193830F
:102DC000828304C09093BA058093B905FD013296C1
:102DD00044C0FD01E20FF31F81939193225031090A
:102DE0002D933C933AC02091B7053091B805232B21
:102DF00041F420910C0130910D013093B8052093DE
:102E0000B70520910A0130910B012115310541F4DC
:102E10002DB73EB740910E0150910F01241B350B89
:102E2000E091B705F091B805E217F307A0F42E1B67
:102E30003F0B2817390778F0AC014E5F5F4F24171E
:102E4000350748F04E0F5F1F5093B8054093B70504
:102E50008193919302C0E0E0F0E0CF01DF91CF9148
:102E600008950F931F93CF93DF93009709F48CC0BD
:102E7000FC013297138212820091B9051091BA05B4
:102E80000115110581F420813181820F931F20915A
:102E9000B7053091B8052817390779F5F093B805CB
:102EA000E093B70571C0D80140E050E0AE17BF070E
:102EB00050F412962D913C911397AD0121153105D7
:102EC00009F1D901F3CF9D01DA01338322836081B7
:102ED0007181860F971F8217930769F4EC0128818F
:102EE0003981260F371F2E5F3F4F318320838A8120
:102EF0009B8193838283452B29F4F093BA05E09359
:102F0000B90542C01396FC93EE931297ED014991D7
:102F100059919E01240F351FE217F30771F4808148
:102F20009181840F951F029611969C938E938281B6
:102F3000938113969C938E931297E0E0F0E0D80172
:102F400012968D919C911397009719F0F8018C01BE
:102F5000F6CF8D919C9198012E5F3F4F820F931F6A
:102F60002091B7053091B8052817390769F43097D3
:102F700029F41092BA051092B90502C01382128288
:102F80001093B8050093B705DF91CF911F910F9172
:102F90000895A0E0B0E0EFECF7E10C940414EC012C
:102FA000009721F4CB010E949C16B8C0FC01E60FEB
:102FB000F71F9C0122503109E217F30708F4ACC057
:102FC000D9010D911C91119706171707B0F0053024
:102FD000110508F49FC0C80104978617970708F4E5
:102FE00099C002501109061B170B019311936D93A1
:102FF0007C93CF010E9431178DC05B01A01AB10AEA
:103000004C01800E911EA091B905B091BA0540E027
:1030100050E0E12CF12C109709F44AC0A815B9052D
:10302000D1F56D907C901197630182E0C80ED11CA0
:10303000CA14DB0480F1A3014A195B096A0182E02A
:10304000C80ED11C1296BC9012971396AC91B5E0A5
:10305000CB16D10440F0B282A38351834083D901BF
:103060006D937C930AC00E5F1F4FC301800F911FA9
:10307000F90191838083EB2DFA2FE114F10431F0F3
:10308000D7011396FC93EE93129744C0F093BA05C0
:10309000E093B9053FC08D919C911197481759074E
:1030A00008F4AC017D0112960D90BC91A02DB3CF18
:1030B0008091B7059091B80588159905E1F44617F8
:1030C0005707C8F480910A0190910B01009741F4D1
:1030D0008DB79EB740910E0150910F01841B950B47
:1030E000E817F907C8F4F093B805E093B705F901BC
:1030F000718360830FC0CB010E949C167C010097F6
:1031000059F0A801BE010E949318CE010E94311708
:10311000C70104C0CE0102C080E090E0CDB7DEB7A9
:10312000EEE00C942014FB01DC0102C001900D9232
:1031300041505040D8F70895FB01DC0101900D92F9
:103140000020E1F70895FB01DC014150504048F0B8
:1031500001900D920020C9F701C01D9241505040CE
:10316000E0F7089511E0C2E3D1E004C0FE010E943F
:0E31700096162196C333D107C9F7F894FFCF06
:10317E00EA00010000803F01A1090000BB058000AC
:10318E004641494C534146450000000000000045B1
:10319E004D455247454E4359000000000000434143
:1031AE004C4942524154494E4700000000327C893E
:1031BE0000EDD96877000000590000000000000003
:1031CE0000D69FDCA81817AA90437327F6B968EDAE
:1031DE00F4DED409FEE61C1C84DDE80B992927D603
:1031EE00DF8D210F036418EFEE1EF0B7828200947C
:1031FE001500347C0000001400988F0000000000C1
:10320E00000000000000E7B73F360000000000009D
:10321E0000AF669ED03800000000000000000000E5
:10322E000000000000000000000000000000000090
:10323E000000000000000000000000000000000080
:10324E0000000086DBD0BC5416131586004E44BD1C
:10325E007F6F1515900100000000000000000000B7
:10326E000000000000000000000000000000000050
:10327E000000000000000000000000000000000040
:10328E000000000000000000000000000000000030
:10329E000000000000000000000000000000000020
:1032AE00000000000000CC31AA2C532E00000000BC
:1032BE0000F0015D0188013702B9019701AB0100F1
:1032CE00000000AF025D016302AA02720294028145
:0832DE0002413A0020533A00BE
:00000001FF
