:100000000C9433010C945B010C945B010C945B0128
:100010000C945B010C945B010C945B010C945B01F0
:100020000C945B010C945B010C9424050C94CE059C
:100030000C94DD040C945B010C945B010C945B014B
:100040000C9493040C945B010C9461040C943B0499
:100050000C945B010C945B010C945B010C945B01B0
:100060000C945B010C945B01A706A706B306D106AE
:10007000C706DA06E70601071C073D07084AD73B13
:100080003BCE016E84BCBFFDC12F3D6C74319ABD67
:1000900056833DDA3D00C77F11BED9E4BB4C3E918B
:1000A0006BAAAABE000000803F000000000800020A
:1000B0000100000304070000000000000000000031
:1000C0000000250028002B0000000000240027006D
:1000D0002A000404040404040404020202020202CA
:1000E00003030303030301020408102040800102FC
:1000F000040810200102040810204D414E55414CC7
:10010000000000000000000000504F534954494FC8
:100110004E5F484F4C440000414E474C45000000A4
:1001200000000000000000000000000000000000CF
:100130000000000000004143524F0000000000009A
:100140000000000000414C5449545544455F484F5D
:100150004C4400000000000000000000000000000F
:10016000000000000000000000000000000000008F
:10017000000000000000000000000000000000007F
:10018000000000000000000000000000000000006F
:100190004D495353494F4E000000000000000052EB
:1001A00054480000000000000000000000000000B3
:1001B000000000000000000000000000000000003F
:1001C000000000000000000000000000000000002F
:1001D00000000000000000000000004C41554E43AC
:1001E00048000000000000000000000000000000C7
:1001F00000000000000000000000000000000000FF
:1002000000000000000000000000000000000000EE
:1002100000000000000000000000000000000000DE
:1002200000000000000000000000000000000000CE
:1002300000000000000000000000000000000000BE
:1002400000000000000000000000000000000000AE
:10025000000000000000000000000000000000009E
:100260000000A608091111241FBECFEFD8E0DEBFA1
:10027000CDBF12E0A0E0B1E0EAE1FFE202C00590EC
:100280000D92A236B107D9F725E0A2E6B2E001C08F
:100290001D92A53BB207E1F711E0C2E3D1E004C033
:1002A0002197FE010E946E15C133D107C9F70E9444
:1002B000F7080C9480170C940000CF92DF92EF9215
:1002C000FF920F931F93CF93DF931F92CDB7DEB7AB
:1002D000D82EF62EC42E8091820490918304DC01E6
:1002E000ED91FC910190F081E02D64E27983099514
:1002F0008091820490918304DC01ED91FC91019046
:10030000F081E02D6DE40995809182049091830441
:10031000DC01ED91FC910190F081E02D6CE30995F9
:100320008091820490918304DC01ED91FC91019015
:10033000F081E02D6C2D09958091820490918304C9
:10034000DC01ED91FC910190F081E02D6D2D09957E
:10035000DC24EF2C0F2D7981172F8091820490914E
:100360008304202F2E192C1560F4F80161918F0160
:10037000D626DC01ED91FC910190F081E02D0995EC
:10038000ECCFDC01ED91FC910190F081E02D6D2D21
:100390000F90DF91CF911F910F91FF90EF90DF9021
:1003A000CF900994CF92DF92EF92FF920F931F9319
:1003B000CF93DF936C017A018B01C0E0D0E0CE15C2
:1003C000DF0589F0D8016D918D01D601ED91FC9189
:1003D0000190F081E02DC6010995892B11F47E0171
:1003E00002C02196ECCFC701DF91CF911F910F91F1
:1003F000FF90EF90DF90CF900895FC01538D448DD6
:10040000252F30E0842F90E0821B930B541710F0BF
:10041000CF96089501970895FC01918D828D9817CC
:1004200061F0828DDF01A80FB11D5D968C91928DD8
:100430009F5F9F73928F90E008958FEF9FEF0895D5
:10044000FC01918D828D981731F0828DE80FF11D9E
:10045000858D90E008958FEF9FEF0895FC01918DB9
:10046000228D892F90E0805C9F4F821B91098F73B2
:100470009927089582EA92E00E942E0221E0892BBA
:1004800009F420E0822F0895FC01848DDF01A80F7C
:10049000B11DA35ABF4F2C91848D90E001968F73AC
:1004A0009927848FA689B7892C93A089B1898C91CB
:1004B00080648C93938D848D981306C00288F38991
:1004C000E02D80818F7D80830895EF92FF920F93BE
:1004D0001F93CF93DF93EC0181E0888F9B8D8C8DF0
:1004E000981305C0E889F989808185FD24C0F62E1E
:1004F0000B8D10E00F5F1F4F0F731127E02E8C8DB7
:10050000E8120CC00FB607FCFACFE889F9898081A0
:1005100085FFF5CFCE010E944402F1CF8B8DFE0105
:10052000E80FF11DE35AFF4FF0820B8FEA89FB8938
:100530008081806207C0EE89FF896083E889F9893C
:1005400080818064808381E090E0DF91CF911F9172
:100550000F91FF90EF900895CF93DF93EC01888D7A
:100560008823C9F0EA89FB89808185FD05C0A889B7
:10057000B9898C9186FD0FC00FB607FCF5CF80813D
:1005800085FFF2CFA889B9898C9185FFEDCFCE0187
:100590000E944402E7CFDF91CF91089580E090E080
:1005A000892B29F00E943A0281110C9400000895D1
:1005B0004091630250916202852F90E0242F30E039
:1005C000451710F08C5B9F4F821B930B0895509141
:1005D000660240916502852F90E0242F30E0541789
:1005E00010F4805B9F4F821B930B089580916602ED
:1005F000E09165028E1751F0EF5FE03508F0E0E022
:10060000F0E0E45AFA4F808190E008958FEF9FEF79
:1006100008958091660290916502891769F09F5F45
:10062000903508F090E0E92FF0E0E45AFA4F80812D
:100630009093650290E008958FEF9FEF0895809169
:1006400064028111FCCF0895809163028F5F84342E
:1006500008F080E0909162029817E1F32FB7F894C8
:1006600090916402992341F0E82FF0E0EE5EFA4F9A
:100670006083809363021DC081E080936402609375
:1006800057051092560582E086BB80916F0082600C
:1006900080936F00809180008F73806880938000CA
:1006A000809184009091850040969093890080937A
:1006B00088002FBF81E090E00895FB012081822710
:1006C00090E1899F900111242827822F90E0582FD4
:1006D00044279C0163E0220F331F6A95E1F742270C
:1006E0005327218130E02427352774E0959587959D
:1006F0007A95E1F78227932791838083089508955F
:1007000080E090E008950E946B170F931F93CF93A2
:10071000DF93EC0188819981009729F02A813B8140
:100720002617370788F48B016F5F7F4F0E94A11651
:10073000009761F0998388831B830A832C813D8114
:10074000232B11F4FC01108281E001C080E0DF91D5
:10075000CF911F910F910895CF93DF93EC01888182
:100760009981009711F00E940916198218821D8242
:100770001C821B821A82DF91CF910895CF92DF9263
:10078000EF92FF920F931F93CF93DF93CDB7DEB716
:100790002E970FB6F894DEBF0FBECDBF8C01CB01F4
:1007A000BA012AE0AE014F5F5F4F6A010E944C110F
:1007B000F60101900020E9F73197EC19FD09D80105
:1007C0001496ED90FC9015973097D9F0EE0EFF1E21
:1007D000B701C8010E948503882381F0F8012081B8
:1007E000318184819581B601820F931F0E94791710
:1007F000D8011596FC92EE92149703C0C8010E948E
:10080000AC03C8012E960FB6F894DEBF0FBECDBF65
:10081000DF91CF911F910F91FF90EF90DF90CF90DC
:100820000895EF92FF920F931F93CF93DF93EC0104
:10083000FB0186179707B9F0008111810115110599
:1008400039F0E480F580B7010E948503811104C06E
:10085000CE010E94AC0307C0FD82EC82B801888102
:1008600099810E947917CE01DF91CF911F910F914D
:10087000FF90EF9008951F920F920FB60F921124E0
:100880002F933F934F935F936F937F938F939F9398
:10089000AF93BF93EF93FF9382EA92E00E944402EA
:1008A000FF91EF91BF91AF919F918F917F916F9148
:1008B0005F914F913F912F910F900FBE0F901F901E
:1008C00018951F920F920FB60F9211242F938F93AA
:1008D0009F93EF93FF93E091B202F091B302808176
:1008E000E091B802F091B90282FD12C0908180912E
:1008F000BB028F5F8F732091BC02821751F0E09191
:10090000BB02F0E0EE55FD4F958F8093BB0201C016
:100910008081FF91EF919F918F912F910F900FBE4A
:100920000F901F9018951F920F920FB60F921124DF
:100930002F933F938F939F93AF93BF9380916D02BB
:1009400090916E02A0916F02B09170023091B0054B
:1009500023E0230F2D3720F40196A11DB11D05C002
:1009600026E8230F0296A11DB11D2093B0058093A8
:100970006D0290936E02A0936F02B093700280910B
:10098000AC059091AD05A091AE05B091AF05019673
:10099000A11DB11D8093AC059093AD05A093AE054C
:1009A000B093AF05BF91AF919F918F913F912F91E0
:1009B0000F900FBE0F901F9018951F920F920FB6B9
:1009C0000F9211242F938F939F93EF93FF93809116
:1009D0006F008B7F80936F00809181008F7B80936D
:1009E00081008091670220915B05205890915A0503
:1009F000893020F49695922B8F5FFACF90935A0509
:100A0000809166028F5F803508F080E0209165025A
:100A1000821739F0E82FF0E0E45AFA4F9083809380
:100A2000660210926702809181008F7B8093810023
:100A300010925B05FF91EF919F918F912F910F90F5
:100A40000FBE0F901F9018951F920F920FB60F9226
:100A500011242F933F934F935F936F937F938F93C3
:100A60009F93AF93BF93EF93FF93809186009091F4
:100A7000870040915B0520918100442331F02F7B5A
:100A80002093810010925B0506C0206420938100B2
:100A900020E820935B0530916702311125C0411198
:100AA0006CC02091680230916902280F391F309381
:100AB0008B0020938A0024E026BB20916F002460E5
:100AC00020936F0020916A0230916B02820F931F76
:100AD00036952795820F931F90935905809358055B
:100AE00081E08093670249C04091580550915905B3
:100AF00060916A0270916B02DB01A095B095E09164
:100B00005B0520915A05841B950BA817B90768F15E
:100B100026952E2B460F571F3F5F861B970B3930AC
:100B2000A0F320935A0580916F008B7F80936F0014
:100B3000809166028F5F803508F080E090916502B9
:100B4000891749F0E82FF0E090915A05E45AFA4FDE
:100B5000908380936602809181008F7B80938100D7
:100B600010925B051092670208C020935A055093BB
:100B700059054093580530936702FF91EF91BF915B
:100B8000AF919F918F917F916F915F914F913F9125
:100B90002F910F900FBE0F901F9018951F920F92DC
:100BA0000FB60F9211242F933F934F935F936F9340
:100BB0007F938F939F93EF93FF9380916402609153
:100BC0005705209188003091890040916A02509128
:100BD0006B02909156058A30F8F4240F351F893046
:100BE00019F0762F717001C071E066958F5F7917EB
:100BF00091F390918000772311F0906C02C09F7365
:100C000090689093800030938900209388007093BF
:100C10005605609357054AC090916302E0916202C5
:100C20009E1319C08A3051F48BE080936402240F24
:100C3000351F30938900209388003AC010926402D7
:100C4000809180008F738093800080916F008D7FF2
:100C500080936F002DC0EF5FE43408F0E0E0E09394
:100C60006202F0E0EE5EFA4F908190935705109289
:100C70005605909180009F739068909380008A3011
:100C800059F480916A0290916B02280F391F3093BA
:100C900089002093880009C080918400909185008C
:100CA0004096909389008093880081E0809364024D
:100CB000FF91EF919F918F917F916F915F914F91F4
:100CC0003F912F910F900FBE0F901F9018952F926C
:100CD0003F924F925F926F927F928F929F92AF92CC
:100CE000BF92CF92DF92EF92FF920F931F93CF9319
:100CF000DF93CDB7DEB7C657D1090FB6F894DEBF84
:100D00000FBECDBFEE24E394F12C52E0252E312C02
:100D1000CC24CA94DC2C89E493E00E94E7021816E4
:100D200019060CF0C9C189E493E00E9409033C0153
:100D3000082F10928804E0918B04F0918C04EA3023
:100D4000F10508F0D5C0EC5CFF4F0C946E158E3F9A
:100D500009F0CEC030928C0420928B04109297043C
:100D600080939604A3C0863630F0809189048F5F0B
:100D700080938904A0C08093970410928D0464E945
:100D800074E00E945D0334E0832E912C2DC080938B
:100D9000980464E974E00E945D0323E0A22EB12C64
:100DA0002BC08093990464E974E00E945D0325E000
:100DB00030E03DC080939A0464E974E00E945D03D2
:100DC00086E090E090938C0480938B0491C0809394
:100DD0009B0464E974E00E945D0380919704811193
:100DE00008C098E0892E912C90928C0480928B04FC
:100DF0007FC087E0A82EB12CB0928C04A0928B0407
:100E000077C0E0918D04772473947E0E70928D04E8
:100E1000F0E0E456FB4F608264E974E0862D0E94A6
:100E20005D0380919704781263C028E030E030932E
:100E30008C0420938B045CC0E0919B04F0E0EF599C
:100E4000FE4F64E974E080810E945D038091940408
:100E50009091950499279301332728173907F1F4C6
:100E600089E090E090938C0480938B04E0918D0452
:100E7000F0E0E456FB4F60823BC090919504E6960B
:100E80009FAFE697E7961FAEE797C3019927E796CE
:100E90008EAC9FACE7978815990591F00E3F59F4F9
:100EA00030928C0420928B0410929704D092950477
:100EB000C09294041DC0F0928C04E0928B0418C080
:100EC00081E080938804F0928C04E0928B04E0919E
:100ED0008D04F0E0E356FB4F608280E7E4E9F4E044
:100EE000DE01119601900D928A95E1F710919B0415
:100EF00020918804213099F48091980480938E0485
:100F00008091900490919104009721F410929304A1
:100F10001092920401969093910480939004109201
:100F20008A04222309F4F7CE113209F468C070F460
:100F3000113029F108F494C0183109F0ECCE8EA1DB
:100F40009DA19093A00280939702E5CE1A3449F1B7
:100F5000183A09F498C0133209F0DDCE2E8D30E036
:100F6000AFEFB3E00E9431132FEF30E040E050E0EC
:100F70000E94B9123093820220938102CCCE298D37
:100F80003A8D4FA18F89988D64E670E00E945A15C2
:100F90006093A102409311053093800220937F0259
:100FA000BACE4D855E856F8578898D899E89AF899A
:100FB000B88D298D3A8DEB8D49845A846B847C845D
:100FC00040920D0550920E0560920F05709210052B
:100FD00040937702509378026093790270937A027B
:100FE0003093760220937502E0930C058093710292
:100FF00090937202A0937302B09374028CCE4D84CE
:101000005E846F84788849895A896B897C898D8947
:101010009E89AF89B88D898C9A8CAB8CBC8C809260
:101020007B0290927C02A0927D02B0927E0240925E
:101030009C0250929D0260929E0270929F02409389
:1010400098025093990260939A0270939B02809346
:10105000930290939402A0939502B09396025BCE74
:1010600089859A85AB85BC8528893F8530936C023C
:10107000209392028093430390934403A0934503EB
:10108000B093460348CE8D859E85AF85B889498546
:101090005A856B857C8540930805509309056093BC
:1010A0000A0570930B058093040590930505A093A2
:1010B0000605B09307052FCECA58DF4F0FB6F89438
:1010C000DEBF0FBECDBFDF91CF911F910F91FF907B
:1010D000EF90DF90CF90BF90AF909F908F907F90D8
:1010E0006F905F904F903F902F900895FC019FE08C
:1010F000A3E8B2E001900D929A95E1F70895CF939D
:10110000DF93CDB7DEB72F970FB6F894DEBF0FBED3
:10111000CDBF80914303909144032FE0289FB001FD
:10112000299F700D112466507F4FCE0101960E94B9
:101130004511CE0101960E9476082F960FB6F894BD
:10114000DEBF0FBECDBFDF91CF910895E2EAF2E09E
:101150001382128288EE93E0A0E0B0E0848395834E
:10116000A683B78321E431E03183208325EC30E08E
:101170003587248724EC30E03787268720EC30E061
:10118000318B208B21EC30E0338B228B22EC30E052
:10119000358B248B26EC30E0378B268B118E128E0C
:1011A000138E148EE9E4F3E0138212828483958314
:1011B000A683B78383E591E09183808380910801C2
:1011C00090910901909348038093470380914303D2
:1011D00090914403A0914503B091460380933F034F
:1011E00090934003A0934103B09342030895CF939B
:1011F000DF93CDB7DEB76D970FB6F894DEBF0FBEA5
:10120000CDBF789484B5826084BD84B5816084BD8F
:1012100085B5826085BD85B5816085BD80916E0094
:10122000816080936E0010928100809181008260C5
:101230008093810080918100816080938100809102
:1012400080008160809380008091B10084608093F1
:10125000B1008091B00081608093B00080917A00ED
:10126000846080937A0080917A00826080937A0013
:1012700080917A00816080937A0080917A00806802
:1012800080937A001092C100E091B202F091B30213
:1012900082E08083E091AE02F091AF021082E09193
:1012A000B002F091B10280E180831092BA02E09125
:1012B000B602F091B70286E08083E091B402F0912B
:1012C000B502808180618083E091B402F091B50223
:1012D000808188608083E091B402F091B5028081C2
:1012E00080688083E091B402F091B50280818F7DA7
:1012F000808382EA92E0909383048093820484EF57
:1013000091E0A0E0B0E08093840490938504A093E2
:101310008604B093870410926F001092800081E8D9
:101320008093810086E191E090936B0280936A0242
:101330008BE09AE09093690280936802EEEEF0E011
:101340002491EAEDF0E084918823C9F090E0880FC1
:10135000991FFC01E853FF4F45915491FC01E25461
:10136000FF4FA591B4919FB7F894FA013081822F75
:10137000809583238083EC91E22BEC939FBFE3EB7A
:10138000F0E034914FEE50E0FA0164918BED90E083
:10139000FC0124912223B9F1332339F1333091F048
:1013A00038F43130A9F0323001F534B53F7D12C048
:1013B000373091F03830A1F03430B9F430918000FA
:1013C0003F7D03C0309180003F77309380000DC097
:1013D00034B53F7734BD09C03091B0003F7703C0CA
:1013E0003091B0003F7D3093B00030E0220F331FCA
:1013F00022543F4FF901A591B4912FB7F8943C9135
:10140000632B6C932FBFFA014491FC0184918823D4
:1014100099F090E0880F991FFC01E853FF4FA591C8
:10142000B491FC01E254FF4F859194918FB7F894E9
:101430009C91492B4C938FBF1092670210926602C9
:10144000109265021092640210926302109262027E
:1014500080E286BB80936F0080E5282E84E1382EE1
:1014600002E010E09E01255F3F4F3F8B2E8BAE01C7
:10147000465F5F4F598F488F0E9467062FB7F894D9
:1014800080916D0290916E02A0916F02B0917002F6
:101490002FBF40917E0450917F0460918004709131
:1014A00081046C017D01C41AD50AE60AF70AB70166
:1014B000A601443651056105710508F4DAC480932C
:1014C0007E0490937F04A0938004B0938104809164
:1014D000750490917604A0917704B09178040097F8
:1014E000A105B10509F49AC080907104909072042E
:1014F000A0907304B090740481149104A104B10409
:1015000009F48CC0C0909C02D0909D02E0909E0295
:10151000F0909F02BC01CD016C197D098E099F09D5
:101520000E949C116B017C0180919802909199021C
:10153000A0919A02B0919B02A5019401281B390B3E
:101540004A0B5B0BCA01B9010E949C112091030157
:101550003091040140910501509106010E94FB1158
:101560004B015C01A7019601C701B6010E94FB1166
:101570002B013C01A5019401C501B4010E94FB119E
:101580009B01AC01C301B2010E9441130E940115ED
:101590002CE23DE74EE85FE30E94FB110E949814A5
:1015A0002B013C01C701B6019058A50194010E948E
:1015B000C01320EA3CE043EB55E40E94FB1120E01D
:1015C00030EA4CE056E40E9441130E9491146B01F2
:1015D0007C0197FF06C030EAC30E3CE8D31EE11C35
:1015E000F11CC301B20124E630E040E050E00E946B
:1015F0000F1320931A0430931B0440931C04509340
:101600001D04C701B60124E630E040E050E00E942E
:10161000B91230931404209313040CC010921A04CE
:1016200010921B0410921C0410921D0410921404BA
:101630001092130420916C0280915A0490915B04E3
:10164000A0915C04B0915D0427FF02C0816001C0DD
:101650008E7F80935A0490935B04A0935C04B093B4
:101660005D044091430350914403609145037091A0
:10167000460380915A0490915B04A0915C04B09160
:101680005D04423051056105710511F4826001C0AD
:101690008D7F80935A0490935B04A0935C04B09375
:1016A0005D0420919202255080915A0490915B0430
:1016B000A0915C04B0915D04223010F4806101C0FF
:1016C0008F7E80935A0490935B04A0935C04B09344
:1016D0005D0480915A0490915B04A0915C04B091E8
:1016E0005D044B3051056105710511F4806201C044
:1016F0008F7D80935A0490935B04A0935C04B09315
:101700005D0460917F0270918002072E000C880BAF
:10171000990B0E949C1120E030E040E251E40E94CD
:10172000FB116B017C012FB7F89460916D027091F1
:101730006E0280916F02909170022FBF0E949A11E9
:101740002091590330915A0340915B0350915C03FF
:101750000E9440139B01AC01C701B6010E94FB111E
:1017600020E03AEB4BE55AE40E941F142091550308
:101770003091560340915703509158030E944113F2
:1017800060935503709356038093570390935803C7
:101790000E94981470933C0460933B042FB7F89414
:1017A00060916D0270916E0280916F029091700253
:1017B0002FBF0E949A116093590370935A0380932C
:1017C0005B0390935C0360917A0470917B04809139
:1017D0007C0490917D0424E833E040E050E00E94D6
:1017E0000F1320910701672B682B692BD1F421304F
:1017F000C1F48091470390914803813D9740D8F010
:10180000809108019091090120910001309101011E
:101810003093090120930801909301018093000106
:101820000AC0211108C0809147039091480390930A
:101830000901809308018FE0E3E8F2E0AEE5B4E04F
:1018400001900D928A95E1F74FE06EE574E08AE031
:101850000E945D0180915A0490915B04A0915C0408
:10186000B0915D0480934A0490934B04A0934C0480
:10187000B0934D0446E164E474E085E60E945D01A6
:101880008091A10280933D04809181029091820217
:10189000909341048093400480917F029091800254
:1018A000909343048093420480913B0490913C04C4
:1018B00090933F0480933E0447E06DE374E08EE62E
:1018C0000E945D0180917F02909180029093370485
:1018D000809336048091A1025AE0859FC0011124B3
:1018E00090933A048093390480913B0490913C0496
:1018F000909335048093340480917904809330046C
:1019000030923204209231041092380460917A04AB
:1019100070917B0480917C0490917D0420E931E0FA
:1019200040E050E00E940F13672B682B692B09F0F1
:10193000BEC080910201882309F4B3C0198A188AB5
:101940001B8A1A8A1D8A1C8A60E070E0CE014096CC
:101950000E948503811105C0CE0140960E94AC0310
:1019600008C01D8A1C8A61E672E0888999890E94F4
:101970007917609198027091990280919A029091E2
:101980009B0297FF07C090958095709561957F4F5A
:101990008F4F9F4F2AE030E040E050E00E94B912A4
:1019A00069017A0160919C0270919D0280919E0272
:1019B00090919F0297FF07C09095809570956195D3
:1019C0007F4F8F4F9F4F2AE030E040E050E00E9471
:1019D000B9121A8219821C821B821E821D82BE01CC
:1019E000605F7F4FCE0101962A8F3B8F4C8F5D8FBA
:1019F0000E9411042A8D3B8D4C8D5D8DBA01A90189
:101A0000CE0101960E94BE03B701A6010E94BE034B
:101A1000BC01CE0140960E94110489819A810E94E6
:101A2000091690900201A92CB12CF5013197CC88B0
:101A3000DD88E888F988EC15FD0518F4E114F10457
:101A400029F410925D03EDE5F3E002C0EE0DFF1DF9
:101A500080818983AC14BD0418F4E114F10429F4E5
:101A600010925D03EDE5F3E003C0F701EA0DFB1D05
:101A700080818A83CE0101960E94271180933304CE
:101A800082E0C81AD108CA14DB0428F09394939416
:101A90009092020102C010920201C7010E94091631
:101AA00006C08FEF8093330481E0809302014BE006
:101AB00060E374E082E80E945D0180919C02909155
:101AC0009D02A0919E02B0919F028093200490936A
:101AD0002104A0932204B093230480919802909152
:101AE0009902A0919A02B0919B0280932404909352
:101AF0002504A0932604B093270480919702809335
:101B00001F0460917B0270917C0280917D02909114
:101B10007E022AE030E040E050E00E94B9123093AB
:101B200029042093280420E030E048EC52E460913E
:101B30007702709178028091790290917A020E94E6
:101B4000FB110E94911470932B0460932A0442E1CC
:101B50006EE174E08AE60E945D0180911A04909122
:101B60001B049093160480931504809113049091A4
:101B700014042091750230917602821B930B90938E
:101B800018048093170445E065E174E08BE60E9439
:101B90005D011092100410920F0410920E04109226
:101BA0000D0446E06DE074E08CE60E945D016091FA
:101BB0007B0270917C0280917D0290917E022AE0EE
:101BC00030E040E050E00E94B912209303043093CB
:101BD0000404409305045093060420E030E048ECF0
:101BE00052E460917102709172028091730290913F
:101BF00074020E94FB110E94911470930804609378
:101C000007044AE063E074E08DE60E945D0181E034
:101C10008093600398E39093650398E19093DA03CF
:101C20001093F4030093F30390E19093FB038093EC
:101C30000004809301041092020483E898E09093DA
:101C40006903809368038AEE90E090936B0380931E
:101C50006A0390936D0380936C0390936F0380935A
:101C60006E0390937103809370039093730380933A
:101C7000720390937503809374039093770380931A
:101C800076032FEE39E03093790320937803909315
:101C90007B0380937A0390937D0380937C0326E3F8
:101CA00038E030937F0320937E0328E538E03093BB
:101CB0008103209380032AE539E030938303209346
:101CC000820320910801309109013093850320930C
:101CD000840327E939E030938703209386039093A8
:101CE00089038093880390938B0380938A03909356
:101CF0008D0380938C0390938F0380938E03909336
:101D0000910380939003909393038093920328E12F
:101D100038E0309395032093940321E438E0309326
:101D200097032093960321E238E0309399032093A0
:101D3000980390939B0380939A0390939D038093C1
:101D40009C0390939F0380939E039093A1038093A1
:101D5000A0039093A3038093A2032FE238E0309373
:101D6000A5032093A4032AE739E03093A703209327
:101D7000A6039093A9038093A80324EE39E030933F
:101D8000AB032093AA039093AD038093AC0390938D
:101D9000AF038093AE039093B1038093B00390930D
:101DA000B3038093B2039093B5038093B4039093ED
:101DB000B7038093B6039093B9038093B8039093CD
:101DC000BB038093BA039093BD038093BC039093AD
:101DD000BF038093BE039093C1038093C00390938D
:101DE000C3038093C2039093C5038093C40390936D
:101DF000C7038093C6039093C9038093C80390934D
:101E0000CB038093CA039093CD038093CC0390932C
:101E1000CF038093CE039093D1038093D00390930C
:101E2000D3038093D2039093D5038093D4039093EC
:101E3000D7038093D6039093D9038093D80345EAC0
:101E40006EE573E084E50E945D0180917A049091D3
:101E50007B04A0917C04B0917D048C599F4FAF4FBF
:101E6000BF4F80937A0490937B04A0937C04B0933B
:101E70007D048091430390914403A0914503B09168
:101E8000460340913F03509140036091410370919C
:101E9000420384179507A607B70751F080933F03C5
:101EA00090934003A0934103B09342030E947F08A4
:101EB0008091790481111DC08091A1028823C9F00D
:101EC0008B3210F481E013C0853510F482E00FC02E
:101ED0008F3710F483E00BC0893A10F484E007C018
:101EE000833D10F485E003C08F3F19F086E08093B6
:101EF00079042091920260917A0470917B04809120
:101F00007C0490917D042530C1F420E233E040E070
:101F100050E00E940F13672B682B692B09F045C016
:101F200089E0E0E1F1E0DE01119601900D928A95E1
:101F3000E1F786E0E88DF98D18C02630D1F420E273
:101F400033E040E050E00E940F13672B682B692BB1
:101F500061F58AE0EFE1F1E0DE01119601900D926A
:101F60008A95E1F785E0EE89FF8911928A95E9F774
:101F700018C02230D1F420E233E040E050E00E946B
:101F80000F13672B682B692B81F48CE0EEE2F1E0F4
:101F9000DE01119601900D928A95E1F71D861E864D
:101FA0001F86CE0101960E94760860917A04709196
:101FB0007B0480917C0490917D0420E137E240E035
:101FC00050E00E940F13672B682B692B11F40E94BD
:101FD0007F088091A002833008F418C18091070126
:101FE000813009F013C160919C0270919D02809133
:101FF0009E0290919F02611571058105910509F47A
:1020000005C1C0909802D0909902E0909A02F09099
:102010009B02C114D104E104F10409F4F7C020913A
:102020009702263008F4F2C060937504709376042A
:102030008093770490937804C0927104D0927204D4
:10204000E0927304F0927404C0909302D0909402D2
:10205000E0909502F0909602C0926D04D0926E04CA
:10206000E0926F04F09270040E949C119F7720E828
:1020700036E948E15BE40E941F1425E33AEF4EE89D
:102080005CE30E94FB112BED3FE049EC5FE30E9413
:1020900041136B017C010E949114DC01CB018096FD
:1020A000A11DB11D81349105A105B10508F0A1C0A4
:1020B0002BED3FE049E450E4C701B6010E94EE1465
:1020C00018165CF42BED3FE049EC50E4C701B60173
:1020D0000E9440136B017C01EBCF2BED3FE049E404
:1020E00050ECC701B6010E94951187FF0BC02BED84
:1020F0003FE049EC50E4C701B6010E9441136B0177
:102100007C01EBCF2BED3FE049EC5FE3C701B6016B
:102110000E94EE1418167CF42BED3FE049EC5FE3CF
:10212000C701B6010E9440139B01AC016BED7FE03B
:1021300089EC9FE318C02BED3FE049EC5FEBC70152
:10214000B6010E94951187FF12C02BED3FE049ECCC
:102150005FE3C701B6010E9441139B01AC016BED27
:102160007FE089EC9FEB0E9440136B017C01A7018B
:102170009601C701B6010E94FB114B015C019B0156
:10218000AC01C701B6010E94FB112B013C0120E00C
:1021900030E0A901C501B4010E94FB1122E937EE2C
:1021A00041E459E30E9440139B01AC01C501B40115
:1021B0000E94FB1127E930E348E05CE30E944113F1
:1021C0009B01AC01C501B4010E94FB1125E138EA75
:1021D0004AE25EE30E9440139B01AC01C301B201DD
:1021E0000E94FB119B01AC01C701B6010E94411383
:1021F00003C060E070E0CB016093030170930401C1
:102200008093050190930601109207010E94CE026F
:1022100033C983E591E090934A0380934903809109
:102220006F008B7F80936F0080916F008F7D809314
:102230006F00809165028093660280916402811133
:10224000FCCF80916F008D7F80936F000895FC011B
:1022500088279927E89421912032E9F3293010F05A
:102260002E30C8F32B3241F02D3239F4689404C07B
:102270000E945B11820F911D219120532A30C0F3DF
:102280001EF4909581959F4F0895FB01DC01059008
:102290000D920020E1F70895BB272A3051F49923CD
:1022A00042F4BDE290958095709561957F4F8F4F78
:1022B0009F4F0C9464117AE0979F902D879F802DFB
:1022C000910D11240895BB27FA01A62F62177105FD
:1022D00081059105330B30FB66F0AA27660F771F47
:1022E000881F991FAA1FA21710F0A21B63953850D0
:1022F000A9F7A05DAA3308F0A95DA19336F7B11143
:10230000B1931082CA010C948511DC01FC01672F86
:1023100071917723E1F7329704C07C916D937083BC
:102320006291AE17BF07C8F308950E94D71108F451
:1023300081E00895E89409C097FB3EF4909580955C
:10234000709561957F4F8F4F9F4F9923A9F0F92F7B
:1023500096E9BB279395F695879577956795B795F9
:10236000F111F8CFFAF4BB0F11F460FF1BC06F5FDF
:102370007F4F8F4F9F4F16C0882311F096E911C0F1
:10238000772321F09EE8872F762F05C0662371F012
:1023900096E8862F70E060E02AF09A95660F771F26
:1023A000881FDAF7880F9695879597F90895990F02
:1023B0000008550FAA0BE0E8FEEF16161706E8070F
:1023C000F907C0F012161306E407F50798F0621B30
:1023D000730B840B950B39F40A2661F0232B242B05
:1023E000252B21F408950A2609F4A140A6958FEF24
:1023F000811D811D08950E940E120C947F120E946F
:10240000711238F00E94781220F0952311F00C948C
:1024100068120C946E1211240C94B3120E94901244
:1024200070F3959FC1F3950F50E0551F629FF00127
:10243000729FBB27F00DB11D639FAA27F00DB11D40
:10244000AA1F649F6627B00DA11D661F829F2227C9
:10245000B00DA11D621F739FB00DA11D621F839F50
:10246000A00D611D221F749F3327A00D611D231F26
:10247000849F600D211D822F762F6A2F11249F5774
:1024800050409AF0F1F088234AF0EE0FFF1FBB1F77
:10249000661F771F881F91505040A9F79E3F510536
:1024A00080F00C9468120C94B3125F3FE4F3983EF2
:1024B000D4F3869577956795B795F795E7959F5FE0
:1024C000C1F7FE2B880F911D9695879597F9089572
:1024D00097F99F6780E870E060E008959FEF80ECD7
:1024E000089500240A94161617061806090608957A
:1024F00000240A9412161306140605060895092EE0
:102500000394000C11F4882352F0BB0F40F4BF2B4E
:1025100011F460FF04C06F5F7F4F8F4F9F4F08958E
:1025200057FD9058440F551F59F05F3F71F0479584
:10253000880F97FB991F61F09F3F79F08795089569
:10254000121613061406551FF2CF4695F1DF08C088
:10255000161617061806991FF1CF869571056105A5
:1025600008940895E894BB2766277727CB0197F94D
:102570000895052E97FB1EF400940E94D01257FD7B
:1025800007D00E940F1307FC03D04EF40C94D01216
:1025900050954095309521953F4F4F4F5F4F08958F
:1025A00090958095709561957F4F8F4F9F4F0895BF
:1025B0002F923F924F925F926F927F928F929F9253
:1025C000AF92BF92CF92DF92EF92FF920F931F9341
:1025D000CF93DF93CDB7DEB7CA1BDB0B0FB6F894F2
:1025E000DEBF0FBECDBF09942A88398848885F8432
:1025F0006E847D848C849B84AA84B984C884DF80A3
:10260000EE80FD800C811B81AA81B981CE0FD11D86
:102610000FB6F894DEBF0FBECDBFED010895A1E265
:102620001A2EAA1BBB1BFD010DC0AA1FBB1FEE1F4C
:10263000FF1FA217B307E407F50720F0A21BB30B97
:10264000E40BF50B661F771F881F991F1A9469F713
:1026500060957095809590959B01AC01BD01CF016F
:102660000895A29FB001B39FC001A39F700D811D6B
:102670001124911DB29F700D811D1124911D08958B
:102680005058BB27AA270E9458130C947F120E940F
:10269000711238F00E94781220F039F49F3F19F43B
:1026A00026F40C946E120EF4E095E7FB0C9468127D
:1026B000E92F0E94901258F3BA1762077307840734
:1026C000950720F079F4A6F50C94B2120EF4E0957B
:1026D0000B2EBA2FA02D0B01B90190010C01CA01DC
:1026E000A0011124FF27591B99F0593F50F4503E87
:1026F00068F11A16F040A22F232F342F4427585F79
:10270000F3CF469537952795A795F0405395C9F790
:102710007EF41F16BA0B620B730B840BBAF0915048
:10272000A1F0FF0FBB1F661F771F881FC2F70EC0E7
:10273000BA0F621F731F841F48F4879577956795BA
:10274000B795F7959E3F08F0B0CF9395880F08F0A6
:102750009927EE0F9795879508950E94711260F062
:1027600080E891E009F49EEF0E94781228F040E89A
:1027700051E071F45EEF0CC00C946E120C94B21226
:10278000E92FE0780E94901240F3092E052AB1F358
:10279000261737074807590738F00E2E07F8E025A7
:1027A00069F0E025E0640AC0EF6307F8009407FAD7
:1027B000DB01B9019D01DC01CA01AD01EF930E946B
:1027C00036140E947F120E94F0135F91552339F056
:1027D0002BED3FE049E450FD49EC0C944113089582
:1027E000DF93DD27B92FBF7740E85FE316161706A2
:1027F00048075B0718F4D92F0E94F3149F938F9317
:102800007F936F930E944115ECE7F0E00E94C7149C
:102810000E947F122F913F914F915F910E940E1263
:10282000DD2351F09058A2EA2AED3FE049EC5FE346
:10283000D0785D270E945813DF910C947F120E947C
:1028400033140C947F120E94781258F00E94711277
:1028500040F029F45F3F29F00C94681251110C9458
:10286000B3120C946E120E94901268F39923B1F384
:10287000552391F3951B550BBB27AA2762177307A6
:10288000840738F09F5F5F4F220F331F441FAA1F3A
:10289000A9F335D00E2E3AF0E0E832D091505040F6
:1028A000E695001CCAF72BD0FE2F29D0660F771FA4
:1028B000881FBB1F261737074807AB07B0E809F08A
:1028C000BB0B802DBF01FF2793585F4F3AF09E3F0F
:1028D000510578F00C9468120C94B3125F3FE4F346
:1028E000983ED4F3869577956795B795F7959F5F52
:1028F000C9F7880F911D9695879597F90895E1E09E
:10290000660F771F881FBB1F621773078407BA07FC
:1029100020F0621B730B840BBA0BEE1F88F7E09557
:1029200008950E9498146894B1110C94B3120895FC
:102930000E94981288F09F5798F0B92F9927B751A5
:10294000B0F0E1F0660F771F881F991F1AF0BA9553
:10295000C9F714C0B13091F00E94B212B1E00895ED
:102960000C94B212672F782F8827B85F39F0B93FDF
:10297000CCF3869577956795B395D9F73EF4909506
:102980008095709561957F4F8F4F9F4F0895DF938E
:10299000CF931F930F93FF92EF92DF927B018C01F5
:1029A000689406C0DA2EEF010E940E12FE01E89430
:1029B000A5912591359145915591A6F3EF010E947E
:1029C0005813FE019701A801DA9469F7DF90EF90A0
:1029D000FF900F911F91CF91DF9108950E94D71121
:1029E00008F48FEF08959B01AC0160E070E080E88F
:1029F0009FE30C941F1419F416F40C946E120C94AB
:102A000045150E949812B8F39923C9F3B6F39F575E
:102A1000550B87FF0E9453150024A0E640EA900161
:102A200080585695979528F4805C660F771F881F0D
:102A300020F026173707480730F4621B730B840B0E
:102A4000202931294A2BA695179407942025312552
:102A50004A2758F7660F771F881F20F02617370779
:102A6000480730F4620B730B840B200D311D411DA0
:102A7000A09581F7B901842F9158880F9695879575
:102A800008959B01AC010C94FB119F3F31F09150D4
:102A900020F4879577956795B795880F911D969542
:102AA000879597F9089591505040660F771F881FBA
:102AB000D2F70895AA1BBB1B51E107C0AA1FBB1F79
:102AC000A617B70710F0A61BB70B881F991F5A95BA
:102AD000A9F780959095BC01CD010895EE0FFF1FD9
:102AE0000590F491E02D0994CF93DF938230910506
:102AF00010F482E090E0E091B305F091B40520E09D
:102B000030E0C0E0D0E0309711F1408151814817AA
:102B10005907C0F04817590761F4828193812097C3
:102B200019F09B838A832BC09093B4058093B305DF
:102B300026C02115310519F04217530718F49A01E0
:102B4000BE01DF01EF010280F381E02DDCCF211512
:102B5000310509F1281B390B2430310590F4129608
:102B60008D919C9113976115710521F0FB01938361
:102B7000828304C09093B4058093B305FD0132961F
:102B800044C0FD01E20FF31F81939193225031095C
:102B90002D933C933AC02091B1053091B205232B7F
:102BA00041F420910C0130910D013093B205209336
:102BB000B10520910A0130910B012115310541F435
:102BC0002DB73EB740910E0150910F01241B350BDC
:102BD000E091B105F091B205E217F307A0F42E1BC6
:102BE0003F0B2817390778F0AC014E5F5F4F241771
:102BF000350748F04E0F5F1F5093B2054093B10563
:102C00008193919302C0E0E0F0E0CF01DF91CF919A
:102C100008950F931F93CF93DF93009709F48CC00F
:102C2000FC013297138212820091B3051091B40512
:102C30000115110581F420813181820F931F2091AC
:102C4000B1053091B2052817390779F5F093B2052F
:102C5000E093B10571C0D80140E050E0AE17BF0766
:102C600050F412962D913C911397AD012115310529
:102C700009F1D901F3CF9D01DA0133832283608109
:102C80007181860F971F8217930769F4EC012881E1
:102C90003981260F371F2E5F3F4F318320838A8172
:102CA0009B8193838283452B29F4F093B405E093B1
:102CB000B30542C01396FC93EE931297ED01499130
:102CC00059919E01240F351FE217F30771F480819B
:102CD0009181840F951F029611969C938E93828109
:102CE000938113969C938E931297E0E0F0E0D801C5
:102CF00012968D919C911397009719F0F8018C0111
:102D0000F6CF8D919C9198012E5F3F4F820F931FBC
:102D10002091B1053091B2052817390769F4309731
:102D200029F41092B4051092B30502C013821282E6
:102D30001093B2050093B105DF91CF911F910F91D0
:102D40000895A0E0B0E0E7EAF6E10C94DC12EC01B3
:102D5000009721F4CB010E947415B8C0FC01E60F66
:102D6000F71F9C0122503109E217F30708F4ACC0A9
:102D7000D9010D911C91119706171707B0F0053076
:102D8000110508F49FC0C80104978617970708F437
:102D900099C002501109061B170B019311936D93F3
:102DA0007C93CF010E9409168DC05B01A01AB10A65
:102DB0004C01800E911EA091B305B091B40540E086
:102DC00050E0E12CF12C109709F44AC0A815B90580
:102DD000D1F56D907C901197630182E0C80ED11CF3
:102DE000CA14DB0480F1A3014A195B096A0182E07D
:102DF000C80ED11C1296BC9012971396AC91B5E0F8
:102E0000CB16D10440F0B282A38351834083D90111
:102E10006D937C930AC00E5F1F4FC301800F911FFB
:102E2000F90191838083EB2DFA2FE114F10431F045
:102E3000D7011396FC93EE93129744C0F093B40518
:102E4000E093B3053FC08D919C91119748175907A6
:102E500008F4AC017D0112960D90BC91A02DB3CF6A
:102E60008091B1059091B20588159905E1F4461756
:102E70005707C8F480910A0190910B01009741F423
:102E80008DB79EB740910E0150910F01841B950B99
:102E9000E817F907C8F4F093B205E093B105F9011A
:102EA000718360830FC0CB010E9474157C01009771
:102EB00059F0A801BE010E947017CE010E940916A8
:102EC000C70104C0CE0102C080E090E0CDB7DEB7FC
:102ED000EEE00C94F81281E090E0F8940C948017E6
:102EE000FB01DC0102C001900D9241505040D8F727
:102EF0000895FB01DC0101900D920020E1F7089597
:102F000011E0C2E3D1E004C0FE010E946E152196DB
:0A2F1000C333D107C9F7F894FFCFCF
:102F1A00EA00010000803F01A1090000B505800018
:102F2A004641494C53414645000000000000004517
:102F3A004D455247454E43590000000000004341A9
:102F4A004C4942524154494E4700000000000000DB
:102F5A00006502D201FD01AC022E020C0220020021
:102F6A000000002403D201D8021F03E7020903F676
:102F7A0002327C8900EDD968770000005900000010
:102F8A000000000000D69FDCA81817AA90437327F8
:102F9A00F6B968EDF4DED409FEE61C1C84DDE80B04
:102FAA00992927D6DF8D210F036418EFEE1EF0B79B
:102FBA00828200941500347C0000001400988F006F
:102FCA0000000000000000000000E7B73F360000E4
:102FDA000000000000AF669ED0380000000000002C
:102FEA0000000000000000000000000000000000D7
:102FFA0000000000000000000000000000000000C7
:10300A000000000000000086DBD0BC5416131586B1
:10301A00004E44BD7F6F15159001000000000000AE
:10302A000000000000000000000000000000000096
:10303A000000000000000000000000000000000086
:10304A000000000000000000000000000000000076
:10305A000000000000000000000000000000000066
:10306A0000000000000000000000CC31AA2C532E02
:02307A00000054
:00000001FF
