:100000000C94B0010C94D8010C94D8010C94D80134
:100010000C94D8010C94D8010C94D8010C94D801FC
:100020000C94D8010C94D8010C949F050C944906AB
:100030000C9458050C94D8010C94D8010C94D80158
:100040000C940E050C94D8010C94DC040C94B604AA
:100050000C94D8010C94D8010C94D8010C94D801BC
:100060000C94D8010C94D801220722072E074C07C4
:100070004207550762077C079707B807084AD73B2E
:100080003BCE016E84BCBFFDC12F3D6C74319ABD67
:1000900056833DDA3D00C77F11BED9E4BB4C3E918B
:1000A0006BAAAABE000000803F0000407A10F35AFD
:1000B00000A0724E18090010A5D4E80000E87648A8
:1000C000170000E40B54020000CA9A3B000000E154
:1000D000F505000080969800000040420F000000E7
:1000E000A08601000000102700000000E8030000C7
:1000F00000006400000000000A0000000000010091
:10010000000000002C76D888DC674F0823DFC1DFB1
:10011000AE59E1B1B796E5E3E453C63AE6519976B4
:1001200096E8E6C28426EB898C9B62ED407C6FFCEE
:10013000EFBC9C9F40F2BAA56FA5F490055A2AF730
:100140005C936B6CF9676DC11BFCE0E40D47FEF539
:1001500020E6B500D0ED902E0300943577050080A1
:10016000841E080000204E0A000000C80C33333300
:10017000330F986E12831141EF8D2114893BE655A0
:1001800016CFFEE6DB18D1844B381BF77C1D901D83
:10019000A4BBE424203284725E228100C9F124ECE5
:1001A000A1E53D270000000800020100000304074C
:1001B00000000000000000000000000025002800F2
:1001C0002B0000000000240027002A00040404047F
:1001D00004040404020202020202030303030303F1
:1001E00001020408102040800102040810200102CE
:1001F000040810204D414E55414C00000000000005
:10020000000000434952434C45000000000000003C
:10021000000053544142494C495A45000000000037
:1002200000545241494E494E470000000000000072
:100230004143524F00000000000000000000004653
:100240004C59204259205749524520410000464C04
:1002500059204259205749524520420000435255E7
:100260004953450000000000000000004155544F74
:1002700054554E4500000000000000000000000042
:10028000000000000000000000004155544F000035
:1002900000000000000000000052544C000000006C
:1002A00000000000000000004C4F4954455200007F
:1002B0000000000000000054414B454F464600003E
:1002C00000000000000041564F49445F4144534242
:1002D000000000000047554944454400000000006C
:1002E00000000000494E495449414C4953494E478A
:1002F0000000005153544142494C495A4500000006
:10030000000051484F564552000000000000000018
:1003100000514C4F495445520000000000000000BD
:10032000514C414E4400000000000000000000510C
:1003300052544C0000000000000000000000514139
:1003400055544F54554E45000000000000514143A4
:10035000524F00000000000000000000A1148314B0
:1003600011241FBECFEFD8E0DEBFCDBF12E0A0E06A
:10037000B1E0EEE0FCE302C005900D92AE38B107AB
:10038000D9F725E0AEE8B2E001C01D92A53EB20764
:10039000E1F711E0CFEAD1E004C02197FE010E940D
:1003A000D91BCE3AD107C9F70E94AC090C94FA1DAB
:1003B0000C940000CF92DF92EF92FF920F931F9365
:1003C000CF93DF936C017A018B01C0E0D0E0CE15B2
:1003D000DF0589F0D8016D918D01D601ED91FC9179
:1003E0000190F081E02DC6010995892B11F47E0161
:1003F00002C02196ECCFC701DF91CF911F910F91E1
:10040000FF90EF90DF90CF900895FC01538D448DC5
:10041000252F30E0842F90E0821B930B541710F0AF
:10042000CF96089501970895FC01918D828D9817BC
:1004300061F0828DDF01A80FB11D5D968C91928DC8
:100440009F5F9F73928F90E008958FEF9FEF0895C5
:10045000FC01918D828D981731F0828DE80FF11D8E
:10046000858D90E008958FEF9FEF0895FC01918DA9
:10047000228D892F90E0805C9F4F821B91098F73A2
:10048000992708958EE295E00E94360221E0892B9B
:1004900009F420E0822F0895FC01848DDF01A80F6C
:1004A000B11DA35ABF4F2C91848D90E001968F739C
:1004B0009927848FA689B7892C93A089B1898C91BB
:1004C00080648C93938D848D981306C00288F38981
:1004D000E02D80818F7D80830895EF92FF920F93AE
:1004E0001F93CF93DF93EC0181E0888F9B8D8C8DE0
:1004F000981305C0E889F989808185FD24C0F62E0E
:100500000B8D10E00F5F1F4F0F731127E02E8C8DA6
:10051000E8120CC00FB607FCFACFE889F989808190
:1005200085FFF5CFCE010E944C02F1CF8B8DFE01ED
:10053000E80FF11DE35AFF4FF0820B8FEA89FB8928
:100540008081806207C0EE89FF896083E889F9892C
:1005500080818064808381E090E0DF91CF911F9162
:100560000F91FF90EF900895CF93DF93EC01888D6A
:100570008823C9F0EA89FB89808185FD05C0A889A7
:10058000B9898C9186FD0FC00FB607FCF5CF80812D
:1005900085FFF2CFA889B9898C9185FFEDCFCE0177
:1005A0000E944C02E7CFDF91CF91089580E090E068
:1005B000892B29F00E94420281110C9400000895B9
:1005C00040918F0250918E02852F90E0242F30E0D1
:1005D000451710F08C5B9F4F821B930B0895509131
:1005E000920240919102852F90E0242F30E0541721
:1005F00010F4805B9F4F821B930B089580919202B1
:10060000E09191028E1751F0EF5FE03508F0E0E0E5
:10061000F0E0ED52FB4F808190E008958FEF9FEF67
:1006200008958091920290919102891769F09F5FDD
:10063000903508F090E0E92FF0E0ED52FB4F80811B
:100640009093910290E008958FEF9FEF089580912D
:1006500090028111FCCF089580918F028F5F8434C6
:1006600008F080E090918E029817E1F32FB7F8948C
:1006700090919002992341F0E82FF0E0E757FB4F6B
:10068000608380938F021DC081E08093900260930D
:10069000CE041092CD0482E086BB80916F00826010
:1006A00080936F00809180008F73806880938000BA
:1006B000809184009091850040969093890080936A
:1006C00088002FBF81E090E00895FB012081822700
:1006D00090E1899F900111242827822F90E0582FC4
:1006E00044279C0163E0220F331F6A95E1F74227FC
:1006F0005327218130E02427352774E0959587958D
:100700007A95E1F78227932791838083089508954E
:1007100080E090E008950E94D61D0F931F93CF9321
:10072000DF93EC0188819981009729F02A813B8130
:100730002617370788F48B016F5F7F4F0E940C1DCF
:10074000009761F0998388831B830A832C813D8104
:10075000232B11F4FC01108281E001C080E0DF91C5
:10076000CF911F910F910895EF92FF920F931F93D6
:10077000CF93DF93FC01248135816115710511F45C
:1007800080E019C041155105A9F07B01EC018A01F7
:10079000020F131FB8010E948D03882389F328815B
:1007A00039818C819D81B701820F931F0E94E41DC6
:1007B0001D830C8381E0DF91CF911F910F91FF90FA
:1007C000EF900895CF93DF93EC0188819981009792
:1007D00011F00E94741C198218821D821C821B82D7
:1007E0001A82DF91CF910895EF92FF920F931F939A
:1007F000CF93DF93CDB7DEB72E970FB6F894DEBF59
:100800000FBECDBF7C01CB01BA012AE08E010F5F84
:100810001F4FA8010E943715F80101900020E9F749
:100820003197AF01401B510BB801C7010E94B403BF
:10083000811103C0C7010E94E203C7012E960FB6C3
:10084000F894DEBF0FBECDBFDF91CF911F910F9106
:10085000FF90EF900895CF93DF93EC016115710540
:1008600061F0FB0101900020E9F73197AF01461BD1
:10087000570B0E94B403811103C0CE010E94E20312
:10088000CE01DF91CF910895EF92FF920F931F93C6
:10089000CF93DF93EC017B018A01BA010E948D03A3
:1008A000811104C0CE010E94E20307C01D830C83A6
:1008B000B701888199810E94E41DCE01DF91CF911B
:1008C0001F910F91FF90EF900895CF93DF93EC016C
:1008D0006115710559F0FB0101900020E9F731978E
:1008E000AF01461B570B0E94440402C00E94E20362
:1008F000CE01DF91CF910895CF93DF93EC01FB01FF
:100900008617970761F0608171816115710529F083
:10091000448155810E94440402C00E94E203CE013A
:10092000DF91CF910895FC01808191810C94741C1A
:10093000FC011182108213821282158214820C949F
:100940007C04FC01118210821382128215821482AF
:100950006115710551F0FB0101900020E9F7319715
:10096000AF01461B570B0C94440408951F920F923D
:100970000FB60F9211242F933F934F935F936F9372
:100980007F938F939F93AF93BF93EF93FF938EE2E9
:1009900095E00E944C02FF91EF91BF91AF919F9122
:1009A0008F917F916F915F914F913F912F910F9018
:1009B0000FBE0F901F9018951F920F920FB60F92B7
:1009C00011242F938F939F93EF93FF93E0913E0514
:1009D000F0913F058081E0914405F091450582FD4D
:1009E00012C09081809147058F5F8F7320914805D9
:1009F000821751F0E0914705F0E0E25DFA4F958FE4
:100A00008093470501C08081FF91EF919F918F9165
:100A10002F910F900FBE0F901F9018951F920F925D
:100A20000FB60F9211242F933F938F939F93AF9301
:100A3000BF938091990290919A02A0919B02B091EC
:100A40009C023091270523E0230F2D3720F40196D7
:100A5000A11DB11D05C026E8230F0296A11DB11DE1
:100A6000209327058093990290939A02A0939B026A
:100A7000B0939C028091230590912405A0912505B7
:100A8000B09126050196A11DB11D80932305909379
:100A90002405A0932505B0932605BF91AF919F91A2
:100AA0008F913F912F910F900FBE0F901F9018952F
:100AB0001F920F920FB60F9211242F938F939F9333
:100AC000EF93FF9380916F008B7F80936F008091F5
:100AD00081008F7B80938100809193022091D204CA
:100AE00020589091D104893020F49695922B8F5FF5
:100AF000FACF9093D104809192028F5F803508F0F5
:100B000080E020919102821739F0E82FF0E0ED5259
:100B1000FB4F908380939202109293028091810008
:100B20008F7B809381001092D204FF91EF919F916F
:100B30008F912F910F900FBE0F901F9018951F92BD
:100B40000F920FB60F9211242F933F934F935F9301
:100B50006F937F938F939F93AF93BF93EF93FF9385
:100B600080918600909187004091D204209181006D
:100B7000442331F02F7B209381001092D20406C0D1
:100B800020642093810020E82093D20430919302C6
:100B9000311125C041116CC0209194023091950211
:100BA000280F391F30938B0020938A0024E026BB46
:100BB00020916F00246020936F0020919602309165
:100BC0009702820F931F36952795820F931F90935C
:100BD000D0048093CF0481E08093930249C0409178
:100BE000CF045091D0046091960270919702DB017E
:100BF000A095B095E091D2042091D104841B950B6F
:100C0000A817B90768F126952E2B460F571F3F5F8F
:100C1000861B970B3930A0F32093D10480916F008D
:100C20008B7F80936F00809192028F5F803508F0F8
:100C300080E090919102891749F0E82FF0E09091BF
:100C4000D104ED52FB4F90838093920280918100FA
:100C50008F7B809381001092D2041092930208C07F
:100C60002093D1045093D0044093CF043093930247
:100C7000FF91EF91BF91AF919F918F917F916F9174
:100C80005F914F913F912F910F900FBE0F901F904A
:100C900018951F920F920FB60F9211242F933F9326
:100CA0004F935F936F937F938F939F93EF93FF93F4
:100CB000809190026091CE0420918800309189004B
:100CC00040919602509197029091CD048A30F8F4A9
:100CD000240F351F893019F0762F717001C071E033
:100CE00066958F5F791791F390918000772311F0CB
:100CF000906C02C09F73906890938000309389003D
:100D0000209388007093CD046093CE044AC09091E4
:100D10008F02E0918E029E1319C08A3051F48BE04D
:100D200080939002240F351F309389002093880010
:100D30003AC010929002809180008F73809380005F
:100D400080916F008D7F80936F002DC0EF5FE43442
:100D500008F0E0E0E0938E02F0E0E757FB4F90816F
:100D60009093CE041092CD04909180009F73906870
:100D7000909380008A3059F4809196029091970266
:100D8000280F391F309389002093880009C0809173
:100D9000840090918500409690938900809388000C
:100DA00081E080939002FF91EF919F918F917F91CD
:100DB0006F915F914F913F912F910F900FBE0F90C8
:100DC0001F9018952F923F924F925F926F927F9251
:100DD0008F929F92AF92BF92CF92DF92EF92FF924B
:100DE0000F931F93CF93DF93CDB7DEB7C657D109CB
:100DF0000FB6F894DEBF0FBECDBFEE24E394F12C06
:100E000052E0252E312CCC24CA94DC2C85ED95E0C3
:100E10000E94EF02181619060CF0C9C185ED95E085
:100E20000E9411033C01082F10920704E0910A046C
:100E3000F0910B04EA30F10508F0D5C0EC5CFF4FEF
:100E40000C94D91B8E3F09F0CEC030920B04209237
:100E50000A041092160480931504A3C0863630F05D
:100E6000809108048F5F80930804A0C080931604CB
:100E700010920C0463E174E00E94650334E0832E59
:100E8000912C2DC08093170463E174E00E946503E8
:100E900023E0A22EB12C2BC08093180463E174E0F0
:100EA0000E94650325E030E03DC08093190463E1B2
:100EB00074E00E94650386E090E090930B048093B9
:100EC0000A0491C080931A0463E174E00E946503F0
:100ED00080911604811108C098E0892E912C90927F
:100EE0000B0480920A047FC087E0A82EB12CB09238
:100EF0000B04A0920A0477C0E0910C047724739449
:100F00007E0E70920C04F0E0E55EFB4F608263E1C0
:100F100074E0862D0E94650380911604781263C0E8
:100F200028E030E030930B0420930A045CC0E09189
:100F30001A04F0E0E35CFE4F63E174E080810E94FC
:100F4000650380911304909114049927930133272A
:100F500028173907F1F489E090E090930B0480930F
:100F60000A04E0910C04F0E0E55EFB4F60823BC0B8
:100F700090911404E6969FAFE697E7961FAEE79729
:100F8000C3019927E7968EAC9FACE7978815990522
:100F900091F00E3F59F430920B0420920A04109203
:100FA0001604D0921404C09213041DC0F0920B04D6
:100FB000E0920A0418C081E080930704F0920B04C9
:100FC000E0920A04E0910C04F0E0E45EFB4F6082E2
:100FD00080E7E3E1F4E0DE01119601900D928A953D
:100FE000E1F710911A0420910704213099F48091BF
:100FF000170480930D0480910F04909110040097C2
:1010000021F410921204109211040196909310048E
:1010100080930F0410920904222309F4F7CE1132B1
:1010200009F468C070F4113029F108F494C0183143
:1010300009F0ECCE8EA19DA19093D4028093CB02B7
:10104000E5CE1A3449F1183A09F498C0133209F080
:10105000DDCE2E8D30E0AFEFB3E00E949C192FEF74
:1010600030E040E050E00E9424193093A402209325
:10107000A302CCCE298D3A8D4FA18F89988D64E63D
:1010800070E00E94C51B6093D502409388043093A2
:10109000A2022093A102BACE4D855E856F85788924
:1010A0008D899E89AF89B88D298D3A8DEB8D4984C4
:1010B0005A846B847C8440928404509285046092AC
:1010C0008604709287044093B4025093B5026093F3
:1010D000B6027093B7023093C2022093C102E0932C
:1010E000830480939D0290939E02A0939F02B093ED
:1010F000A0028CCE4D845E846F84788849895A8999
:101100006B897C898D899E89AF89B88D898C9A8CF1
:10111000AB8CBC8C8092B8029092B902A092BA02B9
:10112000B092BB024092D0025092D1026092D202A1
:101130007092D3024093CC025093CD026093CE02C2
:101140007093CF028093C7029093C802A093C90204
:10115000B093CA025BCE89859A85AB85BC85288908
:101160003F85309398022093BC028093CF059093E3
:10117000D005A093D105B093D20548CE8D859E852C
:10118000AF85B88949855A856B857C854093C302B4
:101190005093C4026093C5027093C6028093BD024F
:1011A0009093BE02A093BF02B093C0022FCECA5844
:1011B000DF4F0FB6F894DEBF0FBECDBFDF91CF91EA
:1011C0001F910F91FF90EF90DF90CF90BF90AF9065
:1011D0009F908F907F906F905F904F903F902F9057
:1011E0000895FC019FE0A5EAB2E001900D929A9566
:1011F000E1F70895CF92DF92EF92FF92CF93DF93C2
:10120000CDB7DEB72F970FB6F894DEBF0FBECDBFB8
:101210006B017C012091CF053091D0054FE0429FBA
:10122000C001439F900D1124BC016C507E4FCE0134
:1012300001960E94301581E08093D602C092D702B9
:10124000D092D802E092D902F092DA02CE01019651
:101250000E94F1082F960FB6F894DEBF0FBECDBFE7
:10126000DF91CF91FF90EF90DF90CF900895CF92D4
:10127000DF92EF92FF920F931F93CF93DF931F9212
:10128000CDB7DEB7D82EF62EC42E809128059091CA
:101290002905DC01ED91FC910190F081E02D64E2E3
:1012A000798309958091280590912905DC01ED91BC
:1012B000FC910190F081E02D6DE409958091280565
:1012C00090912905DC01ED91FC910190F081E02DD8
:1012D0006CE309958091280590912905DC01ED9139
:1012E000FC910190F081E02D6C2D099580912805ED
:1012F00090912905DC01ED91FC910190F081E02DA8
:101300006D2D0995DC24EF2C0F2D7981172F8091FD
:10131000280590912905202F2E192C1560F4F8012D
:1013200061918F01D626DC01ED91FC910190F08155
:10133000E02D0995ECCFDC01ED91FC910190F0815D
:10134000E02D6D2D0F90DF91CF911F910F91FF90A8
:10135000EF90DF90CF900994CF93DF93CDB7DEB7B6
:10136000AA970FB6F894DEBF0FBECDBF789484B5B0
:10137000826084BD84B5816084BD85B5826085BD91
:1013800085B5816085BD80916E00816080936E001F
:101390001092810080918100826080938100809111
:1013A00081008160809381008091800081608093C2
:1013B00080008091B10084608093B1008091B00082
:1013C00081608093B00080917A00846080937A007D
:1013D00080917A00826080937A0080917A008160A7
:1013E00080937A0080917A00806880937A001092CE
:1013F000C100E0913E05F0913F0582E08083E091DD
:101400003A05F0913B051082E0913C05F0913D05D5
:1014100080E1808310924605E0914205F0914305FA
:1014200086E08083E0914005F091410580818061F4
:101430008083E0914005F091410580818860808340
:10144000E0914005F0914105808180688083E091C2
:101450004005F091410580818F7D80838EE295E08B
:10146000909329058093280584EF91E0A0E0B0E0F7
:1014700080932A0590932B05A0932C05B0932D05FE
:1014800010926F001092800081E88093810086E1C5
:1014900091E090939702809396028BE09AE090936C
:1014A000950280939402E8EEF1E02491E4EDF1E0FE
:1014B00084918823C9F090E0880F991FFC01EE53B6
:1014C000FE4F45915491FC01E854FE4FA591B49113
:1014D0009FB7F894FA013081822F8095832380830F
:1014E000EC91E22BEC939FBFEDEAF1E0349149EEF1
:1014F00051E0FA01649185ED91E0FC0124912223F1
:10150000B9F1332339F1333091F038F43130A9F0A7
:10151000323001F534B53F7D12C0373091F03830AC
:10152000A1F03430B9F4309180003F7D03C0309198
:1015300080003F77309380000DC034B53F7734BDD5
:1015400009C03091B0003F7703C03091B0003F7DBB
:101550003093B00030E0220F331F28543E4FF90182
:10156000A591B4912FB7F8943C91632B6C932FBF46
:10157000FA014491FC018491882399F090E0880F4E
:10158000991FFC01EE53FE4FA591B491FC01E85464
:10159000FE4F859194918FB7F8949C91492B4C9371
:1015A0008FBF1092930210929202109291021092A9
:1015B000900210928F0210928E0280E286BB80937E
:1015C0006F000E94E2062FB7F894809199029091E3
:1015D0009A02A0919B02B0919C022FBF40910304FC
:1015E0005091040460910504709106048C019D01E2
:1015F000041B150B260B370B04361105210531058D
:1016000008F4F2C58093030490930404A0930504A6
:10161000B09306048091FA039091FB03A091FC0320
:10162000B091FD030097A105B10509F49AC080901F
:10163000F6039090F703A090F803B090F90381149B
:101640009104A104B10409F48CC00091D00210915E
:10165000D1022091D2023091D302BC01CD01601B96
:10166000710B820B930B0E9407186B017C01809118
:10167000CC029091CD02A091CE02B091CF02A501F3
:101680009401281B390B4A0B5B0BCA01B9010E945C
:1016900007182091030130910401409105015091F8
:1016A00006010E9466184B015C01A7019601C70163
:1016B000B6010E9466182B013C01A5019401C501E9
:1016C000B4010E9466189B01AC01C301B2010E94E3
:1016D000AC190E946C1B2CE23DE74EE85FE30E94D0
:1016E00066180E94031B2B013C01C701B6019058EC
:1016F000A50194010E942B1A20EA3CE043EB55E43B
:101700000E94661820E030EA4CE056E40E94AC19D2
:101710000E94FC1A6B017C0197FF06C030EAC30EE1
:101720003CE8D31EE11CF11CC301B20124E630E009
:1017300040E050E00E947A192093990330939A0375
:1017400040939B0350939C03C701B60124E630E00D
:1017500040E050E00E9424193093ED032093EC0305
:101760000CC01092990310929A0310929B0310924E
:101770009C031092ED031092EC032091980280914B
:10178000D9039091DA03A091DB03B091DC0327FF2A
:1017900002C0816001C08E7F8093D9039093DA03E9
:1017A000A093DB03B093DC034091CF055091D005AB
:1017B0006091D1057091D2058091D9039091DA039F
:1017C000A091DB03B091DC03423051056105710546
:1017D00011F4826001C08D7F8093D9039093DA0366
:1017E000A093DB03B093DC032091BC0225508091D1
:1017F000D9039091DA03A091DB03B091DC0322308E
:1018000010F4806101C08F7E8093D9039093DA0336
:10181000A093DB03B093DC038091D9039091DA03AA
:10182000A091DB03B091DC034B30510561057105DC
:1018300011F4806201C08F7D8093D9039093DA0305
:10184000A093DB03B093DC036091A1027091A2022C
:10185000072E000C880B990B0E94071820E030E03F
:1018600040E251E40E9466186B017C012FB7F894A6
:101870006091990270919A0280919B0290919C02D2
:101880002FBF0E9405182091DF023091E0024091A5
:10189000E1025091E2020E94AB199B01AC01C70129
:1018A000B6010E94661820E03AEB4BE55AE40E942C
:1018B0008A1A2091DB023091DC024091DD025091C6
:1018C000DE020E94AC196093DB027093DC0280930D
:1018D000DD029093DE020E94031B7093BB036093B2
:1018E000BA032FB7F8946091990270919A0280918F
:1018F0009B0290919C022FBF0E9405186093DF020B
:101900007093E0028093E1029093E2026091FF0302
:1019100070910004809101049091020424E833E066
:1019200040E050E00E947A1920910701672B682B54
:10193000692BD1F42130C1F48091D3059091D40565
:10194000813D9740D8F08091080190910901209144
:101950000001309101013093090120930801909317
:101960000101809300010AC0211108C08091D305B4
:101970009091D405909309018093080167E872E083
:10198000CE0181960E94A1048091EC039091ED0319
:101990002091C1023091C202821B930B8C01085925
:1019A0001E4F093651E0150708F08C0167E872E018
:1019B000CE014B960E94A104B80180E090E00E9405
:1019C00005186B017C0120E030E044EB51E40E94FB
:1019D000001818161CF061E672E00CC020E030E040
:1019E00047E852E4C701B6010E94001818163CF0FF
:1019F00065E672E0CE014B960E94650452C020E07D
:101A000030E041EE52E4C701B6010E9400181816FA
:101A10001CF069E672E0EECF20E030E84DE153E4DF
:101A2000C701B6010E94001818161CF06DE672E09E
:101A3000E1CF20E030E84AE453E4C701B6010E9458
:101A4000001818161CF061E772E0D4CF20E030E8EF
:101A500047E753E4C701B6010E94001818161CF0AE
:101A600065E772E0C7CF20E030E442E953E4C70104
:101A7000B6010E94001818161CF069E772E0BACF90
:101A800020E030EC48EA53E4C701B6010E94001898
:101A900018161CF06DE772E0ADCF0936114008F45E
:101AA0009ACF8091D6028111A7C06091B80270913F
:101AB000B9028091BA029091BB0228EE33E040E077
:101AC00050E00E942419BE016F5D7F4F8E010F5FB1
:101AD0001F4FC8012FA338A749A75AA70E949804EF
:101AE00061E872E0C8010E942B042FA138A549A526
:101AF0005AA5BA01A9010E94F403BC01CE01819646
:101B00000E947C04C8010E94930426E636E646E65D
:101B100050E46091B4027091B5028091B602909148
:101B2000B7020E9466180E94031B4B015C01BE01B4
:101B30006F5D7F4FCE0145960E94980463E872E086
:101B4000CE0145960E942B047C014AE0B801C401F5
:101B50000E947015F80101900020E9F73197AF015C
:101B6000401B510BB801C7010E94B403811103C08F
:101B7000C7010E94E203B701CE0181960E947C0456
:101B8000CE0145960E949304BE016F5D7F4FC80150
:101B90000E94980466E872E0C8010E942B047C0150
:101BA0004F8D58A16B8D7C8D0E94B403811103C0B1
:101BB000C7010E94E203B701CE0181960E947C0416
:101BC000C8010E9493040DA11EA10115110519F46D
:101BD0001092DD031CC00E30110510F00EE010E075
:101BE00069A17AA1A8018DED93E00E94EB1DF80197
:101BF000E352FC4F10820BC0813049F48FE0E5EADC
:101C0000F2E0ADEDB3E001900D928A95E1F74FE07F
:101C10006DED73E08AE00E9437098091D9039091BD
:101C2000DA03A091DB03B091DC038093C9039093A6
:101C3000CA03A093CB03B093CC0346E163EC73E0FB
:101C400085E60E9437098091D5028093BC0380917C
:101C5000A3029091A4029093C0038093BF0380914C
:101C6000A1029091A2029093C2038093C10380913C
:101C7000BA039091BB039093BE038093BD0347E0EA
:101C80006CEB73E08EE60E9437098091A10290917F
:101C9000A2029093B6038093B5038091D502AAE087
:101CA0008A9FC00111249093B9038093B803809157
:101CB000BA039091BB039093B4038093B3038091D4
:101CC000FE038093AF0380E594E19093B10380938A
:101CD000B0031092B7036091FF03709100048091EC
:101CE00001049091020420E931E040E050E00E94BC
:101CF0007A19672B682B692B09F0A6C08091020125
:101D0000882309F49BC067E872E0CE0145960E94E3
:101D1000A1046091CC027091CD028091CE0290918D
:101D2000CF0297FF07C090958095709561957F4F82
:101D30008F4F9F4F2AE030E040E050E00E9424198E
:101D400069017A016091D0027091D1028091D20232
:101D50009091D30297FF07C09095809570956195FB
:101D60007F4F8F4F9F4F2AE030E040E050E00E94CD
:101D70002419BE016B5E7F4FCE0101962FA338A7B9
:101D800049A75AA70E9498042FA138A549A55AA58A
:101D9000BA01A901CE0101960E94F40367E872E03E
:101DA0000E942B04B701A6010E94F403BC01CE01DE
:101DB00045960E947C04CE0101960E949304D09027
:101DC0000201ED2CF12CC7010197098D1A8D8017A6
:101DD000910720F4ED89FE89309729F41092E302EF
:101DE000E3EEF2E002C0E80FF91F80818983E0167C
:101DF000F10620F4ED89FE89309729F41092E30270
:101E0000E3EEF2E002C0EE0DFF1D80818A83CE0179
:101E100001960E9412158093B203025011090E150B
:101E20001F0528F0D394D394D092020102C01092DF
:101E30000201CE0145960E94930406C08FEF809365
:101E4000B20381E0809302014BE06FEA73E082E825
:101E50000E9437098091D0029091D102A091D202C4
:101E6000B091D30280939F039093A003A093A1030A
:101E7000B093A2038091CC029091CD02A091CE02AA
:101E8000B091CF028093A3039093A403A093A503E2
:101E9000B093A6038091CB0280939E0342E16DE94B
:101EA00073E08AE60E9437096091990370919A0362
:101EB00080919B0390919C03693EB3E07B07810571
:101EC000910538F024E630E040E050E00E947A19B5
:101ED00006C04AE0469F9001479F300D1124309381
:101EE0009603209395038091EC039091ED0320914C
:101EF000C1023091C202821B930B4AE0489F9001BD
:101F0000499F300D1124309394032093930346E0AE
:101F100063E973E08CE60E94370920E030E048EC8A
:101F200052E460919D0270919E0280919F02909177
:101F3000A0020E9466180E94FC1A70938E036093A0
:101F40008D034AE069E873E08DE60E94370988E373
:101F50008093EB0288E18093600382E090E09093AD
:101F60007A038093790380E18093810381E08093F9
:101F70008603809387031092880383E898E0909308
:101F8000EF028093EE028AEE90E09093F10280934C
:101F9000F0029093F3028093F2029093F502809303
:101FA000F4029093F7028093F6029093F9028093E3
:101FB000F8029093FB028093FA029093FD028093C3
:101FC000FC022FEE39E03093FF022093FE02909343
:101FD000010380930003909303038093020326E39D
:101FE00038E0309305032093040328E538E030936C
:101FF000070320930603909309038093080320911D
:1020000008013091090130930B0320930A03909348
:102010000D0380930C0390930F0380930E03909312
:1020200011038093100390931303809312039093F2
:1020300015038093140390931703809316039093D2
:1020400019038093180328E138E030931B03209391
:102050001A0321E438E030931D0320931C0321E28E
:1020600038E030931F0320931E0390932103809345
:10207000200328EB39E0309323032093220390932D
:102080002503809324039093270380932603909342
:1020900029038093280390932B0380932A03909322
:1020A0002D0380932C0390932F0380932E0324EE13
:1020B00039E03093310320933003909333038093BE
:1020C00032039093350380933403909337038093C6
:1020D0003603909339038093380390933B038093A6
:1020E0003A0390933D0380933C0390933F03809386
:1020F0003E03909341038093400390934303809366
:102100004203909345038093440390934703809345
:102110004603909349038093480390934B03809325
:102120004A0390934D0380934C0390934F03809305
:102130004E039093510380935003909353038093E5
:1021400052039093550380935403909357038093C5
:102150005603909359038093580390935B038093A5
:102160005A0390935D0380935C0390935F03809385
:102170005E0345EA64EE72E084E50E943709CE0111
:102180004B960E949304CE0181960E949304809105
:10219000FF0390910004A0910104B09102048C59B6
:1021A0009F4FAF4FBF4F8093FF0390930004A093C6
:1021B0000104B09302048091D7029091D802A091BB
:1021C000D902B091DA02181619061A061B0664F431
:1021D00084569109A109B1098093D7029093D8023E
:1021E000A093D902B093DA028091D7029091D802DD
:1021F000A091D902B091DA02181619061A061B0628
:1022000014F01092D6028091CF059091D005A09144
:10221000D105B091D2054091CB055091CC0560918C
:10222000CD057091CE0584179507A607B70771F005
:102230008093CB059093CC05A093CD05B093CE05AC
:1022400068EE73E080E090E00E94FA088091FE035F
:1022500081111DC08091D5028823C9F08B3210F402
:1022600081E013C0853510F482E00FC08F3710F481
:1022700083E00BC0893A10F484E007C0833D10F47A
:1022800085E003C08F3F19F086E08093FE03209124
:10229000BC026091FF037091000480910104909151
:1022A00002042530C1F420E233E040E050E00E9417
:1022B0007A19672B682B692B09F065C089E0E0E18A
:1022C000F1E0DE01119601900D928A95E1F7FE0191
:1022D0003A9686E019C0263059F520E233E040E016
:1022E00050E00E947A19672B682B692B09F04BC0CC
:1022F0008AE0EFE1F1E0DE01119601900D928A95FE
:10230000E1F7FE013B9685E0DF011D928A95E9F732
:1023100081E08093D60204EF11E020E030E00093EA
:10232000D7021093D8022093D9023093DA0227C043
:10233000223049F520E233E040E050E00E947A1973
:10234000672B682B692BF9F48CE0EEE2F1E0DE01FB
:10235000119601900D928A95E1F71D861E861F86C3
:1023600081E08093D60224EF31E040E050E02093FA
:10237000D7023093D8024093D9025093DA02CE01AB
:1023800001960E94F1086091FF0370910004809112
:1023900001049091020420E137E240E050E00E9405
:1023A0007A19672B682B692B31F464EF71E080E0B8
:1023B00090E00E94FA088091D402833008F418C19A
:1023C00080910701813009F013C16091D0027091B2
:1023D000D1028091D2029091D302611571058105DD
:1023E000910509F405C10091CC021091CD02209114
:1023F000CE023091CF02011511052105310509F4F6
:10240000F7C04091CB02463008F4F2C06093FA0363
:102410007093FB038093FC039093FD030093F603FA
:102420001093F7032093F8033093F9030091C70248
:102430001091C8022091C9023091CA020093F203A0
:102440001093F3032093F4033093F5030E940718CD
:102450009F7720E836E948E15BE40E948A1A25E389
:102460003AEF4EE85CE30E9466182BED3FE049EC42
:102470005FE30E94AC196B017C010E94FC1ADC0135
:10248000CB018096A11DB11D81349105A105B10537
:1024900008F0A1C02BED3FE049E450E4C701B601CC
:1024A0000E94591B18165CF42BED3FE049EC50E4F8
:1024B000C701B6010E94AB196B017C01EBCF2BED7C
:1024C0003FE049E450ECC701B6010E94001887FFC5
:1024D0000BC02BED3FE049EC50E4C701B6010E9470
:1024E000AC196B017C01EBCF2BED3FE049EC5FE3D6
:1024F000C701B6010E94591B18167CF42BED3FE072
:1025000049EC5FE3C701B6010E94AB199B01AC0126
:102510006BED7FE089EC9FE318C02BED3FE049ECC9
:102520005FEBC701B6010E94001887FF12C02BEDB8
:102530003FE049EC5FE3C701B6010E94AC199B0183
:10254000AC016BED7FE089EC9FEB0E94AB196B0156
:102550007C01A7019601C701B6010E9466184B01D4
:102560005C019B01AC01C701B6010E9466182B01FA
:102570003C0120E030E0A901C501B4010E946618C9
:1025800022E937EE41E459E30E94AB199B01AC010B
:10259000C501B4010E94661827E930E348E05CE316
:1025A0000E94AC199B01AC01C501B4010E946618E0
:1025B00025E138EA4AE25EE30E94AB199B01AC01D7
:1025C000C301B2010E9466189B01AC01C701B601AC
:1025D0000E94AC1903C060E070E0CB01609303017E
:1025E00070930401809305019093060110920701F6
:1025F0006091C1027091C202072E000C880B990BEA
:102600000E9407189B01AC016091C3027091C40243
:102610008091C5029091C6020E94AB1920E030E083
:1026200044EB53E40E94AC196B017C0120E030E0E4
:10263000A9010E94001887FD09C0C092EE03D09244
:10264000EF03E092F003F092F10310C020E030E0DD
:1026500044EB53E4C701B6010E94AC196093EE034A
:102660007093EF038093F0039093F103C090EE0317
:10267000D090EF03E090F003F090F10320E030E021
:1026800044EB53E4C701B6010E94591B181684F4A9
:1026900020E030E044EB53E4C701B6010E94AB19DF
:1026A0006093EE037093EF038093F0039093F10334
:1026B00067E872E0CE0181960E94A104C090EE030B
:1026C000D090EF03E090F003F090F10320E030E0D1
:1026D00044EB51E4C701B6010E94001818161CF023
:1026E00061E772E00CC020E030E047E852E4C70147
:1026F000B6010E94001818163CF065E772E0CE01A2
:1027000081960E94650459C020E030E041EE52E419
:10271000C701B6010E94001818161CF069E772E0A4
:10272000EECF20E030E84DE153E4C701B6010E944E
:10273000001818161CF06DE772E0E1CF20E030E8D9
:102740004AE453E4C701B6010E94001818161CF0B1
:1027500061E672E0D4CF20E030E847E753E4C701F8
:10276000B6010E94001818161CF065E672E0C7CF8B
:1027700020E030E442E953E4C701B6010E940018AA
:1027800018161CF069E672E0BACF20E030EC48EA97
:1027900053E4C701B6010E94001818161CF06DE63C
:1027A00072E0ADCF20E030E044EB53E4C701B60166
:1027B0000E94001818160CF093CF6091FF037091DF
:1027C0000004809101049091020420EB36E340E084
:1027D00050E00E947A19672B682B692B09F08BC097
:1027E00067E872E0CE014B960E94A10426E636E629
:1027F00046E650E46091BD027091BE028091BF0236
:102800009091C0020E9466184B015C01BE01655E9A
:102810007F4FCE0145960E9498044DA15EA169A10B
:102820007AA1CE0145960E94B403811104C0CE0165
:1028300045960E94E20366E872E0CE0145960E944A
:102840002B046C01AE014F5F5F4F7A018A0122E0D9
:1028500044E0C501B4010E94F214FC010190002083
:10286000E9F73197AF01481B590BBC01C6010E9423
:10287000B403811103C0C6010E94E20368E872E05C
:10288000C6010E942B04BC01CE014B960E947C0421
:10289000CE0145960E9493048FE0D7011D928A9540
:1028A000E9F70F8D18A10115110579F00E3011050A
:1028B00010F00EE010E06B8D7C8DA801C7010E9426
:1028C000EB1DF701E00FF11F108281E08093D6022B
:1028D00000ED17E020E030E00093D7021093D8021B
:1028E0002093D9023093DA02C7010E94F108CE0189
:1028F0004B960E949304CE0181960E9493040E94FD
:10290000D6020C94E10A83E592E09093D605809379
:10291000D50580916F008B7F80936F0080916F0051
:102920008F7D80936F0080919102809392028091BD
:1029300090028111FCCF80916F008D7F80936F009A
:102940000895EEE2F5E01382128288EE93E0A0E0B3
:10295000B0E084839583A683B78321E432E031839A
:10296000208325EC30E03587248724EC30E037875E
:10297000268720EC30E0318B208B21EC30E0338B4C
:10298000228B22EC30E0358B248B26EC30E0378B29
:10299000268B118E128E138E148EE5EDF5E01382C8
:1029A000128284839583A683B78383E592E0918323
:1029B000808380910801909109019093D4058093C0
:1029C000D3058091CF059091D005A091D105B0910C
:1029D000D2058093CB059093CC05A093CD05B09301
:1029E000CE050895EF920F931F93CF93DF93E801E5
:1029F00047FD02C034E001C034E1E42F440FFF0B77
:102A0000F7FF03C0F195E195F109E32E022F2E2F78
:102A1000AE010E948A15CE01DF91CF911F910F91D7
:102A2000EF900895FC0188279927E894219120329E
:102A3000E9F3293010F02E30C8F32B3241F02D325B
:102A400039F4689404C00E944615820F911D2191AB
:102A500020532A30C0F31EF4909581959F4F08951E
:102A6000FB01DC0105900D920020E1F70895BB27E2
:102A70002A3051F4992342F4BDE2909580957095E7
:102A800061957F4F8F4F9F4F0C944F157AE0979F22
:102A9000902D879F802D910D11240895BB27FA0159
:102AA000A62F6217710581059105330B30FB66F087
:102AB000AA27660F771F881F991FAA1FA21710F059
:102AC000A21B63953850A9F7A05DAA3308F0A95D51
:102AD000A19336F7B111B1931082CA010C94F0178B
:102AE000BB27FB015527AA27880F991FAA1FA417E8
:102AF00010F0A41B83955051B9F7A05DAA3308F0DC
:102B0000A95DA193009779F7B111B1931192CB010F
:102B10000C94F0174F925F926F927F929F92AF92B8
:102B2000BF92CF92DF92EF92FF920F931F93CF93BA
:102B3000DF93CDB7DEB729970FB6F894DEBF0FBE8F
:102B4000CDBF6A01122FB02E2BE3201720F0FF24F7
:102B5000F394F00E02C0BCE3FB2E0F2D27E0AE0174
:102B60004F5F5F4F0E941817AC018981982F9970B1
:102B7000913031F0E1FC06C0E0FE06C090E205C0F5
:102B80009DE203C09BE201C090E0EE2DE07183FF67
:102B90003CC0911102C083E001C084E0811718F4A9
:102BA000212F281B01C020E0E1110BC0F601822F6C
:102BB00030E2882319F031938150FBCFC20ED11C33
:102BC00020E0992329F0D6019C93F60131966F01FC
:102BD000C6010396E2FE0AC03EE4D6013C9341E4FE
:102BE00011964C93119712963C9306C03EE6F6015F
:102BF000308341E641833283FC01322F40E23323AC
:102C000009F442C041933150FACF82FF44C0911180
:102C100002C083E001C084E0811718F4212F281B33
:102C200001C020E0E1110BC0F601822F30E28823C1
:102C300019F031938150FBCFC20ED11C20E09923B3
:102C400029F0D6019C93F60131966F01C6010396D7
:102C5000E2FE0BC039E4D6013C933EE411963C936E
:102C6000119736E412963C9307C039E6F60130839B
:102C70003EE6318336E63283FC01322F40E23323D5
:102C800019F041933150FBCFFC01E20FF11D10828E
:102C90008EEF9FEFB7C0F1E0911101C0F0E06F2F10
:102CA00070E01416150624F49A012F5F3F4F02C0FE
:102CB00021E030E0260F371FBB2029F06B2D70E09C
:102CC0006F5F7F4F02C060E070E0260F371F612FFB
:102CD00070E0261737071CF4121B212F01C020E0DB
:102CE0003E2D387159F4D601322F60E2332319F0AA
:102CF0006D933150FBCFC20ED11C20E0FF2331F089
:102D0000D6019C93B6016F5F7F4F6B01E1110BC041
:102D1000F601922F30E3992319F031939150FBCFB4
:102D2000C20ED11C20E09F2D940F3A81782F707134
:102D3000A72E84FF03C0313309F49150191624F4EF
:102D4000993018F098E001C091E0E42F852F57FFEB
:102D500002C0E0E080E06E2F782FE0E0F0E0AEE22D
:102D60009A2E3A01691A71082A01461A570A0B2D40
:102D700010E01195019511096F3F8FEF780729F445
:102D8000D6019C92C60101966C014617570784F044
:102D9000661677066CF47F01E40CF51CA1E0B0E048
:102DA000AC0FBD1FEA0EFB1ED7011196BC9002C0EE
:102DB00090E3B92E615071093196C60101967C01EC
:102DC0006017710724F0D601BC926C01D5CF64174F
:102DD000750741F4363320F4353321F4A11002C0D5
:102DE00081E3B82EF601B082F701822F90E28823AA
:102DF00019F091938150FBCFF701E20FF11D108282
:102E000080E090E029960FB6F894DEBF0FBECDBFEC
:102E1000DF91CF911F910F91FF90EF90DF90CF90B6
:102E2000BF90AF909F907F906F905F904F9008956C
:102E3000283008F027E03327DA01990F311D87FD8C
:102E4000916000966105710539F432602E5F3D9303
:102E500030E32A95E1F708959F3F30F080387105FF
:102E6000610509F03C5F3C5F3D93913008F080685C
:102E7000911DDF93CF931F930F93FF92EF92192F22
:102E8000987F9695E92F96959695E90FFF27EC5F29
:102E9000FE4F99273327EE24FF24A701E701059071
:102EA0000894079428F4360FE71EF81E491F511D99
:102EB000660F771F881F991F0694A1F70590079446
:102EC00028F4E70EF81E491F561FC11D770F881FF3
:102ED000991F661F0694A1F70590079428F4F80E31
:102EE000491F561FC71FD11D880F991F661F771FC7
:102EF0000694A1F70590079420F4490F561FC71FA9
:102F0000D81F990F661F771F881F0694A9F7849111
:102F10001095177041F0D695C79557954795F7943A
:102F2000E7941A95C1F7EAEAF0E0689415901591D4
:102F300035916591959105907FE27395E118F10ABD
:102F4000430B560BC90BD009C0F7E10CF11E431F10
:102F5000561FC91FD01D7EF4703311F48A95E6CF39
:102F6000E894015030F0080F0AF40027021708F423
:102F7000202F2395022F7A3328F079E37D932A9529
:102F8000E9F710C07D932A9589F606949795679581
:102F9000379517951794E118F10A430B560BC90B97
:102FA000D00998F023957E9173957A3308F070E3F9
:102FB0007C932013B8F77E9170617D9330F08395F8
:102FC00071E37D9370E32A95E1F71124EF90FF9070
:102FD0000F911F91CF91DF91992787FD90950895CB
:102FE000DC01FC01672F71917723E1F7329704C070
:102FF0007C916D9370836291AE17BF07C8F30895FB
:103000000E94421808F481E00895E89409C097FBF3
:103010003EF490958095709561957F4F8F4F9F4FAF
:103020009923A9F0F92F96E9BB279395F6958795F3
:1030300077956795B795F111F8CFFAF4BB0F11F4B6
:1030400060FF1BC06F5F7F4F8F4F9F4F16C088235D
:1030500011F096E911C0772321F09EE8872F762F93
:1030600005C0662371F096E8862F70E060E02AF0D4
:103070009A95660F771F881FDAF7880F96958795C0
:1030800097F90895990F0008550FAA0BE0E8FEEF95
:1030900016161706E807F907C0F012161306E4071C
:1030A000F50798F0621B730B840B950B39F40A2615
:1030B00061F0232B242B252B21F408950A2609F4F3
:1030C000A140A6958FEF811D811D08950E9479185A
:1030D0000C94EA180E94DC1838F00E94E31820F0E3
:1030E000952311F00C94D3180C94D91811240C9436
:1030F0001E190E94FB1870F3959FC1F3950F50E0C5
:10310000551F629FF001729FBB27F00DB11D639F99
:10311000AA27F00DB11DAA1F649F6627B00DA11D3F
:10312000661F829F2227B00DA11D621F739FB00DE5
:10313000A11D621F839FA00D611D221F749F332755
:10314000A00D611D231F849F600D211D822F762FEE
:103150006A2F11249F5750409AF0F1F088234AF0CB
:10316000EE0FFF1FBB1F661F771F881F9150504037
:10317000A9F79E3F510580F00C94D3180C941E19AA
:103180005F3FE4F3983ED4F3869577956795B795BE
:10319000F795E7959F5FC1F7FE2B880F911D9695D8
:1031A000879597F9089597F99F6780E870E060E048
:1031B00008959FEF80EC089500240A9416161706D0
:1031C00018060906089500240A9412161306140618
:1031D00005060895092E0394000C11F4882352F07B
:1031E000BB0F40F4BF2B11F460FF04C06F5F7F4F33
:1031F0008F4F9F4F089557FD9058440F551F59F01A
:103200005F3F71F04795880F97FB991F61F09F3FD3
:1032100079F087950895121613061406551FF2CFFC
:103220004695F1DF08C0161617061806991FF1CF4C
:1032300086957105610508940895E894BB27662773
:103240007727CB0197F90895052E97FB1EF400947C
:103250000E943B1957FD07D00E947A1907FC03D042
:103260004EF40C943B1950954095309521953F4F65
:103270004F4F5F4F089590958095709561957F4F62
:103280008F4F9F4F08952F923F924F925F926F9270
:103290007F928F929F92AF92BF92CF92DF92EF92E6
:1032A000FF920F931F93CF93DF93CDB7DEB7CA1B67
:1032B000DB0B0FB6F894DEBF0FBECDBF09942A8892
:1032C000398848885F846E847D848C849B84AA843A
:1032D000B984C884DF80EE80FD800C811B81AA81C7
:1032E000B981CE0FD11D0FB6F894DEBF0FBECDBF92
:1032F000ED010895A1E21A2EAA1BBB1BFD010DC012
:10330000AA1FBB1FEE1FFF1FA217B307E407F50795
:1033100020F0A21BB30BE40BF50B661F771F881F71
:10332000991F1A9469F760957095809590959B0107
:10333000AC01BD01CF010895A29FB001B39FC001B0
:10334000A39F700D811D1124911DB29F700D811DD1
:103350001124911D08955058BB27AA270E94C31914
:103360000C94EA180E94DC1838F00E94E31820F050
:1033700039F49F3F19F426F40C94D9180EF4E09513
:10338000E7FB0C94D318E92F0E94FB1858F3BA17E7
:10339000620773078407950720F079F4A6F50C946B
:1033A0001D190EF4E0950B2EBA2FA02D0B01B901BB
:1033B00090010C01CA01A0011124FF27591B99F0AB
:1033C000593F50F4503E68F11A16F040A22F232FB7
:1033D000342F4427585FF3CF469537952795A79507
:1033E000F0405395C9F77EF41F16BA0B620B730BAE
:1033F000840BBAF09150A1F0FF0FBB1F661F771F1F
:10340000881FC2F70EC0BA0F621F731F841F48F4D3
:10341000879577956795B795F7959E3F08F0B0CF5C
:103420009395880F08F09927EE0F97958795089543
:103430000E94DC1860F080E891E009F49EEF0E94A1
:10344000E31828F040E851E071F45EEF0CC00C94F2
:10345000D9180C941D19E92FE0780E94FB1840F34D
:10346000092E052AB1F3261737074807590738F000
:103470000E2E07F8E02569F0E025E0640AC0EF634E
:1034800007F8009407FADB01B9019D01DC01CA01CC
:10349000AD01EF930E94A11A0E94EA180E945B1AE4
:1034A0005F91552339F02BED3FE049E450FD49ECA5
:1034B0000C94AC190895DF93DD27B92FBF7740E84E
:1034C0005FE31616170648075B0718F4D92F0E940A
:1034D0005E1B9F938F937F936F930E94AC1BECE7CF
:1034E000F0E00E94321B0E94EA182F913F914F9109
:1034F0005F910E947918DD2351F09058A2EA2AEDDD
:103500003FE049EC5FE3D0785D270E94C319DF916B
:103510000C94EA180E949E1A0C94EA180E94E31870
:1035200058F00E94DC1840F029F45F3F29F00C9419
:10353000D31851110C941E190C94D9180E94FB1821
:1035400068F39923B1F3552391F3951B550BBB27D2
:10355000AA2762177307840738F09F5F5F4F220F17
:10356000331F441FAA1FA9F335D00E2E3AF0E0E80E
:1035700032D091505040E695001CCAF72BD0FE2F58
:1035800029D0660F771F881FBB1F261737074807EC
:10359000AB07B0E809F0BB0B802DBF01FF279358A4
:1035A0005F4F3AF09E3F510578F00C94D3180C947D
:1035B0001E195F3FE4F3983ED4F38695779567959F
:1035C000B795F7959F5FC9F7880F911D96958795D9
:1035D00097F90895E1E0660F771F881FBB1F6217F8
:1035E00073078407BA0720F0621B730B840BBA0BB6
:1035F000EE1F88F7E09508950E94031B6894B111AF
:103600000C941E1908950E94031988F09F5798F092
:10361000B92F9927B751B0F0E1F0660F771F881FD7
:10362000991F1AF0BA95C9F714C0B13091F00E94F1
:103630001D19B1E008950C941D19672F782F882764
:10364000B85F39F0B93FCCF3869577956795B39518
:10365000D9F73EF490958095709561957F4F8F4F87
:103660009F4F0895DF93CF931F930F93FF92EF9295
:10367000DF927B018C01689406C0DA2EEF010E9474
:103680007918FE01E894A5912591359145915591C0
:10369000A6F3EF010E94C319FE019701A801DA9475
:1036A00069F7DF90EF90FF900F911F91CF91DF911D
:1036B00008950E94421808F48FEF08959B01AC0111
:1036C00060E070E080E89FE30C948A1A19F416F425
:1036D0000C94D9180C94B01B0E940319B8F39923C9
:1036E000C9F3B6F39F57550B87FF0E94BE1B0024FA
:1036F000A0E640EA900180585695979528F4805CA2
:10370000660F771F881F20F026173707480730F409
:10371000621B730B840B202931294A2BA695179421
:103720000794202531254A2758F7660F771F881FF1
:1037300020F026173707480730F4620B730B840B11
:10374000200D311D411DA09581F7B901842F91589D
:10375000880F9695879508959B01AC010C94661887
:103760009F3F31F0915020F4879577956795B795F5
:10377000880F911D9695879597F90895915050401F
:10378000660F771F881FD2F70895AA1BBB1B51E154
:1037900007C0AA1FBB1FA617B70710F0A61BB70BC1
:1037A000881F991F5A95A9F780959095BC01CD0166
:1037B0000895EE0FFF1F0590F491E02D0994CF932B
:1037C000DF938230910510F482E090E0E091E30510
:1037D000F091E40520E030E0C0E0D0E0309711F156
:1037E0004081518148175907C0F04817590761F4C3
:1037F00082819381209719F09B838A832BC09093B9
:10380000E4058093E30526C02115310519F0421720
:10381000530718F49A01BE01DF01EF010280F38122
:10382000E02DDCCF2115310509F1281B390B24309F
:10383000310590F412968D919C9113976115710545
:1038400021F0FB019383828304C09093E40580936D
:10385000E305FD01329644C0FD01E20FF31F8193A1
:103860009193225031092D933C933AC02091E10568
:103870003091E205232B41F420910C0130910D0190
:103880003093E2052093E10520910A0130910B016C
:103890002115310541F42DB73EB740910E015091ED
:1038A0000F01241B350BE091E105F091E205E217D1
:1038B000F307A0F42E1B3F0B2817390778F0AC0153
:1038C0004E5F5F4F2417350748F04E0F5F1F509330
:1038D000E2054093E1058193919302C0E0E0F0E0BE
:1038E000CF01DF91CF9108950F931F93CF93DF9373
:1038F000009709F48CC0FC01329713821282009168
:10390000E3051091E4050115110581F42081318151
:10391000820F931F2091E1053091E20528173907A6
:1039200079F5F093E205E093E10571C0D80140E03C
:1039300050E0AE17BF0750F412962D913C911397AB
:10394000AD012115310509F1D901F3CF9D01DA014E
:103950003383228360817181860F971F82179307BB
:1039600069F4EC0128813981260F371F2E5F3F4F04
:10397000318320838A819B8193838283452B29F421
:10398000F093E405E093E30542C01396FC93EE93B5
:103990001297ED01499159919E01240F351FE217AD
:1039A000F30771F480819181840F951F029611961F
:1039B0009C938E938281938113969C938E931297FE
:1039C000E0E0F0E0D80112968D919C91139700975A
:1039D00019F0F8018C01F6CF8D919C9198012E5F22
:1039E0003F4F820F931F2091E1053091E205281788
:1039F000390769F4309729F41092E4051092E30531
:103A000002C0138212821093E2050093E105DF9158
:103A1000CF911F910F910895A0E0B0E0E2E1FDE1A8
:103A20000C944719EC01009721F4CB010E94DF1B95
:103A3000B8C0FC01E60FF71F9C0122503109E217C4
:103A4000F30708F4ACC0D9010D911C91119706172A
:103A50001707B0F00530110508F49FC0C80104979E
:103A60008617970708F499C002501109061B170B17
:103A7000019311936D937C93CF010E94741C8DC0B0
:103A80005B01A01AB10A4C01800E911EA091E305C2
:103A9000B091E40540E050E0E12CF12C109709F4DE
:103AA0004AC0A815B905D1F56D907C9011976301B6
:103AB00082E0C80ED11CCA14DB0480F1A3014A19AC
:103AC0005B096A0182E0C80ED11C1296BC90129765
:103AD0001396AC91B5E0CB16D10440F0B282A3832B
:103AE00051834083D9016D937C930AC00E5F1F4FB1
:103AF000C301800F911FF90191838083EB2DFA2F71
:103B0000E114F10431F0D7011396FC93EE93129770
:103B100044C0F093E405E093E3053FC08D919C9190
:103B200011974817590708F4AC017D0112960D90C2
:103B3000BC91A02DB3CF8091E1059091E20588154D
:103B40009905E1F446175707C8F480910A0190914E
:103B50000B01009741F48DB79EB740910E01509133
:103B60000F01841B950BE817F907C8F4F093E205E1
:103B7000E093E105F901718360830FC0CB010E94DE
:103B8000DF1B7C01009759F0A801BE010E94DB1DDC
:103B9000CE010E94741CC70104C0CE0102C080E0A7
:103BA00090E0CDB7DEB7EEE00C94631981E090E0D1
:103BB000F8940C94FA1DFB01DC0102C001900D92F7
:103BC00041505040D8F70895FB01DC0101900D925F
:103BD0000020E1F70895FB01DC014150504048F01E
:103BE00001900D920020C9F701C01D924150504034
:103BF000E0F7089511E0CFEAD1E004C0FE010E9491
:0E3C0000D91B2196C03BD107C9F7F894FFCF1E
:103C0E00EA00010000803F01A1090000E5058000E7
:103C1E004641494C53414645000000000000004516
:103C2E004D455247454E43590000000000004341A8
:103C3E004C4942524154494E4700000000327C89A3
:103C4E0000EDD96877000000590000000000000068
:103C5E0000D69FDCA81817AA90437327F6B968ED13
:103C6E00F4DED409FEE61C1C84DDE80B992927D668
:103C7E00DF8D210F036418EFEE1EF0B782820094E1
:103C8E001500347C0000001400988F000000000026
:103C9E00000000000000E7B73F3600000000000003
:103CAE0000AF669ED038000000000000000000004B
:103CBE0000000000000000000000000000000000F6
:103CCE0000000000000000000000000000000000E6
:103CDE0000000086DBD0BC5416131586004E44BD82
:103CEE007F6F15159001000000000000000000001D
:103CFE0000000000000000000000000000000000B6
:103D0E0000000000000000000000000000000000A5
:103D1E000000000000000000000000000000000095
:103D2E000000000000000000000000000000000085
:103D3E00000000000000CC31AA2C532E0000000021
:103D4E00006D02DA010502B40236021402280200E6
:103D5E000000002C03DA01E0022703EF021103FE3C
:103D6E0002E2869100E2869700E2869200E2869851
:103D7E0000E2869300E2869900E2869000E2869643
:0E3D8E000041002053002000206B6D2F6800C4
:00000001FF
