:100000000C94B0010C94D8010C94D8010C94D80134
:100010000C94D8010C94D8010C94D8010C94D801FC
:100020000C94D8010C94D8010C94A0050C944A06A9
:100030000C9459050C94D8010C94D8010C94D80157
:100040000C940F050C94D8010C94DD040C94B704A7
:100050000C94D8010C94D8010C94D8010C94D801BC
:100060000C94D8010C94D801230723072F074D07C0
:100070004307560763077D079807B907084AD73B28
:100080003BCE016E84BCBFFDC12F3D6C74319ABD67
:1000900056833DDA3D00C77F11BED9E4BB4C3E918B
:1000A0006BAAAABE000000803F0000407A10F35AFD
:1000B00000A0724E18090010A5D4E80000E87648A8
:1000C000170000E40B54020000CA9A3B000000E154
:1000D000F505000080969800000040420F000000E7
:1000E000A08601000000102700000000E8030000C7
:1000F00000006400000000000A0000000000010091
:10010000000000002C76D888DC674F0823DFC1DFB1
:10011000AE59E1B1B796E5E3E453C63AE6519976B4
:1001200096E8E6C28426EB898C9B62ED407C6FFCEE
:10013000EFBC9C9F40F2BAA56FA5F490055A2AF730
:100140005C936B6CF9676DC11BFCE0E40D47FEF539
:1001500020E6B500D0ED902E0300943577050080A1
:10016000841E080000204E0A000000C80C33333300
:10017000330F986E12831141EF8D2114893BE655A0
:1001800016CFFEE6DB18D1844B381BF77C1D901D83
:10019000A4BBE424203284725E228100C9F124ECE5
:1001A000A1E53D270000000800020100000304074C
:1001B00000000000000000000000000025002800F2
:1001C0002B0000000000240027002A00040404047F
:1001D00004040404020202020202030303030303F1
:1001E00001020408102040800102040810200102CE
:1001F000040810204D414E55414C00000000000005
:10020000000000434952434C45000000000000003C
:10021000000053544142494C495A45000000000037
:1002200000545241494E494E470000000000000072
:100230004143524F00000000000000000000004653
:100240004C59204259205749524520410000464C04
:1002500059204259205749524520420000435255E7
:100260004953450000000000000000004155544F74
:1002700054554E4500000000000000000000000042
:10028000000000000000000000004155544F000035
:1002900000000000000000000052544C000000006C
:1002A00000000000000000004C4F4954455200007F
:1002B0000000000000000054414B454F464600003E
:1002C00000000000000041564F49445F4144534242
:1002D000000000000047554944454400000000006C
:1002E00000000000494E495449414C4953494E478A
:1002F0000000005153544142494C495A4500000006
:10030000000051484F564552000000000000000018
:1003100000514C4F495445520000000000000000BD
:10032000514C414E4400000000000000000000510C
:1003300052544C0000000000000000000000514139
:1003400055544F54554E45000000000000514143A4
:10035000524F00000000000000000000E013C21334
:1003600011241FBECFEFD8E0DEBFCDBF12E0A0E06A
:10037000B1E0ECE8FAE302C005900D92A837B107AE
:10038000D9F725E0A8E7B2E001C01D92AF3CB20763
:10039000E1F711E0CFEAD1E004C02197FE010E940D
:1003A000181BCE3AD107C9F70E94CE090C94391D0B
:1003B0000C940000CF92DF92EF92FF920F931F9365
:1003C000CF93DF936C017A018B01C0E0D0E0CE15B2
:1003D000DF0589F0D8016D918D01D601ED91FC9179
:1003E0000190F081E02DC6010995892B11F47E0161
:1003F00002C02196ECCFC701DF91CF911F910F91E1
:10040000FF90EF90DF90CF900895FC01538D448DC5
:10041000252F30E0842F90E0821B930B541710F0AF
:10042000CF96089501970895FC01918D828D9817BC
:1004300061F0828DDF01A80FB11D5D968C91928DC8
:100440009F5F9F73928F90E008958FEF9FEF0895C5
:10045000FC01918D828D981731F0828DE80FF11D8E
:10046000858D90E008958FEF9FEF0895FC01918DA9
:10047000228D892F90E0805C9F4F821B91098F73A2
:100480009927089588E195E00E94360221E0892BA2
:1004900009F420E0822F0895FC01848DDF01A80F6C
:1004A000B11DA35ABF4F2C91848D90E001968F739C
:1004B0009927848FA689B7892C93A089B1898C91BB
:1004C00080648C93938D848D981306C00288F38981
:1004D000E02D80818F7D80830895EF92FF920F93AE
:1004E0001F93CF93DF93EC0181E0888F9B8D8C8DE0
:1004F000981305C0E889F989808185FD24C0F62E0E
:100500000B8D10E00F5F1F4F0F731127E02E8C8DA6
:10051000E8120CC00FB607FCFACFE889F989808190
:1005200085FFF5CFCE010E944C02F1CF8B8DFE01ED
:10053000E80FF11DE35AFF4FF0820B8FEA89FB8928
:100540008081806207C0EE89FF896083E889F9892C
:1005500080818064808381E090E0DF91CF911F9162
:100560000F91FF90EF900895CF93DF93EC01888D6A
:100570008823C9F0EA89FB89808185FD05C0A889A7
:10058000B9898C9186FD0FC00FB607FCF5CF80812D
:1005900085FFF2CFA889B9898C9185FFEDCFCE0177
:1005A0000E944C02E7CFDF91CF91089580E090E068
:1005B000892B29F00E94420281110C9400000895B9
:1005C0004091790250917802852F90E0242F30E0FD
:1005D000451710F08C5B9F4F821B930B0895509131
:1005E0007C0240917B02852F90E0242F30E054174D
:1005F00010F4805B9F4F821B930B089580917C02C7
:10060000E0917B028E1751F0EF5FE03508F0E0E0FB
:10061000F0E0E354FB4F808190E008958FEF9FEF6F
:10062000089580917C0290917B02891769F09F5F09
:10063000903508F090E0E92FF0E0E354FB4F808123
:1006400090937B0290E008958FEF9FEF0895809143
:100650007A028111FCCF0895809179028F5F8434F2
:1006600008F080E0909178029817E1F32FB7F894A2
:1006700090917A02992341F0E82FF0E0ED58FB4F7A
:100680006083809379021DC081E080937A02609339
:10069000B8041092B70482E086BB80916F0082603C
:1006A00080936F00809180008F73806880938000BA
:1006B000809184009091850040969093890080936A
:1006C00088002FBF81E090E00895FB012081822700
:1006D00090E1899F900111242827822F90E0582FC4
:1006E00044279C0163E0220F331F6A95E1F74227FC
:1006F0005327218130E02427352774E0959587958D
:100700007A95E1F78227932791838083089508954E
:1007100080E090E008950E94151D0F931F93CF93E2
:10072000DF93EC0188819981009729F02A813B8130
:100730002617370788F48B016F5F7F4F0E944B1C91
:10074000009761F0998388831B830A832C813D8104
:10075000232B11F4FC01108281E001C080E0DF91C5
:10076000CF911F910F910895EF92FF920F931F93D6
:10077000CF93DF93FC01248135816115710511F45C
:1007800080E019C041155105A9F07B01EC018A01F7
:10079000020F131FB8010E948D03882389F328815B
:1007A00039818C819D81B701820F931F0E94231D87
:1007B0001D830C8381E0DF91CF911F910F91FF90FA
:1007C000EF900895CF93DF93EC0188819981009792
:1007D00011F00E94B31B198218821D821C821B8299
:1007E0001A82DF91CF910895EF92FF920F931F939A
:1007F000CF93DF93CDB7DEB72E970FB6F894DEBF59
:100800000FBECDBF7C01CB01BA012AE08E010F5F84
:100810001F4FA8010E947614F80101900020E9F70B
:100820003197AF01401B510BB801C7010E94B403BF
:10083000811103C0C7010E94E203C7012E960FB6C3
:10084000F894DEBF0FBECDBFDF91CF911F910F9106
:10085000FF90EF900895CF93DF93EC016115710540
:1008600061F0FB0101900020E9F73197AF01461BD1
:10087000570B0E94B403811103C0CE010E94E20312
:10088000CE01DF91CF910895EF92FF920F931F93C6
:10089000CF93DF93EC01FB0186179707B9F0008136
:1008A00011810115110539F0E480F580B7010E942E
:1008B0008D03811104C0CE010E94E20307C0FD82B6
:1008C000EC82B801888199810E94231DCE01DF91BD
:1008D000CF911F910F91FF90EF900895FC018081BF
:1008E00091810C94B31BFC0111821082138212823D
:1008F000158214820C944404EF92FF920F931F937D
:10090000CF93DF93EC01198218821B821A821D8219
:100910001C826115710521F18B01FB010190002002
:10092000E9F731977F01E61AF70AB7010E948D03B4
:10093000811109C0CE01DF91CF911F910F91FF90DE
:10094000EF900C94E203FD82EC82B80188819981DA
:10095000DF91CF911F910F91FF90EF900C94231D89
:10096000DF91CF911F910F91FF90EF9008951F920B
:100970000F920FB60F9211242F933F934F935F93D3
:100980006F937F938F939F93AF93BF93EF93FF9357
:1009900088E195E00E944C02FF91EF91BF91AF91E9
:1009A0009F918F917F916F915F914F913F912F9187
:1009B0000F900FBE0F901F9018951F920F920FB6B9
:1009C0000F9211242F938F939F93EF93FF93E091B6
:1009D0002805F09129058081E0912E05F0912F05E1
:1009E00082FD12C09081809131058F5F8F732091BD
:1009F0003205821751F0E0913105F0E0E85EFA4FE0
:100A0000958F8093310501C08081FF91EF919F9177
:100A10008F912F910F900FBE0F901F9018951F92DE
:100A20000F920FB60F9211242F933F938F939F93A2
:100A3000AF93BF938091830290918402A09185022D
:100A4000B09186023091110523E0230F2D3720F459
:100A50000196A11DB11D05C026E8230F0296A11D18
:100A6000B11D209311058093830290938402A0937B
:100A70008502B093860280910D0590910E05A0919C
:100A80000F05B09110050196A11DB11D80930D05B4
:100A900090930E05A0930F05B0931005BF91AF91F1
:100AA0009F918F913F912F910F900FBE0F901F90AC
:100AB00018951F920F920FB60F9211242F938F93B8
:100AC0009F93EF93FF9380916F008B7F80936F00D4
:100AD000809181008F7B8093810080917D022091A5
:100AE000BC0420589091BB04893020F49695922B39
:100AF0008F5FFACF9093BB0480917C028F5F80352B
:100B000008F080E020917B02821739F0E82FF0E0B6
:100B1000E354FB4F908380937C0210927D0280917E
:100B200081008F7B809381001092BC04FF91EF9134
:100B30009F918F912F910F900FBE0F901F9018953E
:100B40001F920F920FB60F9211242F933F934F9342
:100B50005F936F937F938F939F93AF93BF93EF9325
:100B6000FF9380918600909187004091BC04209172
:100B70008100442331F02F7B209381001092BC042C
:100B800006C020642093810020E82093BC043091AB
:100B90007D02311125C041116CC020917E0230913F
:100BA0007F02280F391F30938B0020938A0024E0A6
:100BB00026BB20916F00246020936F00209180025B
:100BC00030918102820F931F36952795820F931FD4
:100BD0009093BA048093B90481E080937D0249C068
:100BE0004091B9045091BA046091800270918102E1
:100BF000DB01A095B095E091BC042091BB04841B5F
:100C0000950BA817B90768F126952E2B460F571F8D
:100C10003F5F861B970B3930A0F32093BB04809174
:100C20006F008B7F80936F0080917C028F5F803597
:100C300008F080E090917B02891749F0E82FF0E0FE
:100C40009091BB04E354FB4F908380937C0280918E
:100C500081008F7B809381001092BC0410927D02F2
:100C600008C02093BB045093BA044093B904309356
:100C70007D02FF91EF91BF91AF919F918F917F91F5
:100C80006F915F914F913F912F910F900FBE0F90F9
:100C90001F9018951F920F920FB60F9211242F9349
:100CA0003F934F935F936F937F938F939F93EF93B4
:100CB000FF9380917A026091B8042091880030916E
:100CC000890040918002509181029091B7048A304E
:100CD000F8F4240F351F893019F0762F717001C098
:100CE00071E066958F5F791791F39091800077237B
:100CF00011F0906C02C09F739068909380003093C5
:100D00008900209388007093B7046093B8044AC0A8
:100D100090917902E09178029E1319C08A3051F4C3
:100D20008BE080937A02240F351F30938900209343
:100D300088003AC010927A02809180008F7380936D
:100D4000800080916F008D7F80936F002DC0EF5FDA
:100D5000E43408F0E0E0E0937802F0E0ED58FB4F77
:100D600090819093B8041092B704909180009F7383
:100D70009068909380008A3059F48091800290911D
:100D80008102280F391F309389002093880009C001
:100D90008091840090918500409690938900809383
:100DA000880081E080937A02FF91EF919F918F916B
:100DB0007F916F915F914F913F912F910F900FBE57
:100DC0000F901F9018952F923F924F925F926F92C3
:100DD0007F928F929F92AF92BF92CF92DF92EF92CB
:100DE000FF920F931F93CF93DF93CDB7DEB7C65714
:100DF000D1090FB6F894DEBF0FBECDBFEE24E39449
:100E0000F12C52E0252E312CCC24CA94DC2C8FEB13
:100E100095E00E94EF02181619060CF0C9C18FEB7D
:100E200095E00E9411033C01082F1092F103E0911C
:100E3000F403F091F503EA30F10508F0D5C0EC5C5D
:100E4000FF4F0C94181B8E3F09F0CEC03092F50373
:100E50002092F403109200048093FF03A3C086360F
:100E600030F08091F2038F5F8093F203A0C08093F3
:100E700000041092F6036DEF73E00E94650334E006
:100E8000832E912C2DC0809301046DEF73E00E949E
:100E9000650323E0A22EB12C2BC0809302046DEFDA
:100EA00073E00E94650325E030E03DC080930304B9
:100EB0006DEF73E00E94650386E090E09093F50388
:100EC0008093F40391C0809304046DEF73E00E945B
:100ED000650380910004811108C098E0892E912C4F
:100EE0009092F5038092F4037FC087E0A82EB12C86
:100EF000B092F503A092F40377C0E091F603772453
:100F000073947E0E7092F603F0E0EB5FFB4F60820D
:100F10006DEF73E0862D0E946503809100047812C6
:100F200063C028E030E03093F5032093F4035CC005
:100F3000E0910404F0E0E35CFE4F6DEF73E080812C
:100F40000E9465038091FD039091FE039927930110
:100F5000332728173907F1F489E090E09093F503DF
:100F60008093F403E091F603F0E0EB5FFB4F6082C7
:100F70003BC09091FE03E6969FAFE697E7961FAEC3
:100F8000E797C3019927E7968EAC9FACE797881542
:100F9000990591F00E3F59F43092F5032092F40335
:100FA00010920004D092FE03C092FD031DC0F09287
:100FB000F503E092F40318C081E08093F103F0920E
:100FC000F503E092F403E091F603F0E0EA5FFB4FF3
:100FD000608280E7EDEFF3E0DE01119601900D9263
:100FE0008A95E1F7109104042091F103213099F4DE
:100FF000809101048093F7038091F9039091FA03A3
:10100000009721F41092FC031092FB030196909339
:10101000FA038093F9031092F303222309F4F7CE25
:10102000113209F468C070F4113029F108F494C049
:10103000183109F0ECCE8EA19DA19093BE02809351
:10104000B502E5CE1A3449F1183A09F498C01332C2
:1010500009F0DDCE2E8D30E0AFEFB3E00E94DB185B
:101060002FEF30E040E050E00E94631830938E0292
:1010700020938D02CCCE298D3A8D4FA18F89988DEA
:1010800064E670E00E94041B6093BF024093720408
:1010900030938C0220938B02BACE4D855E856F858E
:1010A00078898D899E89AF89B88D298D3A8DEB8D90
:1010B00049845A846B847C8440926E0450926F04FD
:1010C000609270047092710440939E0250939F024C
:1010D0006093A0027093A1023093AC022093AB0204
:1010E000E0936D048093870290938802A093890215
:1010F000B0938A028CCE4D845E846F84788849894F
:101100005A896B897C898D899E89AF89B88D898C34
:101110009A8CAB8CBC8C8092A2029092A302A0927B
:10112000A402B092A5024092BA025092BB02609211
:10113000BC027092BD024093B6025093B702609316
:10114000B8027093B9028093B1029093B202A09357
:10115000B302B093B4025BCE89859A85AB85BC851A
:1011600028893F85309382022093A6028093B90597
:101170009093BA05A093BB05B093BC0548CE8D856E
:101180009E85AF85B88949855A856B857C85409356
:10119000AD025093AE026093AF027093B0028093A1
:1011A000A7029093A802A093A902B093AA022FCEFF
:1011B000CA58DF4F0FB6F894DEBF0FBECDBFDF9128
:1011C000CF911F910F91FF90EF90DF90CF90BF9044
:1011D000AF909F908F907F906F905F904F903F90D7
:1011E0002F900895FC019FE0AFE8B2E001900D92CE
:1011F0009A95E1F70895CF92DF92EF92FF92CF9305
:10120000DF93CDB7DEB72F970FB6F894DEBF0FBED2
:10121000CDBF6B017C012091B9053091BA054FE03B
:10122000429FC001439F900D1124BC016C507E4F22
:10123000CE0101960E946F1481E08093C002C0929B
:10124000C102D092C202E092C302F092C402CE0167
:1012500001960E94F2082F960FB6F894DEBF0FBEDB
:10126000CDBFDF91CF91FF90EF90DF90CF900895A9
:101270000F931F93CF93DF93FC01C481D5812097F7
:1012800019F4FB01108210C0CE30D10510F0CEE071
:10129000D0E08B01FC0160817181AE01C8010E9428
:1012A0002A1DC00FD11F1882DF91CF911F910F917E
:1012B0000895CF92DF92EF92FF920F931F93CF93F7
:1012C000DF931F92CDB7DEB7D82EF62EC42E8091B5
:1012D000120590911305DC01ED91FC910190F081D4
:1012E000E02D64E2798309958091120590911305B0
:1012F000DC01ED91FC910190F081E02D6DE4099508
:101300008091120590911305DC01ED91FC91019003
:10131000F081E02D6CE30995809112059091130501
:10132000DC01ED91FC910190F081E02D6C2D09958F
:101330008091120590911305DC01ED91FC910190D3
:10134000F081E02D6D2D0995DC24EF2C0F2D798196
:10135000172F8091120590911305202F2E192C150F
:1013600060F4F80161918F01D626DC01ED91FC91CA
:101370000190F081E02D0995ECCFDC01ED91FC911D
:101380000190F081E02D6D2D0F90DF91CF911F9195
:101390000F91FF90EF90DF90CF900994CF93DF9360
:1013A000CDB7DEB7A4970FB6F894DEBF0FBECDBFA2
:1013B000789484B5826084BD84B5816084BD85B530
:1013C000826085BD85B5816085BD80916E0081603C
:1013D00080936E00109281008091810082608093E2
:1013E00081008091810081608093810080918000E4
:1013F0008160809380008091B10084608093B1000F
:101400008091B00081608093B00080917A00846008
:1014100080937A0080917A00826080937A00809134
:101420007A00816080937A0080917A00806880934E
:101430007A001092C100E0912805F091290582E020
:101440008083E0912405F09125051082E091260526
:10145000F091270580E1808310923005E0912C0502
:10146000F0912D0586E08083E0912A05F0912B050F
:10147000808180618083E0912A05F0912B05808135
:1014800088608083E0912A05F0912B058081806837
:101490008083E0912A05F0912B0580818F7D8083E8
:1014A00088E195E0909313058093120584EF91E015
:1014B000A0E0B0E08093140590931505A093160565
:1014C000B093170510926F001092800081E880930E
:1014D000810086E191E090938102809380028BE00D
:1014E0009AE090937F0280937E02E8EEF1E02491EF
:1014F000E4EDF1E084918823C9F090E0880F991F12
:10150000FC01EE53FE4F45915491FC01E854FE4F0F
:10151000A591B4919FB7F894FA013081822F8095FC
:1015200083238083EC91E22BEC939FBFEDEAF1E003
:10153000349149EE51E0FA01649185ED91E0FC01AE
:1015400024912223B9F1332339F1333091F038F467
:101550003130A9F0323001F534B53F7D12C037305B
:1015600091F03830A1F03430B9F4309180003F7DF3
:1015700003C0309180003F77309380000DC034B5B8
:101580003F7734BD09C03091B0003F7703C0309140
:10159000B0003F7D3093B00030E0220F331F28545D
:1015A0003E4FF901A591B4912FB7F8943C91632B6C
:1015B0006C932FBFFA014491FC018491882399F028
:1015C00090E0880F991FFC01EE53FE4FA591B49156
:1015D000FC01E854FE4F859194918FB7F8949C914B
:1015E000492B4C938FBF10927D0210927C02109277
:1015F0007B0210927A02109279021092780280E2B5
:1016000086BB80936F000E94E3062FB7F894809109
:10161000830290918402A0918502B09186022FBF2F
:101620004091ED035091EE036091EF037091F00350
:101630008C019D01041B150B260B370B043611057D
:101640002105310508F432C58093ED039093EE0334
:10165000A093EF03B093F0038091E4039091E5032E
:10166000A091E603B091E7030097A105B10509F445
:101670009AC08090E0039090E103A090E203B090C4
:10168000E30381149104A104B10409F48CC0009116
:10169000BA021091BB022091BC023091BD02BC0184
:1016A000CD01601B710B820B930B0E9446176B01DF
:1016B0007C018091B6029091B702A091B802B091DE
:1016C000B902A5019401281B390B4A0B5B0BCA0117
:1016D000B9010E9446172091030130910401409105
:1016E0000501509106010E94A5174B015C01A7015D
:1016F0009601C701B6010E94A5172B013C01A50167
:101700009401C501B4010E94A5179B01AC01C3015E
:10171000B2010E94EB180E94AB1A2CE23DE74EE8A2
:101720005FE30E94A5170E94421A2B013C01C701EA
:10173000B6019058A50194010E946A1920EA3CE084
:1017400043EB55E40E94A51720E030EA4CE056E454
:101750000E94EB180E943B1A6B017C0197FF06C0A8
:1017600030EAC30E3CE8D31EE11CF11CC301B201F8
:1017700024E630E040E050E00E94B9182093850351
:10178000309386034093870350938803C701B601C3
:1017900024E630E040E050E00E94631830937E037E
:1017A00020937D030CC01092850310928603109243
:1017B00087031092880310927E0310927D0320917C
:1017C00082028091C5039091C603A091C703B09196
:1017D000C80327FF02C0816001C08E7F8093C503CC
:1017E0009093C603A093C703B093C8034091B90573
:1017F0005091BA056091BB057091BC058091C503FD
:101800009091C603A091C703B091C803423051051F
:101810006105710511F4826001C08D7F8093C5035D
:101820009093C603A093C703B093C8032091A60268
:1018300025508091C5039091C603A091C703B09134
:10184000C803223010F4806101C08F7E8093C503ED
:101850009093C603A093C703B093C8038091C503B8
:101860009091C603A091C703B091C8034B305105B6
:101870006105710511F4806201C08F7D8093C503FD
:101880009093C603A093C703B093C80360918B02E3
:1018900070918C02072E000C880B990B0E94461742
:1018A00020E030E040E251E40E94A5176B017C018A
:1018B0002FB7F89460918302709184028091850221
:1018C000909186022FBF0E9444172091C902309147
:1018D000CA024091CB025091CC020E94EA189B01AF
:1018E000AC01C701B6010E94A51720E03AEB4BE519
:1018F0005AE40E94C9192091C5023091C602409154
:10190000C7025091C8020E94EB186093C502709301
:10191000C6028093C7029093C8020E94421A709335
:10192000A7036093A6032FB7F89460918302709188
:10193000840280918502909186022FBF0E944417F5
:101940006093C9027093CA028093CB029093CC0239
:101950006091E9037091EA038091EB039091EC03AD
:1019600024E833E040E050E00E94B91820910701DC
:10197000672B682B692BD1F42130C1F48091BD0510
:101980009091BE05813D9740D8F0809108019091DB
:101990000901209100013091010130930901209348
:1019A000080190930101809300010AC0211108C031
:1019B0008091BD059091BE05909309018093080127
:1019C00067E772E0CE014B960E947C048091C002D2
:1019D000811176C06091A2027091A3028091A4024D
:1019E0009091A50228EE33E040E050E00E94631899
:1019F000BE01655E7F4F8E010F5F1F4FC80129A397
:101A00003AA34BA35CA30E94730461E672E0C80191
:101A10000E942B0429A13AA14BA15CA1BA01A90102
:101A20000E94F403BC01CE014B960E944404C801FD
:101A30000E946E0426E636E646E650E460919E0279
:101A400070919F028091A0029091A1020E94A5171F
:101A50000E94421A4B015C01BE01655E7F4FCE01C0
:101A600045960E94730464E672E0CE0145960E949A
:101A70002B047C014AE0B801C4010E94AF14F801B4
:101A800001900020E9F73197AF01401B510BB801DD
:101A9000C7010E94B403811103C0C7010E94E20381
:101AA000B701CE014B960E944404CE0145960E9498
:101AB0006E0469EC73E0CE014B960E9438090BC0AE
:101AC000813049F48FE0EFE8F2E0A9ECB3E0019057
:101AD0000D928A95E1F74FE069EC73E08AE00E948D
:101AE00059098091C5039091C603A091C703B09195
:101AF000C8038093B5039093B603A093B703B09344
:101B0000B80346E16FEA73E085E60E9459098091C7
:101B1000BF028093A80380918D0290918E029093D2
:101B2000AC038093AB0380918B0290918C029093D5
:101B3000AE038093AD038091A6039091A703909389
:101B4000AA038093A90347E068EA73E08EE60E9447
:101B5000590980918B0290918C029093A2038093FB
:101B6000A1038091BF025AE0859FC0011124909388
:101B7000A5038093A4038091A6039091A70390935B
:101B8000A00380939F038091E80380939B0380E5EB
:101B900094E190939D0380939C031092A303609122
:101BA000E9037091EA038091EB039091EC0320E943
:101BB00031E040E050E00E94B918672B682B692B98
:101BC00009F0A6C080910201882309F49BC067E751
:101BD00072E0CE0145960E947C046091B60270913D
:101BE000B7028091B8029091B90297FF07C0909513
:101BF0008095709561957F4F8F4F9F4F2AE030E021
:101C000040E050E00E94631869017A016091BA02D5
:101C10007091BB028091BC029091BD0297FF07C0FA
:101C200090958095709561957F4F8F4F9F4F2AE0DB
:101C300030E040E050E00E946318BE016B5E7F4FD1
:101C4000CE01019629A33AA34BA35CA30E9473047F
:101C500029A13AA14BA15CA1BA01A901CE0101962B
:101C60000E94F40367E772E00E942B04B701A6010B
:101C70000E94F403BC01CE0145960E944404CE01AB
:101C800001960E946E04D0900201ED2CF12CC70148
:101C90000197098D1A8D8017910720F4ED89FE892F
:101CA000309729F41092CD02EDECF2E002C0E80F7B
:101CB000F91F80818983E016F10620F4ED89FE8901
:101CC000309729F41092CD02EDECF2E002C0EE0D57
:101CD000FF1D80818A83CE0101960E94511480935A
:101CE0009E03025011090E151F0528F0D394D394BA
:101CF000D092020102C010920201CE0145960E94CC
:101D00006E0406C08FEF80939E0381E080930201F2
:101D10004BE06BE973E082E80E9459098091BA02B6
:101D20009091BB02A091BC02B091BD0280938B0345
:101D300090938C03A0938D03B0938E038091B60291
:101D40009091B702A091B802B091B90280938F032D
:101D500090939003A0939103B09392038091B50266
:101D600080938A0342E169E873E08AE60E94590998
:101D70006091850370918603809187039091880319
:101D8000693EA3E07A078105910538F024E630E04A
:101D900040E050E00E94B91806C04AE0469F90011A
:101DA000479F300D1124309382032093810380914B
:101DB0007D0390917E032091AB023091AC02821B97
:101DC000930B4AE0489F9001499F300D11243093B6
:101DD000800320937F0346E06FE773E08CE60E9468
:101DE000590920E030E048EC52E46091870270919C
:101DF00088028091890290918A020E94A5170E9410
:101E00003B1A70937803609377034AE063E773E0CB
:101E10008DE60E94590988E38093D50288E180937A
:101E20004A0382E090E0909364038093630380E12F
:101E300080936B0381E08093700380937103109211
:101E4000720383E898E09093D9028093D8028AEED7
:101E500090E09093DB028093DA029093DD0280930E
:101E6000DC029093DF028093DE029093E102809384
:101E7000E0029093E3028093E2029093E502809364
:101E8000E4029093E7028093E6022FEE39E030936C
:101E9000E9022093E8029093EB028093EA02909388
:101EA000ED028093EC0226E338E03093EF022093BA
:101EB000EE0228E538E03093F1022093F00290938F
:101EC000F3028093F20220910801309109013093CE
:101ED000F5022093F4029093F7028093F602909318
:101EE000F9028093F8029093FB028093FA02909398
:101EF000FD028093FC029093FF028093FE02909378
:101F0000010380930003909303038093020328E16D
:101F100038E0309305032093040321E438E0309344
:101F200007032093060321E238E03093090320934E
:101F3000080390930B0380930A0328EB39E0309356
:101F40000D0320930C0328E939E030930F0320930D
:101F50000E039093110380931003909313038093C7
:101F600012039093150380931403909317038093A7
:101F70001603909319038093180324EE39E03093ED
:101F80001B0320931A0390931D0380931C039093CB
:101F90001F0380931E03909321038093200390934B
:101FA000230380932203909325038093240390932B
:101FB000270380932603909329038093280390930B
:101FC0002B0380932A0390932D0380932C039093EB
:101FD0002F0380932E0390933103809330039093CB
:101FE00033038093320390933503809334039093AB
:101FF000370380933603909339038093380390938B
:102000003B0380933A0390933D0380933C0390936A
:102010003F0380933E03909341038093400390934A
:10202000430380934203909345038093440390932A
:10203000470380934603909349038093480345EAFE
:102040006EEC72E084E50E945909CE014B960E9425
:102050006E048091E9039091EA03A091EB03B091A3
:10206000EC038C599F4FAF4FBF4F8093E903909380
:10207000EA03A093EB03B093EC038091C10290912B
:10208000C202A091C302B091C402181619061A0622
:102090001B0664F484569109A109B1098093C10219
:1020A0009093C202A093C302B093C4028091C10274
:1020B0009091C202A091C302B091C40218161906F1
:1020C0001A061B0614F01092C0028091B905909177
:1020D000BA05A091BB05B091BC054091B5055091E2
:1020E000B6056091B7057091B80584179507A607E6
:1020F000B70771F08093B5059093B605A093B70527
:10210000B093B80568EE73E080E090E00E94FB08B1
:102110008091E80381111DC08091BF028823C9F01E
:102120008B3210F481E013C0853510F482E00FC0CB
:102130008F3710F483E00BC0893A10F484E007C0B5
:10214000833D10F485E003C08F3F19F086E0809353
:10215000E8032091A6026091E9037091EA0380915F
:10216000EB039091EC032530C1F420E233E040E032
:1021700050E00E94B918672B682B692B09F065C0E5
:1021800089E0E0E1F1E0DE01119601900D928A957F
:10219000E1F7FE013A9686E019C0263059F520E2B3
:1021A00033E040E050E00E94B918672B682B692BA0
:1021B00009F04BC08AE0EFE1F1E0DE0111960190F9
:1021C0000D928A95E1F7FE013B9685E0DF011D92B5
:1021D0008A95E9F781E08093C00204EF11E020E0E6
:1021E00030E00093C1021093C2022093C3023093E7
:1021F000C40227C0223049F520E233E040E050E03D
:102200000E94B918672B682B692BF9F48CE0EEE279
:10221000F1E0DE01119601900D928A95E1F71D869D
:102220001E861F8681E08093C00224EF31E040E0EB
:1022300050E02093C1023093C2024093C3025093F6
:10224000C402CE0101960E94F2086091E9037091E8
:10225000EA038091EB039091EC0320E137E240E048
:1022600050E00E94B918672B682B692B31F464EF9A
:1022700071E080E090E00E94FB088091BE02833014
:1022800008F418C180910701813009F013C16091F1
:10229000BA027091BB028091BC029091BD0261159F
:1022A00071058105910509F405C10091B6021091EF
:1022B000B7022091B8023091B9020115110521052C
:1022C000310509F4F7C04091B502463008F4F2C078
:1022D0006093E4037093E5038093E6039093E70330
:1022E0000093E0031093E1032093E2033093E303B0
:1022F0000091B1021091B2022091B3023091B40268
:102300000093DC031093DD032093DE033093DF039F
:102310000E9446179F7720E836E948E15BE40E9477
:10232000C91925E33AEF4EE85CE30E94A5172BEDAF
:102330003FE049EC5FE30E94EB186B017C010E94D7
:102340003B1ADC01CB018096A11DB11D81349105A2
:10235000A105B10508F0A1C02BED3FE049E450E430
:10236000C701B6010E94981A18165CF42BED3FE0E5
:1023700049EC50E4C701B6010E94EA186B017C01E8
:10238000EBCF2BED3FE049E450ECC701B6010E94D2
:102390003F1787FF0BC02BED3FE049EC50E4C7012E
:1023A000B6010E94EB186B017C01EBCF2BED3FE0F7
:1023B00049EC5FE3C701B6010E94981A18167CF435
:1023C0002BED3FE049EC5FE3C701B6010E94EA183C
:1023D0009B01AC016BED7FE089EC9FE318C02BED16
:1023E0003FE049EC5FEBC701B6010E943F1787FF52
:1023F00012C02BED3FE049EC5FE3C701B6010E943C
:10240000EB189B01AC016BED7FE089EC9FEB0E9428
:10241000EA186B017C01A7019601C701B6010E9471
:10242000A5174B015C019B01AC01C701B6010E94DD
:10243000A5172B013C0120E030E0A901C501B40142
:102440000E94A51722E937EE41E459E30E94EA18F9
:102450009B01AC01C501B4010E94A51727E930E337
:1024600048E05CE30E94EB189B01AC01C501B4019C
:102470000E94A51725E138EA4AE25EE30E94EA18C5
:102480009B01AC01C301B2010E94A5179B01AC01E5
:10249000C701B6010E94EB1803C060E070E0CB01F9
:1024A00060930301709304018093050190930601EA
:1024B000109207016091AB027091AC02072E000CE4
:1024C000880B990B0E9446179B01AC016091AD02ED
:1024D0007091AE028091AF029091B0020E94EA1812
:1024E00020E030E044EB53E40E94EB186B017C01E8
:1024F00020E030E0A9010E943F1787FD09C0C0928B
:10250000D803D092D903E092DA03F092DB0310C033
:1025100020E030E044EB53E4C701B6010E94EB1821
:102520006093D8037093D9038093DA039093DB030D
:10253000C090D803D090D903E090DA03F090DB0389
:1025400020E030E044EB53E4C701B6010E94981A42
:10255000181684F420E030E044EB53E4C701B601E0
:102560000E94EA186093D8037093D9038093DA032A
:102570009093DB036091E9037091EA038091EB0390
:102580009091EC0320E83EE340E050E00E94B9184F
:10259000672B682B692B09F07DC067E772E0CE01DD
:1025A0004B960E947C04BE01655E7F4FAE014F5F7B
:1025B0005F4F7A01CA010E94730468E672E0C701A6
:1025C0000E942B04BC01CE014B960E944404C7011B
:1025D0000E946E0426E636E646E650E46091A702C5
:1025E0007091A8028091A9029091AA020E94A51759
:1025F0004B015C01BE01655E7F4FCE0145960E9496
:102600007304870122E044E0C501B4010E94311443
:10261000FC0101900020E9F73197AF01481B590BED
:10262000BC01CE0145960E94B403811104C0CE01C5
:1026300045960E94E2036DE672E0CE0145960E9447
:102640002B04BC01CE014B960E944404CE0145965A
:102650000E946E048FE0D7011D928A95E9F7B701B9
:10266000CE014B960E94380981E08093C00200EDB4
:1026700017E020E030E00093C1021093C2022093E3
:10268000C3023093C402C7010E94F208CE014B96E8
:102690000E946E046091E9037091EA038091EB035C
:1026A0009091EC0320EB36E340E050E00E94B91833
:1026B000672B682B692B09F061C067E772E0CE01D8
:1026C0004B960E947C048090D8039090D903A090F0
:1026D000DA03B090DB03BE01655E7F4FCE01459605
:1026E0000E94730463E772E0CE0145960E942B04BA
:1026F0006C019E012F5F3F4F7901890122E044E088
:10270000C501B4010E943114FC0101900020E9F7D9
:102710003197AF01481B590BBC01C6010E94B4039D
:10272000811103C0C6010E94E203B601CE014B969F
:102730000E944404CE0145960E946E048FE0D701AA
:102740001D928A95E9F7B701CE014B960E94380990
:1027500081E08093C00200ED17E020E030E00093BC
:10276000C1021093C2022093C3023093C402C70176
:102770000E94F208CE014B960E946E040E94D6027F
:102780000C94030B83E592E09093C0058093BF0502
:1027900080916F008B7F80936F0080916F008F7DA1
:1027A00080936F0080917B0280937C0280917A02FB
:1027B0008111FCCF80916F008D7F80936F00089511
:1027C000E8E1F5E01382128288EE93E0A0E0B0E049
:1027D00084839583A683B78321E432E03183208309
:1027E00025EC30E03587248724EC30E037872687D6
:1027F00020EC30E0318B208B21EC30E0338B228BCE
:1028000022EC30E0358B248B26EC30E0378B268BA6
:10281000118E128E138E148EEFEBF5E0138212825E
:1028200084839583A683B78383E592E09183808335
:1028300080910801909109019093BE058093BD0598
:102840008091B9059091BA05A091BB05B091BC05E6
:102850008093B5059093B605A093B705B093B805DE
:102860000895EF920F931F93CF93DF93E80147FDF5
:1028700002C034E001C034E1E42F440FFF0BF7FF46
:1028800003C0F195E195F109E32E022F2E2FAE0141
:102890000E94C914CE01DF91CF911F910F91EF904B
:1028A0000895FC0188279927E89421912032E9F3C3
:1028B000293010F02E30C8F32B3241F02D3239F48C
:1028C000689404C00E948514820F911D21912053A9
:1028D0002A30C0F31EF4909581959F4F0895FB0117
:1028E000DC0105900D920020E1F70895BB272A3006
:1028F00051F4992342F4BDE29095809570956195CD
:102900007F4F8F4F9F4F0C948E147AE0979F902D9E
:10291000879F802D910D11240895BB27FA01A62FC2
:102920006217710581059105330B30FB66F0AA270C
:10293000660F771F881F991FAA1FA21710F0A21BEE
:1029400063953850A9F7A05DAA3308F0A95DA1935B
:1029500036F7B111B1931082CA010C942F17BB271F
:10296000FB015527AA27880F991FAA1FA41710F04B
:10297000A41B83955051B9F7A05DAA3308F0A95D57
:10298000A193009779F7B111B1931192CB010C94F7
:102990002F174F925F926F927F929F92AF92BF924A
:1029A000CF92DF92EF92FF920F931F93CF93DF931B
:1029B000CDB7DEB729970FB6F894DEBF0FBECDBFF7
:1029C0006A01122FB02E2BE3201720F0FF24F3947E
:1029D000F00E02C0BCE3FB2E0F2D27E0AE014F5FCF
:1029E0005F4F0E945716AC018981982F99709130E2
:1029F00031F0E1FC06C0E0FE06C090E205C09DE2B9
:102A000003C09BE201C090E0EE2DE07183FF3CC06B
:102A1000911102C083E001C084E0811718F4212FD6
:102A2000281B01C020E0E1110BC0F601822F30E22B
:102A3000882319F031938150FBCFC20ED11C20E0C6
:102A4000992329F0D6019C93F60131966F01C601B6
:102A50000396E2FE0AC03EE4D6013C9341E411969F
:102A60004C93119712963C9306C03EE6F6013083D4
:102A700041E641833283FC01322F40E2332309F4E3
:102A800042C041933150FACF82FF44C0911102C03D
:102A900083E001C084E0811718F4212F281B01C0B6
:102AA00020E0E1110BC0F601822F30E2882319F0FB
:102AB00031938150FBCFC20ED11C20E0992329F025
:102AC000D6019C93F60131966F01C6010396E2FE92
:102AD0000BC039E4D6013C933EE411963C93119728
:102AE00036E412963C9307C039E6F60130833EE6A1
:102AF000318336E63283FC01322F40E2332319F072
:102B000041933150FBCFFC01E20FF11D10828EEF9B
:102B10009FEFB7C0F1E0911101C0F0E06F2F70E0BE
:102B20001416150624F49A012F5F3F4F02C021E0CE
:102B300030E0260F371FBB2029F06B2D70E06F5F50
:102B40007F4F02C060E070E0260F371F612F70E0FA
:102B5000261737071CF4121B212F01C020E03E2D41
:102B6000387159F4D601322F60E2332319F06D9396
:102B70003150FBCFC20ED11C20E0FF2331F0D60133
:102B80009C93B6016F5F7F4F6B01E1110BC0F601A3
:102B9000922F30E3992319F031939150FBCFC20E5D
:102BA000D11C20E09F2D940F3A81782F7071A72EB1
:102BB00084FF03C0313309F49150191624F499307D
:102BC00018F098E001C091E0E42F852F57FF02C074
:102BD000E0E080E06E2F782FE0E0F0E0AEE29A2EA9
:102BE0003A01691A71082A01461A570A0B2D10E09A
:102BF0001195019511096F3F8FEF780729F4D601E0
:102C00009C92C60101966C014617570784F0661620
:102C100077066CF47F01E40CF51CA1E0B0E0AC0F8A
:102C2000BD1FEA0EFB1ED7011196BC9002C090E3B7
:102C3000B92E615071093196C60101967C01601769
:102C4000710724F0D601BC926C01D5CF64177507CB
:102C500041F4363320F4353321F4A11002C081E36E
:102C6000B82EF601B082F701822F90E2882319F086
:102C700091938150FBCFF701E20FF11D108280E0AC
:102C800090E029960FB6F894DEBF0FBECDBFDF915E
:102C9000CF911F910F91FF90EF90DF90CF90BF9059
:102CA000AF909F907F906F905F904F9008952830E5
:102CB00008F027E03327DA01990F311D87FD916075
:102CC00000966105710539F432602E5F3D9330E363
:102CD0002A95E1F708959F3F30F08038710561052E
:102CE00009F03C5F3C5F3D93913008F08068911D96
:102CF000DF93CF931F930F93FF92EF92192F987F3B
:102D00009695E92F96959695E90FFF27EC5FFE4F74
:102D100099273327EE24FF24A701E70105900894A3
:102D2000079428F4360FE71EF81E491F511D660F41
:102D3000771F881F991F0694A1F70590079428F420
:102D4000E70EF81E491F561FC11D770F881F991FD8
:102D5000661F0694A1F70590079428F4F80E491F02
:102D6000561FC71FD11D880F991F661F771F069416
:102D7000A1F70590079420F4490F561FC71FD81FCD
:102D8000990F661F771F881F0694A9F784911095E5
:102D9000177041F0D695C79557954795F794E794E6
:102DA0001A95C1F7EAEAF0E068941590159135910B
:102DB0006591959105907FE27395E118F10A430BB7
:102DC000560BC90BD009C0F7E10CF11E431F561F6B
:102DD000C91FD01D7EF4703311F48A95E6CFE894B4
:102DE000015030F0080F0AF40027021708F4202FD2
:102DF0002395022F7A3328F079E37D932A95E9F71A
:102E000010C07D932A9589F6069497956795379516
:102E100017951794E118F10A430B560BC90BD0090B
:102E200098F023957E9173957A3308F070E37C9344
:102E30002013B8F77E9170617D9330F0839571E334
:102E40007D9370E32A95E1F71124EF90FF900F91A5
:102E50001F91CF91DF91992787FD90950895DC010F
:102E6000FC01672F71917723E1F7329704C07C91C1
:102E70006D9370836291AE17BF07C8F308950E94E7
:102E8000811708F481E00895E89409C097FB3EF4A7
:102E900090958095709561957F4F8F4F9F4F9923A7
:102EA000A9F0F92F96E9BB279395F6958795779525
:102EB0006795B795F111F8CFFAF4BB0F11F460FFE5
:102EC0001BC06F5F7F4F8F4F9F4F16C0882311F03D
:102ED00096E911C0772321F09EE8872F762F05C051
:102EE000662371F096E8862F70E060E02AF09A95EC
:102EF000660F771F881FDAF7880F9695879597F9E1
:102F00000895990F0008550FAA0BE0E8FEEF16167A
:102F10001706E807F907C0F012161306E407F507CD
:102F200098F0621B730B840B950B39F40A2661F041
:102F3000232B242B252B21F408950A2609F4A140E4
:102F4000A6958FEF811D811D08950E94B8170C94DE
:102F500029180E941B1838F00E94221820F095238F
:102F600011F00C9412180C94181811240C945D187C
:102F70000E943A1870F3959FC1F3950F50E0551FCA
:102F8000629FF001729FBB27F00DB11D639FAA27BE
:102F9000F00DB11DAA1F649F6627B00DA11D661F0D
:102FA000829F2227B00DA11D621F739FB00DA11D2E
:102FB000621F839FA00D611D221F749F3327A00DE8
:102FC000611D231F849F600D211D822F762F6A2F84
:102FD00011249F5750409AF0F1F088234AF0EE0FE9
:102FE000FF1FBB1F661F771F881F91505040A9F716
:102FF0009E3F510580F00C9412180C945D185F3FB1
:10300000E4F3983ED4F3869577956795B795F79551
:10301000E7959F5FC1F7FE2B880F911D96958795C9
:1030200097F9089597F99F6780E870E060E0089548
:103030009FEF80EC089500240A94161617061806D0
:103040000906089500240A941216130614060506AC
:103050000895092E0394000C11F4882352F0BB0F3D
:1030600040F4BF2B11F460FF04C06F5F7F4F8F4FA0
:103070009F4F089557FD9058440F551F59F05F3FDB
:1030800071F04795880F97FB991F61F09F3F79F08A
:1030900087950895121613061406551FF2CF46950C
:1030A000F1DF08C0161617061806991FF1CF86958E
:1030B0007105610508940895E894BB276627772772
:1030C000CB0197F90895052E97FB1EF400940E94FA
:1030D0007A1857FD07D00E94B91807FC03D04EF4A8
:1030E0000C947A1850954095309521953F4F4F4F4D
:1030F0005F4F089590958095709561957F4F8F4FA4
:103100009F4F08952F923F924F925F926F927F92BE
:103110008F929F92AF92BF92CF92DF92EF92FF92E7
:103120000F931F93CF93DF93CDB7DEB7CA1BDB0B93
:103130000FB6F894DEBF0FBECDBF09942A88398838
:1031400048885F846E847D848C849B84AA84B9843F
:10315000C884DF80EE80FD800C811B81AA81B9814B
:10316000CE0FD11D0FB6F894DEBF0FBECDBFED015F
:103170000895A1E21A2EAA1BBB1BFD010DC0AA1FB8
:10318000BB1FEE1FFF1FA217B307E407F50720F0D0
:10319000A21BB30BE40BF50B661F771F881F991F4B
:1031A0001A9469F760957095809590959B01AC0194
:1031B000BD01CF010895A29FB001B39FC001A39F9D
:1031C000700D811D1124911DB29F700D811D112460
:1031D000911D08955058BB27AA270E9402190C94EC
:1031E00029180E941B1838F00E94221820F039F488
:1031F0009F3F19F426F40C9418180EF4E095E7FBA1
:103200000C941218E92F0E943A1858F3BA17620763
:1032100073078407950720F079F4A6F50C945C18E1
:103220000EF4E0950B2EBA2FA02D0B01B9019001E1
:103230000C01CA01A0011124FF27591B99F0593F25
:1032400050F4503E68F11A16F040A22F232F342F6D
:103250004427585FF3CF469537952795A795F040BB
:103260005395C9F77EF41F16BA0B620B730B840BD0
:10327000BAF09150A1F0FF0FBB1F661F771F881F88
:10328000C2F70EC0BA0F621F731F841F48F48795E0
:1032900077956795B795F7959E3F08F0B0CF9395D2
:1032A000880F08F09927EE0F9795879508950E944B
:1032B0001B1860F080E891E009F49EEF0E9422184C
:1032C00028F040E851E071F45EEF0CC00C9418183F
:1032D0000C945C18E92FE0780E943A1840F3092E0C
:1032E000052AB1F3261737074807590738F00E2E7D
:1032F00007F8E02569F0E025E0640AC0EF6307F80D
:10330000009407FADB01B9019D01DC01CA01AD019E
:10331000EF930E94E0190E9429180E949A195F9168
:10332000552339F02BED3FE049E450FD49EC0C9476
:10333000EB180895DF93DD27B92FBF7740E85FE3EF
:103340001616170648075B0718F4D92F0E949D1A16
:103350009F938F937F936F930E94EB1AECE7F0E0BB
:103360000E94711A0E9429182F913F914F915F91ED
:103370000E94B817DD2351F09058A2EA2AED3FE0F1
:1033800049EC5FE3D0785D270E940219DF910C942D
:1033900029180E94DD190C9429180E94221858F04F
:1033A0000E941B1840F029F45F3F29F00C9412187A
:1033B00051110C945D180C9418180E943A1868F377
:1033C0009923B1F3552391F3951B550BBB27AA27DE
:1033D00062177307840738F09F5F5F4F220F331F18
:1033E000441FAA1FA9F335D00E2E3AF0E0E832D0E0
:1033F00091505040E695001CCAF72BD0FE2F29D0E3
:10340000660F771F881FBB1F261737074807AB07B4
:10341000B0E809F0BB0B802DBF01FF2793585F4F29
:103420003AF09E3F510578F00C9412180C945D18F8
:103430005F3FE4F3983ED4F3869577956795B7950B
:10344000F7959F5FC9F7880F911D9695879597F916
:103450000895E1E0660F771F881FBB1F621773078F
:103460008407BA0720F0621B730B840BBA0BEE1FA4
:1034700088F7E09508950E94421A6894B1110C945F
:103480005D1808950E94421888F09F5798F0B92F50
:103490009927B751B0F0E1F0660F771F881F991F89
:1034A0001AF0BA95C9F714C0B13091F00E945C18B7
:1034B000B1E008950C945C18672F782F8827B85FC7
:1034C00039F0B93FCCF3869577956795B395D9F7E1
:1034D0003EF490958095709561957F4F8F4F9F4FEB
:1034E0000895DF93CF931F930F93FF92EF92DF9294
:1034F0007B018C01689406C0DA2EEF010E94B81798
:10350000FE01E894A5912591359145915591A6F339
:10351000EF010E940219FE019701A801DA9469F7F0
:10352000DF90EF90FF900F911F91CF91DF91089561
:103530000E94811708F48FEF08959B01AC0160E0B1
:1035400070E080E89FE30C94C91919F416F40C9408
:1035500018180C94EF1A0E944218B8F39923C9F373
:10356000B6F39F57550B87FF0E94FD1A0024A0E673
:1035700040EA900180585695979528F4805C660F34
:10358000771F881F20F026173707480730F4621B83
:10359000730B840B202931294A2BA6951794079485
:1035A000202531254A2758F7660F771F881F20F0FE
:1035B00026173707480730F4620B730B840B200D76
:1035C000311D411DA09581F7B901842F9158880FB5
:1035D0009695879508959B01AC010C94A5179F3F84
:1035E00031F0915020F4879577956795B795880FBE
:1035F000911D9695879597F9089591505040660FC3
:10360000771F881FD2F70895AA1BBB1B51E107C083
:10361000AA1FBB1FA617B70710F0A61BB70B881F62
:10362000991F5A95A9F780959095BC01CD010895F1
:10363000EE0FFF1F0590F491E02D0994CF93DF93D7
:103640008230910510F482E090E0E091CD05F09198
:10365000CE0520E030E0C0E0D0E0309711F14081AD
:10366000518148175907C0F04817590761F4828102
:103670009381209719F09B838A832BC09093CE056A
:103680008093CD0526C02115310519F04217530747
:1036900018F49A01BE01DF01EF010280F381E02DF1
:1036A000DCCF2115310509F1281B390B24303105F8
:1036B00090F412968D919C9113976115710521F0EC
:1036C000FB019383828304C09093CE058093CD0544
:1036D000FD01329644C0FD01E20FF31F81939193E7
:1036E000225031092D933C933AC02091CB05309163
:1036F000CC05232B41F420910C0130910D01309326
:10370000CC052093CB0520910A0130910B012115A6
:10371000310541F42DB73EB740910E0150910F0194
:10372000241B350BE091CB05F091CC05E217F30794
:10373000A0F42E1B3F0B2817390778F0AC014E5F21
:103740005F4F2417350748F04E0F5F1F5093CC058D
:103750004093CB058193919302C0E0E0F0E0CF016C
:10376000DF91CF9108950F931F93CF93DF9300972D
:1037700009F48CC0FC013297138212820091CD05AE
:103780001091CE050115110581F420813181820F40
:10379000931F2091CB053091CC052817390779F577
:1037A000F093CC05E093CB0571C0D80140E050E028
:1037B000AE17BF0750F412962D913C911397AD01AF
:1037C0002115310509F1D901F3CF9D01DA013383C8
:1037D000228360817181860F971F8217930769F496
:1037E000EC0128813981260F371F2E5F3F4F31832F
:1037F00020838A819B8193838283452B29F4F093D4
:10380000CE05E093CD0542C01396FC93EE9312973C
:10381000ED01499159919E01240F351FE217F307DD
:1038200071F480819181840F951F029611969C936B
:103830008E938281938113969C938E931297E0E0EE
:10384000F0E0D80112968D919C911397009719F092
:10385000F8018C01F6CF8D919C9198012E5F3F4F1E
:10386000820F931F2091CB053091CC052817390783
:1038700069F4309729F41092CE051092CD0502C05C
:10388000138212821093CC050093CB05DF91CF9168
:103890001F910F910895A0E0B0E0E1E5FCE10C94E8
:1038A0008618EC01009721F4CB010E941E1BB8C0C2
:1038B000FC01E60FF71F9C0122503109E217F307C4
:1038C00008F4ACC0D9010D911C9111970617170788
:1038D000B0F00530110508F49FC0C80104978617A1
:1038E000970708F499C002501109061B170B0193A2
:1038F00011936D937C93CF010E94B31B8DC05B012C
:10390000A01AB10A4C01800E911EA091CD05B09174
:10391000CE0540E050E0E12CF12C109709F44AC0AC
:10392000A815B905D1F56D907C901197630182E0DF
:10393000C80ED11CCA14DB0480F1A3014A195B092B
:103940006A0182E0C80ED11C1296BC9012971396A1
:10395000AC91B5E0CB16D10440F0B282A383518381
:103960004083D9016D937C930AC00E5F1F4FC30142
:10397000800F911FF90191838083EB2DFA2FE114C1
:10398000F10431F0D7011396FC93EE93129744C0E3
:10399000F093CE05E093CD053FC08D919C9111979A
:1039A0004817590708F4AC017D0112960D90BC919F
:1039B000A02DB3CF8091CB059091CC0588159905AA
:1039C000E1F446175707C8F480910A0190910B0162
:1039D000009741F48DB79EB740910E0150910F01B1
:1039E000841B950BE817F907C8F4F093CC05E09316
:1039F000CB05F901718360830FC0CB010E941E1BB0
:103A00007C01009759F0A801BE010E941A1DCE0149
:103A10000E94B31BC70104C0CE0102C080E090E049
:103A2000CDB7DEB7EEE00C94A21881E090E0F894F8
:103A30000C94391DFB01DC0102C001900D92415034
:103A40005040D8F70895FB01DC0101900D92002051
:103A5000E1F70895FB01DC014150504048F001902E
:103A60000D920020C9F701C01D9241505040E0F76F
:103A7000089511E0CFEAD1E004C0FE010E94181BB6
:0C3A80002196C03BD107C9F7F894FFCF96
:103A8C00EA00010000803F01A1090000CF05800081
:103A9C004641494C5341464500000000000000459A
:103AAC004D455247454E435900000000000043412C
:103ABC004C4942524154494E4700000000327C8927
:103ACC0000EDD968770000005900000000000000EC
:103ADC0000D69FDCA81817AA90437327F6B968ED97
:103AEC00F4DED409FEE61C1C84DDE80B992927D6EC
:103AFC00DF8D210F036418EFEE1EF0B78282009465
:103B0C001500347C0000001400988F0000000000A9
:103B1C00000000000000E7B73F3600000000000086
:103B2C0000AF669ED03800000000000000000000CE
:103B3C000000000000000000000000000000000079
:103B4C000000000000000000000000000000000069
:103B5C0000000086DBD0BC5416131586004E44BD05
:103B6C007F6F1515900100000000000000000000A0
:103B7C000000000000000000000000000000000039
:103B8C000000000000000000000000000000000029
:103B9C000000000000000000000000000000000019
:103BAC000000000000000000000000000000000009
:103BBC00000000000000CC31AA2C532E00000000A5
:103BCC00006D02DA010502B402360214022802006A
:103BDC000000002C03DA01E0022703EF021103FEC0
:103BEC0002413A0020533A0057533A2000206B6DA3
:083BFC002F680057443A200035
:00000001FF
