:100000000C9433010C945B010C945B010C945B0128
:100010000C945B010C945B010C945B010C945B01F0
:100020000C945B010C945B010C9417050C94C105B6
:100030000C94D0040C945B010C945B010C945B0158
:100040000C9486040C945B010C9454040C942E04C0
:100050000C945B010C945B010C945B010C945B01B0
:100060000C945B010C945B019A069A06A606C406E2
:10007000BA06CD06DA06F4060F073007084AD73B62
:100080003BCE016E84BCBFFDC12F3D6C74319ABD67
:1000900056833DDA3D00C77F11BED9E4BB4C3E918B
:1000A0006BAAAABE000000803F000000000800020A
:1000B0000100000304070000000000000000000031
:1000C0000000250028002B0000000000240027006D
:1000D0002A000404040404040404020202020202CA
:1000E00003030303030301020408102040800102FC
:1000F000040810200102040810204D414E55414CC7
:10010000000000000000000000504F534954494FC8
:100110004E5F484F4C440000414E474C45000000A4
:1001200000000000000000000000000000000000CF
:100130000000000000004143524F0000000000009A
:100140000000000000414C5449545544455F484F5D
:100150004C4400000000000000000000000000000F
:10016000000000000000000000000000000000008F
:10017000000000000000000000000000000000007F
:10018000000000000000000000000000000000006F
:100190004D495353494F4E000000000000000052EB
:1001A00054480000000000000000000000000000B3
:1001B000000000000000000000000000000000003F
:1001C000000000000000000000000000000000002F
:1001D00000000000000000000000004C41554E43AC
:1001E00048000000000000000000000000000000C7
:1001F00000000000000000000000000000000000FF
:1002000000000000000000000000000000000000EE
:1002100000000000000000000000000000000000DE
:1002200000000000000000000000000000000000CE
:1002300000000000000000000000000000000000BE
:1002400000000000000000000000000000000000AE
:10025000000000000000000000000000000000009E
:100260000000C112A31211241FBECFEFD8E0DEBFE1
:10027000CDBF12E0A0E0B1E0E8E3F3E302C00590F7
:100280000D92AC38B107D9F725E0ACE8B2E001C077
:100290001D92AF3DB207E1F711E0C2E3D1E004C027
:1002A0002197FE010E947317C133D107C9F70E943D
:1002B00024090C948F190C940000CF92DF92EF92D6
:1002C000FF920F931F93CF93DF936C017A018B0101
:1002D000C0E0D0E0CE15DF0589F0D8016D918D0129
:1002E000D601ED91FC910190F081E02DC6010995B8
:1002F000892B11F47E0102C02196ECCFC701DF915A
:10030000CF911F910F91FF90EF90DF90CF900895C4
:10031000FC01538D448D252F30E0842F90E0821B0B
:10032000930B541710F0CF96089501970895FC0190
:10033000918D828D981761F0828DDF01A80FB11D1C
:100340005D968C91928D9F5F9F73928F90E0089540
:100350008FEF9FEF0895FC01918D828D981731F0FA
:10036000828DE80FF11D858D90E008958FEF9FEF4E
:100370000895FC01918D228D892F90E0805C9F4F24
:10038000821B91098F739927089588E295E00E9456
:10039000B90121E0892B09F420E0822F0895FC01A6
:1003A000848DDF01A80FB11DA35ABF4F2C91848DFE
:1003B00090E001968F739927848FA689B7892C9333
:1003C000A089B1898C9180648C93938D848D9813CE
:1003D00006C00288F389E02D80818F7D8083089597
:1003E000EF92FF920F931F93CF93DF93EC0181E085
:1003F000888F9B8D8C8D981305C0E889F989808141
:1004000085FD24C0F62E0B8D10E00F5F1F4F0F737C
:100410001127E02E8C8DE8120CC00FB607FCFACF26
:10042000E889F989808185FFF5CFCE010E94CF014F
:10043000F1CF8B8DFE01E80FF11DE35AFF4FF082E3
:100440000B8FEA89FB898081806207C0EE89FF8972
:100450006083E889F98980818064808381E090E00D
:10046000DF91CF911F910F91FF90EF900895CF935F
:10047000DF93EC01888D8823C9F0EA89FB898081AC
:1004800085FD05C0A889B9898C9186FD0FC00FB67E
:1004900007FCF5CF808185FFF2CFA889B9898C91BF
:1004A00085FFEDCFCE010E94CF01E7CFDF91CF9145
:1004B000089580E090E0892B29F00E94C501811108
:1004C0000C940000089540918D0250918C02852F6C
:1004D00090E0242F30E0451710F08C5B9F4F821B7B
:1004E000930B08955091900240918F02852F90E0D8
:1004F000242F30E0541710F4805B9F4F821B930B26
:10050000089580919002E0918F028E1751F0EF5F75
:10051000E03508F0E0E0F0E0E353FB4F808190E04D
:1005200008958FEF9FEF08958091900290918F0230
:10053000891769F09F5F903508F090E0E92FF0E0AF
:10054000E353FB4F808190938F0290E008958FEFEB
:100550009FEF089580918E028111FCCF08958091C4
:100560008D028F5F843408F080E090918C029817A0
:10057000E1F32FB7F89490918E02992341F0E82F80
:10058000F0E0ED57FB4F608380938D021DC081E04A
:1005900080938E026093C8041092C70482E086BBE9
:1005A00080916F00826080936F00809180008F73D4
:1005B00080688093800080918400909185004096AF
:1005C00090938900809388002FBF81E090E0089588
:1005D000FB012081822790E1899F90011124282727
:1005E000822F90E0582F44279C0163E0220F331F95
:1005F0006A95E1F742275327218130E024273527E8
:1006000074E0959587957A95E1F7822793279183F2
:1006100080830895089580E090E008950F931F93DC
:10062000CF93DF93EC0188819981009729F02A818B
:100630003B812617370788F48B016F5F7F4F0E943D
:10064000A618009761F0998388831B830A832C8105
:100650003D81232B11F4FC01108281E001C080E078
:10066000DF91CF911F910F910895EF92FF920F9319
:100670001F93CF93DF93FC012481358161157105B0
:1006800011F480E019C041155105A9F07B01EC017E
:100690008A01020F131FB8010E940E03882389F3F9
:1006A000288139818C819D81B701820F931F0E941F
:1006B00079191D830C8381E0DF91CF911F910F91F8
:1006C000FF90EF900895CF93DF93EC01888199819B
:1006D000009711F00E940E18198218821D821C8248
:1006E0001B821A82DF91CF910895EF92FF920F93B0
:1006F0001F93CF93DF93CDB7DEB72E970FB6F89445
:10070000DEBF0FBECDBF7C01CB01BA012AE08E0156
:100710000F5F1F4FA8010E943713F80101900020BE
:10072000E9F73197AF01401B510BB801C7010E9497
:100730003503811103C0C7010E946303C7012E96D0
:100740000FB6F894DEBF0FBECDBFDF91CF911F91E2
:100750000F91FF90EF900895CF93DF93EC01611517
:10076000710561F0FB0101900020E9F73197AF01BD
:10077000461B570B0E943503811103C0CE010E9416
:100780006303CE01DF91CF910895EF92FF920F9313
:100790001F93CF93DF93EC017B018A01BA010E9482
:1007A0000E03811104C0CE010E94630307C01D83A4
:1007B0000C83B701888199810E947919CE01DF915C
:1007C000CF911F910F91FF90EF900895CF93DF93FA
:1007D000EC016115710559F0FB0101900020E9F76A
:1007E0003197AF01461B570B0E94C50302C00E9400
:1007F0006303CE01DF91CF910895CF93DF93EC0196
:10080000FB018617970761F06081718161157105A1
:1008100029F0448155810E94C50302C00E946303F0
:10082000CE01DF91CF910895FC01808191810C94DC
:100830000E18FC011182108213821282158214821A
:100840006115710551F0FB0101900020E9F7319726
:10085000AF01461B570B0C94C50308951F920F92CE
:100860000FB60F9211242F933F934F935F936F9383
:100870007F938F939F93AF93BF93EF93FF9388E200
:1008800095E00E94CF01FF91EF91BF91AF919F91B1
:100890008F917F916F915F914F913F912F910F9029
:1008A0000FBE0F901F9018951F920F920FB60F92C8
:1008B00011242F938F939F93EF93FF93E09138052B
:1008C000F09139058081E0913E05F0913F0582FD70
:1008D00012C09081809141058F5F8F7320914205F6
:1008E000821751F0E0914105F0E0E85DFA4F958FF5
:1008F0008093410501C08081FF91EF919F918F917D
:100900002F910F900FBE0F901F9018951F920F926E
:100910000FB60F9211242F933F938F939F93AF9312
:10092000BF938091970290919802A0919902B09103
:100930009A023091210523E0230F2D3720F40196F0
:10094000A11DB11D05C026E8230F0296A11DB11DF2
:10095000209321058093970290939802A093990287
:10096000B0939A0280911D0590911E05A0911F05DC
:10097000B09120050196A11DB11D80931D05909396
:100980001E05A0931F05B0932005BF91AF919F91C5
:100990008F913F912F910F900FBE0F901F90189540
:1009A0001F920F920FB60F9211242F938F939F9344
:1009B000EF93FF9380916F008B7F80936F00809106
:1009C00081008F7B80938100809191022091CC04E3
:1009D00020589091CB04893020F49695922B8F5F0C
:1009E000FACF9093CB04809190028F5F803508F00E
:1009F00080E020918F02821739F0E82FF0E0E35376
:100A0000FB4F90838093900210929102809181001D
:100A10008F7B809381001092CC04FF91EF919F9186
:100A20008F912F910F900FBE0F901F9018951F92CE
:100A30000F920FB60F9211242F933F934F935F9312
:100A40006F937F938F939F93AF93BF93EF93FF9396
:100A500080918600909187004091CC042091810084
:100A6000442331F02F7B209381001092CC0406C0E8
:100A700020642093810020E82093CC0430919102DF
:100A8000311125C041116CC0209192023091930226
:100A9000280F391F30938B0020938A0024E026BB57
:100AA00020916F00246020936F0020919402309178
:100AB0009502820F931F36952795820F931F90936F
:100AC000CA048093C90481E08093910249C0409197
:100AD000C9045091CA046091940270919502DB019F
:100AE000A095B095E091CC042091CB04841B950B8C
:100AF000A817B90768F126952E2B460F571F3F5FA1
:100B0000861B970B3930A0F32093CB0480916F00A4
:100B10008B7F80936F00809190028F5F803508F00B
:100B200080E090918F02891749F0E82FF0E09091D2
:100B3000CB04E353FB4F908380939002809181001C
:100B40008F7B809381001092CC041092910208C098
:100B50002093CB045093CA044093C904309391026C
:100B6000FF91EF91BF91AF919F918F917F916F9185
:100B70005F914F913F912F910F900FBE0F901F905B
:100B800018951F920F920FB60F9211242F933F9337
:100B90004F935F936F937F938F939F93EF93FF9305
:100BA00080918E026091C804209188003091890064
:100BB00040919402509195029091C7048A30F8F4C4
:100BC000240F351F893019F0762F717001C071E044
:100BD00066958F5F791791F390918000772311F0DC
:100BE000906C02C09F73906890938000309389004E
:100BF000209388007093C7046093C8044AC0909102
:100C00008D02E0918C029E1319C08A3051F48BE062
:100C100080938E02240F351F309389002093880023
:100C20003AC010928E02809180008F738093800072
:100C300080916F008D7F80936F002DC0EF5FE43453
:100C400008F0E0E0E0938C02F0E0ED57FB4F90817C
:100C50009093C8041092C704909180009F7390688D
:100C6000909380008A3059F480919402909195027B
:100C7000280F391F309389002093880009C0809184
:100C8000840090918500409690938900809388001D
:100C900081E080938E02FF91EF919F918F917F91E0
:100CA0006F915F914F913F912F910F900FBE0F90D9
:100CB0001F9018952F923F924F925F926F927F9262
:100CC0008F929F92AF92BF92CF92DF92EF92FF925C
:100CD0000F931F93CF93DF93CDB7DEB7C657D109DC
:100CE0000FB6F894DEBF0FBECDBFEE24E394F12C17
:100CF00052E0252E312CCC24CA94DC2C8FEC95E0CC
:100D00000E947202181619060CF0C9C18FEC95E00A
:100D10000E9494023C01082F1092F903E091FC0319
:100D2000F091FD03EA30F10508F0D5C0EC5CFF4F0F
:100D30000C9473178E3F09F0CEC03092FD032092C1
:100D4000FC031092080480930704A3C0863630F099
:100D50008091FA038F5F8093FA03A0C08093080408
:100D60001092FE0365E074E00E94E80234E0832EF6
:100D7000912C2DC08093090465E074E00E94E80284
:100D800023E0A22EB12C2BC080930A0465E074E00E
:100D90000E94E80225E030E03DC080930B0465E04E
:100DA00074E00E94E80286E090E09093FD03809357
:100DB000FC0391C080930C0465E074E00E94E8029B
:100DC00080910804811108C098E0892E912C90929E
:100DD000FD038092FC037FC087E0A82EB12CB09267
:100DE000FD03A092FC0377C0E091FE037724739487
:100DF0007E0E7092FE03F0E0E35FFB4F608265E0E1
:100E000074E0862D0E94E80280910804781263C085
:100E100028E030E03093FD032093FC035CC0E091B8
:100E20000C04F0E0E35CFE4F65E074E080810E941A
:100E3000E8028091050490910604992793013327D5
:100E400028173907F1F489E090E09093FD0380932F
:100E5000FC03E091FE03F0E0E35FFB4F60823BC0E8
:100E600090910604E6969FAFE697E7961FAEE79748
:100E7000C3019927E7968EAC9FACE7978815990533
:100E800091F00E3F59F43092FD032092FC03109232
:100E90000804D0920604C09205041DC0F092FD0320
:100EA000E092FC0318C081E08093F903F092FD0307
:100EB000E092FC03E091FE03F0E0E25FFB4F608212
:100EC00080E7E5E0F4E0DE01119601900D928A954D
:100ED000E1F710910C042091F903213099F48091ED
:100EE00009048093FF03809101049091020400970C
:100EF00021F41092040410920304019690930204CA
:100F0000809301041092FB03222309F4F7CE1132DF
:100F100009F468C070F4113029F108F494C0183154
:100F200009F0ECCE8EA19DA19093CA028093C102DC
:100F3000E5CE1A3449F1183A09F498C0133209F091
:100F4000DDCE2E8D30E0AFEFB3E00E9436152FEFEF
:100F500030E040E050E00E94BE143093A2022093A3
:100F6000A102CCCE298D3A8D4FA18F89988D64E650
:100F700070E00E945F176093CB024093820430932D
:100F8000A00220939F02BACE4D855E856F85788939
:100F90008D899E89AF89B88D298D3A8DEB8D4984D5
:100FA0005A846B847C8440927E0450927F046092C9
:100FB0008004709281044093B2025093B302609314
:100FC000B4027093B5023093BB022093BA02E0934F
:100FD0007D0480939B0290939C02A0939D02B0930A
:100FE0009E028CCE4D845E846F84788849895A89AC
:100FF0006B897C898D899E89AF89B88D898C9A8C03
:10100000AB8CBC8C8092B6029092B702A092B802D0
:10101000B092B9024092C6025092C7026092C802D2
:101020007092C9024093C2025093C3026093C402FB
:101030007093C5028093BD029093BE02A093BF023D
:10104000B093C0025BCE89859A85AB85BC85288923
:101050003F85309396022093BC028093C9059093FC
:10106000CA05A093CB05B093CC0548CE8D859E854F
:10107000AF85B88949855A856B857C85409379040D
:1010800050937A0460937B0470937C04809375047E
:1010900090937604A0937704B09378042FCECA5827
:1010A000DF4F0FB6F894DEBF0FBECDBFDF91CF91FB
:1010B0001F910F91FF90EF90DF90CF90BF90AF9076
:1010C0009F908F907F906F905F904F903F902F9068
:1010D0000895FC019FE0A3EAB2E001900D929A9579
:1010E000E1F70895CF92DF92EF92FF92CF93DF93D3
:1010F000CDB7DEB72F970FB6F894DEBF0FBECDBFCA
:101100006B017C012091C9053091CA054FE0429FD7
:10111000C001439F900D1124BC0166507F4FCE014A
:1011200001960E94301381E08093CC02C092CD02E0
:10113000D092CE02E092CF02F092D002CE01019680
:101140000E9469082F960FB6F894DEBF0FBECDBF80
:10115000DF91CF91FF90EF90DF90CF900895CF92E5
:10116000DF92EF92FF920F931F93CF93DF931F9223
:10117000CDB7DEB7D82EF62EC42E809122059091E1
:101180002305DC01ED91FC910190F081E02D64E2FA
:10119000798309958091220590912305DC01ED91D9
:1011A000FC910190F081E02D6DE40995809122057C
:1011B00090912305DC01ED91FC910190F081E02DEF
:1011C0006CE309958091220590912305DC01ED9156
:1011D000FC910190F081E02D6C2D09958091220504
:1011E00090912305DC01ED91FC910190F081E02DBF
:1011F0006D2D0995DC24EF2C0F2D7981172F80910F
:10120000220590912305202F2E192C1560F4F8014A
:1012100061918F01D626DC01ED91FC910190F08166
:10122000E02D0995ECCFDC01ED91FC910190F0816E
:10123000E02D6D2D0F90DF91CF911F910F91FF90B9
:10124000EF90DF90CF900994CF93DF93CDB7DEB7C7
:10125000A5970FB6F894DEBF0FBECDBF789484B5C6
:10126000826084BD84B5816084BD85B5826085BDA2
:1012700085B5816085BD80916E00816080936E0030
:101280001092810080918100826080938100809122
:1012900081008160809381008091800081608093D3
:1012A00080008091B10084608093B1008091B00093
:1012B00081608093B00080917A00846080937A008E
:1012C00080917A00826080937A0080917A008160B8
:1012D00080937A0080917A00806880937A001092DF
:1012E000C100E0913805F091390582E08083E091FA
:1012F0003405F09135051082E0913605F0913705FF
:1013000080E1808310924005E0913C05F0913D051D
:1013100086E08083E0913A05F0913B058081806111
:101320008083E0913A05F0913B058081886080835D
:10133000E0913A05F0913B05808180688083E091DF
:101340003A05F0913B0580818F7D808388E295E0AE
:10135000909323058093220584EF91E0A0E0B0E014
:101360008093240590932505A0932605B093270527
:1013700010926F001092800081E88093810086E1D6
:1013800091E090939502809394028BE09AE0909381
:10139000930280939202EEEEF0E02491EAEDF0E009
:1013A00084918823C9F090E0880F991FFC01E853CD
:1013B000FF4F45915491FC01E254FF4FA591B49128
:1013C0009FB7F894FA013081822F80958323808320
:1013D000EC91E22BEC939FBFE3EBF0E034914FEE06
:1013E00050E0FA0164918BED90E0FC0124912223FE
:1013F000B9F1332339F1333091F038F43130A9F0B9
:10140000323001F534B53F7D12C0373091F03830BD
:10141000A1F03430B9F4309180003F7D03C03091A9
:1014200080003F77309380000DC034B53F7734BDE6
:1014300009C03091B0003F7703C03091B0003F7DCC
:101440003093B00030E0220F331F22543F4FF90198
:10145000A591B4912FB7F8943C91632B6C932FBF57
:10146000FA014491FC018491882399F090E0880F5F
:10147000991FFC01E853FF4FA591B491FC01E25480
:10148000FF4F859194918FB7F8949C91492B4C9381
:101490008FBF109291021092900210928F021092C0
:1014A0008E0210928D0210928C0280E286BB809395
:1014B0006F008E010F5F1F4F0E945A062FB7F894DE
:1014C0008091970290919802A0919902B0919A020E
:1014D0002FBF4091F5035091F6036091F70370918F
:1014E000F8036C017D01C41AD50AE60AF70AB701B0
:1014F000A601443651056105710508F41EC68093A6
:10150000F5039093F603A093F703B093F80380914B
:10151000EC039091ED03A091EE03B091EF030097DF
:10152000A105B10509F49AC08090E8039090E90301
:10153000A090EA03B090EB0381149104A104B104DC
:1015400009F48CC0C090C602D090C702E090C802D7
:10155000F090C902BC01CD016C197D098E099F096B
:101560000E94A1136B017C018091C2029091C30281
:10157000A091C402B091C502A5019401281B390BAA
:101580004A0B5B0BCA01B9010E94A1132091030110
:101590003091040140910501509106010E94001410
:1015A0004B015C01A7019601C701B6010E9400141E
:1015B0002B013C01A5019401C501B4010E94001456
:1015C0009B01AC01C301B2010E9446150E9406179F
:1015D0002CE23DE74EE85FE30E9400140E949D1656
:1015E0002B013C01C701B6019058A50194010E944E
:1015F000C51520EA3CE043EB55E40E94001420E0CE
:1016000030EA4CE056E40E9446150E9496166B01A3
:101610007C0197FF06C030EAC30E3CE8D31EE11CF4
:10162000F11CC301B20124E630E040E050E00E942A
:10163000141520938F03309390034093910350939C
:101640009203C701B60124E630E040E050E00E947A
:10165000BE143093E3032093E2030CC010928F0377
:101660001092900310929103109292031092E30350
:101670001092E203209196028091CF039091D003C3
:10168000A091D103B091D20327FF02C0816001C0B5
:101690008E7F8093CF039093D003A093D103B09318
:1016A000D2034091C9055091CA056091CB05709154
:1016B000CC058091CF039091D003A091D103B0913C
:1016C000D203423051056105710511F4826001C0F9
:1016D0008D7F8093CF039093D003A093D103B093D9
:1016E000D2032091BC0225508091CF039091D0036A
:1016F000A091D103B091D203223010F4806101C0D7
:101700008F7E8093CF039093D003A093D103B093A7
:10171000D2038091CF039091D003A091D103B091D7
:10172000D2034B3051056105710511F4806201C08F
:101730008F7D8093CF039093D003A093D103B09378
:10174000D20360919F027091A002072E000C880BBB
:10175000990B0E94A11320E030E040E251E40E9486
:1017600000146B017C012FB7F8946091970270917F
:1017700098028091990290919A022FBF0E949F1324
:101780002091D5023091D6024091D7025091D802D3
:101790000E9445159B01AC01C701B6010E940014CF
:1017A00020E03AEB4BE55AE40E9424162091D10246
:1017B0003091D2024091D3025091D4020E9446153A
:1017C0006093D1027093D2028093D3029093D4029B
:1017D0000E949D167093B1036093B0032FB7F894E5
:1017E00060919702709198028091990290919A026B
:1017F0002FBF0E949F136093D5027093D6028093EF
:10180000D7029093D8026091F1037091F203809116
:10181000F3039091F40324E833E040E050E00E94A9
:10182000141520910701672B682B692BD1F4213007
:10183000C1F48091CD059091CE05813D9740D8F0BF
:1018400080910801909109012091000130910101DE
:1018500030930901209308019093010180930001C6
:101860000AC0211108C08091CD059091CE059093BA
:101870000901809308016BE872E0CE014C960E944A
:1018800019048091E2039091E3032091BA02309110
:10189000BB02821B930B7C0158E9E51A5EEFF50A47
:1018A000A9E6EA16A1E0FA0608F07C016BE872E00E
:1018B000CE0146960E941904B3E0EB16F10418F429
:1018C00061E672E011C0B70180E090E00E949F13D2
:1018D0004B015C0120E030E044EB51E40E949A139C
:1018E00018163CF065E672E0CE0146960E94E603CB
:1018F00067C020E030E047E852E4C501B4010E942F
:101900009A1318161CF069E672E0EECF20E030E082
:1019100041EE52E4C501B4010E949A1318161CF05E
:101920006DE672E0E1CF20E030E84DE153E4C5011F
:10193000B4010E949A1318161CF061E772E0D4CF2C
:1019400020E030E84AE453E4C501B4010E949A1350
:1019500018161CF065E772E0C7CF20E030E847E7D3
:1019600053E4C501B4010E949A1318161CF069E7EC
:1019700072E0BACF20E030E442E953E4C501B4019B
:101980000E949A1318161CF06DE772E0ADCF20E0AC
:1019900030EC48EA53E4C501B4010E949A131816CA
:1019A0001CF061E872E0A0CFE7E6EE16E1E0FE068B
:1019B00008F498CFF9E6EF16F1E0FF0608F480CFBF
:1019C0008091CC028111B8C06091B6027091B702CB
:1019D0008091B8029091B90228EE33E040E050E0E7
:1019E0000E94BE141A8219821C821B821E821D82D2
:1019F000BE01645E7F4FC8012AA33BA34CA35DA335
:101A00000E94FD0365E872E0C8010E94AC032AA1B0
:101A10003BA14CA15DA1BA01A9010E947503BC01C3
:101A2000CE014C960E94FD03C8010E94140426E6D4
:101A300036E646E650E46091B2027091B3028091BE
:101A4000B4029091B5020E9400140E949D164B01B1
:101A50005C01198A188A1B8A1A8A1D8A1C8ABE018F
:101A6000645E7F4FCE0140960E94FD0367E872E0FE
:101A7000CE0140960E94AC037C014AE0B801C4014B
:101A80000E947013F80101900020E9F73197AF012F
:101A9000401B510BB801C7010E943503811103C0DF
:101AA000C7010E946303B701CE014C960E94FD035B
:101AB000CE0140960E9414041A8219821C821B8255
:101AC0001E821D82BE01645E7F4FC8010E94FD031D
:101AD0006AE872E0C8010E94AC037C014A8D5B8D0C
:101AE0006E897F890E943503811103C0C7010E945E
:101AF0006303B701CE014C960E94FD03C8010E940A
:101B00001404E8A0F9A0E114F10419F41092D3032D
:101B10001EC02EE0E216F10418F09EE0E92EF12C32
:101B20006C8D7D8DA70183ED93E00E948019F701F4
:101B3000ED52FC4F10820BC0813049F48FE0E3EA94
:101B4000F2E0A3EDB3E001900D928A95E1F74FE04A
:101B500063ED73E08AE00E94AF088091CF0390911B
:101B6000D003A091D103B091D2038093BF0390938F
:101B7000C003A093C103B093C20346E169EB73E0D5
:101B800085E60E94AF088091CB028093B2038091DA
:101B9000A1029091A2029093B6038093B503809125
:101BA0009F029091A0029093B8038093B703809115
:101BB000B0039091B1039093B4038093B30347E0D3
:101BC00062EB73E08EE60E94AF0880919F029091D5
:101BD000A0029093AC038093AB038091CB023AE0D8
:101BE000839FC00111249093AF038093AE03809133
:101BF000B0039091B1039093AA038093A9038091BD
:101C0000F0038093A50380E594E19093A70380936C
:101C1000A6031092AD036091F1037091F2038091DD
:101C2000F3039091F40320E931E040E050E00E949A
:101C30001415672B682B692B09F0ABC0809102014A
:101C4000882309F4A0C06BE872E0CE0140960E94A0
:101C500019046091C2027091C3028091C4029091F4
:101C6000C50297FF07C090958095709561957F4F4D
:101C70008F4F9F4F2AE030E040E050E00E94BE14BA
:101C800069017A016091C6027091C7028091C80211
:101C90009091C90297FF07C09095809570956195C6
:101CA0007F4F8F4F9F4F2AE030E040E050E00E948E
:101CB000BE141A8219821C821B821E821D82BE01E2
:101CC000605F7F4FC8012AA33BA34CA35DA30E9482
:101CD000FD032AA13BA14CA15DA1BA01A901C80144
:101CE0000E9475036BE872E00E94AC03B701A60185
:101CF0000E947503BC01CE0140960E94FD03C801FD
:101D00000E941404B0900201CB2CD12CC601019783
:101D1000EC88FD888E159F0528F4288939892115BE
:101D2000310529F41092D902E9EDF2E003C0F9017E
:101D3000E80FF91F80818983CE14DF0420F4E8893D
:101D4000F989309729F41092D902E9EDF2E002C046
:101D5000EC0DFD1D80818A83C8010E9412138093BF
:101D6000A80342E0E41AF108EC14FD0428F0B3944F
:101D7000B394B092020102C010920201CE014096CB
:101D80000E94140406C08FEF8093A80381E0809323
:101D900002014BE065EA73E082E80E94AF0880919F
:101DA000C6029091C702A091C802B091C902809367
:101DB000950390939603A0939703B0939803809113
:101DC000C2029091C302A091C402B091C502809357
:101DD000990390939A03A0939B03B0939C038091E3
:101DE000C1028093940342E163E973E08AE60E94B2
:101DF000AF0860918F03709190038091910390914F
:101E00009203693E53E075078105910538F024E699
:101E100030E040E050E00E94141506C04AE0469FC2
:101E20009001479F300D112430938C0320938B0336
:101E30008091E2039091E3032091BA023091BB02BA
:101E4000821B930B4AE0489F9001499F300D11245B
:101E500030938A032093890346E069E873E08CE6B7
:101E60000E94AF0820E030E048EC52E460919B0211
:101E700070919C0280919D0290919E020E9400149C
:101E80000E94961670938403609383034AE06FE781
:101E900073E08DE60E94AF0881E08093DC0298E356
:101EA0009093E10298E19093560322E030E0309362
:101EB000700320936F0390E19093770380937C03EA
:101EC00080937D0310927E0383E898E09093E5026F
:101ED0008093E4028AEE90E09093E7028093E6021A
:101EE0009093E9028093E8029093EB028093EA02D8
:101EF0009093ED028093EC029093EF028093EE02B8
:101F00009093F1028093F0029093F3028093F20297
:101F10002FEE39E03093F5022093F4029093F7020C
:101F20008093F6029093F9028093F80226E338E05A
:101F30003093FB022093FA0228E538E03093FD024B
:101F40002093FC029093FF028093FE0220910801EF
:101F50003091090130930103209300039093030310
:101F600080930203909305038093040390930703E7
:101F700080930603909309038093080390930B03C7
:101F800080930A0390930D0380930C0390930F03A7
:101F900080930E0328E138E030931103209310035F
:101FA00021E438E0309313032093120321E238E058
:101FB0003093150320931403909317038093160313
:101FC00028EB39E0309319032093180328E939E00E
:101FD00030931B0320931A0390931D0380931C03DB
:101FE00090931F0380931E039093210380932003FB
:101FF00090932303809322039093250380932403DB
:1020000024EE39E03093270320932603909329038D
:102010008093280390932B0380932A0390932D039E
:1020200080932C0390932F0380932E03909331037E
:10203000809330039093330380933203909335035E
:10204000809334039093370380933603909339033E
:102050008093380390933B0380933A0390933D031E
:1020600080933C0390933F0380933E0390934103FE
:1020700080934003909343038093420390934503DE
:1020800080934403909347038093460390934903BE
:102090008093480390934B0380934A0390934D039E
:1020A00080934C0390934F0380934E03909351037E
:1020B000809350039093530380935203909355035E
:1020C0008093540345EA6AED72E084E50E94AF080C
:1020D000CE0146960E941404CE014C960E94140430
:1020E0008091F1039091F203A091F303B091F40376
:1020F0008C599F4FAF4FBF4F8093F1039093F203E2
:10210000A093F303B093F4038091CD029091CE029B
:10211000A091CF02B091D002181619061A061B061C
:1021200064F484569109A109B1098093CD0290937A
:10213000CE02A093CF02B093D0028091CD029091B5
:10214000CE02A091CF02B091D002181619061A063D
:102150001B0614F01092CC028091C9059091CA051B
:10216000A091CB05B091CC054091C5055091C60515
:102170006091C7057091C80584179507A607B70732
:1021800071F08093C5059093C605A093C705B093E1
:10219000C80568EE73E080E090E00E9472088091CC
:1021A000F00381111DC08091CB028823C9F08B32CE
:1021B00010F481E013C0853510F482E00FC08F3732
:1021C00010F483E00BC0893A10F484E007C0833D2B
:1021D00010F485E003C08F3F19F086E08093F00390
:1021E0002091BC026091F1037091F2038091F3039E
:1021F0009091F4032530B9F420E233E040E050E060
:102200000E941415672B682B692B09F063C089E0C5
:10221000E0E1F1E0D80101900D928A95E1F7FE012D
:102220003A9686E018C0263061F520E233E040E0BF
:1022300050E00E941415672B682B692B09F04AC0E7
:102240008AE0EFE1F1E0D80101900D928A95E1F783
:10225000FE013B9685E0DF011D928A95E9F781E05A
:102260008093CC0284EFC82EDD24D394E12CF12C92
:10227000C092CD02D092CE02E092CF02F092D00274
:1022800026C0223039F520E233E040E050E00E94E1
:102290001415672B682B692BE9F48CE0EEE2F1E072
:1022A000D80101900D928A95E1F71D861E861F8642
:1022B00081E08093CC0224EF31E040E050E02093B5
:1022C000CD023093CE024093CF025093D002C8018A
:1022D0000E9469086091F1037091F2038091F30309
:1022E0009091F40320E137E240E050E00E941415A1
:1022F000672B682B692B31F464EF71E080E090E08C
:102300000E9472088091CA02833008F418C180913B
:102310000701813009F013C16091C6027091C702B4
:102320008091C8029091C9026115710581059105DE
:1023300009F405C1C090C202D090C302E090C4026B
:10234000F090C502C114D104E104F10409F4F7C00E
:102350002091C102263008F4F2C06093EC03709320
:10236000ED038093EE039093EF03C092E803D092C5
:10237000E903E092EA03F092EB03C090BD02D09033
:10238000BE02E090BF02F090C002C092E403D0927F
:10239000E503E092E603F092E7030E94A1139F7722
:1023A00020E836E948E15BE40E94241625E33AEF91
:1023B0004EE85CE30E9400142BED3FE049EC5FE344
:1023C0000E9446156B017C010E949616DC01CB0130
:1023D0008096A11DB11D81349105A105B10508F0BC
:1023E000A1C02BED3FE049E450E4C701B6010E94D3
:1023F000F31618165CF42BED3FE049EC50E4C701EE
:10240000B6010E9445156B017C01EBCF2BED3FE03F
:1024100049E450ECC701B6010E949A1387FF0BC034
:102420002BED3FE049EC50E4C701B6010E94461590
:102430006B017C01EBCF2BED3FE049EC5FE3C70183
:10244000B6010E94F31618167CF42BED3FE049EC20
:102450005FE3C701B6010E9445159B01AC016BED1E
:102460007FE089EC9FE318C02BED3FE049EC5FEB88
:10247000C701B6010E949A1387FF12C02BED3FE0FF
:1024800049EC5FE3C701B6010E9446159B01AC0110
:102490006BED7FE089EC9FEB0E9445156B017C01A1
:1024A000A7019601C701B6010E9400144B015C010F
:1024B0009B01AC01C701B6010E9400142B013C0135
:1024C00020E030E0A901C501B4010E94001422E916
:1024D00037EE41E459E30E9445159B01AC01C5016B
:1024E000B4010E94001427E930E348E05CE30E9455
:1024F00046159B01AC01C501B4010E94001425E101
:1025000038EA4AE25EE30E9445159B01AC01C30133
:10251000B2010E9400149B01AC01C701B6010E94E8
:10252000461503C060E070E0CB0160930301709337
:1025300004018093050190930601109207010E9407
:1025400059020C945C0A83E592E09093D005809345
:10255000CF0580916F008B7F80936F0080916F001B
:102560008F7D80936F0080918F0280939002809185
:102570008E028111FCCF80916F008D7F80936F0060
:102580000895E8E2F5E01382128288EE93E0A0E07D
:10259000B0E084839583A683B78321E432E031835E
:1025A000208325EC30E03587248724EC30E0378722
:1025B000268720EC30E0318B208B21EC30E0338B10
:1025C000228B22EC30E0358B248B26EC30E0378BED
:1025D000268B118E128E138E148EEFECF5E0138283
:1025E000128284839583A683B78383E592E09183E7
:1025F000808380910801909109019093CE0580938A
:10260000CD058091C9059091CA05A091CB05B091E7
:10261000CC058093C5059093C605A093C705B093DC
:10262000C8050895FC0188279927E8942191203254
:10263000E9F3293010F02E30C8F32B3241F02D325F
:1026400039F4689404C00E944613820F911D2191B1
:1026500020532A30C0F31EF4909581959F4F089522
:10266000FB01DC0105900D920020E1F70895BB27E6
:102670002A3051F4992342F4BDE2909580957095EB
:1026800061957F4F8F4F9F4F0C944F137AE0979F28
:10269000902D879F802D910D11240895BB27FA015D
:1026A000A62F6217710581059105330B30FB66F08B
:1026B000AA27660F771F881F991FAA1FA21710F05D
:1026C000A21B63953850A9F7A05DAA3308F0A95D55
:1026D000A19336F7B111B1931082CA010C948A13F9
:1026E000BB27FB015527AA27880F991FAA1FA417EC
:1026F00010F0A41B83955051B9F7A05DAA3308F0E0
:10270000A95DA193009779F7B111B1931192CB0113
:102710000C948A13DC01FC01672F71917723E1F798
:10272000329704C07C916D9370836291AE17BF079E
:10273000C8F308950E94DC1308F481E00895E8943A
:1027400009C097FB3EF490958095709561957F4FF9
:102750008F4F9F4F9923A9F0F92F96E9BB279395A7
:10276000F695879577956795B795F111F8CFFAF4B7
:10277000BB0F11F460FF1BC06F5F7F4F8F4F9F4FE8
:1027800016C0882311F096E911C0772321F09EE846
:10279000872F762F05C0662371F096E8862F70E0AC
:1027A00060E02AF09A95660F771F881FDAF7880F86
:1027B0009695879597F90895990F0008550FAA0BDC
:1027C000E0E8FEEF16161706E807F907C0F0121644
:1027D0001306E407F50798F0621B730B840B950B47
:1027E00039F40A2661F0232B242B252B21F408959C
:1027F0000A2609F4A140A6958FEF811D811D089539
:102800000E9413140C9484140E94761438F00E94D1
:102810007D1420F0952311F00C946D140C94731416
:1028200011240C94B8140E94951470F3959FC1F371
:10283000950F50E0551F629FF001729FBB27F00D6E
:10284000B11D639FAA27F00DB11DAA1F649F6627C3
:10285000B00DA11D661F829F2227B00DA11D621F12
:10286000739FB00DA11D621F839FA00D611D221FCC
:10287000749F3327A00D611D231F849F600D211DB0
:10288000822F762F6A2F11249F5750409AF0F1F033
:1028900088234AF0EE0FFF1FBB1F661F771F881F9C
:1028A00091505040A9F79E3F510580F00C946D1453
:1028B0000C94B8145F3FE4F3983ED4F38695779573
:1028C0006795B795F795E7959F5FC1F7FE2B880F42
:1028D000911D9695879597F9089597F99F6780E8D8
:1028E00070E060E008959FEF80EC089500240A9462
:1028F0001616170618060906089500240A941216DB
:102900001306140605060895092E0394000C11F40D
:10291000882352F0BB0F40F4BF2B11F460FF04C0BA
:102920006F5F7F4F8F4F9F4F089557FD9058440F13
:10293000551F59F05F3F71F04795880F97FB991F1E
:1029400061F09F3F79F087950895121613061406DB
:10295000551FF2CF4695F1DF08C016161706180668
:10296000991FF1CF86957105610508940895E89443
:10297000BB2766277727CB0197F90895052E97FB8C
:102980001EF400940E94D51457FD07D00E94141520
:1029900007FC03D04EF40C94D51450954095309517
:1029A00021953F4F4F4F5F4F0895909580957095BB
:1029B00061957F4F8F4F9F4F08952F923F924F9277
:1029C0005F926F927F928F929F92AF92BF92CF92BF
:1029D000DF92EF92FF920F931F93CF93DF93CDB7C8
:1029E000DEB7CA1BDB0B0FB6F894DEBF0FBECDBF40
:1029F00009942A88398848885F846E847D848C8411
:102A00009B84AA84B984C884DF80EE80FD800C8119
:102A10001B81AA81B981CE0FD11D0FB6F894DEBFFC
:102A20000FBECDBFED010895A1E21A2EAA1BBB1B5C
:102A3000FD010DC0AA1FBB1FEE1FFF1FA217B3078A
:102A4000E407F50720F0A21BB30BE40BF50B661FA0
:102A5000771F881F991F1A9469F760957095809564
:102A600090959B01AC01BD01CF010895A29FB001DB
:102A7000B39FC001A39F700D811D1124911DB29FB2
:102A8000700D811D1124911D08955058BB27AA2750
:102A90000E945D150C9484140E94761438F00E94F4
:102AA0007D1420F039F49F3F19F426F40C9473142C
:102AB0000EF4E095E7FB0C946D14E92F0E94951439
:102AC00058F3BA17620773078407950720F079F463
:102AD000A6F50C94B7140EF4E0950B2EBA2FA02D8A
:102AE0000B01B90190010C01CA01A0011124FF27BB
:102AF000591B99F0593F50F4503E68F11A16F040B6
:102B0000A22F232F342F4427585FF3CF46953795B4
:102B10002795A795F0405395C9F77EF41F16BA0B79
:102B2000620B730B840BBAF09150A1F0FF0FBB1F27
:102B3000661F771F881FC2F70EC0BA0F621F731F70
:102B4000841F48F4879577956795B795F7959E3FCD
:102B500008F0B0CF9395880F08F09927EE0F97955E
:102B6000879508950E94761460F080E891E009F45A
:102B70009EEF0E947D1428F040E851E071F45EEF72
:102B80000CC00C9473140C94B714E92FE0780E94D5
:102B9000951440F3092E052AB1F326173707480785
:102BA000590738F00E2E07F8E02569F0E025E064BB
:102BB0000AC0EF6307F8009407FADB01B9019D0131
:102BC000DC01CA01AD01EF930E943B160E94841400
:102BD0000E94F5155F91552339F02BED3FE049E454
:102BE00050FD49EC0C9446150895DF93DD27B92F6D
:102BF000BF7740E85FE31616170648075B0718F42F
:102C0000D92F0E94F8169F938F937F936F930E9402
:102C10004617ECE7F0E00E94CC160E9484142F9136
:102C20003F914F915F910E941314DD2351F0905812
:102C3000A2EA2AED3FE049EC5FE3D0785D270E94ED
:102C40005D15DF910C9484140E9438160C94841442
:102C50000E947D1458F00E94761440F029F45F3FE2
:102C600029F00C946D1451110C94B8140C94731435
:102C70000E94951468F39923B1F3552391F3951BA2
:102C8000550BBB27AA2762177307840738F09F5F8D
:102C90005F4F220F331F441FAA1FA9F335D00E2EFA
:102CA0003AF0E0E832D091505040E695001CCAF767
:102CB0002BD0FE2F29D0660F771F881FBB1F26172A
:102CC00037074807AB07B0E809F0BB0B802DBF0101
:102CD000FF2793585F4F3AF09E3F510578F00C94D0
:102CE0006D140C94B8145F3FE4F3983ED4F38695CA
:102CF00077956795B795F7959F5FC9F7880F911DF1
:102D00009695879597F90895E1E0660F771F881FDC
:102D1000BB1F621773078407BA0720F0621B730B8F
:102D2000840BBA0BEE1F88F7E09508950E949D165C
:102D30006894B1110C94B81408950E949D1488F001
:102D40009F5798F0B92F9927B751B0F0E1F0660F6F
:102D5000771F881F991F1AF0BA95C9F714C0B130B0
:102D600091F00E94B714B1E008950C94B714672F46
:102D7000782F8827B85F39F0B93FCCF386957795DF
:102D80006795B395D9F73EF49095809570956195C8
:102D90007F4F8F4F9F4F0895DF93CF931F930F93D4
:102DA000FF92EF92DF927B018C01689406C0DA2ECD
:102DB000EF010E941314FE01E894A591259135912D
:102DC00045915591A6F3EF010E945D15FE01970113
:102DD000A801DA9469F7DF90EF90FF900F911F91AF
:102DE000CF91DF9108950E94DC1308F48FEF0895CE
:102DF0009B01AC0160E070E080E89FE30C94241636
:102E000019F416F40C9473140C944A170E949D1430
:102E1000B8F39923C9F3B6F39F57550B87FF0E9468
:102E200058170024A0E640EA9001805856959795DF
:102E300028F4805C660F771F881F20F0261737075D
:102E4000480730F4621B730B840B202931294A2B6D
:102E5000A69517940794202531254A2758F7660F21
:102E6000771F881F20F026173707480730F4620BBA
:102E7000730B840B200D311D411DA09581F7B90105
:102E8000842F9158880F9695879508959B01AC01E2
:102E90000C9400149F3F31F0915020F48795779562
:102EA0006795B795880F911D9695879597F9089521
:102EB00091505040660F771F881FD2F70895AA1BC4
:102EC000BB1B51E107C0AA1FBB1FA617B70710F015
:102ED000A61BB70B881F991F5A95A9F78095909547
:102EE000BC01CD010895EE0FFF1F0590F491E02D78
:102EF0000994CF93DF938230910510F482E090E043
:102F0000E091DD05F091DE0520E030E0C0E0D0E0AA
:102F1000309711F14081518148175907C0F0481787
:102F2000590761F482819381209719F09B838A83EA
:102F30002BC09093DE058093DD0526C02115310559
:102F400019F04217530718F49A01BE01DF01EF018F
:102F50000280F381E02DDCCF2115310509F1281B1A
:102F6000390B2430310590F412968D919C91139772
:102F70006115710521F0FB019383828304C0909356
:102F8000DE058093DD05FD01329644C0FD01E20FB0
:102F9000F31F81939193225031092D933C933AC0B2
:102FA0002091DB053091DC05232B41F420910C01AD
:102FB00030910D013093DC052093DB0520910A014F
:102FC00030910B012115310541F42DB73EB74091E9
:102FD0000E0150910F01241B350BE091DB05F091A0
:102FE000DC05E217F307A0F42E1B3F0B2817390767
:102FF00078F0AC014E5F5F4F2417350748F04E0F55
:103000005F1F5093DC054093DB058193919302C0D1
:10301000E0E0F0E0CF01DF91CF9108950F931F938F
:10302000CF93DF93009709F48CC0FC013297138291
:1030300012820091DD051091DE050115110581F464
:1030400020813181820F931F2091DB053091DC05B7
:103050002817390779F5F093DC05E093DB0571C09B
:10306000D80140E050E0AE17BF0750F412962D9102
:103070003C911397AD012115310509F1D901F3CF29
:103080009D01DA013383228360817181860F971F4E
:103090008217930769F4EC0128813981260F371FC5
:1030A0002E5F3F4F318320838A819B81938382836C
:1030B000452B29F4F093DE05E093DD0542C013961D
:1030C000FC93EE931297ED01499159919E01240FC3
:1030D000351FE217F30771F480819181840F951FEA
:1030E000029611969C938E938281938113969C9362
:1030F0008E931297E0E0F0E0D80112968D919C91AA
:103100001397009719F0F8018C01F6CF8D919C91DF
:1031100098012E5F3F4F820F931F2091DB05309166
:10312000DC052817390769F4309729F41092DE0579
:103130001092DD0502C0138212821093DC05009309
:10314000DB05DF91CF911F910F910895A0E0B0E0D2
:10315000ECEAF8E10C94E114EC01009721F4CB01C6
:103160000E947917B8C0FC01E60FF71F9C0122509E
:103170003109E217F30708F4ACC0D9010D911C9195
:10318000119706171707B0F00530110508F49FC016
:10319000C80104978617970708F499C002501109CF
:1031A000061B170B019311936D937C93CF010E9423
:1031B0000E188DC05B01A01AB10A4C01800E911E41
:1031C000A091DD05B091DE0540E050E0E12CF12C4E
:1031D000109709F44AC0A815B905D1F56D907C90F7
:1031E0001197630182E0C80ED11CCA14DB0480F180
:1031F000A3014A195B096A0182E0C80ED11C12962C
:10320000BC9012971396AC91B5E0CB16D10440F068
:10321000B282A38351834083D9016D937C930AC00A
:103220000E5F1F4FC301800F911FF90191838083AF
:10323000EB2DFA2FE114F10431F0D7011396FC9332
:10324000EE93129744C0F093DE05E093DD053FC096
:103250008D919C9111974817590708F4AC017D0195
:1032600012960D90BC91A02DB3CF8091DB0590916B
:10327000DC0588159905E1F446175707C8F48091D5
:103280000A0190910B01009741F48DB79EB74091D0
:103290000E0150910F01841B950BE817F907C8F434
:1032A000F093DC05E093DB05F901718360830FC0C7
:1032B000CB010E9479177C01009759F0A801BE014B
:1032C0000E947019CE010E940E18C70104C0CE01E1
:1032D00002C080E090E0CDB7DEB7EEE00C94FD14C4
:1032E000FB01DC0102C001900D9241505040D8F723
:1032F0000895FB01DC0101900D920020E1F7089593
:10330000FB01DC014150504048F001900D9200203B
:10331000C9F701C01D9241505040E0F7089511E0F7
:10332000C2E3D1E004C0FE010E9473172196C333AB
:08333000D107C9F7F894FFCFA3
:10333800EA00010000803F01A1090000DF058000CC
:103348004641494C534146450000000000000045F5
:103358004D455247454E4359000000000000434187
:103368004C4942524154494E4700000000327C8982
:1033780000EDD96877000000590000000000000047
:1033880000D69FDCA81817AA90437327F6B968EDF2
:10339800F4DED409FEE61C1C84DDE80B992927D647
:1033A800DF8D210F036418EFEE1EF0B782820094C0
:1033B8001500347C0000001400988F000000000005
:1033C800000000000000E7B73F36000000000000E2
:1033D80000AF669ED038000000000000000000002A
:1033E80000000000000000000000000000000000D5
:1033F80000000000000000000000000000000000C5
:1034080000000086DBD0BC5416131586004E44BD60
:103418007F6F1515900100000000000000000000FB
:103428000000000000000000000000000000000094
:103438000000000000000000000000000000000084
:103448000000000000000000000000000000000074
:103458000000000000000000000000000000000064
:10346800000000000000CC31AA2C532E0000000000
:1034780000F0015D0188013702B9019701AB010035
:10348800000000AF025D016302AA02720294028189
:1034980002E2AC8600E2869100E2869700E286921C
:1034A80000E2869800E2869300E2869900E2869020
:0C34B80000E28696004100205300200036
:00000001FF
