:100000000C9442010C946A010C946A010C946A01EC
:100010000C946A010C946A010C946A010C946A01B4
:100020000C946A010C946A010C9426050C94D0057A
:100030000C94DF040C946A010C946A010C946A011C
:100040000C9495040C946A010C9463040C943D0484
:100050000C946A010C946A010C946A010C946A0174
:100060000C946A010C946A01A906A906B506D30688
:10007000C906DC06E90603071E073F07084AD73B07
:100080003BCE016E84BCBFFDC12F3D6C74319ABD67
:1000900056833DDA3D00C77F11BED9E4BB4C3E918B
:1000A0006BAAAABE000000803F000000000800020A
:1000B0000100000304070000000000000000000031
:1000C0000000250028002B0000000000240027006D
:1000D0002A000404040404040404020202020202CA
:1000E00003030303030301020408102040800102FC
:1000F00004081020010204081020414E474C45001E
:100100000000000000000000004143524F000000CA
:100110000000000000000000414C54495455444583
:100120005F484F4C4400004D495353494F4E000027
:1001300000000000000000000000000000000000BF
:1001400000000000000000000000000000000000AF
:1001500000000000525448000000000000000000B1
:10016000000000000000000000000000000000008F
:10017000000000000000000000000000000000007F
:10018000000000000000000000000000000000006F
:10019000000000000000000000000000000000005F
:1001A000000000000000000000000000000000004F
:1001B000000000000000000000000000000000003F
:1001C000000000000000000000000000000000002F
:1001D000000000000000000000000000000000001F
:1001E00000000000000000000000504F5349544937
:1001F0004F4E5F484F4C44000000000000000000DC
:1002000000000000000000004C41554E4348000033
:1002100000000000000000000000000000000000DE
:1002200000000000000000000000000000000000CE
:1002300000000000000000000000000000000000BE
:1002400000000000000000000000000000000000AE
:10025000000000000000000000000000000000009E
:10026000000000000000000000000000000000008E
:10027000000000000000000000000000000000007E
:10028000BF12A11211241FBECFEFD8E0DEBFCDBF39
:1002900012E0A0E0B1E0E4E3F3E302C005900D92C8
:1002A000A838B107D9F725E0A8E8B2E001C01D924F
:1002B000AB3DB207E1F711E0C1E4D1E004C0219702
:1002C000FE010E947117C034D107C9F70E9433099B
:1002D0000C948D190C940000CF92DF92EF92FF9254
:1002E0000F931F93CF93DF936C017A018B01C0E0D2
:1002F000D0E0CE15DF0589F0D8016D918D01D601D2
:10030000ED91FC910190F081E02DC6010995892BBA
:1003100011F47E0102C02196ECCFC701DF91CF918D
:100320001F910F91FF90EF90DF90CF900895FC0107
:10033000538D448D252F30E0842F90E0821B930B4A
:10034000541710F0CF96089501970895FC01918DF0
:10035000828D981761F0828DDF01A80FB11D5D9627
:100360008C91928D9F5F9F73928F90E008958FEF95
:100370009FEF0895FC01918D828D981731F0828D49
:10038000E80FF11D858D90E008958FEF9FEF0895A0
:10039000FC01918D228D892F90E0805C9F4F821B04
:1003A00091098F739927089584E295E00E94C8010E
:1003B00021E0892B09F420E0822F0895FC01848D2F
:1003C000DF01A80FB11DA35ABF4F2C91848D90E07F
:1003D00001968F739927848FA689B7892C93A0895A
:1003E000B1898C9180648C93938D848D981306C011
:1003F0000288F389E02D80818F7D80830895EF92BC
:10040000FF920F931F93CF93DF93EC0181E0888FCE
:100410009B8D8C8D981305C0E889F989808185FDB5
:1004200024C0F62E0B8D10E00F5F1F4F0F731127A6
:10043000E02E8C8DE8120CC00FB607FCFACFE889CD
:10044000F989808185FFF5CFCE010E94DE01F1CFD1
:100450008B8DFE01E80FF11DE35AFF4FF0820B8FE9
:10046000EA89FB898081806207C0EE89FF89608309
:10047000E889F98980818064808381E090E0DF9160
:10048000CF911F910F91FF90EF900895CF93DF933D
:10049000EC01888D8823C9F0EA89FB89808185FD7C
:1004A00005C0A889B9898C9186FD0FC00FB607FCDD
:1004B000F5CF808185FFF2CFA889B9898C9185FF1E
:1004C000EDCFCE010E94DE01E7CFDF91CF910895FD
:1004D00080E090E0892B29F00E94D40181110C94D6
:1004E000000008954091890250918802852F90E084
:1004F000242F30E0451710F08C5B9F4F821B930B2D
:10050000089550918C0240918B02852F90E0242F0A
:1005100030E0541710F4805B9F4F821B930B0895BB
:1005200080918C02E0918B028E1751F0EF5FE035E5
:1005300008F0E0E0F0E0E753FB4F808190E00895A1
:100540008FEF9FEF089580918C0290918B02891715
:1005500069F09F5F903508F090E0E92FF0E0E753F5
:10056000FB4F808190938B0290E008958FEF9FEF77
:10057000089580918A028111FCCF089580918902AB
:100580008F5F843408F080E0909188029817E1F33F
:100590002FB7F89490918A02992341F0E82FF0E068
:1005A000E158FB4F6083809389021DC081E08093F6
:1005B0008A026093C4041092C30482E086BB8091D7
:1005C0006F00826080936F00809180008F738068DD
:1005D0008093800080918400909185004096909354
:1005E0008900809388002FBF81E090E00895FB018F
:1005F0002081822790E1899F900111242827822F52
:1006000090E0582F44279C0163E0220F331F6A9526
:10061000E1F742275327218130E02427352774E072
:10062000959587957A95E1F7822793279183808323
:100630000895089580E090E008950F931F93CF935D
:10064000DF93EC0188819981009729F02A813B8111
:100650002617370788F48B016F5F7F4F0E94A4181D
:10066000009761F0998388831B830A832C813D81E5
:10067000232B11F4FC01108281E001C080E0DF91A6
:10068000CF911F910F910895EF92FF920F931F93B7
:10069000CF93DF93FC01248135816115710511F43D
:1006A00080E019C041155105A9F07B01EC018A01D8
:1006B000020F131FB8010E941D03882389F32881AC
:1006C00039818C819D81B701820F931F0E94771918
:1006D0001D830C8381E0DF91CF911F910F91FF90DB
:1006E000EF900895CF93DF93EC0188819981009773
:1006F00011F00E940C18198218821D821C821B8224
:100700001A82DF91CF910895EF92FF920F931F937A
:10071000CF93DF93CDB7DEB72E970FB6F894DEBF39
:100720000FBECDBF7C01CB01BA012AE08E010F5F65
:100730001F4FA8010E943513F80101900020E9F72E
:100740003197AF01401B510BB801C7010E94440310
:10075000811103C0C7010E947203C7012E960FB614
:10076000F894DEBF0FBECDBFDF91CF911F910F91E7
:10077000FF90EF900895CF93DF93EC016115710521
:1007800061F0FB0101900020E9F73197AF01461BB2
:10079000570B0E944403811103C0CE010E947203D3
:1007A000CE01DF91CF910895EF92FF920F931F93A7
:1007B000CF93DF93EC017B018A01BA010E941D03F4
:1007C000811104C0CE010E94720307C01D830C83F7
:1007D000B701888199810E947719CE01DF91CF916D
:1007E0001F910F91FF90EF900895CF93DF93EC014D
:1007F0006115710559F0FB0101900020E9F731976F
:10080000AF01461B570B0E94D40302C00E94720323
:10081000CE01DF91CF910895CF93DF93EC01FB01DF
:100820008617970761F0608171816115710529F064
:10083000448155810E94D40302C00E947203CE01FC
:10084000DF91CF910895FC01808191810C940C1867
:10085000FC011182108213821282158214826115AA
:10086000710551F0FB0101900020E9F73197AF01CC
:10087000461B570B0C94D40308951F920F920FB68A
:100880000F9211242F933F934F935F936F937F9316
:100890008F939F93AF93BF93EF93FF9384E295E081
:1008A0000E94DE01FF91EF91BF91AF919F918F91D7
:1008B0007F916F915F914F913F912F910F900FBE5C
:1008C0000F901F9018951F920F920FB60F92112440
:1008D0002F938F939F93EF93FF93E0913405F091C3
:1008E00035058081E0913A05F0913B0582FD12C00B
:1008F000908180913D058F5F8F7320913E05821717
:1009000051F0E0913D05F0E0EC5DFA4F958F80935A
:100910003D0501C08081FF91EF919F918F912F91B3
:100920000F900FBE0F901F9018951F920F920FB649
:100930000F9211242F933F938F939F93AF93BF9365
:100940008091930290919402A0919502B0919602A9
:1009500030911D0523E0230F2D3720F40196A11DB2
:10096000B11D05C026E8230F0296A11DB11D2093DD
:100970001D058093930290939402A0939502B093E7
:1009800096028091190590911A05A0911B05B091CE
:100990001C050196A11DB11D8093190590931A05A0
:1009A000A0931B05B0931C05BF91AF919F918F91B0
:1009B0003F912F910F900FBE0F901F9018951F928F
:1009C0000F920FB60F9211242F938F939F93EF9353
:1009D000FF9380916F008B7F80936F0080918100E7
:1009E0008F7B8093810080918D022091C8042058D4
:1009F0009091C704893020F49695922B8F5FFACF9F
:100A00009093C70480918C028F5F803508F080E05E
:100A100020918B02821739F0E82FF0E0E753FB4F6B
:100A2000908380938C0210928D02809181008F7B45
:100A3000809381001092C804FF91EF919F918F9154
:100A40002F910F900FBE0F901F9018951F920F922D
:100A50000FB60F9211242F933F934F935F936F9391
:100A60007F938F939F93AF93BF93EF93FF93809167
:100A70008600909187004091C80420918100442312
:100A800031F02F7B209381001092C80406C02064AF
:100A90002093810020E82093C80430918D02311109
:100AA00025C041116CC020918E0230918F02280F19
:100AB000391F30938B0020938A0024E026BB2091BD
:100AC0006F00246020936F0020919002309191027A
:100AD000820F931F36952795820F931F9093C6041C
:100AE0008093C50481E080938D0249C04091C50484
:100AF0005091C6046091900270919102DB01A09523
:100B0000B095E091C8042091C704841B950BA817E9
:100B1000B90768F126952E2B460F571F3F5F861B9E
:100B2000970B3930A0F32093C70480916F008B7F1F
:100B300080936F0080918C028F5F803508F080E099
:100B400090918B02891749F0E82FF0E09091C7044B
:100B5000E753FB4F908380938C02809181008F7BC1
:100B6000809381001092C80410928D0208C02093D7
:100B7000C7045093C6044093C50430938D02FF917F
:100B8000EF91BF91AF919F918F917F916F915F9105
:100B90004F913F912F910F900FBE0F901F9018957E
:100BA0001F920F920FB60F9211242F933F934F93E2
:100BB0005F936F937F938F939F93EF93FF938091B6
:100BC0008A026091C404209188003091890040918C
:100BD0009002509191029091C3048A30F8F4240F4E
:100BE000351F893019F0762F717001C071E066955C
:100BF0008F5F791791F390918000772311F0906CBB
:100C000002C09F7390689093800030938900209376
:100C100088007093C3046093C4044AC09091890211
:100C2000E09188029E1319C08A3051F48BE08093C2
:100C30008A02240F351F30938900209388003AC020
:100C400010928A02809180008F738093800080913F
:100C50006F008D7F80936F002DC0EF5FE43408F04C
:100C6000E0E0E0938802F0E0E158FB4F9081909340
:100C7000C4041092C304909180009F739068909375
:100C800080008A3059F48091900290919102280F4F
:100C9000391F309389002093880009C08091840017
:100CA000909185004096909389008093880081E020
:100CB00080938A02FF91EF919F918F917F916F9125
:100CC0005F914F913F912F910F900FBE0F901F900A
:100CD00018952F923F924F925F926F927F928F92D0
:100CE0009F92AF92BF92CF92DF92EF92FF920F93BB
:100CF0001F93CF93DF93CDB7DEB7C657D1090FB699
:100D0000F894DEBF0FBECDBFEE24E394F12C52E089
:100D1000252E312CCC24CA94DC2C8BEC95E00E943F
:100D20008102181619060CF0C9C18BEC95E00E94DF
:100D3000A3023C01082F1092F503E091F803F09113
:100D4000F903EA30F10508F0D5C0EC5CFF4F0C94D4
:100D500071178E3F09F0CEC03092F9032092F8034C
:100D60001092040480930304A3C0863630F080916F
:100D7000F6038F5F8093F603A0C080930404109263
:100D8000FA0361E074E00E94F70234E0832E912CB4
:100D90002DC08093050461E074E00E94F70223E017
:100DA000A22EB12C2BC08093060461E074E00E9457
:100DB000F70225E030E03DC08093070461E074E075
:100DC0000E94F70286E090E09093F9038093F80385
:100DD00091C08093080461E074E00E94F702809162
:100DE0000404811108C098E0892E912C9092F90397
:100DF0008092F8037FC087E0A82EB12CB092F9034F
:100E0000A092F80377C0E091FA03772473947E0EE2
:100E10007092FA03F0E0E75FFB4F608261E074E0FC
:100E2000862D0E94F70280910404781263C028E0A6
:100E300030E03093F9032093F8035CC0E09108049C
:100E4000F0E0E35CFE4F61E074E080810E94F70215
:100E50008091010490910204992793013327281768
:100E60003907F1F489E090E09093F9038093F80357
:100E7000E091FA03F0E0E75FFB4F60823BC09091A6
:100E80000204E6969FAFE697E7961FAEE797C30189
:100E90009927E7968EAC9FACE7978815990591F056
:100EA0000E3F59F43092F9032092F8031092040493
:100EB000D0920204C09201041DC0F092F903E092A6
:100EC000F80318C081E08093F503F092F903E092F3
:100ED000F803E091FA03F0E0E65FFB4F608280E701
:100EE000E1E0F4E0DE01119601900D928A95E1F7C0
:100EF000109108042091F503213099F480910504A4
:100F00008093FB038091FD039091FE03009721F4F1
:100F1000109200041092FF0301969093FE038093B9
:100F2000FD031092F703222309F4F7CE113209F4DE
:100F300068C070F4113029F108F494C0183109F038
:100F4000ECCE8EA19DA19093C6028093BD02E5CE0A
:100F50001A3449F1183A09F498C0133209F0DDCE79
:100F60002E8D30E0AFEFB3E00E9434152FEF30E06C
:100F700040E050E00E94BC1430939E0220939D02FA
:100F8000CCCE298D3A8D4FA18F89988D64E670E083
:100F90000E945D176093C70240937E0430939C02C9
:100FA00020939B02BACE4D855E856F8578898D89A9
:100FB0009E89AF89B88D298D3A8DEB8D49845A84ED
:100FC0006B847C8440927A0450927B0460927C040F
:100FD00070927D044093AE025093AF026093B002D2
:100FE0007093B1023093B7022093B602E093790474
:100FF0008093970290939802A0939902B0939A02DB
:101000008CCE4D845E846F84788849895A896B8937
:101010007C898D899E89AF89B88D898C9A8CAB8C9F
:10102000BC8C8092B2029092B302A092B402B092B1
:10103000B5024092C2025092C3026092C402709202
:10104000C5024093BE025093BF026093C0027093EA
:10105000C1028093B9029093BA02A093BB02B093ED
:10106000BC025BCE89859A85AB85BC8528893F8586
:10107000309392022093B8028093C5059093C605E1
:10108000A093C705B093C80548CE8D859E85AF85D2
:10109000B88949855A856B857C8540937504509342
:1010A000760460937704709378048093710490932E
:1010B0007204A0937304B09374042FCECA58DF4F08
:1010C0000FB6F894DEBF0FBECDBFDF91CF911F9159
:1010D0000F91FF90EF90DF90CF90BF90AF909F90D7
:1010E0008F907F906F905F904F903F902F900895DA
:1010F000FC019FE0AFE9B2E001900D929A95E1F713
:101100000895CF92DF92EF92FF92CF93DF93CDB706
:10111000DEB72F970FB6F894DEBF0FBECDBF6B01C1
:101120007C012091C5053091C6054FE0429FC0016A
:10113000439F900D1124BC0166507F4FCE01019654
:101140000E942E1381E08093C802C092C902D092FF
:10115000CA02E092CB02F092CC02CE0101960E942C
:1011600078082F960FB6F894DEBF0FBECDBFDF9183
:10117000CF91FF90EF90DF90CF900895CF92DF92C4
:10118000EF92FF920F931F93CF93DF931F92CDB7F0
:10119000DEB7D82EF62EC42E80911E0590911F0525
:1011A000DC01ED91FC910190F081E02D64E2798306
:1011B000099580911E0590911F05DC01ED91FC9130
:1011C0000190F081E02D6DE4099580911E059091CC
:1011D0001F05DC01ED91FC910190F081E02D6CE3A5
:1011E000099580911E0590911F05DC01ED91FC9100
:1011F0000190F081E02D6C2D099580911E05909154
:101200001F05DC01ED91FC910190F081E02D6D2D29
:101210000995DC24EF2C0F2D7981172F80911E0565
:1012200090911F05202F2E192C1560F4F801619163
:101230008F01D626DC01ED91FC910190F081E02D2B
:101240000995ECCFDC01ED91FC910190F081E02D4E
:101250006D2D0F90DF91CF911F910F91FF90EF9027
:10126000DF90CF900994CF93DF93CDB7DEB7A597EA
:101270000FB6F894DEBF0FBECDBF789484B5826000
:1012800084BD84B5816084BD85B5826085BD85B52A
:10129000816085BD80916E00816080936E001092A8
:1012A0008100809181008260809381008091810023
:1012B00081608093810080918000816080938000B4
:1012C0008091B10084608093B1008091B000816012
:1012D0008093B00080917A00846080937A0080913E
:1012E0007A00826080937A0080917A008160809396
:1012F0007A0080917A00806880937A001092C10011
:10130000E0913405F091350582E08083E09130056D
:10131000F09131051082E0913205F091330580E1C2
:10132000808310923C05E0913805F091390586E004
:101330008083E0913605F09137058081806180835C
:10134000E0913605F0913705808188608083E091D7
:101350003605F0913705808180688083E0913605FD
:10136000F091370580818F7D808384E295E09093B2
:101370001F0580931E0584EF91E0A0E0B0E080930C
:10138000200590932105A0932205B0932305109288
:101390006F001092800081E88093810086E191E0E7
:1013A00090939102809390028BE09AE090938F0249
:1013B00080938E02EEEEF0E02491EAEDF0E084916D
:1013C0008823C9F090E0880F991FFC01E853FF4F74
:1013D00045915491FC01E254FF4FA591B4919FB700
:1013E000F894FA013081822F809583238083EC91D9
:1013F000E22BEC939FBFE3EBF0E034914FEE50E033
:10140000FA0164918BED90E0FC0124912223B9F163
:10141000332339F1333091F038F43130A9F03230E0
:1014200001F534B53F7D12C0373091F03830A1F06E
:101430003430B9F4309180003F7D03C0309180009A
:101440003F77309380000DC034B53F7734BD09C07D
:101450003091B0003F7703C03091B0003F7D3093B2
:10146000B00030E0220F331F22543F4FF901A59105
:10147000B4912FB7F8943C91632B6C932FBFFA0172
:101480004491FC018491882399F090E0880F991F82
:10149000FC01E853FF4FA591B491FC01E254FF4FCA
:1014A000859194918FB7F8949C91492B4C938FBF61
:1014B00010928D0210928C0210928B0210928A026E
:1014C000109289021092880280E286BB80936F009E
:1014D0008E010F5F1F4F0E9469062FB7F89480910D
:1014E000930290919402A0919502B09196022FBF21
:1014F0004091F1035091F2036091F3037091F40372
:101500006C017D01C41AD50AE60AF70AB701A601E3
:10151000443651056105710508F40DC68093F10349
:101520009093F203A093F303B093F4038091E80344
:101530009091E903A091EA03B091EB030097A10514
:10154000B10509F49AC08090E4039090E503A0905F
:10155000E603B090E70381149104A104B10409F4F7
:101560008CC0C090C202D090C302E090C402F09040
:10157000C502BC01CD016C197D098E099F090E942D
:101580009F136B017C018091BE029091BF02A091DC
:10159000C002B091C102A5019401281B390B4A0B6E
:1015A0005B0BCA01B9010E949F1320910301309186
:1015B000040140910501509106010E94FE134B0168
:1015C0005C01A7019601C701B6010E94FE132B0121
:1015D0003C01A5019401C501B4010E94FE139B01C9
:1015E000AC01C301B2010E9444150E9404172CE211
:1015F0003DE74EE85FE30E94FE130E949B162B011D
:101600003C01C701B6019058A50194010E94C31581
:1016100020EA3CE043EB55E40E94FE1320E030EA70
:101620004CE056E40E9444150E9494166B017C0124
:1016300097FF06C030EAC30E3CE8D31EE11CF11C44
:10164000C301B20124E630E040E050E00E941215F0
:1016500020938B0330938C0340938D0350938E0320
:10166000C701B60124E630E040E050E00E94BC141F
:101670003093DF032093DE030CC010928B03109293
:101680008C0310928D0310928E031092DF03109240
:10169000DE03209192028091CB039091CC03A09124
:1016A000CD03B091CE0327FF02C0816001C08E7FC1
:1016B0008093CB039093CC03A093CD03B093CE0340
:1016C0004091C5055091C6056091C7057091C80548
:1016D0008091CB039091CC03A091CD03B091CE0328
:1016E000411551056105710511F4826001C08D7FBE
:1016F0008093CB039093CC03A093CD03B093CE0300
:101700002091B80225508091CB039091CC03A091F9
:10171000CD03B091CE03223010F4806101C08F7EE2
:101720008093CB039093CC03A093CD03B093CE03CF
:101730008091CB039091CC03A091CD03B091CE03C7
:10174000463051056105710511F4806201C08F7D3D
:101750008093CB039093CC03A093CD03B093CE039F
:1017600060919B0270919C02072E000C880B990BD4
:101770000E949F1320E030E040E251E40E94FE13FB
:101780006B017C012FB7F8946091930270919402E1
:1017900080919502909196022FBF0E949D132091F7
:1017A000D1023091D2024091D3025091D4020E94D2
:1017B00043159B01AC01C701B6010E94FE1320E056
:1017C0003AEB4BE55AE40E9422162091CD0230916B
:1017D000CE024091CF025091D0020E9444156093F6
:1017E000CD027093CE028093CF029093D0020E94DC
:1017F0009B167093AD036093AC032FB7F894609180
:1018000093027091940280919502909196022FBF5D
:101810000E949D136093D1027093D2028093D302F1
:101820009093D4026091ED037091EE038091EF03E9
:101830009091F00324E833E040E050E00E9412155C
:1018400020910701672B682B692BD1F42130C1F45B
:101850008091C9059091CA05813D9740D8F080914B
:10186000080190910901209100013091010130930C
:1018700009012093080190930101809300010AC09F
:10188000211108C08091C9059091CA059093090162
:101890008093080167E872E0CE014C960E9428040C
:1018A0008091DE039091DF032091B6023091B70260
:1018B000821B930B7C0158E9E51A5EEFF50AA9E655
:1018C000EA16A1E0FA0608F07C0167E872E0CE01B2
:1018D00046960E942804B70180E090E00E949D1384
:1018E0004B015C0120E030E044EB51E40E9498138E
:1018F00018161CF061E672E00CC020E030E047E80A
:1019000052E4C501B4010E94981318163CF065E634
:1019100072E0CE0146960E94F50354C020E030E00C
:1019200041EE52E4C501B4010E94981318161CF050
:1019300069E672E0EECF20E030E84DE153E4C50106
:10194000B4010E94981318161CF06DE672E0E1CF06
:1019500020E030E84AE453E4C501B4010E94981342
:1019600018161CF061E772E0D4CF20E030E847E7BA
:1019700053E4C501B4010E94981318161CF065E7E2
:1019800072E0C7CF20E030E442E953E4C501B4017E
:101990000E94981318161CF069E772E0BACF20E095
:1019A00030EC48EA53E4C501B4010E9498131816BC
:1019B0001CF06DE772E0ADCFB9E6EB16B1E0FB06C7
:1019C00008F498CF8091C8028111B8C06091B2022A
:1019D0007091B3028091B4029091B50228EE33E089
:1019E00040E050E00E94BC141A8219821C821B82C3
:1019F0001E821D82BE01645E7F4FC8012AA33BA3E5
:101A00004CA35DA30E940C0461E872E0C8010E942F
:101A1000BB032AA13BA14CA15DA1BA01A9010E946F
:101A20008403BC01CE014C960E940C04C8010E94A4
:101A3000230426E636E646E650E46091AE02709155
:101A4000AF028091B0029091B1020E94FE130E94F9
:101A50009B164B015C01198A188A1B8A1A8A1D8AF7
:101A60001C8ABE01645E7F4FCE0140960E940C042A
:101A700063E872E0CE0140960E94BB037C014AE01D
:101A8000B801C4010E946E13F80101900020E9F72B
:101A90003197AF01401B510BB801C7010E944403AD
:101AA000811103C0C7010E947203B701CE014C9699
:101AB0000E940C04CE0140960E9423041A821982CF
:101AC0001C821B821E821D82BE01645E7F4FC80184
:101AD0000E940C0466E872E0C8010E94BB037C010E
:101AE0004A8D5B8D6E897F890E944403811103C0FA
:101AF000C7010E947203B701CE014C960E940C04EC
:101B0000C8010E942304E8A0F9A0E114F10419F42B
:101B10001092CF031EC0EEE0EE16F10418F09EE026
:101B2000E92EF12C6C8D7D8DA7018FEC93E00E9446
:101B30007E19F701E153FC4F10820BC0813049F44C
:101B40008FE0EFE9F2E0AFECB3E001900D928A95FF
:101B5000E1F74FE06FEC73E08AE00E94BE088091ED
:101B6000CB039091CC03A091CD03B091CE03809391
:101B7000BB039093BC03A093BD03B093BE0346E1A7
:101B800065EB73E085E60E94BE088091C7028093F2
:101B9000AE0380919D0290919E029093B203809338
:101BA000B10380919B0290919C029093B403809327
:101BB000B3038091AC039091AD039093B0038093F5
:101BC000AF0347E06EEA73E08EE60E94BE088091A4
:101BD0009B0290919C029093A8038093A70380910D
:101BE000C702FAE08F9FC00111249093AB0380934A
:101BF000AA038091AC039091AD039093A6038093C8
:101C0000A5038091EC038093A10380E594E1909378
:101C1000A3038093A2031092A9036091ED03709136
:101C2000EE038091EF039091F00320E931E040E072
:101C300050E00E941215672B682B692B09F0ABC08E
:101C400080910201882309F4A0C067E872E0CE0108
:101C500040960E9428046091BE027091BF0280915C
:101C6000C0029091C10297FF07C090958095709532
:101C700061957F4F8F4F9F4F2AE030E040E050E06A
:101C80000E94BC1469017A016091C2027091C30282
:101C90008091C4029091C50297FF07C090958095EE
:101CA000709561957F4F8F4F9F4F2AE030E040E065
:101CB00050E00E94BC141A8219821C821B821E8270
:101CC0001D82BE01605F7F4FC8012AA33BA34CA3C6
:101CD0005DA30E940C042AA13BA14CA15DA1BA0105
:101CE000A901C8010E94840367E872E00E94BB0357
:101CF000B701A6010E948403BC01CE0140960E9458
:101D00000C04C8010E942304B0900201CB2CD12CFA
:101D1000C6010197EC88FD888E159F0528F4288957
:101D200039892115310529F41092D502E5EDF2E04B
:101D300003C0F901E80FF91F80818983CE14DF0405
:101D400020F4E889F989309729F41092D502E5ED5D
:101D5000F2E002C0EC0DFD1D80818A83C8010E9463
:101D600010138093A40322E0E21AF108EC14FD049E
:101D700028F0B394B394B092020102C01092020111
:101D8000CE0140960E94230406C08FEF8093A403E7
:101D900081E0809302014BE061EA73E082E80E94F7
:101DA000BE088091C2029091C302A091C402B0917A
:101DB000C5028093910390939203A0939303B093F1
:101DC00094038091BE029091BF02A091C002B09195
:101DD000C1028093950390939603A0939703B093C9
:101DE00098038091BD028093900342E16FE873E015
:101DF0008AE60E94BE0860918B0370918C038091EB
:101E00008D0390918E03693E33E073078105910540
:101E100038F024E630E040E050E00E94121506C0A1
:101E20004AE0469F9001479F300D1124309388036C
:101E3000209387038091DE039091DF032091B60207
:101E40003091B702821B930B4AE0489F9001499F53
:101E5000300D1124309386032093850346E065E816
:101E600073E08CE60E94BE0820E030E048EC52E4CB
:101E700060919702709198028091990290919A02D4
:101E80000E94FE130E9494167093800360937F0358
:101E90004AE06BE773E08DE60E94BE0888E380931A
:101EA000DD0288E18093520382E090E090936C031E
:101EB00080936B0380E18093730381E080937803C8
:101EC0008093790310927A0383E898E09093E1027B
:101ED0008093E0028AEE90E09093E3028093E20226
:101EE0009093E5028093E4029093E7028093E602E8
:101EF0009093E9028093E8029093EB028093EA02C8
:101F00009093ED028093EC029093EF028093EE02A7
:101F10002FEE39E03093F1022093F0029093F30218
:101F20008093F2029093F5028093F40226E338E066
:101F30003093F7022093F60228E538E03093F90257
:101F40002093F8029093FB028093FA0220910801FB
:101F5000309109013093FD022093FC029093FF021F
:101F60008093FE02909301038093000390930303F8
:101F700080930203909305038093040390930703D7
:101F800080930603909309038093080390930B03B7
:101F900080930A0328E138E030930D0320930C036B
:101FA00021E438E030930F0320930E0321E238E060
:101FB0003093110320931003909313038093120323
:101FC00028EB39E030931503209314039093170303
:101FD00080931603909319038093180390931B0327
:101FE00080931A0390931D0380931C0390931F0307
:101FF00080931E03909321038093200324EE39E005
:10200000309323032093220390932503809324038A
:1020100090932703809326039093290380932803AA
:1020200090932B0380932A0390932D0380932C038A
:1020300090932F0380932E0390933103809330036A
:10204000909333038093320390933503809334034A
:10205000909337038093360390933903809338032A
:1020600090933B0380933A0390933D0380933C030A
:1020700090933F0380933E039093410380934003EA
:1020800090934303809342039093450380934403CA
:1020900090934703809346039093490380934803AA
:1020A00090934B0380934A0390934D0380934C038A
:1020B00090934F0380934E0390935103809350036A
:1020C00045EA66ED72E084E50E94BE08CE014696C0
:1020D0000E942304CE014C960E9423048091ED03BC
:1020E0009091EE03A091EF03B091F0038C599F4FB4
:1020F000AF4FBF4F8093ED039093EE03A093EF0398
:10210000B093F0038091C9029091CA02A091CB02D2
:10211000B091CC02181619061A061B0664F48456F0
:102120009109A109B1098093C9029093CA02A093B1
:10213000CB02B093CC028091C9029091CA02A091C7
:10214000CB02B091CC02181619061A061B0614F021
:102150001092C8028091C5059091C605A091C7054F
:10216000B091C8054091C1055091C2056091C30569
:102170007091C40584179507A607B70771F080937F
:10218000C1059093C205A093C305B093C40568EE42
:1021900073E080E090E00E9481088091EC0381115F
:1021A0001DC08091C7028823C9F08B3210F481E0F2
:1021B00013C0853510F482E00FC08F3710F483E030
:1021C0000BC0893A10F484E007C0833D10F485E029
:1021D00003C08F3F19F086E08093EC032091B80292
:1021E0006091ED037091EE038091EF039091F00305
:1021F0002530B9F420E233E040E050E00E941215AF
:10220000672B682B692B09F063C089E0E0E1F1E0FE
:10221000D80101900D928A95E1F7FE013A9686E089
:1022200018C0263061F520E233E040E050E00E9423
:102230001215672B682B692B09F04AC08AE0EFE181
:10224000F1E0D80101900D928A95E1F7FE013B96ED
:1022500085E0DF011D928A95E9F781E08093C8024D
:1022600084EFC82EDD24D394E12CF12CC092C90256
:10227000D092CA02E092CB02F092CC0226C0223069
:1022800039F520E233E040E050E00E941215672B60
:10229000682B692BE9F48CE0EEE2F1E0D8010190C3
:1022A0000D928A95E1F71D861E861F8681E0809338
:1022B000C80224EF31E040E050E02093C90230939F
:1022C000CA024093CB025093CC02C8010E94780806
:1022D0006091ED037091EE038091EF039091F00314
:1022E00020E137E240E050E00E941215672B682B96
:1022F000692B31F464EF71E080E090E00E94810886
:102300008091C602833008F418C1809107018130A2
:1023100009F013C16091C2027091C3028091C4029E
:102320009091C502611571058105910509F405C1FA
:10233000C090BE02D090BF02E090C002F090C102F7
:10234000C114D104E104F10409F4F7C02091BD02E5
:10235000263008F4F2C06093E8037093E903809399
:10236000EA039093EB03C092E403D092E503E0927A
:10237000E603F092E703C090B902D090BA02E09071
:10238000BB02F090BC02C092E003D092E103E09265
:10239000E203F092E3030E949F139F7720E836E95F
:1023A00048E15BE40E94221625E33AEF4EE85CE345
:1023B0000E94FE132BED3FE049EC5FE30E944415C1
:1023C0006B017C010E949416DC01CB018096A11D5B
:1023D000B11D81349105A105B10508F0A1C02BED17
:1023E0003FE049E450E4C701B6010E94F116181617
:1023F0005CF42BED3FE049EC50E4C701B6010E94CC
:1024000043156B017C01EBCF2BED3FE049E450EC31
:10241000C701B6010E94981387FF0BC02BED3FE068
:1024200049EC50E4C701B6010E9444156B017C01E0
:10243000EBCF2BED3FE049EC5FE3C701B6010E9413
:10244000F11618167CF42BED3FE049EC5FE3C70171
:10245000B6010E9443159B01AC016BED7FE089EC56
:102460009FE318C02BED3FE049EC5FEBC701B601DD
:102470000E94981387FF12C02BED3FE049EC5FE309
:10248000C701B6010E9444159B01AC016BED7FE0D2
:1024900089EC9FEB0E9443156B017C01A70196011B
:1024A000C701B6010E94FE134B015C019B01AC0108
:1024B000C701B6010E94FE132B013C0120E030E071
:1024C000A901C501B4010E94FE1322E937EE41E4DF
:1024D00059E30E9443159B01AC01C501B4010E9460
:1024E000FE1327E930E348E05CE30E9444159B01BA
:1024F000AC01C501B4010E94FE1325E138EA4AE2AD
:102500005EE30E9443159B01AC01C301B2010E942E
:10251000FE139B01AC01C701B6010E94441503C024
:1025200060E070E0CB01609303017093040180933D
:10253000050190930601109207010E9468020C9415
:102540006B0A83E592E09093CC058093CB05809154
:102550006F008B7F80936F0080916F008F7D8093E1
:102560006F0080918B0280938C0280918A0281118E
:10257000FCCF80916F008D7F80936F000895E4E21F
:10258000F5E01382128288EE93E0A0E0B0E084834D
:102590009583A683B78321E432E03183208325EC41
:1025A00030E03587248724EC30E03787268720EC1D
:1025B00030E0318B208B21EC30E0338B228B22EC0E
:1025C00030E0358B248B26EC30E0378B268B118E58
:1025D000128E138E148EEBECF5E01382128284833C
:1025E0009583A683B78383E592E09183808380916E
:1025F0000801909109019093CA058093C9058091C3
:10260000C5059091C605A091C705B091C8058093F6
:10261000C1059093C205A093C305B093C405089566
:10262000FC0188279927E89421912032E9F3293089
:1026300010F02E30C8F32B3241F02D3239F468946B
:1026400004C00E944413820F911D219120532A300F
:10265000C0F31EF4909581959F4F0895FB01DC0116
:1026600005900D920020E1F70895BB272A3051F420
:10267000992342F4BDE290958095709561957F4FC6
:102680008F4F9F4F0C944D137AE0979F902D879F0B
:10269000802D910D11240895BB27FA01A62F6217F2
:1026A000710581059105330B30FB66F0AA27660F93
:1026B000771F881F991FAA1FA21710F0A21B6395EE
:1026C0003850A9F7A05DAA3308F0A95DA19336F7A9
:1026D000B111B1931082CA010C948813BB27FB017E
:1026E0005527AA27880F991FAA1FA41710F0A41B0B
:1026F00083955051B9F7A05DAA3308F0A95DA19365
:10270000009779F7B111B1931192CB010C94881312
:10271000DC01FC01672F71917723E1F7329704C048
:102720007C916D9370836291AE17BF07C8F30895D3
:102730000E94DA1308F481E00895E89409C097FB39
:102740003EF490958095709561957F4F8F4F9F4F88
:102750009923A9F0F92F96E9BB279395F6958795CC
:1027600077956795B795F111F8CFFAF4BB0F11F48F
:1027700060FF1BC06F5F7F4F8F4F9F4F16C0882336
:1027800011F096E911C0772321F09EE8872F762F6C
:1027900005C0662371F096E8862F70E060E02AF0AD
:1027A0009A95660F771F881FDAF7880F9695879599
:1027B00097F90895990F0008550FAA0BE0E8FEEF6E
:1027C00016161706E807F907C0F012161306E407F5
:1027D000F50798F0621B730B840B950B39F40A26EE
:1027E00061F0232B242B252B21F408950A2609F4CC
:1027F000A140A6958FEF811D811D08950E9411149F
:102800000C9482140E94741438F00E947B1420F0FF
:10281000952311F00C946B140C94711411240C94E6
:10282000B6140E94931470F3959FC1F3950F50E076
:10283000551F629FF001729FBB27F00DB11D639F72
:10284000AA27F00DB11DAA1F649F6627B00DA11D18
:10285000661F829F2227B00DA11D621F739FB00DBE
:10286000A11D621F839FA00D611D221F749F33272E
:10287000A00D611D231F849F600D211D822F762FC7
:102880006A2F11249F5750409AF0F1F088234AF0A4
:10289000EE0FFF1FBB1F661F771F881F9150504010
:1028A000A9F79E3F510580F00C946B140C94B6145C
:1028B0005F3FE4F3983ED4F3869577956795B79597
:1028C000F795E7959F5FC1F7FE2B880F911D9695B1
:1028D000879597F9089597F99F6780E870E060E021
:1028E00008959FEF80EC089500240A9416161706A9
:1028F00018060906089500240A94121613061406F1
:1029000005060895092E0394000C11F4882352F053
:10291000BB0F40F4BF2B11F460FF04C06F5F7F4F0B
:102920008F4F9F4F089557FD9058440F551F59F0F2
:102930005F3F71F04795880F97FB991F61F09F3FAC
:1029400079F087950895121613061406551FF2CFD5
:102950004695F1DF08C0161617061806991FF1CF25
:1029600086957105610508940895E894BB2766274C
:102970007727CB0197F90895052E97FB1EF4009455
:102980000E94D31457FD07D00E94121507FC03D0F4
:102990004EF40C94D31450954095309521953F4FAB
:1029A0004F4F5F4F089590958095709561957F4F3B
:1029B0008F4F9F4F08952F923F924F925F926F9249
:1029C0007F928F929F92AF92BF92CF92DF92EF92BF
:1029D000FF920F931F93CF93DF93CDB7DEB7CA1B40
:1029E000DB0B0FB6F894DEBF0FBECDBF09942A886B
:1029F000398848885F846E847D848C849B84AA8413
:102A0000B984C884DF80EE80FD800C811B81AA819F
:102A1000B981CE0FD11D0FB6F894DEBF0FBECDBF6A
:102A2000ED010895A1E21A2EAA1BBB1BFD010DC0EA
:102A3000AA1FBB1FEE1FFF1FA217B307E407F5076E
:102A400020F0A21BB30BE40BF50B661F771F881F4A
:102A5000991F1A9469F760957095809590959B01E0
:102A6000AC01BD01CF010895A29FB001B39FC00189
:102A7000A39F700D811D1124911DB29F700D811DAA
:102A80001124911D08955058BB27AA270E945B1559
:102A90000C9482140E94741438F00E947B1420F06D
:102AA00039F49F3F19F426F40C9471140EF4E09558
:102AB000E7FB0C946B14E92F0E94931458F3BA1798
:102AC000620773078407950720F079F4A6F50C9444
:102AD000B5140EF4E0950B2EBA2FA02D0B01B90101
:102AE00090010C01CA01A0011124FF27591B99F084
:102AF000593F50F4503E68F11A16F040A22F232F90
:102B0000342F4427585FF3CF469537952795A795DF
:102B1000F0405395C9F77EF41F16BA0B620B730B86
:102B2000840BBAF09150A1F0FF0FBB1F661F771FF7
:102B3000881FC2F70EC0BA0F621F731F841F48F4AC
:102B4000879577956795B795F7959E3F08F0B0CF35
:102B50009395880F08F09927EE0F9795879508951C
:102B60000E94741460F080E891E009F49EEF0E94E6
:102B70007B1428F040E851E071F45EEF0CC00C9437
:102B800071140C94B514E92FE0780E94931440F36B
:102B9000092E052AB1F3261737074807590738F0D9
:102BA0000E2E07F8E02569F0E025E0640AC0EF6327
:102BB00007F8009407FADB01B9019D01DC01CA01A5
:102BC000AD01EF930E9439160E9482140E94F31502
:102BD0005F91552339F02BED3FE049E450FD49EC7E
:102BE0000C9444150895DF93DD27B92FBF7740E893
:102BF0005FE31616170648075B0718F4D92F0E94E3
:102C0000F6169F938F937F936F930E944417ECE780
:102C1000F0E00E94CA160E9482142F913F914F91BA
:102C20005F910E941114DD2351F09058A2EA2AED21
:102C30003FE049EC5FE3D0785D270E945B15DF91B0
:102C40000C9482140E9436160C9482140E947B14F9
:102C500058F00E94741440F029F45F3F29F00C945E
:102C60006B1451110C94B6140C9471140E949314AB
:102C700068F39923B1F3552391F3951B550BBB27AB
:102C8000AA2762177307840738F09F5F5F4F220FF0
:102C9000331F441FAA1FA9F335D00E2E3AF0E0E8E7
:102CA00032D091505040E695001CCAF72BD0FE2F31
:102CB00029D0660F771F881FBB1F261737074807C5
:102CC000AB07B0E809F0BB0B802DBF01FF2793587D
:102CD0005F4F3AF09E3F510578F00C946B140C94C2
:102CE000B6145F3FE4F3983ED4F3869577956795E5
:102CF000B795F7959F5FC9F7880F911D96958795B2
:102D000097F90895E1E0660F771F881FBB1F6217D0
:102D100073078407BA0720F0621B730B840BBA0B8E
:102D2000EE1F88F7E09508950E949B166894B111F4
:102D30000C94B61408950E949B1488F09F5798F045
:102D4000B92F9927B751B0F0E1F0660F771F881FB0
:102D5000991F1AF0BA95C9F714C0B13091F00E94CA
:102D6000B514B1E008950C94B514672F782F882717
:102D7000B85F39F0B93FCCF3869577956795B395F1
:102D8000D9F73EF490958095709561957F4F8F4F60
:102D90009F4F0895DF93CF931F930F93FF92EF926E
:102DA000DF927B018C01689406C0DA2EEF010E944D
:102DB0001114FE01E894A591259135914591559105
:102DC000A6F3EF010E945B15FE019701A801DA94BA
:102DD00069F7DF90EF90FF900F911F91CF91DF91F6
:102DE00008950E94DA1308F48FEF08959B01AC0157
:102DF00060E070E080E89FE30C94221619F416F46A
:102E00000C9471140C9448170E949B14B8F39923E6
:102E1000C9F3B6F39F57550B87FF0E94561700243E
:102E2000A0E640EA900180585695979528F4805C7A
:102E3000660F771F881F20F026173707480730F4E2
:102E4000621B730B840B202931294A2BA6951794FA
:102E50000794202531254A2758F7660F771F881FCA
:102E600020F026173707480730F4620B730B840BEA
:102E7000200D311D411DA09581F7B901842F915876
:102E8000880F9695879508959B01AC010C94FE13CD
:102E90009F3F31F0915020F4879577956795B795CE
:102EA000880F911D9695879597F9089591505040F8
:102EB000660F771F881FD2F70895AA1BBB1B51E12D
:102EC00007C0AA1FBB1FA617B70710F0A61BB70B9A
:102ED000881F991F5A95A9F780959095BC01CD013F
:102EE0000895EE0FFF1F0590F491E02D0994CF9304
:102EF000DF938230910510F482E090E0E091D905F3
:102F0000F091DA0520E030E0C0E0D0E0309711F138
:102F10004081518148175907C0F04817590761F49B
:102F200082819381209719F09B838A832BC0909391
:102F3000DA058093D90526C02115310519F042170D
:102F4000530718F49A01BE01DF01EF010280F381FB
:102F5000E02DDCCF2115310509F1281B390B243078
:102F6000310590F412968D919C911397611571051E
:102F700021F0FB019383828304C09093DA05809350
:102F8000D905FD01329644C0FD01E20FF31F819384
:102F90009193225031092D933C933AC02091D7054B
:102FA0003091D805232B41F420910C0130910D0173
:102FB0003093D8052093D70520910A0130910B0159
:102FC0002115310541F42DB73EB740910E015091C6
:102FD0000F01241B350BE091D705F091D805E217BE
:102FE000F307A0F42E1B3F0B2817390778F0AC012C
:102FF0004E5F5F4F2417350748F04E0F5F1F509309
:10300000D8054093D7058193919302C0E0E0F0E0AA
:10301000CF01DF91CF9108950F931F93CF93DF934B
:10302000009709F48CC0FC01329713821282009140
:10303000D9051091DA050115110581F4208131813E
:10304000820F931F2091D7053091D8052817390793
:1030500079F5F093D805E093D70571C0D80140E029
:1030600050E0AE17BF0750F412962D913C91139784
:10307000AD012115310509F1D901F3CF9D01DA0127
:103080003383228360817181860F971F8217930794
:1030900069F4EC0128813981260F371F2E5F3F4FDD
:1030A000318320838A819B8193838283452B29F4FA
:1030B000F093DA05E093D90542C01396FC93EE93A2
:1030C0001297ED01499159919E01240F351FE21786
:1030D000F30771F480819181840F951F02961196F8
:1030E0009C938E938281938113969C938E931297D7
:1030F000E0E0F0E0D80112968D919C911397009733
:1031000019F0F8018C01F6CF8D919C9198012E5FFA
:103110003F4F820F931F2091D7053091D805281774
:10312000390769F4309729F41092DA051092D9051D
:1031300002C0138212821093D8050093D705DF9145
:10314000CF911F910F910895A0E0B0E0EAEAF8E175
:103150000C94DF14EC01009721F4CB010E94771747
:10316000B8C0FC01E60FF71F9C0122503109E2179D
:10317000F30708F4ACC0D9010D911C911197061703
:103180001707B0F00530110508F49FC0C801049777
:103190008617970708F499C002501109061B170BF0
:1031A000019311936D937C93CF010E940C188DC0F5
:1031B0005B01A01AB10A4C01800E911EA091D905A5
:1031C000B091DA0540E050E0E12CF12C109709F4C1
:1031D0004AC0A815B905D1F56D907C90119763018F
:1031E00082E0C80ED11CCA14DB0480F1A3014A1985
:1031F0005B096A0182E0C80ED11C1296BC9012973E
:103200001396AC91B5E0CB16D10440F0B282A38303
:1032100051834083D9016D937C930AC00E5F1F4F89
:10322000C301800F911FF90191838083EB2DFA2F49
:10323000E114F10431F0D7011396FC93EE93129749
:1032400044C0F093DA05E093D9053FC08D919C917D
:1032500011974817590708F4AC017D0112960D909B
:10326000BC91A02DB3CF8091D7059091D80588153A
:103270009905E1F446175707C8F480910A01909127
:103280000B01009741F48DB79EB740910E0150910C
:103290000F01841B950BE817F907C8F4F093D805C4
:1032A000E093D705F901718360830FC0CB010E94C1
:1032B00077177C01009759F0A801BE010E946E1992
:1032C000CE010E940C18C70104C0CE0102C080E0EC
:1032D00090E0CDB7DEB7EEE00C94FB14FB01DC010F
:1032E00002C001900D9241505040D8F70895FB0163
:1032F000DC0101900D920020E1F70895FB01DC0153
:103300004150504048F001900D920020C9F701C093
:103310001D9241505040E0F7089511E0C1E4D1E022
:1033200004C0FE010E9471172196C234D107C9F76B
:04333000F894FFCF3F
:10333400EA00010000803F01A1090000DB058000D4
:103344004641494C534146450000000000000045F9
:103354004D455247454E435900000000000043418B
:103364004C4942524154494E4700000000327C8986
:1033740000EDD9687700000059000000000000004B
:1033840000D69FDCA81817AA90437327F6B968EDF6
:10339400F4DED409FEE61C1C84DDE80B992927D64B
:1033A400DF8D210F036418EFEE1EF0B782820094C4
:1033B4001500347C0000001400988F000000000009
:1033C400000000000000E7B73F36000000000000E6
:1033D40000AF669ED038000000000000000000002E
:1033E40000000000000000000000000000000000D9
:1033F40000000000000000000000000000000000C9
:1034040000000086DBD0BC5416131586004E44BD64
:103414007F6F1515900100000000000000000000FF
:103424000000000000000000000000000000000098
:103434000000000000000000000000000000000088
:103444000000000000000000000000000000000078
:103454000000000000000000000000000000000068
:10346400000000000000CC31AA2C532E0000000004
:1034740000FF016C0197014602C801A601BA0100D0
:10348400000000BE026C017202B9028102A3029024
:1034940002E2869100E2869700E2869200E2869834
:1034A40000E2869300E2869900E2869000E2869626
:0834B40000410020530020003C
:00000001FF
