:100000000C94B0010C94D8010C94D8010C94D80134
:100010000C94D8010C94D8010C94D8010C94D801FC
:100020000C94D8010C94D8010C949F050C944906AB
:100030000C9458050C94D8010C94D8010C94D80158
:100040000C940E050C94D8010C94DC040C94B604AA
:100050000C94D8010C94D8010C94D8010C94D801BC
:100060000C94D8010C94D801220722072E074C07C4
:100070004207550762077C079707B807084AD73B2E
:100080003BCE016E84BCBFFDC12F3D6C74319ABD67
:1000900056833DDA3D00C77F11BED9E4BB4C3E918B
:1000A0006BAAAABE000000803F0000407A10F35AFD
:1000B00000A0724E18090010A5D4E80000E87648A8
:1000C000170000E40B54020000CA9A3B000000E154
:1000D000F505000080969800000040420F000000E7
:1000E000A08601000000102700000000E8030000C7
:1000F00000006400000000000A0000000000010091
:10010000000000002C76D888DC674F0823DFC1DFB1
:10011000AE59E1B1B796E5E3E453C63AE6519976B4
:1001200096E8E6C28426EB898C9B62ED407C6FFCEE
:10013000EFBC9C9F40F2BAA56FA5F490055A2AF730
:100140005C936B6CF9676DC11BFCE0E40D47FEF539
:1001500020E6B500D0ED902E0300943577050080A1
:10016000841E080000204E0A000000C80C33333300
:10017000330F986E12831141EF8D2114893BE655A0
:1001800016CFFEE6DB18D1844B381BF77C1D901D83
:10019000A4BBE424203284725E228100C9F124ECE5
:1001A000A1E53D270000000800020100000304074C
:1001B00000000000000000000000000025002800F2
:1001C0002B0000000000240027002A00040404047F
:1001D00004040404020202020202030303030303F1
:1001E00001020408102040800102040810200102CE
:1001F000040810204D414E55414C00000000000005
:10020000000000434952434C45000000000000003C
:10021000000053544142494C495A45000000000037
:1002200000545241494E494E470000000000000072
:100230004143524F00000000000000000000004653
:100240004C59204259205749524520410000464C04
:1002500059204259205749524520420000435255E7
:100260004953450000000000000000004155544F74
:1002700054554E4500000000000000000000000042
:10028000000000000000000000004155544F000035
:1002900000000000000000000052544C000000006C
:1002A00000000000000000004C4F4954455200007F
:1002B0000000000000000054414B454F464600003E
:1002C00000000000000041564F49445F4144534242
:1002D000000000000047554944454400000000006C
:1002E00000000000494E495449414C4953494E478A
:1002F0000000005153544142494C495A4500000006
:10030000000051484F564552000000000000000018
:1003100000514C4F495445520000000000000000BD
:10032000514C414E4400000000000000000000510C
:1003300052544C0000000000000000000000514139
:1003400055544F54554E45000000000000514143A4
:10035000524F00000000000000000000AE14901496
:1003600011241FBECFEFD8E0DEBFCDBF12E0A0E06A
:10037000B1E0E8E2FCE302C005900D92A239B107BA
:10038000D9F725E0A2E9B2E001C01D92A93EB2076B
:10039000E1F711E0CFEAD1E004C02197FE010E940D
:1003A000E61BCE3AD107C9F70E94AC090C94071E90
:1003B0000C940000CF92DF92EF92FF920F931F9365
:1003C000CF93DF936C017A018B01C0E0D0E0CE15B2
:1003D000DF0589F0D8016D918D01D601ED91FC9179
:1003E0000190F081E02DC6010995892B11F47E0161
:1003F00002C02196ECCFC701DF91CF911F910F91E1
:10040000FF90EF90DF90CF900895FC01538D448DC5
:10041000252F30E0842F90E0821B930B541710F0AF
:10042000CF96089501970895FC01918D828D9817BC
:1004300061F0828DDF01A80FB11D5D968C91928DC8
:100440009F5F9F73928F90E008958FEF9FEF0895C5
:10045000FC01918D828D981731F0828DE80FF11D8E
:10046000858D90E008958FEF9FEF0895FC01918DA9
:10047000228D892F90E0805C9F4F821B91098F73A2
:100480009927089582E395E00E94360221E0892BA6
:1004900009F420E0822F0895FC01848DDF01A80F6C
:1004A000B11DA35ABF4F2C91848D90E001968F739C
:1004B0009927848FA689B7892C93A089B1898C91BB
:1004C00080648C93938D848D981306C00288F38981
:1004D000E02D80818F7D80830895EF92FF920F93AE
:1004E0001F93CF93DF93EC0181E0888F9B8D8C8DE0
:1004F000981305C0E889F989808185FD24C0F62E0E
:100500000B8D10E00F5F1F4F0F731127E02E8C8DA6
:10051000E8120CC00FB607FCFACFE889F989808190
:1005200085FFF5CFCE010E944C02F1CF8B8DFE01ED
:10053000E80FF11DE35AFF4FF0820B8FEA89FB8928
:100540008081806207C0EE89FF896083E889F9892C
:1005500080818064808381E090E0DF91CF911F9162
:100560000F91FF90EF900895CF93DF93EC01888D6A
:100570008823C9F0EA89FB89808185FD05C0A889A7
:10058000B9898C9186FD0FC00FB607FCF5CF80812D
:1005900085FFF2CFA889B9898C9185FFEDCFCE0177
:1005A0000E944C02E7CFDF91CF91089580E090E068
:1005B000892B29F00E94420281110C9400000895B9
:1005C0004091930250919202852F90E0242F30E0C9
:1005D000451710F08C5B9F4F821B930B0895509131
:1005E000960240919502852F90E0242F30E0541719
:1005F00010F4805B9F4F821B930B089580919602AD
:10060000E09195028E1751F0EF5FE03508F0E0E0E1
:10061000F0E0E952FB4F808190E008958FEF9FEF6B
:1006200008958091960290919502891769F09F5FD5
:10063000903508F090E0E92FF0E0E952FB4F80811F
:100640009093950290E008958FEF9FEF0895809129
:1006500094028111FCCF0895809193028F5F8434BE
:1006600008F080E0909192029817E1F32FB7F89488
:1006700090919402992341F0E82FF0E0E357FB4F6B
:100680006083809393021DC081E080939402609305
:10069000D2041092D10482E086BB80916F00826008
:1006A00080936F00809180008F73806880938000BA
:1006B000809184009091850040969093890080936A
:1006C00088002FBF81E090E00895FB012081822700
:1006D00090E1899F900111242827822F90E0582FC4
:1006E00044279C0163E0220F331F6A95E1F74227FC
:1006F0005327218130E02427352774E0959587958D
:100700007A95E1F78227932791838083089508954E
:1007100080E090E008950E94E31D0F931F93CF9314
:10072000DF93EC0188819981009729F02A813B8130
:100730002617370788F48B016F5F7F4F0E94191DC2
:10074000009761F0998388831B830A832C813D8104
:10075000232B11F4FC01108281E001C080E0DF91C5
:10076000CF911F910F910895EF92FF920F931F93D6
:10077000CF93DF93FC01248135816115710511F45C
:1007800080E019C041155105A9F07B01EC018A01F7
:10079000020F131FB8010E948D03882389F328815B
:1007A00039818C819D81B701820F931F0E94F11DB9
:1007B0001D830C8381E0DF91CF911F910F91FF90FA
:1007C000EF900895CF93DF93EC0188819981009792
:1007D00011F00E94811C198218821D821C821B82CA
:1007E0001A82DF91CF910895EF92FF920F931F939A
:1007F000CF93DF93CDB7DEB72E970FB6F894DEBF59
:100800000FBECDBF7C01CB01BA012AE08E010F5F84
:100810001F4FA8010E944415F80101900020E9F73C
:100820003197AF01401B510BB801C7010E94B403BF
:10083000811103C0C7010E94E203C7012E960FB6C3
:10084000F894DEBF0FBECDBFDF91CF911F910F9106
:10085000FF90EF900895CF93DF93EC016115710540
:1008600061F0FB0101900020E9F73197AF01461BD1
:10087000570B0E94B403811103C0CE010E94E20312
:10088000CE01DF91CF910895EF92FF920F931F93C6
:10089000CF93DF93EC017B018A01BA010E948D03A3
:1008A000811104C0CE010E94E20307C01D830C83A6
:1008B000B701888199810E94F11DCE01DF91CF910E
:1008C0001F910F91FF90EF900895CF93DF93EC016C
:1008D0006115710559F0FB0101900020E9F731978E
:1008E000AF01461B570B0E94440402C00E94E20362
:1008F000CE01DF91CF910895CF93DF93EC01FB01FF
:100900008617970761F0608171816115710529F083
:10091000448155810E94440402C00E94E203CE013A
:10092000DF91CF910895FC01808191810C94811C0D
:10093000FC011182108213821282158214820C949F
:100940007C04FC01118210821382128215821482AF
:100950006115710551F0FB0101900020E9F7319715
:10096000AF01461B570B0C94440408951F920F923D
:100970000FB60F9211242F933F934F935F936F9372
:100980007F938F939F93AF93BF93EF93FF9382E3F4
:1009900095E00E944C02FF91EF91BF91AF919F9122
:1009A0008F917F916F915F914F913F912F910F9018
:1009B0000FBE0F901F9018951F920F920FB60F92B7
:1009C00011242F938F939F93EF93FF93E091420510
:1009D000F09143058081E0914805F091490582FD41
:1009E00012C0908180914B058F5F8F7320914C05D1
:1009F000821751F0E0914B05F0E0EE5CFA4F958FD5
:100A000080934B0501C08081FF91EF919F918F9161
:100A10002F910F900FBE0F901F9018951F920F925D
:100A20000FB60F9211242F933F938F939F93AF9301
:100A3000BF9380919D0290919E02A0919F02B091E0
:100A4000A00230912B0523E0230F2D3720F40196CF
:100A5000A11DB11D05C026E8230F0296A11DB11DE1
:100A600020932B0580939D0290939E02A0939F025A
:100A7000B093A0028091270590912805A0912905A7
:100A8000B0912A050196A11DB11D80932705909371
:100A90002805A0932905B0932A05BF91AF919F9196
:100AA0008F913F912F910F900FBE0F901F9018952F
:100AB0001F920F920FB60F9211242F938F939F9333
:100AC000EF93FF9380916F008B7F80936F008091F5
:100AD00081008F7B80938100809197022091D604C2
:100AE00020589091D504893020F49695922B8F5FF1
:100AF000FACF9093D504809196028F5F803508F0ED
:100B000080E020919502821739F0E82FF0E0E95259
:100B1000FB4F908380939602109297028091810000
:100B20008F7B809381001092D604FF91EF919F916B
:100B30008F912F910F900FBE0F901F9018951F92BD
:100B40000F920FB60F9211242F933F934F935F9301
:100B50006F937F938F939F93AF93BF93EF93FF9385
:100B600080918600909187004091D6042091810069
:100B7000442331F02F7B209381001092D60406C0CD
:100B800020642093810020E82093D60430919702BE
:100B9000311125C041116CC0209198023091990209
:100BA000280F391F30938B0020938A0024E026BB46
:100BB00020916F00246020936F0020919A02309161
:100BC0009B02820F931F36952795820F931F909358
:100BD000D4048093D30481E08093970249C040916C
:100BE000D3045091D40460919A0270919B02DB016E
:100BF000A095B095E091D6042091D504841B950B67
:100C0000A817B90768F126952E2B460F571F3F5F8F
:100C1000861B970B3930A0F32093D50480916F0089
:100C20008B7F80936F00809196028F5F803508F0F4
:100C300080E090919502891749F0E82FF0E09091BB
:100C4000D504E952FB4F90838093960280918100F6
:100C50008F7B809381001092D6041092970208C077
:100C60002093D5045093D4044093D3043093970237
:100C7000FF91EF91BF91AF919F918F917F916F9174
:100C80005F914F913F912F910F900FBE0F901F904A
:100C900018951F920F920FB60F9211242F933F9326
:100CA0004F935F936F937F938F939F93EF93FF93F4
:100CB000809194026091D204209188003091890043
:100CC00040919A0250919B029091D1048A30F8F49D
:100CD000240F351F893019F0762F717001C071E033
:100CE00066958F5F791791F390918000772311F0CB
:100CF000906C02C09F73906890938000309389003D
:100D0000209388007093D1046093D2044AC09091DC
:100D10009302E09192029E1319C08A3051F48BE045
:100D200080939402240F351F30938900209388000C
:100D30003AC010929402809180008F73809380005B
:100D400080916F008D7F80936F002DC0EF5FE43442
:100D500008F0E0E0E0939202F0E0E357FB4F90816F
:100D60009093D2041092D104909180009F73906868
:100D7000909380008A3059F480919A0290919B025E
:100D8000280F391F309389002093880009C0809173
:100D9000840090918500409690938900809388000C
:100DA00081E080939402FF91EF919F918F917F91C9
:100DB0006F915F914F913F912F910F900FBE0F90C8
:100DC0001F9018952F923F924F925F926F927F9251
:100DD0008F929F92AF92BF92CF92DF92EF92FF924B
:100DE0000F931F93CF93DF93CDB7DEB7C657D109CB
:100DF0000FB6F894DEBF0FBECDBFEE24E394F12C06
:100E000052E0252E312CCC24CA94DC2C89ED95E0BF
:100E10000E94EF02181619060CF0C9C189ED95E081
:100E20000E9411033C01082F10920B04E0910E0464
:100E3000F0910F04EA30F10508F0D5C0EC5CFF4FEB
:100E40000C94E61B8E3F09F0CEC030920F04209226
:100E50000E0410921A0480931904A3C0863630F051
:100E600080910C048F5F80930C04A0C080931A04BF
:100E70001092100467E174E00E94650334E0832E51
:100E8000912C2DC080931B0467E174E00E946503E0
:100E900023E0A22EB12C2BC080931C0467E174E0E8
:100EA0000E94650325E030E03DC080931D0467E1AA
:100EB00074E00E94650386E090E090930F048093B5
:100EC0000E0491C080931E0467E174E00E946503E4
:100ED00080911A04811108C098E0892E912C90927B
:100EE0000F0480920E047FC087E0A82EB12CB09230
:100EF0000F04A0920E0477C0E0911004772473943D
:100F00007E0E70921004F0E0E15EFB4F608267E1BC
:100F100074E0862D0E94650380911A04781263C0E4
:100F200028E030E030930F0420930E045CC0E09181
:100F30001E04F0E0E35CFE4F67E174E080810E94F4
:100F40006503809117049091180499279301332722
:100F500028173907F1F489E090E090930F0480930B
:100F60000E04E0911004F0E0E15EFB4F60823BC0B4
:100F700090911804E6969FAFE697E7961FAEE79725
:100F8000C3019927E7968EAC9FACE7978815990522
:100F900091F00E3F59F430920F0420920E041092FB
:100FA0001A04D0921804C09217041DC0F0920F04C6
:100FB000E0920E0418C081E080930B04F0920F04BD
:100FC000E0920E04E0911004F0E0E05EFB4F6082DE
:100FD00080E7E7E1F4E0DE01119601900D928A9539
:100FE000E1F710911E0420910B04213099F48091B7
:100FF0001B048093110480911304909114040097B2
:1010000021F4109216041092150401969093140482
:101010008093130410920D04222309F4F7CE1132A9
:1010200009F468C070F4113029F108F494C0183143
:1010300009F0ECCE8EA19DA19093D8028093CF02AF
:10104000E5CE1A3449F1183A09F498C0133209F080
:10105000DDCE2E8D30E0AFEFB3E00E94A9192FEF67
:1010600030E040E050E00E9431193093A802209314
:10107000A702CCCE298D3A8D4FA18F89988D64E639
:1010800070E00E94D21B6093D90240938C0430938D
:10109000A6022093A502BACE4D855E856F8578891C
:1010A0008D899E89AF89B88D298D3A8DEB8D4984C4
:1010B0005A846B847C8440928804509289046092A4
:1010C0008A0470928B044093B8025093B9026093E3
:1010D000BA027093BB023093C6022093C502E0931C
:1010E00087048093A1029093A202A093A302B093DD
:1010F000A4028CCE4D845E846F84788849895A8995
:101100006B897C898D899E89AF89B88D898C9A8CF1
:10111000AB8CBC8C8092BC029092BD02A092BE02AD
:10112000B092BF024092D4025092D5026092D60291
:101130007092D7024093D0025093D1026093D202B2
:101140007093D3028093CB029093CC02A093CD02F4
:10115000B093CE025BCE89859A85AB85BC85288904
:101160003F8530939C022093C0028093D3059093D7
:10117000D405A093D505B093D60548CE8D859E8520
:10118000AF85B88949855A856B857C854093C702B0
:101190005093C8026093C9027093CA028093C1023F
:1011A0009093C202A093C302B093C4022FCECA5838
:1011B000DF4F0FB6F894DEBF0FBECDBFDF91CF91EA
:1011C0001F910F91FF90EF90DF90CF90BF90AF9065
:1011D0009F908F907F906F905F904F903F902F9057
:1011E0000895FC019FE0A9EAB2E001900D929A9562
:1011F000E1F70895CF92DF92EF92FF92CF93DF93C2
:10120000CDB7DEB72F970FB6F894DEBF0FBECDBFB8
:101210006B017C012091D3053091D4054FE0429FB2
:10122000C001439F900D1124BC016C507E4FCE0134
:1012300001960E943D1581E08093DA02C092DB02A4
:10124000D092DC02E092DD02F092DE02CE01019645
:101250000E94F1082F960FB6F894DEBF0FBECDBFE7
:10126000DF91CF91FF90EF90DF90CF900895CF92D4
:10127000DF92EF92FF920F931F93CF93DF931F9212
:10128000CDB7DEB7D82EF62EC42E80912C059091C6
:101290002D05DC01ED91FC910190F081E02D64E2DF
:1012A0007983099580912C0590912D05DC01ED91B4
:1012B000FC910190F081E02D6DE4099580912C0561
:1012C00090912D05DC01ED91FC910190F081E02DD4
:1012D0006CE3099580912C0590912D05DC01ED9131
:1012E000FC910190F081E02D6C2D099580912C05E9
:1012F00090912D05DC01ED91FC910190F081E02DA4
:101300006D2D0995DC24EF2C0F2D7981172F8091FD
:101310002C0590912D05202F2E192C1560F4F80125
:1013200061918F01D626DC01ED91FC910190F08155
:10133000E02D0995ECCFDC01ED91FC910190F0815D
:10134000E02D6D2D0F90DF91CF911F910F91FF90A8
:10135000EF90DF90CF900994CF93DF93CDB7DEB7B6
:10136000AA970FB6F894DEBF0FBECDBF789484B5B0
:10137000826084BD84B5816084BD85B5826085BD91
:1013800085B5816085BD80916E00816080936E001F
:101390001092810080918100826080938100809111
:1013A00081008160809381008091800081608093C2
:1013B00080008091B10084608093B1008091B00082
:1013C00081608093B00080917A00846080937A007D
:1013D00080917A00826080937A0080917A008160A7
:1013E00080937A0080917A00806880937A001092CE
:1013F000C100E0914205F091430582E08083E091D5
:101400003E05F0913F051082E0914005F0914105C5
:1014100080E1808310924A05E0914605F0914705EE
:1014200086E08083E0914405F091450580818061EC
:101430008083E0914405F091450580818860808338
:10144000E0914405F0914505808180688083E091BA
:101450004405F091450580818F7D808382E395E08E
:1014600090932D0580932C0584EF91E0A0E0B0E0EF
:1014700080932E0590932F05A0933005B0933105EE
:1014800010926F001092800081E88093810086E1C5
:1014900091E090939B0280939A028BE09AE0909364
:1014A000990280939802E8EEF1E02491E4EDF1E0F6
:1014B00084918823C9F090E0880F991FFC01EE53B6
:1014C000FE4F45915491FC01E854FE4FA591B49113
:1014D0009FB7F894FA013081822F8095832380830F
:1014E000EC91E22BEC939FBFEDEAF1E0349149EEF1
:1014F00051E0FA01649185ED91E0FC0124912223F1
:10150000B9F1332339F1333091F038F43130A9F0A7
:10151000323001F534B53F7D12C0373091F03830AC
:10152000A1F03430B9F4309180003F7D03C0309198
:1015300080003F77309380000DC034B53F7734BDD5
:1015400009C03091B0003F7703C03091B0003F7DBB
:101550003093B00030E0220F331F28543E4FF90182
:10156000A591B4912FB7F8943C91632B6C932FBF46
:10157000FA014491FC018491882399F090E0880F4E
:10158000991FFC01EE53FE4FA591B491FC01E85464
:10159000FE4F859194918FB7F8949C91492B4C9371
:1015A0008FBF10929702109296021092950210929D
:1015B0009402109293021092920280E286BB809372
:1015C0006F000E94E2062FB7F89480919D029091DF
:1015D0009E02A0919F02B091A0022FBF40910704EC
:1015E000509108046091090470910A048C019D01D6
:1015F000041B150B260B370B04361105210531058D
:1016000008F4FFC58093070490930804A09309048D
:10161000B0930A048091FE039091FF03A09100040F
:10162000B09101040097A105B10509F49AC080901A
:10163000FA039090FB03A090FC03B090FD0381148B
:101640009104A104B10409F48CC00091D40210915A
:10165000D5022091D6023091D702BC01CD01601B8A
:10166000710B820B930B0E9414186B017C0180910B
:10167000D0029091D102A091D202B091D302A501E3
:101680009401281B390B4A0B5B0BCA01B9010E945C
:1016900014182091030130910401409105015091EB
:1016A00006010E9473184B015C01A7019601C70156
:1016B000B6010E9473182B013C01A5019401C501DC
:1016C000B4010E9473189B01AC01C301B2010E94D6
:1016D000B9190E94791B2CE23DE74EE85FE30E94B6
:1016E00073180E94101B2B013C01C701B6019058D2
:1016F000A50194010E94381A20EA3CE043EB55E42E
:101700000E94731820E030EA4CE056E40E94B919B8
:101710000E94091B6B017C0197FF06C030EAC30ED3
:101720003CE8D31EE11CF11CC301B20124E630E009
:1017300040E050E00E94871920939D0330939E0360
:1017400040939F035093A003C701B60124E630E005
:1017500040E050E00E9431193093F1032093F003F0
:101760000CC010929D0310929E0310929F03109242
:10177000A0031092F1031092F00320919C0280913B
:10178000DD039091DE03A091DF03B091E00327FF1A
:1017900002C0816001C08E7F8093DD039093DE03E1
:1017A000A093DF03B093E0034091D3055091D4059B
:1017B0006091D5057091D6058091DD039091DE038F
:1017C000A091DF03B091E00342305105610571053E
:1017D00011F4826001C08D7F8093DD039093DE035E
:1017E000A093DF03B093E0032091C00225508091C5
:1017F000DD039091DE03A091DF03B091E00322307E
:1018000010F4806101C08F7E8093DD039093DE032E
:10181000A093DF03B093E0038091DD039091DE039A
:10182000A091DF03B091E0034B30510561057105D4
:1018300011F4806201C08F7D8093DD039093DE03FD
:10184000A093DF03B093E0036091A5027091A6021C
:10185000072E000C880B990B0E94141820E030E032
:1018600040E251E40E9473186B017C012FB7F89499
:1018700060919D0270919E0280919F029091A002C2
:101880002FBF0E9412182091E3023091E402409190
:10189000E5025091E6020E94B8199B01AC01C70114
:1018A000B6010E94731820E03AEB4BE55AE40E941F
:1018B000971A2091DF023091E0024091E1025091AD
:1018C000E2020E94B9196093DF027093E0028093F4
:1018D000E1029093E2020E94101B7093BF03609399
:1018E000BE032FB7F89460919D0270919E02809183
:1018F0009F029091A0022FBF0E9412186093E302F2
:101900007093E4028093E5029093E60260910304F1
:1019100070910404809105049091060424E833E05A
:1019200040E050E00E94871920910701672B682B47
:10193000692BD1F42130C1F48091D7059091D8055D
:10194000813D9740D8F08091080190910901209144
:101950000001309101013093090120930801909317
:101960000101809300010AC0211108C08091D705B0
:101970009091D80590930901809308016BE872E07B
:10198000CE0181960E94A1048091F0039091F10311
:101990002091C5023091C602821B930B8C0108591D
:1019A0001E4F093651E0150708F08C016BE872E014
:1019B000CE014B960E94A1040330110518F461E694
:1019C00072E011C0B80180E090E00E9412186B0133
:1019D0007C0120E030E044EB51E40E940D18181621
:1019E0003CF065E672E0CE014B960E94650464C04F
:1019F00020E030E047E852E4C701B6010E940D182C
:101A000018161CF069E672E0EECF20E030E041EEFF
:101A100052E4C701B6010E940D1818161CF06DE6BD
:101A200072E0E1CF20E030E84DE153E4C701B601B8
:101A30000E940D1818161CF061E772E0D4CF20E068
:101A400030E84AE453E4C701B6010E940D181816A5
:101A50001CF065E772E0C7CF20E030E847E753E4C9
:101A6000C701B6010E940D1818161CF069E772E054
:101A7000BACF20E030E442E953E4C701B6010E9446
:101A80000D1818161CF06DE772E0ADCF20E030ECB9
:101A900048EA53E4C701B6010E940D1818161CF05D
:101AA00061E872E0A0CF073681E0180708F499CF0B
:101AB0000936114008F483CF8091DA028111A7C062
:101AC0006091BC027091BD028091BE029091BF02F4
:101AD00028EE33E040E050E00E943119BE016F5D16
:101AE0007F4F8E010F5F1F4FC8012FA338A749A753
:101AF0005AA70E94980465E872E0C8010E942B046E
:101B00002FA138A549A55AA5BA01A9010E94F4033D
:101B1000BC01CE0181960E947C04C8010E949304FE
:101B200026E636E646E650E46091B8027091B902C6
:101B30008091BA029091BB020E9473180E94101B00
:101B40004B015C01BE016F5D7F4FCE0145960E9447
:101B5000980467E872E0CE0145960E942B047C0150
:101B60004AE0B801C4010E947D15F80101900020EF
:101B7000E9F73197AF01401B510BB801C7010E9433
:101B8000B403811103C0C7010E94E203B701CE0173
:101B900081960E947C04CE0145960E949304BE016A
:101BA0006F5D7F4FC8010E9498046AE872E0C80127
:101BB0000E942B047C014F8D58A16B8D7C8D0E945F
:101BC000B403811103C0C7010E94E203B701CE0133
:101BD00081960E947C04C8010E9493040DA11EA15D
:101BE0000115110519F41092E1031CC00E30110506
:101BF00010F00EE010E069A17AA1A80181EE93E057
:101C00000E94F81DF801EF51FC4F10820BC081308B
:101C100049F48FE0E9EAF2E0A1EEB3E001900D9221
:101C20008A95E1F74FE061EE73E08AE00E943709A0
:101C30008091DD039091DE03A091DF03B091E0037A
:101C40008093CD039093CE03A093CF03B093D003A2
:101C500046E167EC73E085E60E9437098091D9027E
:101C60008093C0038091A7029091A8029093C4032F
:101C70008093C3038091A5029091A6029093C6031E
:101C80008093C5038091BE039091BF039093C203DC
:101C90008093C10347E060EC73E08EE60E94370951
:101CA0008091A5029091A6029093BA038093B90304
:101CB0008091D902AAE08A9FC00111249093BD03AC
:101CC0008093BC038091BE039091BF039093B803AF
:101CD0008093B703809102048093B30380E594E17D
:101CE0009093B5038093B4031092BB0360910304F7
:101CF00070910404809105049091060420E931E07C
:101D000040E050E00E948719672B682B692B09F08F
:101D1000A6C080910201882309F49BC06BE872E0A1
:101D2000CE0145960E94A1046091D0027091D1022B
:101D30008091D2029091D30297FF07C09095809531
:101D4000709561957F4F8F4F9F4F2AE030E040E0C4
:101D500050E00E94311969017A016091D4027091BA
:101D6000D5028091D6029091D70297FF07C0909537
:101D70008095709561957F4F8F4F9F4F2AE030E09F
:101D800040E050E00E943119BE016B5E7F4FCE01F2
:101D900001962FA338A749A75AA70E9498042FA1FC
:101DA00038A549A55AA5BA01A901CE0101960E94FC
:101DB000F4036BE872E00E942B04B701A6010E94B5
:101DC000F403BC01CE0145960E947C04CE0101962D
:101DD0000E949304D0900201ED2CF12CC7010197D1
:101DE000098D1A8D8017910720F4ED89FE893097AF
:101DF00029F41092E702E7EEF2E002C0E80FF91FC3
:101E000080818983E016F10620F4ED89FE89309700
:101E100029F41092E702E7EEF2E002C0EE0DFF1D9A
:101E200080818A83CE0101960E941F158093B6039C
:101E3000025011090E151F0528F0D394D394D092A7
:101E4000020102C010920201CE0145960E94930445
:101E500006C08FEF8093B60381E0809302014BE0D0
:101E600063EB73E082E80E9437098091D40290917D
:101E7000D502A091D602B091D7028093A30390938C
:101E8000A403A093A503B093A6038091D0029091E0
:101E9000D102A091D202B091D3028093A703909374
:101EA000A803A093A903B093AA038091CF028093C3
:101EB000A20342E161EA73E08AE60E943709609179
:101EC0009D0370919E0380919F039091A003693EB2
:101ED000B3E07B078105910538F024E630E040E06F
:101EE00050E00E94871906C04AE0469F9001479F34
:101EF000300D112430939A03209399038091F003BD
:101F00009091F1032091C5023091C602821B930B80
:101F10004AE0489F9001499F300D11243093980367
:101F20002093970346E067E973E08CE60E94370947
:101F300020E030E048EC52E46091A1027091A202EE
:101F40008091A3029091A4020E9473180E94091B21
:101F500070939203609391034AE06DE873E08DE61D
:101F60000E94370988E38093EF0288E1809364033D
:101F700082E090E090937E0380937D0380E18093E4
:101F8000850381E080938A0380938B0310928C03F6
:101F900083E898E09093F3028093F2028AEE90E057
:101FA0009093F5028093F4029093F7028093F602E7
:101FB0009093F9028093F8029093FB028093FA02C7
:101FC0009093FD028093FC029093FF028093FE02A7
:101FD00090930103809300032FEE39E030930303C5
:101FE00020930203909305038093040390930703C7
:101FF0008093060326E338E0309309032093080317
:1020000028E538E030930B0320930A0390930D03E7
:1020100080930C03209108013091090130930F0344
:1020200020930E0390931103809310039093130356
:1020300080931203909315038093140390931703D6
:1020400080931603909319038093180390931B03B6
:1020500080931A0390931D0380931C0328E138E0BA
:1020600030931F0320931E0321E438E030932103B3
:102070002093200321E238E03093230320932203AE
:10208000909325038093240328EB39E030932703B2
:102090002093260328E939E030932903209328036D
:1020A00090932B0380932A0390932D0380932C030A
:1020B00090932F0380932E039093310380933003EA
:1020C000909333038093320324EE39E03093350349
:1020D000209334039093370380933603909339030E
:1020E0008093380390933B0380933A0390933D038E
:1020F00080933C0390933F0380933E03909341036E
:10210000809340039093430380934203909345034D
:10211000809344039093470380934603909349032D
:102120008093480390934B0380934A0390934D030D
:1021300080934C0390934F0380934E0390935103ED
:1021400080935003909353038093520390935503CD
:1021500080935403909357038093560390935903AD
:102160008093580390935B0380935A0390935D038D
:1021700080935C0390935F0380935E03909361036D
:1021800080936003909363038093620345EA68EE53
:1021900072E084E50E943709CE014B960E949304B9
:1021A000CE0181960E9493048091030490910404CF
:1021B000A0910504B09106048C599F4FAF4FBF4FBB
:1021C0008093030490930404A0930504B093060441
:1021D0008091DB029091DC02A091DD02B091DE02E1
:1021E000181619061A061B0664F484569109A109EB
:1021F000B1098093DB029093DC02A093DD02B093DF
:10220000DE028091DB029091DC02A091DD02B091B0
:10221000DE02181619061A061B0614F01092DA02CE
:102220008091D3059091D405A091D505B091D605A4
:102230004091CF055091D0056091D1057091D205A4
:1022400084179507A607B70771F08093CF05909381
:10225000D005A093D105B093D20568EE73E080E07D
:1022600090E00E94FA088091020481111DC08091C3
:10227000D9028823C9F08B3210F481E013C0853570
:1022800010F482E00FC08F3710F483E00BC0893A5E
:1022900010F484E007C0833D10F485E003C08F3F55
:1022A00019F086E0809302042091C002609103043B
:1022B0007091040480910504909106042530C1F4C6
:1022C00020E233E040E050E00E948719672B682B42
:1022D000692B09F065C089E0E0E1F1E0DE011196CB
:1022E00001900D928A95E1F7FE013A9686E019C0B9
:1022F000263059F520E233E040E050E00E94871993
:10230000672B682B692B09F04BC08AE0EFE1F1E005
:10231000DE01119601900D928A95E1F7FE013B9640
:1023200085E0DF011D928A95E9F781E08093DA026A
:1023300004EF11E020E030E00093DB021093DC02B8
:102340002093DD023093DE0227C0223049F520E2DF
:1023500033E040E050E00E948719672B682B692B1F
:10236000F9F48CE0EEE2F1E0DE01119601900D92BD
:102370008A95E1F71D861E861F8681E08093DA022A
:1023800024EF31E040E050E02093DB023093DC02A8
:102390004093DD025093DE02CE0101960E94F108C7
:1023A00060910304709104048091050490910604E7
:1023B00020E137E240E050E00E948719672B682B4C
:1023C000692B31F464EF71E080E090E00E94FA083C
:1023D0008091D802833008F418C1809107018130C0
:1023E00009F013C16091D4027091D5028091D60298
:1023F0009091D702611571058105910509F405C118
:102400000091D0021091D1022091D2023091D302DA
:10241000011511052105310509F4F7C04091CF02DE
:10242000463008F4F2C06093FE037093FF0380937C
:102430000004909301040093FA031093FB0320938C
:10244000FC033093FD030091CB021091CC0220914C
:10245000CD023091CE020093F6031093F703209340
:10246000F8033093F9030E9414189F7720E836E9A7
:1024700048E15BE40E94971A25E33AEF4EE85CE3FB
:102480000E9473182BED3FE049EC5FE30E94B919FD
:102490006B017C010E94091BDC01CB018096A11D10
:1024A000B11D81349105A105B10508F0A1C02BED46
:1024B0003FE049E450E4C701B6010E94661B1816CC
:1024C0005CF42BED3FE049EC50E4C701B6010E94FB
:1024D000B8196B017C01EBCF2BED3FE049E450ECE8
:1024E000C701B6010E940D1887FF0BC02BED3FE01E
:1024F00049EC50E4C701B6010E94B9196B017C0197
:10250000EBCF2BED3FE049EC5FE3C701B6010E9442
:10251000661B18167CF42BED3FE049EC5FE3C70126
:10252000B6010E94B8199B01AC016BED7FE089EC0C
:102530009FE318C02BED3FE049EC5FEBC701B6010C
:102540000E940D1887FF12C02BED3FE049EC5FE3BE
:10255000C701B6010E94B9199B01AC016BED7FE088
:1025600089EC9FEB0E94B8196B017C01A7019601D1
:10257000C701B6010E9473184B015C019B01AC01BD
:10258000C701B6010E9473182B013C0120E030E026
:10259000A901C501B4010E94731822E937EE41E494
:1025A00059E30E94B8199B01AC01C501B4010E9416
:1025B000731827E930E348E05CE30E94B9199B01F6
:1025C000AC01C501B4010E94731825E138EA4AE262
:1025D0005EE30E94B8199B01AC01C301B2010E94E5
:1025E00073189B01AC01C701B6010E94B91903C061
:1025F00060E070E0CB01609303017093040180936D
:10260000050190930601109207016091C502709137
:10261000C602072E000C880B990B0E9414189B0110
:10262000AC016091C7027091C8028091C90290917B
:10263000CA020E94B81920E030E044EB53E40E9443
:10264000B9196B017C0120E030E0A9010E940D184E
:1026500087FD09C0C092F203D092F303E092F40325
:10266000F092F50310C020E030E044EB53E4C701E2
:10267000B6010E94B9196093F2037093F30380933B
:10268000F4039093F503C090F203D090F303E0902D
:10269000F403F090F50320E030E044EB53E4C7018D
:1026A000B6010E94661B181684F420E030E044EB6B
:1026B00053E4C701B6010E94B8196093F203709306
:1026C000F3038093F4039093F5036BE872E0CE017B
:1026D00081960E94A104C090F203D090F303E09091
:1026E000F403F090F50320E030E044EB51E4C7013F
:1026F000B6010E940D1818161CF065E772E00CC0B8
:1027000020E030E047E852E4C701B6010E940D180E
:1027100018163CF069E772E0CE0181960E946504CC
:1027200059C020E030E041EE52E4C701B6010E94FA
:102730000D1818161CF06DE772E0EECF20E030E8BF
:102740004DE153E4C701B6010E940D1818161CF0A4
:1027500061E872E0E1CF20E030E84AE453E4C701E9
:10276000B6010E940D1818161CF065E672E0D4CF71
:1027700020E030E847E753E4C701B6010E940D1896
:1027800018161CF069E672E0C7CF20E030E442E999
:1027900053E4C701B6010E940D1818161CF06DE62F
:1027A00072E0BACF20E030EC48EA53E4C701B6014A
:1027B0000E940D1818161CF061E772E0ADCF20E002
:1027C00030E044EB53E4C701B6010E940D1818161F
:1027D0000CF093CF60910304709104048091050480
:1027E0009091060420EB36E340E050E00E94871908
:1027F000672B682B692B09F08BC06BE872E0CE0168
:102800004B960E94A10426E636E646E650E4609127
:10281000C1027091C2028091C3029091C4020E94D1
:1028200073184B015C01BE01655E7F4FCE0145967A
:102830000E9498044DA15EA169A17AA1CE0145969E
:102840000E94B403811104C0CE0145960E94E203A8
:102850006AE872E0CE0145960E942B046C01AE013D
:102860004F5F5F4F7A018A0122E044E0C501B40165
:102870000E94FF14FC0101900020E9F73197AF019D
:10288000481B590BBC01C6010E94B403811103C04F
:10289000C6010E94E2036CE872E0C6010E942B04AC
:1028A000BC01CE014B960E947C04CE0145960E944D
:1028B00093048FE0D7011D928A95E9F70F8D18A137
:1028C0000115110579F00E30110510F00EE010E041
:1028D0006B8D7C8DA801C7010E94F81DF701E00FE8
:1028E000F11F108281E08093DA0200ED17E020E012
:1028F00030E00093DB021093DC022093DD02309382
:10290000DE02C7010E94F108CE014B960E9493049B
:10291000CE0181960E9493040E94D6020C94E10A93
:1029200083E592E09093DA058093D90580916F005A
:102930008B7F80936F0080916F008F7D80936F00FD
:102940008091950280939602809194028111FCCF30
:1029500080916F008D7F80936F000895E2E3F5E032
:102960001382128288EE93E0A0E0B0E08483958326
:10297000A683B78321E432E03183208325EC30E065
:102980003587248724EC30E03787268720EC30E039
:10299000318B208B21EC30E0338B228B22EC30E02A
:1029A000358B248B26EC30E0378B268B118E128EE4
:1029B000138E148EE9EDF5E01382128284839583E1
:1029C000A683B78383E592E0918380838091080199
:1029D000909109019093D8058093D7058091D305F4
:1029E0009091D405A091D505B091D6058093CF05DF
:1029F0009093D005A093D105B093D2050895EF929E
:102A00000F931F93CF93DF93E80147FD02C034E09B
:102A100001C034E1E42F440FFF0BF7FF03C0F19531
:102A2000E195F109E32E022F2E2FAE010E9497159A
:102A3000CE01DF91CF911F910F91EF900895FC018E
:102A400088279927E89421912032E9F3293010F062
:102A50002E30C8F32B3241F02D3239F4689404C083
:102A60000E945315820F911D219120532A30C0F3EB
:102A70001EF4909581959F4F0895FB01DC01059010
:102A80000D920020E1F70895BB272A3051F49923D5
:102A900042F4BDE290958095709561957F4F8F4F80
:102AA0009F4F0C945C157AE0979F902D879F802D07
:102AB000910D11240895BB27FA01A62F6217710505
:102AC00081059105330B30FB66F0AA27660F771F4F
:102AD000881F991FAA1FA21710F0A21B63953850D8
:102AE000A9F7A05DAA3308F0A95DA19336F7B1114B
:102AF000B1931082CA010C94FD17BB27FB01552727
:102B0000AA27880F991FAA1FA41710F0A41B83954A
:102B10005051B9F7A05DAA3308F0A95DA1930097C1
:102B200079F7B111B1931192CB010C94FD174F922B
:102B30005F926F927F929F92AF92BF92CF92DF92FD
:102B4000EF92FF920F931F93CF93DF93CDB7DEB732
:102B500029970FB6F894DEBF0FBECDBF6A01122FC2
:102B6000B02E2BE3201720F0FF24F394F00E02C0C8
:102B7000BCE3FB2E0F2D27E0AE014F5F5F4F0E949D
:102B80002517AC018981982F9970913031F0E1FCC3
:102B900006C0E0FE06C090E205C09DE203C09BE2D5
:102BA00001C090E0EE2DE07183FF3CC0911102C0A6
:102BB00083E001C084E0811718F4212F281B01C095
:102BC00020E0E1110BC0F601822F30E2882319F0DA
:102BD00031938150FBCFC20ED11C20E0992329F004
:102BE000D6019C93F60131966F01C6010396E2FE71
:102BF0000AC03EE4D6013C9341E411964C931197F0
:102C000012963C9306C03EE6F601308341E64183CE
:102C10003283FC01322F40E2332309F442C0419356
:102C20003150FACF82FF44C0911102C083E001C04D
:102C300084E0811718F4212F281B01C020E0E11146
:102C40000BC0F601822F30E2882319F031938150B6
:102C5000FBCFC20ED11C20E0992329F0D6019C9312
:102C6000F60131966F01C6010396E2FE0BC039E40E
:102C7000D6013C933EE411963C93119736E41296AC
:102C80003C9307C039E6F60130833EE6318336E6F1
:102C90003283FC01322F40E2332319F0419331504B
:102CA000FBCFFC01E20FF11D10828EEF9FEFB7C04A
:102CB000F1E0911101C0F0E06F2F70E014161506DD
:102CC00024F49A012F5F3F4F02C021E030E0260F2D
:102CD000371FBB2029F06B2D70E06F5F7F4F02C064
:102CE00060E070E0260F371F612F70E0261737076E
:102CF0001CF4121B212F01C020E03E2D387159F425
:102D0000D601322F60E2332319F06D933150FBCF9F
:102D1000C20ED11C20E0FF2331F0D6019C93B601F6
:102D20006F5F7F4F6B01E1110BC0F601922F30E313
:102D3000992319F031939150FBCFC20ED11C20E0A2
:102D40009F2D940F3A81782F7071A72E84FF03C0B6
:102D5000313309F49150191624F4993018F098E0A1
:102D600001C091E0E42F852F57FF02C0E0E080E032
:102D70006E2F782FE0E0F0E0AEE29A2E3A01691A69
:102D800071082A01461A570A0B2D10E0119501957A
:102D900011096F3F8FEF780729F4D6019C92C60185
:102DA00001966C014617570784F0661677066CF497
:102DB0007F01E40CF51CA1E0B0E0AC0FBD1FEA0EF2
:102DC000FB1ED7011196BC9002C090E3B92E615052
:102DD00071093196C60101967C016017710724F0D4
:102DE000D601BC926C01D5CF6417750741F4363318
:102DF00020F4353321F4A11002C081E3B82EF6018E
:102E0000B082F701822F90E2882319F091938150CC
:102E1000FBCFF701E20FF11D108280E090E02996D0
:102E20000FB6F894DEBF0FBECDBFDF91CF911F91DB
:102E30000F91FF90EF90DF90CF90BF90AF909F9059
:102E40007F906F905F904F900895283008F027E0B2
:102E50003327DA01990F311D87FD916000966105D6
:102E6000710539F432602E5F3D9330E32A95E1F726
:102E700008959F3F30F080387105610509F03C5F8F
:102E80003C5F3D93913008F08068911DDF93CF93B4
:102E90001F930F93FF92EF92192F987F9695E92F2A
:102EA00096959695E90FFF27EC5FFE4F99273327FC
:102EB000EE24FF24A701E70105900894079428F465
:102EC000360FE71EF81E491F511D660F771F881F1A
:102ED000991F0694A1F70590079428F4E70EF81EB1
:102EE000491F561FC11D770F881F991F661F069423
:102EF000A1F70590079428F4F80E491F561FC71F25
:102F0000D11D880F991F661F771F0694A1F70590A2
:102F1000079420F4490F561FC71FD81F990F661F2B
:102F2000771F881F0694A9F784911095177041F0B8
:102F3000D695C79557954795F794E7941A95C1F795
:102F4000EAEAF0E0689415901591359165919591B4
:102F500005907FE27395E118F10A430B560BC90BFC
:102F6000D009C0F7E10CF11E431F561FC91FD01D29
:102F70007EF4703311F48A95E6CFE894015030F076
:102F8000080F0AF40027021708F4202F2395022FB8
:102F90007A3328F079E37D932A95E9F710C07D9381
:102FA0002A9589F6069497956795379517951794FE
:102FB000E118F10A430B560BC90BD00998F0239581
:102FC0007E9173957A3308F070E37C932013B8F701
:102FD0007E9170617D9330F0839571E37D9370E312
:102FE0002A95E1F71124EF90FF900F911F91CF9157
:102FF000DF91992787FD90950895DC01FC01672FEB
:1030000071917723E1F7329704C07C916D937083BF
:103010006291AE17BF07C8F308950E944F1808F4D5
:1030200081E00895E89409C097FB3EF4909580955F
:10303000709561957F4F8F4F9F4F9923A9F0F92F7E
:1030400096E9BB279395F695879577956795B795FC
:10305000F111F8CFFAF4BB0F11F460FF1BC06F5FE2
:103060007F4F8F4F9F4F16C0882311F096E911C0F4
:10307000772321F09EE8872F762F05C0662371F015
:1030800096E8862F70E060E02AF09A95660F771F29
:10309000881FDAF7880F9695879597F90895990F05
:1030A0000008550FAA0BE0E8FEEF16161706E80712
:1030B000F907C0F012161306E407F50798F0621B33
:1030C000730B840B950B39F40A2661F0232B242B08
:1030D000252B21F408950A2609F4A140A6958FEF27
:1030E000811D811D08950E9486180C94F7180E9476
:1030F000E91838F00E94F01820F0952311F00C9494
:10310000E0180C94E61811240C942B190E9408194D
:1031100070F3959FC1F3950F50E0551F629FF0012A
:10312000729FBB27F00DB11D639FAA27F00DB11D43
:10313000AA1F649F6627B00DA11D661F829F2227CC
:10314000B00DA11D621F739FB00DA11D621F839F53
:10315000A00D611D221F749F3327A00D611D231F29
:10316000849F600D211D822F762F6A2F11249F5777
:1031700050409AF0F1F088234AF0EE0FFF1FBB1F7A
:10318000661F771F881F91505040A9F79E3F510539
:1031900080F00C94E0180C942B195F3FE4F3983EF8
:1031A000D4F3869577956795B795F795E7959F5FE3
:1031B000C1F7FE2B880F911D9695879597F9089575
:1031C00097F99F6780E870E060E008959FEF80ECDA
:1031D000089500240A94161617061806090608957D
:1031E00000240A9412161306140605060895092EE3
:1031F0000394000C11F4882352F0BB0F40F4BF2B52
:1032000011F460FF04C06F5F7F4F8F4F9F4F089591
:1032100057FD9058440F551F59F05F3F71F0479587
:10322000880F97FB991F61F09F3F79F0879508956C
:10323000121613061406551FF2CF4695F1DF08C08B
:10324000161617061806991FF1CF869571056105A8
:1032500008940895E894BB2766277727CB0197F950
:103260000895052E97FB1EF400940E94481957FDFF
:1032700007D00E94871907FC03D04EF40C9448191C
:1032800050954095309521953F4F4F4F5F4F089592
:1032900090958095709561957F4F8F4F9F4F0895C2
:1032A0002F923F924F925F926F927F928F929F9256
:1032B000AF92BF92CF92DF92EF92FF920F931F9344
:1032C000CF93DF93CDB7DEB7CA1BDB0B0FB6F894F5
:1032D000DEBF0FBECDBF09942A88398848885F8435
:1032E0006E847D848C849B84AA84B984C884DF80A6
:1032F000EE80FD800C811B81AA81B981CE0FD11D8A
:103300000FB6F894DEBF0FBECDBFED010895A1E268
:103310001A2EAA1BBB1BFD010DC0AA1FBB1FEE1F4F
:10332000FF1FA217B307E407F50720F0A21BB30B9A
:10333000E40BF50B661F771F881F991F1A9469F716
:1033400060957095809590959B01AC01BD01CF0172
:103350000895A29FB001B39FC001A39F700D811D6E
:103360001124911DB29F700D811D1124911D08958E
:103370005058BB27AA270E94D0190C94F7180E9416
:10338000E91838F00E94F01820F039F49F3F19F442
:1033900026F40C94E6180EF4E095E7FB0C94E01884
:1033A000E92F0E94081958F3BA17620773078407B8
:1033B000950720F079F4A6F50C942A190EF4E095FF
:1033C0000B2EBA2FA02D0B01B90190010C01CA01DF
:1033D000A0011124FF27591B99F0593F50F4503E8A
:1033E00068F11A16F040A22F232F342F4427585F7C
:1033F000F3CF469537952795A795F0405395C9F794
:103400007EF41F16BA0B620B730B840BBAF091504B
:10341000A1F0FF0FBB1F661F771F881FC2F70EC0EA
:10342000BA0F621F731F841F48F4879577956795BD
:10343000B795F7959E3F08F0B0CF9395880F08F0A9
:103440009927EE0F9795879508950E94E91860F0E7
:1034500080E891E009F49EEF0E94F01828F040E81F
:1034600051E071F45EEF0CC00C94E6180C942A192C
:10347000E92FE0780E94081940F3092E052AB1F3DC
:10348000261737074807590738F00E2E07F8E025AA
:1034900069F0E025E0640AC0EF6307F8009407FADA
:1034A000DB01B9019D01DC01CA01AD01EF930E946E
:1034B000AE1A0E94F7180E94681A5F91552339F0DE
:1034C0002BED3FE049E450FD49EC0C94B919089507
:1034D000DF93DD27B92FBF7740E85FE316161706A5
:1034E00048075B0718F4D92F0E946B1B9F938F939B
:1034F0007F936F930E94B91BECE7F0E00E943F1BA3
:103500000E94F7182F913F914F915F910E9486186A
:10351000DD2351F09058A2EA2AED3FE049EC5FE349
:10352000D0785D270E94D019DF910C94F7180E9483
:10353000AB1A0C94F7180E94F01858F00E94E91882
:1035400040F029F45F3F29F00C94E01851110C94DD
:103550002B190C94E6180E94081968F39923B1F30B
:10356000552391F3951B550BBB27AA2762177307A9
:10357000840738F09F5F5F4F220F331F441FAA1F3D
:10358000A9F335D00E2E3AF0E0E832D091505040F9
:10359000E695001CCAF72BD0FE2F29D0660F771FA7
:1035A000881FBB1F261737074807AB07B0E809F08D
:1035B000BB0B802DBF01FF2793585F4F3AF09E3F12
:1035C000510578F00C94E0180C942B195F3FE4F34C
:1035D000983ED4F3869577956795B795F7959F5F55
:1035E000C9F7880F911D9695879597F90895E1E0A1
:1035F000660F771F881FBB1F621773078407BA0700
:1036000020F0621B730B840BBA0BEE1F88F7E0955A
:1036100008950E94101B6894B1110C942B19089501
:103620000E94101988F09F5798F0B92F9927B75129
:10363000B0F0E1F0660F771F881F991F1AF0BA9556
:10364000C9F714C0B13091F00E942A19B1E0089571
:103650000C942A19672F782F8827B85F39F0B93F63
:10366000CCF3869577956795B395D9F73EF4909509
:103670008095709561957F4F8F4F9F4F0895DF9391
:10368000CF931F930F93FF92EF92DF927B018C01F8
:10369000689406C0DA2EEF010E948618FE01E894B5
:1036A000A5912591359145915591A6F3EF010E9481
:1036B000D019FE019701A801DA9469F7DF90EF9025
:1036C000FF900F911F91CF91DF9108950E944F18A5
:1036D00008F48FEF08959B01AC0160E070E080E892
:1036E0009FE30C94971A19F416F40C94E6180C94B2
:1036F000BD1B0E941019B8F39923C9F3B6F39F5765
:10370000550B87FF0E94CB1B0024A0E640EA9001E6
:1037100080585695979528F4805C660F771F881F10
:1037200020F026173707480730F4621B730B840B11
:10373000202931294A2BA695179407942025312555
:103740004A2758F7660F771F881F20F0261737077C
:10375000480730F4620B730B840B200D311D411DA3
:10376000A09581F7B901842F9158880F9695879578
:1037700008959B01AC010C9473189F3F31F0915058
:1037800020F4879577956795B795880F911D969545
:10379000879597F9089591505040660F771F881FBD
:1037A000D2F70895AA1BBB1B51E107C0AA1FBB1F7C
:1037B000A617B70710F0A61BB70B881F991F5A95BD
:1037C000A9F780959095BC01CD010895EE0FFF1FDC
:1037D0000590F491E02D0994CF93DF938230910509
:1037E00010F482E090E0E091E705F091E80520E038
:1037F00030E0C0E0D0E0309711F1408151814817AE
:103800005907C0F04817590761F4828193812097C6
:1038100019F09B838A832BC09093E8058093E7057A
:1038200026C02115310519F04217530718F49A01E3
:10383000BE01DF01EF010280F381E02DDCCF211515
:10384000310509F1281B390B2430310590F412960B
:103850008D919C9113976115710521F0FB01938364
:10386000828304C09093E8058093E705FD013296BA
:1038700044C0FD01E20FF31F81939193225031095F
:103880002D933C933AC02091E5053091E605232B1A
:1038900041F420910C0130910D013093E605209305
:1038A000E50520910A0130910B012115310541F404
:1038B0002DB73EB740910E0150910F01241B350BDF
:1038C000E091E505F091E605E217F307A0F42E1B61
:1038D0003F0B2817390778F0AC014E5F5F4F241774
:1038E000350748F04E0F5F1F5093E6054093E505FE
:1038F0008193919302C0E0E0F0E0CF01DF91CF919E
:1039000008950F931F93CF93DF93009709F48CC012
:10391000FC013297138212820091E7051091E805AD
:103920000115110581F420813181820F931F2091AF
:10393000E5053091E6052817390779F5F093E60596
:10394000E093E50571C0D80140E050E0AE17BF0735
:1039500050F412962D913C911397AD01211531052C
:1039600009F1D901F3CF9D01DA013383228360810C
:103970007181860F971F8217930769F4EC012881E4
:103980003981260F371F2E5F3F4F318320838A8175
:103990009B8193838283452B29F4F093E805E09380
:1039A000E70542C01396FC93EE931297ED014991FF
:1039B00059919E01240F351FE217F30771F480819E
:1039C0009181840F951F029611969C938E9382810C
:1039D000938113969C938E931297E0E0F0E0D801C8
:1039E00012968D919C911397009719F0F8018C0114
:1039F000F6CF8D919C9198012E5F3F4F820F931FC0
:103A00002091E5053091E6052817390769F43097CC
:103A100029F41092E8051092E70502C01382128281
:103A20001093E6050093E505DF91CF911F910F916B
:103A30000895A0E0B0E0EFE1FDE10C945419EC0131
:103A4000009721F4CB010E94EC1BB8C0FC01E60FEB
:103A5000F71F9C0122503109E217F30708F4ACC0AC
:103A6000D9010D911C91119706171707B0F0053079
:103A7000110508F49FC0C80104978617970708F43A
:103A800099C002501109061B170B019311936D93F6
:103A90007C93CF010E94811C8DC05B01A01AB10AEA
:103AA0004C01800E911EA091E705B091E80540E021
:103AB00050E0E12CF12C109709F44AC0A815B90583
:103AC000D1F56D907C901197630182E0C80ED11CF6
:103AD000CA14DB0480F1A3014A195B096A0182E080
:103AE000C80ED11C1296BC9012971396AC91B5E0FB
:103AF000CB16D10440F0B282A38351834083D90115
:103B00006D937C930AC00E5F1F4FC301800F911FFE
:103B1000F90191838083EB2DFA2FE114F10431F048
:103B2000D7011396FC93EE93129744C0F093E805E7
:103B3000E093E7053FC08D919C9111974817590775
:103B400008F4AC017D0112960D90BC91A02DB3CF6D
:103B50008091E5059091E60588159905E1F44617F1
:103B60005707C8F480910A0190910B01009741F426
:103B70008DB79EB740910E0150910F01841B950B9C
:103B8000E817F907C8F4F093E605E093E505F901B5
:103B9000718360830FC0CB010E94EC1B7C010097F6
:103BA00059F0A801BE010E94E81DCE010E94811CAF
:103BB000C70104C0CE0102C080E090E0CDB7DEB7FF
:103BC000EEE00C94701981E090E0F8940C94071EDC
:103BD000FB01DC0102C001900D9241505040D8F72A
:103BE0000895FB01DC0101900D920020E1F708959A
:103BF000FB01DC014150504048F001900D92002043
:103C0000C9F701C01D9241505040E0F7089511E0FE
:103C1000CFEAD1E004C0FE010E94E61B2196C03B22
:083C2000D107C9F7F894FFCFAA
:103C2800EA00010000803F01A1090000E9058000C9
:103C38004641494C534146450000000000000045FC
:103C48004D455247454E435900000000000043418E
:103C58004C4942524154494E4700000000327C8989
:103C680000EDD9687700000059000000000000004E
:103C780000D69FDCA81817AA90437327F6B968EDF9
:103C8800F4DED409FEE61C1C84DDE80B992927D64E
:103C9800DF8D210F036418EFEE1EF0B782820094C7
:103CA8001500347C0000001400988F00000000000C
:103CB800000000000000E7B73F36000000000000E9
:103CC80000AF669ED0380000000000000000000031
:103CD80000000000000000000000000000000000DC
:103CE80000000000000000000000000000000000CC
:103CF80000000086DBD0BC5416131586004E44BD68
:103D08007F6F151590010000000000000000000002
:103D1800000000000000000000000000000000009B
:103D2800000000000000000000000000000000008B
:103D3800000000000000000000000000000000007B
:103D4800000000000000000000000000000000006B
:103D5800000000000000CC31AA2C532E0000000007
:103D6800006D02DA010502B40236021402280200CC
:103D78000000002C03DA01E0022703EF021103FE22
:103D880002E2AC8600E2869100E2869700E2869223
:103D980000E2869800E2869300E2869900E2869027
:103DA80000E286960041002053002000206B6D2F12
:023DB8006800A1
:00000001FF
